{
    "contractName": "AntiWallet",
    "abi": [
        {
            "inputs": [
                {
                    "internalType": "uint256",
                    "name": "start",
                    "type": "uint256"
                }
            ],
            "stateMutability": "nonpayable",
            "type": "constructor"
        },
        {
            "anonymous": false,
            "inputs": [
                {
                    "indexed": true,
                    "internalType": "address",
                    "name": "user",
                    "type": "address"
                },
                {
                    "indexed": false,
                    "internalType": "uint8",
                    "name": "plan",
                    "type": "uint8"
                },
                {
                    "indexed": false,
                    "internalType": "uint256",
                    "name": "percent",
                    "type": "uint256"
                },
                {
                    "indexed": false,
                    "internalType": "uint256",
                    "name": "amount",
                    "type": "uint256"
                },
                {
                    "indexed": false,
                    "internalType": "uint256",
                    "name": "profit",
                    "type": "uint256"
                },
                {
                    "indexed": false,
                    "internalType": "uint256",
                    "name": "start",
                    "type": "uint256"
                },
                {
                    "indexed": false,
                    "internalType": "uint256",
                    "name": "finish",
                    "type": "uint256"
                }
            ],
            "name": "NewDeposit",
            "type": "event"
        },
        {
            "anonymous": false,
            "inputs": [
                {
                    "indexed": false,
                    "internalType": "address",
                    "name": "user",
                    "type": "address"
                }
            ],
            "name": "Newbie",
            "type": "event"
        },
        {
            "anonymous": false,
            "inputs": [
                {
                    "indexed": true,
                    "internalType": "address",
                    "name": "referrer",
                    "type": "address"
                },
                {
                    "indexed": true,
                    "internalType": "address",
                    "name": "referral",
                    "type": "address"
                },
                {
                    "indexed": true,
                    "internalType": "uint256",
                    "name": "level",
                    "type": "uint256"
                },
                {
                    "indexed": false,
                    "internalType": "uint256",
                    "name": "amount",
                    "type": "uint256"
                }
            ],
            "name": "RefBonus",
            "type": "event"
        },
        {
            "anonymous": false,
            "inputs": [
                {
                    "indexed": true,
                    "internalType": "address",
                    "name": "user",
                    "type": "address"
                },
                {
                    "indexed": false,
                    "internalType": "uint256",
                    "name": "amount",
                    "type": "uint256"
                }
            ],
            "name": "Withdrawn",
            "type": "event"
        },
        {
            "inputs": [],
            "name": "INVEST_MAX_AMOUNT",
            "outputs": [
                {
                    "internalType": "uint256",
                    "name": "",
                    "type": "uint256"
                }
            ],
            "stateMutability": "view",
            "type": "function"
        },
        {
            "inputs": [],
            "name": "INVEST_MIN_AMOUNT",
            "outputs": [
                {
                    "internalType": "uint256",
                    "name": "",
                    "type": "uint256"
                }
            ],
            "stateMutability": "view",
            "type": "function"
        },
        {
            "inputs": [],
            "name": "PERCENTS_DIVIDER",
            "outputs": [
                {
                    "internalType": "uint256",
                    "name": "",
                    "type": "uint256"
                }
            ],
            "stateMutability": "view",
            "type": "function"
        },
        {
            "inputs": [],
            "name": "PERCENT_STEP",
            "outputs": [
                {
                    "internalType": "uint256",
                    "name": "",
                    "type": "uint256"
                }
            ],
            "stateMutability": "view",
            "type": "function"
        },
        {
            "inputs": [],
            "name": "PROJECT_FEE",
            "outputs": [
                {
                    "internalType": "uint256",
                    "name": "",
                    "type": "uint256"
                }
            ],
            "stateMutability": "view",
            "type": "function"
        },
        {
            "inputs": [
                {
                    "internalType": "uint256",
                    "name": "",
                    "type": "uint256"
                }
            ],
            "name": "REFERRAL_PERCENTS",
            "outputs": [
                {
                    "internalType": "uint256",
                    "name": "",
                    "type": "uint256"
                }
            ],
            "stateMutability": "view",
            "type": "function"
        },
        {
            "inputs": [],
            "name": "TIME_STEP",
            "outputs": [
                {
                    "internalType": "uint256",
                    "name": "",
                    "type": "uint256"
                }
            ],
            "stateMutability": "view",
            "type": "function"
        },
        {
            "inputs": [],
            "name": "getContractBalance",
            "outputs": [
                {
                    "internalType": "uint256",
                    "name": "",
                    "type": "uint256"
                }
            ],
            "stateMutability": "view",
            "type": "function"
        },
        {
            "inputs": [
                {
                    "internalType": "uint8",
                    "name": "plan",
                    "type": "uint8"
                }
            ],
            "name": "getPercent",
            "outputs": [
                {
                    "internalType": "uint256",
                    "name": "",
                    "type": "uint256"
                }
            ],
            "stateMutability": "view",
            "type": "function"
        },
        {
            "inputs": [
                {
                    "internalType": "uint8",
                    "name": "plan",
                    "type": "uint8"
                }
            ],
            "name": "getPlanInfo",
            "outputs": [
                {
                    "internalType": "uint256",
                    "name": "time",
                    "type": "uint256"
                },
                {
                    "internalType": "uint256",
                    "name": "percent",
                    "type": "uint256"
                },
                {
                    "internalType": "uint256",
                    "name": "reinvest",
                    "type": "uint256"
                }
            ],
            "stateMutability": "view",
            "type": "function"
        },
        {
            "inputs": [
                {
                    "internalType": "uint8",
                    "name": "plan",
                    "type": "uint8"
                }
            ],
            "name": "getReinvest",
            "outputs": [
                {
                    "internalType": "uint256",
                    "name": "reinvest",
                    "type": "uint256"
                }
            ],
            "stateMutability": "view",
            "type": "function"
        },
        {
            "inputs": [
                {
                    "internalType": "uint8",
                    "name": "plan",
                    "type": "uint8"
                },
                {
                    "internalType": "uint256",
                    "name": "deposit",
                    "type": "uint256"
                }
            ],
            "name": "getResult",
            "outputs": [
                {
                    "internalType": "uint256",
                    "name": "percent",
                    "type": "uint256"
                },
                {
                    "internalType": "uint256",
                    "name": "profit",
                    "type": "uint256"
                },
                {
                    "internalType": "uint256",
                    "name": "finish",
                    "type": "uint256"
                },
                {
                    "internalType": "uint256",
                    "name": "reinvest",
                    "type": "uint256"
                }
            ],
            "stateMutability": "view",
            "type": "function"
        },
        {
            "inputs": [
                {
                    "internalType": "address",
                    "name": "userAddress",
                    "type": "address"
                }
            ],
            "name": "getTimer",
            "outputs": [
                {
                    "internalType": "uint256",
                    "name": "",
                    "type": "uint256"
                }
            ],
            "stateMutability": "view",
            "type": "function"
        },
        {
            "inputs": [
                {
                    "internalType": "address",
                    "name": "userAddress",
                    "type": "address"
                }
            ],
            "name": "getUserAmountOfDeposits",
            "outputs": [
                {
                    "internalType": "uint256",
                    "name": "",
                    "type": "uint256"
                }
            ],
            "stateMutability": "view",
            "type": "function"
        },
        {
            "inputs": [
                {
                    "internalType": "address",
                    "name": "userAddress",
                    "type": "address"
                }
            ],
            "name": "getUserAvailable",
            "outputs": [
                {
                    "internalType": "uint256",
                    "name": "",
                    "type": "uint256"
                }
            ],
            "stateMutability": "view",
            "type": "function"
        },
        {
            "inputs": [
                {
                    "internalType": "address",
                    "name": "userAddress",
                    "type": "address"
                }
            ],
            "name": "getUserCheckpoint",
            "outputs": [
                {
                    "internalType": "uint256",
                    "name": "",
                    "type": "uint256"
                }
            ],
            "stateMutability": "view",
            "type": "function"
        },
        {
            "inputs": [
                {
                    "internalType": "address",
                    "name": "userAddress",
                    "type": "address"
                },
                {
                    "internalType": "uint256",
                    "name": "index",
                    "type": "uint256"
                }
            ],
            "name": "getUserDepositInfo",
            "outputs": [
                {
                    "internalType": "uint8",
                    "name": "plan",
                    "type": "uint8"
                },
                {
                    "internalType": "uint256",
                    "name": "percent",
                    "type": "uint256"
                },
                {
                    "internalType": "uint256",
                    "name": "amount",
                    "type": "uint256"
                },
                {
                    "internalType": "uint256",
                    "name": "profit",
                    "type": "uint256"
                },
                {
                    "internalType": "uint256",
                    "name": "start",
                    "type": "uint256"
                },
                {
                    "internalType": "uint256",
                    "name": "finish",
                    "type": "uint256"
                },
                {
                    "internalType": "uint256",
                    "name": "reinvest",
                    "type": "uint256"
                }
            ],
            "stateMutability": "view",
            "type": "function"
        },
        {
            "inputs": [
                {
                    "internalType": "address",
                    "name": "userAddress",
                    "type": "address"
                }
            ],
            "name": "getUserDividends",
            "outputs": [
                {
                    "internalType": "uint256",
                    "name": "",
                    "type": "uint256"
                }
            ],
            "stateMutability": "view",
            "type": "function"
        },
        {
            "inputs": [
                {
                    "internalType": "address",
                    "name": "userAddress",
                    "type": "address"
                }
            ],
            "name": "getUserDownlineCount",
            "outputs": [
                {
                    "internalType": "uint256",
                    "name": "",
                    "type": "uint256"
                }
            ],
            "stateMutability": "view",
            "type": "function"
        },
        {
            "inputs": [
                {
                    "internalType": "address",
                    "name": "userAddress",
                    "type": "address"
                }
            ],
            "name": "getUserReferralBonus",
            "outputs": [
                {
                    "internalType": "uint256",
                    "name": "",
                    "type": "uint256"
                }
            ],
            "stateMutability": "view",
            "type": "function"
        },
        {
            "inputs": [
                {
                    "internalType": "address",
                    "name": "userAddress",
                    "type": "address"
                }
            ],
            "name": "getUserReferralTotalBonus",
            "outputs": [
                {
                    "internalType": "uint256",
                    "name": "",
                    "type": "uint256"
                }
            ],
            "stateMutability": "view",
            "type": "function"
        },
        {
            "inputs": [
                {
                    "internalType": "address",
                    "name": "userAddress",
                    "type": "address"
                }
            ],
            "name": "getUserReferralWithdrawn",
            "outputs": [
                {
                    "internalType": "uint256",
                    "name": "",
                    "type": "uint256"
                }
            ],
            "stateMutability": "view",
            "type": "function"
        },
        {
            "inputs": [
                {
                    "internalType": "address",
                    "name": "userAddress",
                    "type": "address"
                }
            ],
            "name": "getUserReferrer",
            "outputs": [
                {
                    "internalType": "address",
                    "name": "",
                    "type": "address"
                }
            ],
            "stateMutability": "view",
            "type": "function"
        },
        {
            "inputs": [
                {
                    "internalType": "address",
                    "name": "userAddress",
                    "type": "address"
                }
            ],
            "name": "getUserReinvestedAmount",
            "outputs": [
                {
                    "internalType": "uint256",
                    "name": "",
                    "type": "uint256"
                }
            ],
            "stateMutability": "view",
            "type": "function"
        },
        {
            "inputs": [
                {
                    "internalType": "address",
                    "name": "userAddress",
                    "type": "address"
                }
            ],
            "name": "getUserTotalDeposits",
            "outputs": [
                {
                    "internalType": "uint256",
                    "name": "amount",
                    "type": "uint256"
                }
            ],
            "stateMutability": "view",
            "type": "function"
        },
        {
            "inputs": [
                {
                    "internalType": "address",
                    "name": "referrer",
                    "type": "address"
                },
                {
                    "internalType": "uint8",
                    "name": "plan",
                    "type": "uint8"
                }
            ],
            "name": "invest",
            "outputs": [],
            "stateMutability": "payable",
            "type": "function"
        },
        {
            "inputs": [],
            "name": "startUNIX",
            "outputs": [
                {
                    "internalType": "uint256",
                    "name": "",
                    "type": "uint256"
                }
            ],
            "stateMutability": "view",
            "type": "function"
        },
        {
            "inputs": [],
            "name": "totalRefBonus",
            "outputs": [
                {
                    "internalType": "uint256",
                    "name": "",
                    "type": "uint256"
                }
            ],
            "stateMutability": "view",
            "type": "function"
        },
        {
            "inputs": [],
            "name": "totalStaked",
            "outputs": [
                {
                    "internalType": "uint256",
                    "name": "",
                    "type": "uint256"
                }
            ],
            "stateMutability": "view",
            "type": "function"
        },
        {
            "inputs": [],
            "name": "withdraw",
            "outputs": [],
            "stateMutability": "nonpayable",
            "type": "function"
        }
    ],
    "bytecode": "610120604052610fa060809081526107d060a0526103e860c0526101f460e08190526101005262000035906000906005620001ba565b503480156200004357600080fd5b5060405162001e1038038062001e10833981016040819052620000669162000227565b600081116200007457600080fd5b600680546001600160a01b03191633179055600555604080516060808201835260078252614e2060208084018281526175308587018181526003805460018181018355600083815299519183027fc2575a0e9e593c00f959f8c92f12db2869c3395a3b0502d05e2516446f71f85b8181019390935595517fc2575a0e9e593c00f959f8c92f12db2869c3395a3b0502d05e2516446f71f85c8088019190915593517fc2575a0e9e593c00f959f8c92f12db2869c3395a3b0502d05e2516446f71f85d968701558a51808a018c52600f8152614650818901908152818d0196875284548084018655858d52915191850280850192909255518186015594519486019490945589519788018a52601488526142689588019586529887019586528054928301815596879052945195029586019490945551918401919091555191015562000240565b828054828255906000526020600020908101928215620001fe579160200282015b82811115620001fe578251829061ffff16905591602001919060010190620001db565b506200020c92915062000210565b5090565b5b808211156200020c576000815560010162000211565b60006020828403121562000239578081fd5b5051919050565b611bc080620002506000396000f3fe6080604052600436106101cd5760003560e01c806369b11dd5116100f7578063a8aeb6c211610095578063d7ffca9111610064578063d7ffca91146105ab578063dba90698146105e4578063e262113e1461061d578063e85abe091461063857600080fd5b8063a8aeb6c2146104cb578063aecaa63414610501578063c0806b031461053c578063c23412381461059557600080fd5b80637d8cb7a2116100d15780637d8cb7a2146104585780637e3abeea14610474578063817b1cd214610494578063a51b9533146104aa57600080fd5b806369b11dd51461040f5780636bb18556146104255780636f9fb98a1461044557600080fd5b806336144c9a1161016f57806357fc86b41161013e57806357fc86b414610386578063581c5ae61461039c5780635936cf61146103af578063600d20ce146103ef57600080fd5b806336144c9a146102cc5780633ccfd60b1461032057806348c372031461033757806348d44bd11461037057600080fd5b806306903e1c116101ab57806306903e1c146102555780631531f01614610275578063153ab9df1461029557806332bc298c146102b557600080fd5b806301c234a8146101d257806303a93c0c146101fc578063040a772e14610235575b600080fd5b3480156101de57600080fd5b506101e9620186a081565b6040519081526020015b60405180910390f35b34801561020857600080fd5b506101e9610217366004611a29565b6001600160a01b031660009081526004602052604090206003015490565b34801561024157600080fd5b506101e9610250366004611a29565b610672565b34801561026157600080fd5b506101e9610270366004611ab6565b6108ae565b34801561028157600080fd5b506101e9610290366004611a29565b6109a3565b3480156102a157600080fd5b506101e96102b0366004611a29565b6109da565b3480156102c157600080fd5b506101e96201518081565b3480156102d857600080fd5b506103086102e7366004611a29565b6001600160a01b039081166000908152600460205260409020600201541690565b6040516001600160a01b0390911681526020016101f3565b34801561032c57600080fd5b50610335610a0a565b005b34801561034357600080fd5b506101e9610352366004611a29565b6001600160a01b031660009081526004602052604090206005015490565b34801561037c57600080fd5b506101e961138881565b34801561039257600080fd5b506101e96103e881565b6103356103aa366004611a6c565b610eba565b3480156103bb57600080fd5b506103cf6103ca366004611ad0565b611402565b6040805194855260208501939093529183015260608201526080016101f3565b3480156103fb57600080fd5b506101e961040a366004611a9e565b6114ba565b34801561041b57600080fd5b506101e960025481565b34801561043157600080fd5b506101e9610440366004611a29565b6114db565b34801561045157600080fd5b50476101e9565b34801561046457600080fd5b506101e9678ac7230489e8000081565b34801561048057600080fd5b506101e961048f366004611a29565b611508565b3480156104a057600080fd5b506101e960015481565b3480156104b657600080fd5b506101e96104c5366004611ab6565b50600090565b3480156104d757600080fd5b506101e96104e6366004611a29565b6001600160a01b031660009081526004602052604090205490565b34801561050d57600080fd5b5061052161051c366004611ab6565b61159e565b604080519384526020840192909252908201526060016101f3565b34801561054857600080fd5b5061055c610557366004611a43565b611652565b6040805160ff90981688526020880196909652948601939093526060850191909152608084015260a083015260c082015260e0016101f3565b3480156105a157600080fd5b506101e960055481565b3480156105b757600080fd5b506101e96105c6366004611a29565b6001600160a01b031660009081526004602052604090206001015490565b3480156105f057600080fd5b506101e96105ff366004611a29565b6001600160a01b031660009081526004602052604090206006015490565b34801561062957600080fd5b506101e966b1a2bc2ec5000081565b34801561064457600080fd5b506101e9610653366004611a29565b6001600160a01b03166000908152600460208190526040909120015490565b6001600160a01b038116600090815260046020526040812081805b82548110156108a6578260000181815481106106b957634e487b7160e01b600052603260045260246000fd5b90600052602060002090600702016005015483600101541015610894576000610760620186a061075a86600001858154811061070557634e487b7160e01b600052603260045260246000fd5b90600052602060002090600702016001015487600001868154811061073a57634e487b7160e01b600052603260045260246000fd5b90600052602060002090600702016002015461180690919063ffffffff16565b90611885565b90506000846001015485600001848154811061078c57634e487b7160e01b600052603260045260246000fd5b906000526020600020906007020160040154116107ad5784600101546107e3565b8460000183815481106107d057634e487b7160e01b600052603260045260246000fd5b9060005260206000209060070201600401545b905060004286600001858154811061080b57634e487b7160e01b600052603260045260246000fd5b90600052602060002090600702016005015410610828574261085e565b85600001848154811061084b57634e487b7160e01b600052603260045260246000fd5b9060005260206000209060070201600501545b9050808210156108905761088d6108866201518061075a61087f85876118ea565b8790611806565b8690611948565b94505b5050505b8061089e81611b59565b91505061068d565b509392505050565b6000806108cd6201518061075a600554426118ea90919063ffffffff16565b905060ff83166109435760198111156108e95750600092915050565b61093c6108f8826107d0611806565b60038560ff168154811061091c57634e487b7160e01b600052603260045260246000fd5b9060005260206000209060030201600201546118ea90919063ffffffff16565b9392505050565b8260ff166001141561097057601e8111156109615750600092915050565b61093c6108f8826103e8611806565b8260ff166002141561099d57602881111561098e5750600092915050565b61093c6108f8826101f4611806565b50919050565b60006109d4620151806109ce846001600160a01b031660009081526004602052604090206001015490565b90611948565b92915050565b60006109d46109e883610672565b6001600160a01b038416600090815260046020819052604090912001546109ce565b336000818152600460205260409020904290610a25906109a3565b10610a775760405162461bcd60e51b815260206004820181905260248201527f7769746864726177616c7320617661696c61626c65206f6e636520612064617960448201526064015b60405180910390fd5b60008060005b8354811015610d5757836000018181548110610aa957634e487b7160e01b600052603260045260246000fd5b90600052602060002090600702016005015484600101541015610d45576000610b2a620186a061075a876000018581548110610af557634e487b7160e01b600052603260045260246000fd5b90600052602060002090600702016001015488600001868154811061073a57634e487b7160e01b600052603260045260246000fd5b905060008560010154866000018481548110610b5657634e487b7160e01b600052603260045260246000fd5b90600052602060002090600702016004015411610b77578560010154610bad565b856000018381548110610b9a57634e487b7160e01b600052603260045260246000fd5b9060005260206000209060070201600401545b9050600042876000018581548110610bd557634e487b7160e01b600052603260045260246000fd5b90600052602060002090600702016005015410610bf25742610c28565b866000018481548110610c1557634e487b7160e01b600052603260045260246000fd5b9060005260206000209060070201600501545b905080821015610d41576000610c486201518061075a61087f85876118ea565b90506000610c9a620186a061075a8b6000018981548110610c7957634e487b7160e01b600052603260045260246000fd5b9060005260206000209060070201600601548561180690919063ffffffff16565b9050610ce3818a6000018881548110610cc357634e487b7160e01b600052603260045260246000fd5b90600052602060002090600702016002015461194890919063ffffffff16565b896000018781548110610d0657634e487b7160e01b600052603260045260246000fd5b6000918252602090912060026007909202010155610d2482826118ea565b9150610d308883611948565b9750610d3c8782611948565b965050505b5050505b80610d4f81611b59565b915050610a7d565b5033600090815260046020819052604090912001548015610d865760006004850155610d838382611948565b92505b6006840154610d959083611948565b600685015582610ddf5760405162461bcd60e51b81526020600482015260156024820152745573657220686173206e6f206469766964656e647360581b6044820152606401610a6e565b4783811015610dec578093505b426001860155604051600090339086908381818185875af1925050503d8060008114610e34576040519150601f19603f3d011682016040523d82523d6000602084013e610e39565b606091505b5050905080610e7d5760405162461bcd60e51b815260206004820152601060248201526f2a3930b739b332b9103330b4b632b21760811b6044820152606401610a6e565b60405185815233907f7084f5476618d8e60b11ef0d7d3f06914655adb8793e28ff7f018d4c76d505d59060200160405180910390a2505050505050565b600554421015610ef95760405162461bcd60e51b815260206004820152600a60248201526909cdee84098c2eadcc6d60b31b6044820152606401610a6e565b66b1a2bc2ec50000341015610f0d57600080fd5b678ac7230489e80000341115610f2257600080fd5b60038160ff1610610f645760405162461bcd60e51b815260206004820152600c60248201526b24b73b30b634b210383630b760a11b6044820152606401610a6e565b610f6d346119a7565b33600090815260046020526040902060028101546001600160a01b03166110f9576001600160a01b03831660009081526004602052604090205415801590610fbe57506001600160a01b0383163314155b15610fe5576002810180546001600160a01b0319166001600160a01b03851617905561100a565b6006546002820180546001600160a01b0319166001600160a01b039092169190911790555b60028101546001600160a01b031660005b60058110156110f6576001600160a01b038216156110df576001600160a01b03821660009081526004602052604090206003015461105a906001611948565b6001600160a01b0380841660009081526004602052604090206003810192909255600290910154166110b9576006546001600160a01b03838116600090815260046020526040902060020180546001600160a01b031916919092161790555b6001600160a01b03918216600090815260046020526040902060020154909116906110e4565b6110f6565b806110ee81611b59565b91505061101b565b50505b60028101546001600160a01b03161561126e5760028101546001600160a01b031660005b600581101561126b576001600160a01b0382161561125457600061117c620186a061075a6000858154811061116257634e487b7160e01b600052603260045260246000fd5b90600052602060002001543461180690919063ffffffff16565b6001600160a01b038416600090815260046020819052604090912001549091506111a69082611948565b6001600160a01b038416600090815260046020819052604090912090810191909155600501546111d69082611948565b6001600160a01b038416600081815260046020908152604091829020600501939093555183815284923392917fd41f7e766eebcc7ff42b11ac8691bdf864db4afc0c55e71d629d54edce460d98910160405180910390a4506001600160a01b0391821660009081526004602052604090206002015490911690611259565b61126b565b8061126381611b59565b91505061111d565b50505b80546112ae574260018201556040513381527f9fd565cd14c3c391679eb0cad12a14dcf7534e9d3462bcb9b67a098a9bbbc24a9060200160405180910390a15b6000806000806112be8634611402565b9350935093509350846000016040518060e001604052808860ff16815260200186815260200134815260200185815260200142815260200184815260200183815250908060018154018082558091505060019003906000526020600020906007020160009091909190915060008201518160000160006101000a81548160ff021916908360ff1602179055506020820151816001015560408201518160020155606082015181600301556080820151816004015560a0820151816005015560c08201518160060155505061139d3460015461194890919063ffffffff16565b6001556040805160ff881681526020810186905234818301526060810185905242608082015260a08101849052905133917f84e02daa69bdb087c9fe8d3041abca495512cb14e723070f6d1d4efface82e5d919081900360c00190a250505050505050565b6000808080611410866108ae565b905061146160038760ff168154811061143957634e487b7160e01b600052603260045260246000fd5b600091825260209091206003909102015461145b620186a061075a8989611806565b90611806565b92506114af6114a86201518060038960ff168154811061149157634e487b7160e01b600052603260045260246000fd5b600091825260209091206003909102015490611806565b4290611948565b915092959194509250565b600081815481106114ca57600080fd5b600091825260209091200154905081565b6001600160a01b03811660009081526004602081905260408220908101546005909101546109d4916118ea565b6000805b6001600160a01b03831660009081526004602052604090205481101561099d576001600160a01b0383166000908152600460205260409020805461158a91908390811061156957634e487b7160e01b600052603260045260246000fd5b9060005260206000209060070201600201548361194890919063ffffffff16565b91508061159681611b59565b91505061150c565b600080600060038460ff16815481106115c757634e487b7160e01b600052603260045260246000fd5b906000526020600020906003020160000154925060038460ff16815481106115ff57634e487b7160e01b600052603260045260246000fd5b906000526020600020906003020160010154915060038460ff168154811061163757634e487b7160e01b600052603260045260246000fd5b90600052602060002090600302016002015490509193909250565b6001600160a01b0382166000908152600460205260408120805482918291829182918291829181908a90811061169857634e487b7160e01b600052603260045260246000fd5b6000918252602090912060079091020154815460ff909116985081908a9081106116d257634e487b7160e01b600052603260045260246000fd5b906000526020600020906007020160010154965080600001898154811061170957634e487b7160e01b600052603260045260246000fd5b906000526020600020906007020160020154955080600001898154811061174057634e487b7160e01b600052603260045260246000fd5b906000526020600020906007020160030154945080600001898154811061177757634e487b7160e01b600052603260045260246000fd5b90600052602060002090600702016004015493508060000189815481106117ae57634e487b7160e01b600052603260045260246000fd5b90600052602060002090600702016005015492508060000189815481106117e557634e487b7160e01b600052603260045260246000fd5b90600052602060002090600702016006015491505092959891949750929550565b600082611815575060006109d4565b60006118218385611b23565b90508261182e8583611b03565b1461093c5760405162461bcd60e51b815260206004820152602160248201527f536166654d6174683a206d756c7469706c69636174696f6e206f766572666c6f6044820152607760f81b6064820152608401610a6e565b60008082116118d65760405162461bcd60e51b815260206004820152601a60248201527f536166654d6174683a206469766973696f6e206279207a65726f0000000000006044820152606401610a6e565b60006118e28385611b03565b949350505050565b60008282111561193c5760405162461bcd60e51b815260206004820152601e60248201527f536166654d6174683a207375627472616374696f6e206f766572666c6f7700006044820152606401610a6e565b60006118e28385611b42565b6000806119558385611aeb565b90508381101561093c5760405162461bcd60e51b815260206004820152601b60248201527f536166654d6174683a206164646974696f6e206f766572666c6f7700000000006044820152606401610a6e565b60006119bc620186a061075a84611388611806565b6006546040519192506001600160a01b03169082156108fc029083906000818181858888f193505050501580156119f7573d6000803e3d6000fd5b505050565b80356001600160a01b0381168114611a1357600080fd5b919050565b803560ff81168114611a1357600080fd5b600060208284031215611a3a578081fd5b61093c826119fc565b60008060408385031215611a55578081fd5b611a5e836119fc565b946020939093013593505050565b60008060408385031215611a7e578182fd5b611a87836119fc565b9150611a9560208401611a18565b90509250929050565b600060208284031215611aaf578081fd5b5035919050565b600060208284031215611ac7578081fd5b61093c82611a18565b60008060408385031215611ae2578182fd5b611a5e83611a18565b60008219821115611afe57611afe611b74565b500190565b600082611b1e57634e487b7160e01b81526012600452602481fd5b500490565b6000816000190483118215151615611b3d57611b3d611b74565b500290565b600082821015611b5457611b54611b74565b500390565b6000600019821415611b6d57611b6d611b74565b5060010190565b634e487b7160e01b600052601160045260246000fdfea26469706673582212200ae4dd58f9bdc8a7350920eadbf439ea5216e03af61df08d5f7af7f8450497b464736f6c63430008040033",
    "sourcePath": "/home/madim/Desktop/proyectos/BNBHold/contracts/AntiWallet.sol",
    "compiler": {
        "name": "solc",
        "version": "0.8.4+commit.c7e474f2"
    },
    "functionHashes": {
        "INVEST_MAX_AMOUNT()": "7d8cb7a2",
        "INVEST_MIN_AMOUNT()": "e262113e",
        "PERCENTS_DIVIDER()": "01c234a8",
        "PERCENT_STEP()": "57fc86b4",
        "PROJECT_FEE()": "48d44bd1",
        "REFERRAL_PERCENTS(uint256)": "600d20ce",
        "TIME_STEP()": "32bc298c",
        "getContractBalance()": "6f9fb98a",
        "getPercent(uint8)": "a51b9533",
        "getPlanInfo(uint8)": "aecaa634",
        "getReinvest(uint8)": "06903e1c",
        "getResult(uint8,uint256)": "5936cf61",
        "getTimer(address)": "1531f016",
        "getUserAmountOfDeposits(address)": "a8aeb6c2",
        "getUserAvailable(address)": "153ab9df",
        "getUserCheckpoint(address)": "d7ffca91",
        "getUserDepositInfo(address,uint256)": "c0806b03",
        "getUserDividends(address)": "040a772e",
        "getUserDownlineCount(address)": "03a93c0c",
        "getUserReferralBonus(address)": "e85abe09",
        "getUserReferralTotalBonus(address)": "48c37203",
        "getUserReferralWithdrawn(address)": "6bb18556",
        "getUserReferrer(address)": "36144c9a",
        "getUserReinvestedAmount(address)": "dba90698",
        "getUserTotalDeposits(address)": "7e3abeea",
        "invest(address,uint8)": "581c5ae6",
        "startUNIX()": "c2341238",
        "totalRefBonus()": "69b11dd5",
        "totalStaked()": "817b1cd2",
        "withdraw()": "3ccfd60b"
    },
    "gasEstimates": {
        "creation": {
            "codeDepositCost": "1420800",
            "executionCost": "infinite",
            "totalCost": "infinite"
        },
        "external": {
            "INVEST_MAX_AMOUNT()": "229",
            "INVEST_MIN_AMOUNT()": "272",
            "PERCENTS_DIVIDER()": "231",
            "PERCENT_STEP()": "229",
            "PROJECT_FEE()": "296",
            "REFERRAL_PERCENTS(uint256)": "2075",
            "TIME_STEP()": "296",
            "getContractBalance()": "273",
            "getPercent(uint8)": "443",
            "getPlanInfo(uint8)": "5612",
            "getReinvest(uint8)": "infinite",
            "getResult(uint8,uint256)": "infinite",
            "getTimer(address)": "infinite",
            "getUserAmountOfDeposits(address)": "1271",
            "getUserAvailable(address)": "infinite",
            "getUserCheckpoint(address)": "1276",
            "getUserDepositInfo(address,uint256)": "12746",
            "getUserDividends(address)": "infinite",
            "getUserDownlineCount(address)": "1301",
            "getUserReferralBonus(address)": "1348",
            "getUserReferralTotalBonus(address)": "1322",
            "getUserReferralWithdrawn(address)": "2283",
            "getUserReferrer(address)": "1319",
            "getUserReinvestedAmount(address)": "1298",
            "getUserTotalDeposits(address)": "infinite",
            "invest(address,uint8)": "infinite",
            "startUNIX()": "1095",
            "totalRefBonus()": "1030",
            "totalStaked()": "1073",
            "withdraw()": "infinite"
        },
        "internal": {
            "feepayout(uint256)": "infinite",
            "isContract(address)": "infinite",
            "maxVal(uint256,uint256)": "infinite",
            "minVal(uint256,uint256)": "infinite",
            "minZero(uint256,uint256)": "infinite"
        }
    }
}