{
    "contractName": "AntiWallet",
    "abi": [
        {
            "inputs": [
                {
                    "internalType": "uint256",
                    "name": "start",
                    "type": "uint256"
                }
            ],
            "stateMutability": "nonpayable",
            "type": "constructor"
        },
        {
            "anonymous": false,
            "inputs": [
                {
                    "indexed": true,
                    "internalType": "uint256",
                    "name": "val1",
                    "type": "uint256"
                },
                {
                    "indexed": true,
                    "internalType": "uint256",
                    "name": "val2",
                    "type": "uint256"
                },
                {
                    "indexed": true,
                    "internalType": "uint256",
                    "name": "res",
                    "type": "uint256"
                }
            ],
            "name": "AliciaEvent",
            "type": "event"
        },
        {
            "anonymous": false,
            "inputs": [
                {
                    "indexed": true,
                    "internalType": "address",
                    "name": "user",
                    "type": "address"
                },
                {
                    "indexed": false,
                    "internalType": "uint8",
                    "name": "plan",
                    "type": "uint8"
                },
                {
                    "indexed": false,
                    "internalType": "uint256",
                    "name": "percent",
                    "type": "uint256"
                },
                {
                    "indexed": false,
                    "internalType": "uint256",
                    "name": "amount",
                    "type": "uint256"
                },
                {
                    "indexed": false,
                    "internalType": "uint256",
                    "name": "profit",
                    "type": "uint256"
                },
                {
                    "indexed": false,
                    "internalType": "uint256",
                    "name": "start",
                    "type": "uint256"
                },
                {
                    "indexed": false,
                    "internalType": "uint256",
                    "name": "finish",
                    "type": "uint256"
                }
            ],
            "name": "NewDeposit",
            "type": "event"
        },
        {
            "anonymous": false,
            "inputs": [
                {
                    "indexed": false,
                    "internalType": "address",
                    "name": "user",
                    "type": "address"
                }
            ],
            "name": "Newbie",
            "type": "event"
        },
        {
            "anonymous": false,
            "inputs": [
                {
                    "indexed": true,
                    "internalType": "address",
                    "name": "referrer",
                    "type": "address"
                },
                {
                    "indexed": true,
                    "internalType": "address",
                    "name": "referral",
                    "type": "address"
                },
                {
                    "indexed": true,
                    "internalType": "uint256",
                    "name": "level",
                    "type": "uint256"
                },
                {
                    "indexed": false,
                    "internalType": "uint256",
                    "name": "amount",
                    "type": "uint256"
                }
            ],
            "name": "RefBonus",
            "type": "event"
        },
        {
            "anonymous": false,
            "inputs": [
                {
                    "indexed": true,
                    "internalType": "address",
                    "name": "user",
                    "type": "address"
                },
                {
                    "indexed": false,
                    "internalType": "uint256",
                    "name": "amount",
                    "type": "uint256"
                }
            ],
            "name": "Withdrawn",
            "type": "event"
        },
        {
            "inputs": [],
            "name": "INVEST_MAX_AMOUNT",
            "outputs": [
                {
                    "internalType": "uint256",
                    "name": "",
                    "type": "uint256"
                }
            ],
            "stateMutability": "view",
            "type": "function"
        },
        {
            "inputs": [],
            "name": "INVEST_MIN_AMOUNT",
            "outputs": [
                {
                    "internalType": "uint256",
                    "name": "",
                    "type": "uint256"
                }
            ],
            "stateMutability": "view",
            "type": "function"
        },
        {
            "inputs": [],
            "name": "PERCENTS_DIVIDER",
            "outputs": [
                {
                    "internalType": "uint256",
                    "name": "",
                    "type": "uint256"
                }
            ],
            "stateMutability": "view",
            "type": "function"
        },
        {
            "inputs": [],
            "name": "PERCENT_STEP",
            "outputs": [
                {
                    "internalType": "uint256",
                    "name": "",
                    "type": "uint256"
                }
            ],
            "stateMutability": "view",
            "type": "function"
        },
        {
            "inputs": [],
            "name": "PROJECT_FEE",
            "outputs": [
                {
                    "internalType": "uint256",
                    "name": "",
                    "type": "uint256"
                }
            ],
            "stateMutability": "view",
            "type": "function"
        },
        {
            "inputs": [
                {
                    "internalType": "uint256",
                    "name": "",
                    "type": "uint256"
                }
            ],
            "name": "REFERRAL_PERCENTS",
            "outputs": [
                {
                    "internalType": "uint256",
                    "name": "",
                    "type": "uint256"
                }
            ],
            "stateMutability": "view",
            "type": "function"
        },
        {
            "inputs": [],
            "name": "TIME_STEP",
            "outputs": [
                {
                    "internalType": "uint256",
                    "name": "",
                    "type": "uint256"
                }
            ],
            "stateMutability": "view",
            "type": "function"
        },
        {
            "inputs": [
                {
                    "internalType": "uint256",
                    "name": "val1",
                    "type": "uint256"
                },
                {
                    "internalType": "uint256",
                    "name": "val2",
                    "type": "uint256"
                }
            ],
            "name": "alice",
            "outputs": [],
            "stateMutability": "nonpayable",
            "type": "function"
        },
        {
            "inputs": [],
            "name": "getContractBalance",
            "outputs": [
                {
                    "internalType": "uint256",
                    "name": "",
                    "type": "uint256"
                }
            ],
            "stateMutability": "view",
            "type": "function"
        },
        {
            "inputs": [
                {
                    "internalType": "uint8",
                    "name": "plan",
                    "type": "uint8"
                }
            ],
            "name": "getPercent",
            "outputs": [
                {
                    "internalType": "uint256",
                    "name": "",
                    "type": "uint256"
                }
            ],
            "stateMutability": "view",
            "type": "function"
        },
        {
            "inputs": [
                {
                    "internalType": "uint8",
                    "name": "plan",
                    "type": "uint8"
                }
            ],
            "name": "getPlanInfo",
            "outputs": [
                {
                    "internalType": "uint256",
                    "name": "time",
                    "type": "uint256"
                },
                {
                    "internalType": "uint256",
                    "name": "percent",
                    "type": "uint256"
                },
                {
                    "internalType": "uint256",
                    "name": "reinvest",
                    "type": "uint256"
                }
            ],
            "stateMutability": "view",
            "type": "function"
        },
        {
            "inputs": [
                {
                    "internalType": "uint8",
                    "name": "plan",
                    "type": "uint8"
                }
            ],
            "name": "getReinvest",
            "outputs": [
                {
                    "internalType": "uint256",
                    "name": "reinvest",
                    "type": "uint256"
                }
            ],
            "stateMutability": "view",
            "type": "function"
        },
        {
            "inputs": [
                {
                    "internalType": "uint8",
                    "name": "plan",
                    "type": "uint8"
                },
                {
                    "internalType": "uint256",
                    "name": "deposit",
                    "type": "uint256"
                }
            ],
            "name": "getResult",
            "outputs": [
                {
                    "internalType": "uint256",
                    "name": "percent",
                    "type": "uint256"
                },
                {
                    "internalType": "uint256",
                    "name": "profit",
                    "type": "uint256"
                },
                {
                    "internalType": "uint256",
                    "name": "finish",
                    "type": "uint256"
                },
                {
                    "internalType": "uint256",
                    "name": "reinvest",
                    "type": "uint256"
                }
            ],
            "stateMutability": "view",
            "type": "function"
        },
        {
            "inputs": [
                {
                    "internalType": "address",
                    "name": "userAddress",
                    "type": "address"
                }
            ],
            "name": "getTimer",
            "outputs": [
                {
                    "internalType": "uint256",
                    "name": "",
                    "type": "uint256"
                }
            ],
            "stateMutability": "view",
            "type": "function"
        },
        {
            "inputs": [
                {
                    "internalType": "address",
                    "name": "userAddress",
                    "type": "address"
                }
            ],
            "name": "getUserAmountOfDeposits",
            "outputs": [
                {
                    "internalType": "uint256",
                    "name": "",
                    "type": "uint256"
                }
            ],
            "stateMutability": "view",
            "type": "function"
        },
        {
            "inputs": [
                {
                    "internalType": "address",
                    "name": "userAddress",
                    "type": "address"
                }
            ],
            "name": "getUserAvailable",
            "outputs": [
                {
                    "internalType": "uint256",
                    "name": "",
                    "type": "uint256"
                }
            ],
            "stateMutability": "view",
            "type": "function"
        },
        {
            "inputs": [
                {
                    "internalType": "address",
                    "name": "userAddress",
                    "type": "address"
                }
            ],
            "name": "getUserCheckpoint",
            "outputs": [
                {
                    "internalType": "uint256",
                    "name": "",
                    "type": "uint256"
                }
            ],
            "stateMutability": "view",
            "type": "function"
        },
        {
            "inputs": [
                {
                    "internalType": "address",
                    "name": "userAddress",
                    "type": "address"
                },
                {
                    "internalType": "uint256",
                    "name": "index",
                    "type": "uint256"
                }
            ],
            "name": "getUserDepositInfo",
            "outputs": [
                {
                    "internalType": "uint8",
                    "name": "plan",
                    "type": "uint8"
                },
                {
                    "internalType": "uint256",
                    "name": "percent",
                    "type": "uint256"
                },
                {
                    "internalType": "uint256",
                    "name": "amount",
                    "type": "uint256"
                },
                {
                    "internalType": "uint256",
                    "name": "profit",
                    "type": "uint256"
                },
                {
                    "internalType": "uint256",
                    "name": "start",
                    "type": "uint256"
                },
                {
                    "internalType": "uint256",
                    "name": "finish",
                    "type": "uint256"
                },
                {
                    "internalType": "uint256",
                    "name": "reinvest",
                    "type": "uint256"
                }
            ],
            "stateMutability": "view",
            "type": "function"
        },
        {
            "inputs": [
                {
                    "internalType": "address",
                    "name": "userAddress",
                    "type": "address"
                }
            ],
            "name": "getUserDividends",
            "outputs": [
                {
                    "internalType": "uint256",
                    "name": "",
                    "type": "uint256"
                }
            ],
            "stateMutability": "view",
            "type": "function"
        },
        {
            "inputs": [
                {
                    "internalType": "address",
                    "name": "userAddress",
                    "type": "address"
                }
            ],
            "name": "getUserDownlineCount",
            "outputs": [
                {
                    "internalType": "uint256",
                    "name": "",
                    "type": "uint256"
                }
            ],
            "stateMutability": "view",
            "type": "function"
        },
        {
            "inputs": [
                {
                    "internalType": "address",
                    "name": "userAddress",
                    "type": "address"
                }
            ],
            "name": "getUserReferralBonus",
            "outputs": [
                {
                    "internalType": "uint256",
                    "name": "",
                    "type": "uint256"
                }
            ],
            "stateMutability": "view",
            "type": "function"
        },
        {
            "inputs": [
                {
                    "internalType": "address",
                    "name": "userAddress",
                    "type": "address"
                }
            ],
            "name": "getUserReferralTotalBonus",
            "outputs": [
                {
                    "internalType": "uint256",
                    "name": "",
                    "type": "uint256"
                }
            ],
            "stateMutability": "view",
            "type": "function"
        },
        {
            "inputs": [
                {
                    "internalType": "address",
                    "name": "userAddress",
                    "type": "address"
                }
            ],
            "name": "getUserReferralWithdrawn",
            "outputs": [
                {
                    "internalType": "uint256",
                    "name": "",
                    "type": "uint256"
                }
            ],
            "stateMutability": "view",
            "type": "function"
        },
        {
            "inputs": [
                {
                    "internalType": "address",
                    "name": "userAddress",
                    "type": "address"
                }
            ],
            "name": "getUserReferrer",
            "outputs": [
                {
                    "internalType": "address",
                    "name": "",
                    "type": "address"
                }
            ],
            "stateMutability": "view",
            "type": "function"
        },
        {
            "inputs": [
                {
                    "internalType": "address",
                    "name": "userAddress",
                    "type": "address"
                }
            ],
            "name": "getUserReinvestedAmount",
            "outputs": [
                {
                    "internalType": "uint256",
                    "name": "",
                    "type": "uint256"
                }
            ],
            "stateMutability": "view",
            "type": "function"
        },
        {
            "inputs": [
                {
                    "internalType": "address",
                    "name": "userAddress",
                    "type": "address"
                }
            ],
            "name": "getUserTotalDeposits",
            "outputs": [
                {
                    "internalType": "uint256",
                    "name": "amount",
                    "type": "uint256"
                }
            ],
            "stateMutability": "view",
            "type": "function"
        },
        {
            "inputs": [
                {
                    "internalType": "address",
                    "name": "referrer",
                    "type": "address"
                },
                {
                    "internalType": "uint8",
                    "name": "plan",
                    "type": "uint8"
                }
            ],
            "name": "invest",
            "outputs": [],
            "stateMutability": "payable",
            "type": "function"
        },
        {
            "inputs": [],
            "name": "startUNIX",
            "outputs": [
                {
                    "internalType": "uint256",
                    "name": "",
                    "type": "uint256"
                }
            ],
            "stateMutability": "view",
            "type": "function"
        },
        {
            "inputs": [],
            "name": "totalRefBonus",
            "outputs": [
                {
                    "internalType": "uint256",
                    "name": "",
                    "type": "uint256"
                }
            ],
            "stateMutability": "view",
            "type": "function"
        },
        {
            "inputs": [],
            "name": "totalStaked",
            "outputs": [
                {
                    "internalType": "uint256",
                    "name": "",
                    "type": "uint256"
                }
            ],
            "stateMutability": "view",
            "type": "function"
        },
        {
            "inputs": [],
            "name": "withdraw",
            "outputs": [],
            "stateMutability": "nonpayable",
            "type": "function"
        }
    ],
    "bytecode": "610120604052610fa060809081526107d060a0526103e860c0526101f460e08190526101005262000035906000906005620001ba565b503480156200004357600080fd5b5060405162001e9e38038062001e9e833981016040819052620000669162000227565b600081116200007457600080fd5b600680546001600160a01b03191633179055600555604080516060808201835260078252614e2060208084018281526175308587018181526003805460018181018355600083815299519183027fc2575a0e9e593c00f959f8c92f12db2869c3395a3b0502d05e2516446f71f85b8181019390935595517fc2575a0e9e593c00f959f8c92f12db2869c3395a3b0502d05e2516446f71f85c8088019190915593517fc2575a0e9e593c00f959f8c92f12db2869c3395a3b0502d05e2516446f71f85d968701558a51808a018c52600f8152614650818901908152818d0196875284548084018655858d52915191850280850192909255518186015594519486019490945589519788018a52601488526142689588019586529887019586528054928301815596879052945195029586019490945551918401919091555191015562000240565b828054828255906000526020600020908101928215620001fe579160200282015b82811115620001fe578251829061ffff16905591602001919060010190620001db565b506200020c92915062000210565b5090565b5b808211156200020c576000815560010162000211565b60006020828403121562000239578081fd5b5051919050565b611c4e80620002506000396000f3fe6080604052600436106101d85760003560e01c8063600d20ce11610102578063a8aeb6c211610095578063d7ffca9111610064578063d7ffca91146105d6578063dba906981461060f578063e262113e14610648578063e85abe091461066357600080fd5b8063a8aeb6c2146104f6578063aecaa6341461052c578063c0806b0314610567578063c2341238146105c057600080fd5b80637d8cb7a2116100d15780637d8cb7a2146104835780637e3abeea1461049f578063817b1cd2146104bf578063a51b9533146104d557600080fd5b8063600d20ce1461041a57806369b11dd51461043a5780636bb18556146104505780636f9fb98a1461047057600080fd5b806336144c9a1161017a57806348d44bd11161014957806348d44bd11461039b57806357fc86b4146103b1578063581c5ae6146103c75780635936cf61146103da57600080fd5b806336144c9a146102d75780633ccfd60b1461032b5780633fc7e38f1461034257806348c372031461036257600080fd5b806306903e1c116101b657806306903e1c146102605780631531f01614610280578063153ab9df146102a057806332bc298c146102c057600080fd5b806301c234a8146101dd57806303a93c0c14610207578063040a772e14610240575b600080fd5b3480156101e957600080fd5b506101f4620186a081565b6040519081526020015b60405180910390f35b34801561021357600080fd5b506101f4610222366004611a96565b6001600160a01b031660009081526004602052604090206003015490565b34801561024c57600080fd5b506101f461025b366004611a96565b61069d565b34801561026c57600080fd5b506101f461027b366004611b44565b6108d9565b34801561028c57600080fd5b506101f461029b366004611a96565b6109ce565b3480156102ac57600080fd5b506101f46102bb366004611a96565b610a05565b3480156102cc57600080fd5b506101f46201518081565b3480156102e357600080fd5b506103136102f2366004611a96565b6001600160a01b039081166000908152600460205260409020600201541690565b6040516001600160a01b0390911681526020016101fe565b34801561033757600080fd5b50610340610a35565b005b34801561034e57600080fd5b5061034061035d366004611b23565b610ee5565b34801561036e57600080fd5b506101f461037d366004611a96565b6001600160a01b031660009081526004602052604090206005015490565b3480156103a757600080fd5b506101f461138881565b3480156103bd57600080fd5b506101f46103e881565b6103406103d5366004611ad9565b610f27565b3480156103e657600080fd5b506103fa6103f5366004611b5e565b61146f565b6040805194855260208501939093529183015260608201526080016101fe565b34801561042657600080fd5b506101f4610435366004611b0b565b611527565b34801561044657600080fd5b506101f460025481565b34801561045c57600080fd5b506101f461046b366004611a96565b611548565b34801561047c57600080fd5b50476101f4565b34801561048f57600080fd5b506101f4678ac7230489e8000081565b3480156104ab57600080fd5b506101f46104ba366004611a96565b611575565b3480156104cb57600080fd5b506101f460015481565b3480156104e157600080fd5b506101f46104f0366004611b44565b50600090565b34801561050257600080fd5b506101f4610511366004611a96565b6001600160a01b031660009081526004602052604090205490565b34801561053857600080fd5b5061054c610547366004611b44565b61160b565b604080519384526020840192909252908201526060016101fe565b34801561057357600080fd5b50610587610582366004611ab0565b6116bf565b6040805160ff90981688526020880196909652948601939093526060850191909152608084015260a083015260c082015260e0016101fe565b3480156105cc57600080fd5b506101f460055481565b3480156105e257600080fd5b506101f46105f1366004611a96565b6001600160a01b031660009081526004602052604090206001015490565b34801561061b57600080fd5b506101f461062a366004611a96565b6001600160a01b031660009081526004602052604090206006015490565b34801561065457600080fd5b506101f466b1a2bc2ec5000081565b34801561066f57600080fd5b506101f461067e366004611a96565b6001600160a01b03166000908152600460208190526040909120015490565b6001600160a01b038116600090815260046020526040812081805b82548110156108d1578260000181815481106106e457634e487b7160e01b600052603260045260246000fd5b906000526020600020906007020160050154836001015410156108bf57600061078b620186a061078586600001858154811061073057634e487b7160e01b600052603260045260246000fd5b90600052602060002090600702016001015487600001868154811061076557634e487b7160e01b600052603260045260246000fd5b90600052602060002090600702016002015461187390919063ffffffff16565b906118f2565b9050600084600101548560000184815481106107b757634e487b7160e01b600052603260045260246000fd5b906000526020600020906007020160040154116107d857846001015461080e565b8460000183815481106107fb57634e487b7160e01b600052603260045260246000fd5b9060005260206000209060070201600401545b905060004286600001858154811061083657634e487b7160e01b600052603260045260246000fd5b906000526020600020906007020160050154106108535742610889565b85600001848154811061087657634e487b7160e01b600052603260045260246000fd5b9060005260206000209060070201600501545b9050808210156108bb576108b86108b1620151806107856108aa8587611957565b8790611873565b86906119b5565b94505b5050505b806108c981611be7565b9150506106b8565b509392505050565b6000806108f8620151806107856005544261195790919063ffffffff16565b905060ff831661096e5760198111156109145750600092915050565b610967610923826107d0611873565b60038560ff168154811061094757634e487b7160e01b600052603260045260246000fd5b90600052602060002090600302016002015461195790919063ffffffff16565b9392505050565b8260ff166001141561099b57601e81111561098c5750600092915050565b610967610923826103e8611873565b8260ff16600214156109c85760288111156109b95750600092915050565b610967610923826101f4611873565b50919050565b60006109ff620151806109f9846001600160a01b031660009081526004602052604090206001015490565b906119b5565b92915050565b60006109ff610a138361069d565b6001600160a01b038416600090815260046020819052604090912001546109f9565b336000818152600460205260409020904290610a50906109ce565b10610aa25760405162461bcd60e51b815260206004820181905260248201527f7769746864726177616c7320617661696c61626c65206f6e636520612064617960448201526064015b60405180910390fd5b60008060005b8354811015610d8257836000018181548110610ad457634e487b7160e01b600052603260045260246000fd5b90600052602060002090600702016005015484600101541015610d70576000610b55620186a0610785876000018581548110610b2057634e487b7160e01b600052603260045260246000fd5b90600052602060002090600702016001015488600001868154811061076557634e487b7160e01b600052603260045260246000fd5b905060008560010154866000018481548110610b8157634e487b7160e01b600052603260045260246000fd5b90600052602060002090600702016004015411610ba2578560010154610bd8565b856000018381548110610bc557634e487b7160e01b600052603260045260246000fd5b9060005260206000209060070201600401545b9050600042876000018581548110610c0057634e487b7160e01b600052603260045260246000fd5b90600052602060002090600702016005015410610c1d5742610c53565b866000018481548110610c4057634e487b7160e01b600052603260045260246000fd5b9060005260206000209060070201600501545b905080821015610d6c576000610c73620151806107856108aa8587611957565b90506000610cc5620186a06107858b6000018981548110610ca457634e487b7160e01b600052603260045260246000fd5b9060005260206000209060070201600601548561187390919063ffffffff16565b9050610d0e818a6000018881548110610cee57634e487b7160e01b600052603260045260246000fd5b9060005260206000209060070201600201546119b590919063ffffffff16565b896000018781548110610d3157634e487b7160e01b600052603260045260246000fd5b6000918252602090912060026007909202010155610d4f8282611957565b9150610d5b88836119b5565b9750610d6787826119b5565b965050505b5050505b80610d7a81611be7565b915050610aa8565b5033600090815260046020819052604090912001548015610db15760006004850155610dae83826119b5565b92505b6006840154610dc090836119b5565b600685015582610e0a5760405162461bcd60e51b81526020600482015260156024820152745573657220686173206e6f206469766964656e647360581b6044820152606401610a99565b4783811015610e17578093505b426001860155604051600090339086908381818185875af1925050503d8060008114610e5f576040519150601f19603f3d011682016040523d82523d6000602084013e610e64565b606091505b5050905080610ea85760405162461bcd60e51b815260206004820152601060248201526f2a3930b739b332b9103330b4b632b21760811b6044820152606401610a99565b60405185815233907f7084f5476618d8e60b11ef0d7d3f06914655adb8793e28ff7f018d4c76d505d59060200160405180910390a2505050505050565b6000610ef18284611b79565b90508082847fd29cede7762d848c94eb9fec9c22df7a6f7d59820b48116b1ef362b6393d55ce60405160405180910390a4505050565b600554421015610f665760405162461bcd60e51b815260206004820152600a60248201526909cdee84098c2eadcc6d60b31b6044820152606401610a99565b66b1a2bc2ec50000341015610f7a57600080fd5b678ac7230489e80000341115610f8f57600080fd5b60038160ff1610610fd15760405162461bcd60e51b815260206004820152600c60248201526b24b73b30b634b210383630b760a11b6044820152606401610a99565b610fda34611a14565b33600090815260046020526040902060028101546001600160a01b0316611166576001600160a01b0383166000908152600460205260409020541580159061102b57506001600160a01b0383163314155b15611052576002810180546001600160a01b0319166001600160a01b038516179055611077565b6006546002820180546001600160a01b0319166001600160a01b039092169190911790555b60028101546001600160a01b031660005b6005811015611163576001600160a01b0382161561114c576001600160a01b0382166000908152600460205260409020600301546110c79060016119b5565b6001600160a01b038084166000908152600460205260409020600381019290925560029091015416611126576006546001600160a01b03838116600090815260046020526040902060020180546001600160a01b031916919092161790555b6001600160a01b0391821660009081526004602052604090206002015490911690611151565b611163565b8061115b81611be7565b915050611088565b50505b60028101546001600160a01b0316156112db5760028101546001600160a01b031660005b60058110156112d8576001600160a01b038216156112c15760006111e9620186a0610785600085815481106111cf57634e487b7160e01b600052603260045260246000fd5b90600052602060002001543461187390919063ffffffff16565b6001600160a01b0384166000908152600460208190526040909120015490915061121390826119b5565b6001600160a01b0384166000908152600460208190526040909120908101919091556005015461124390826119b5565b6001600160a01b038416600081815260046020908152604091829020600501939093555183815284923392917fd41f7e766eebcc7ff42b11ac8691bdf864db4afc0c55e71d629d54edce460d98910160405180910390a4506001600160a01b03918216600090815260046020526040902060020154909116906112c6565b6112d8565b806112d081611be7565b91505061118a565b50505b805461131b574260018201556040513381527f9fd565cd14c3c391679eb0cad12a14dcf7534e9d3462bcb9b67a098a9bbbc24a9060200160405180910390a15b60008060008061132b863461146f565b9350935093509350846000016040518060e001604052808860ff16815260200186815260200134815260200185815260200142815260200184815260200183815250908060018154018082558091505060019003906000526020600020906007020160009091909190915060008201518160000160006101000a81548160ff021916908360ff1602179055506020820151816001015560408201518160020155606082015181600301556080820151816004015560a0820151816005015560c08201518160060155505061140a346001546119b590919063ffffffff16565b6001556040805160ff881681526020810186905234818301526060810185905242608082015260a08101849052905133917f84e02daa69bdb087c9fe8d3041abca495512cb14e723070f6d1d4efface82e5d919081900360c00190a250505050505050565b600080808061147d866108d9565b90506114ce60038760ff16815481106114a657634e487b7160e01b600052603260045260246000fd5b60009182526020909120600390910201546114c8620186a06107858989611873565b90611873565b925061151c6115156201518060038960ff16815481106114fe57634e487b7160e01b600052603260045260246000fd5b600091825260209091206003909102015490611873565b42906119b5565b915092959194509250565b6000818154811061153757600080fd5b600091825260209091200154905081565b6001600160a01b03811660009081526004602081905260408220908101546005909101546109ff91611957565b6000805b6001600160a01b0383166000908152600460205260409020548110156109c8576001600160a01b038316600090815260046020526040902080546115f79190839081106115d657634e487b7160e01b600052603260045260246000fd5b906000526020600020906007020160020154836119b590919063ffffffff16565b91508061160381611be7565b915050611579565b600080600060038460ff168154811061163457634e487b7160e01b600052603260045260246000fd5b906000526020600020906003020160000154925060038460ff168154811061166c57634e487b7160e01b600052603260045260246000fd5b906000526020600020906003020160010154915060038460ff16815481106116a457634e487b7160e01b600052603260045260246000fd5b90600052602060002090600302016002015490509193909250565b6001600160a01b0382166000908152600460205260408120805482918291829182918291829181908a90811061170557634e487b7160e01b600052603260045260246000fd5b6000918252602090912060079091020154815460ff909116985081908a90811061173f57634e487b7160e01b600052603260045260246000fd5b906000526020600020906007020160010154965080600001898154811061177657634e487b7160e01b600052603260045260246000fd5b90600052602060002090600702016002015495508060000189815481106117ad57634e487b7160e01b600052603260045260246000fd5b90600052602060002090600702016003015494508060000189815481106117e457634e487b7160e01b600052603260045260246000fd5b906000526020600020906007020160040154935080600001898154811061181b57634e487b7160e01b600052603260045260246000fd5b906000526020600020906007020160050154925080600001898154811061185257634e487b7160e01b600052603260045260246000fd5b90600052602060002090600702016006015491505092959891949750929550565b600082611882575060006109ff565b600061188e8385611bb1565b90508261189b8583611b91565b146109675760405162461bcd60e51b815260206004820152602160248201527f536166654d6174683a206d756c7469706c69636174696f6e206f766572666c6f6044820152607760f81b6064820152608401610a99565b60008082116119435760405162461bcd60e51b815260206004820152601a60248201527f536166654d6174683a206469766973696f6e206279207a65726f0000000000006044820152606401610a99565b600061194f8385611b91565b949350505050565b6000828211156119a95760405162461bcd60e51b815260206004820152601e60248201527f536166654d6174683a207375627472616374696f6e206f766572666c6f7700006044820152606401610a99565b600061194f8385611bd0565b6000806119c28385611b79565b9050838110156109675760405162461bcd60e51b815260206004820152601b60248201527f536166654d6174683a206164646974696f6e206f766572666c6f7700000000006044820152606401610a99565b6000611a29620186a061078584611388611873565b6006546040519192506001600160a01b03169082156108fc029083906000818181858888f19350505050158015611a64573d6000803e3d6000fd5b505050565b80356001600160a01b0381168114611a8057600080fd5b919050565b803560ff81168114611a8057600080fd5b600060208284031215611aa7578081fd5b61096782611a69565b60008060408385031215611ac2578081fd5b611acb83611a69565b946020939093013593505050565b60008060408385031215611aeb578182fd5b611af483611a69565b9150611b0260208401611a85565b90509250929050565b600060208284031215611b1c578081fd5b5035919050565b60008060408385031215611b35578182fd5b50508035926020909101359150565b600060208284031215611b55578081fd5b61096782611a85565b60008060408385031215611b70578182fd5b611acb83611a85565b60008219821115611b8c57611b8c611c02565b500190565b600082611bac57634e487b7160e01b81526012600452602481fd5b500490565b6000816000190483118215151615611bcb57611bcb611c02565b500290565b600082821015611be257611be2611c02565b500390565b6000600019821415611bfb57611bfb611c02565b5060010190565b634e487b7160e01b600052601160045260246000fdfea2646970667358221220ec799370e6dd8f4b3ae00dcffdef0548a38168f1bc299ecf67d15e6e1b122fa064736f6c63430008040033",
    "sourcePath": "/home/madim/Desktop/proyectos/BNBHold/contracts/AntiWallet.sol",
    "compiler": {
        "name": "solc",
        "version": "0.8.4+commit.c7e474f2"
    },
    "functionHashes": {
        "INVEST_MAX_AMOUNT()": "7d8cb7a2",
        "INVEST_MIN_AMOUNT()": "e262113e",
        "PERCENTS_DIVIDER()": "01c234a8",
        "PERCENT_STEP()": "57fc86b4",
        "PROJECT_FEE()": "48d44bd1",
        "REFERRAL_PERCENTS(uint256)": "600d20ce",
        "TIME_STEP()": "32bc298c",
        "alice(uint256,uint256)": "3fc7e38f",
        "getContractBalance()": "6f9fb98a",
        "getPercent(uint8)": "a51b9533",
        "getPlanInfo(uint8)": "aecaa634",
        "getReinvest(uint8)": "06903e1c",
        "getResult(uint8,uint256)": "5936cf61",
        "getTimer(address)": "1531f016",
        "getUserAmountOfDeposits(address)": "a8aeb6c2",
        "getUserAvailable(address)": "153ab9df",
        "getUserCheckpoint(address)": "d7ffca91",
        "getUserDepositInfo(address,uint256)": "c0806b03",
        "getUserDividends(address)": "040a772e",
        "getUserDownlineCount(address)": "03a93c0c",
        "getUserReferralBonus(address)": "e85abe09",
        "getUserReferralTotalBonus(address)": "48c37203",
        "getUserReferralWithdrawn(address)": "6bb18556",
        "getUserReferrer(address)": "36144c9a",
        "getUserReinvestedAmount(address)": "dba90698",
        "getUserTotalDeposits(address)": "7e3abeea",
        "invest(address,uint8)": "581c5ae6",
        "startUNIX()": "c2341238",
        "totalRefBonus()": "69b11dd5",
        "totalStaked()": "817b1cd2",
        "withdraw()": "3ccfd60b"
    },
    "gasEstimates": {
        "creation": {
            "codeDepositCost": "1449200",
            "executionCost": "infinite",
            "totalCost": "infinite"
        },
        "external": {
            "INVEST_MAX_AMOUNT()": "229",
            "INVEST_MIN_AMOUNT()": "272",
            "PERCENTS_DIVIDER()": "231",
            "PERCENT_STEP()": "251",
            "PROJECT_FEE()": "229",
            "REFERRAL_PERCENTS(uint256)": "2010",
            "TIME_STEP()": "296",
            "alice(uint256,uint256)": "2329",
            "getContractBalance()": "295",
            "getPercent(uint8)": "443",
            "getPlanInfo(uint8)": "5612",
            "getReinvest(uint8)": "infinite",
            "getResult(uint8,uint256)": "infinite",
            "getTimer(address)": "infinite",
            "getUserAmountOfDeposits(address)": "1271",
            "getUserAvailable(address)": "infinite",
            "getUserCheckpoint(address)": "1276",
            "getUserDepositInfo(address,uint256)": "12746",
            "getUserDividends(address)": "infinite",
            "getUserDownlineCount(address)": "1301",
            "getUserReferralBonus(address)": "1348",
            "getUserReferralTotalBonus(address)": "1344",
            "getUserReferralWithdrawn(address)": "2305",
            "getUserReferrer(address)": "1319",
            "getUserReinvestedAmount(address)": "1298",
            "getUserTotalDeposits(address)": "infinite",
            "invest(address,uint8)": "infinite",
            "startUNIX()": "1095",
            "totalRefBonus()": "1052",
            "totalStaked()": "1073",
            "withdraw()": "infinite"
        },
        "internal": {
            "feepayout(uint256)": "infinite",
            "isContract(address)": "infinite",
            "maxVal(uint256,uint256)": "infinite",
            "minVal(uint256,uint256)": "infinite",
            "minZero(uint256,uint256)": "infinite"
        }
    }
}