{
  "contractName": "ThunderHold",
  "abi": [
    {
      "inputs": [
        {
          "internalType": "address payable",
          "name": "wallet",
          "type": "address"
        },
        {
          "internalType": "uint256",
          "name": "start",
          "type": "uint256"
        }
      ],
      "stateMutability": "nonpayable",
      "type": "constructor"
    },
    {
      "anonymous": false,
      "inputs": [
        {
          "indexed": true,
          "internalType": "address",
          "name": "user",
          "type": "address"
        },
        {
          "indexed": false,
          "internalType": "uint8",
          "name": "plan",
          "type": "uint8"
        },
        {
          "indexed": false,
          "internalType": "uint256",
          "name": "percent",
          "type": "uint256"
        },
        {
          "indexed": false,
          "internalType": "uint256",
          "name": "amount",
          "type": "uint256"
        },
        {
          "indexed": false,
          "internalType": "uint256",
          "name": "profit",
          "type": "uint256"
        },
        {
          "indexed": false,
          "internalType": "uint256",
          "name": "start",
          "type": "uint256"
        },
        {
          "indexed": false,
          "internalType": "uint256",
          "name": "finish",
          "type": "uint256"
        }
      ],
      "name": "NewDeposit",
      "type": "event"
    },
    {
      "anonymous": false,
      "inputs": [
        {
          "indexed": true,
          "internalType": "address",
          "name": "user",
          "type": "address"
        },
        {
          "indexed": false,
          "internalType": "uint256",
          "name": "amount",
          "type": "uint256"
        },
        {
          "indexed": false,
          "internalType": "uint256",
          "name": "pt",
          "type": "uint256"
        }
      ],
      "name": "NewParticipantLotto",
      "type": "event"
    },
    {
      "anonymous": false,
      "inputs": [
        {
          "indexed": false,
          "internalType": "address",
          "name": "user",
          "type": "address"
        }
      ],
      "name": "Newbie",
      "type": "event"
    },
    {
      "anonymous": false,
      "inputs": [
        {
          "indexed": true,
          "internalType": "address",
          "name": "referrer",
          "type": "address"
        },
        {
          "indexed": true,
          "internalType": "address",
          "name": "referral",
          "type": "address"
        },
        {
          "indexed": true,
          "internalType": "uint256",
          "name": "level",
          "type": "uint256"
        },
        {
          "indexed": false,
          "internalType": "uint256",
          "name": "amount",
          "type": "uint256"
        }
      ],
      "name": "RefBonus",
      "type": "event"
    },
    {
      "anonymous": false,
      "inputs": [
        {
          "indexed": true,
          "internalType": "address",
          "name": "user",
          "type": "address"
        },
        {
          "indexed": false,
          "internalType": "uint256",
          "name": "amount",
          "type": "uint256"
        }
      ],
      "name": "Withdrawn",
      "type": "event"
    },
    {
      "inputs": [],
      "name": "INVEST_MAX_AMOUNT",
      "outputs": [
        {
          "internalType": "uint256",
          "name": "",
          "type": "uint256"
        }
      ],
      "stateMutability": "view",
      "type": "function",
      "constant": true
    },
    {
      "inputs": [],
      "name": "INVEST_MIN_AMOUNT",
      "outputs": [
        {
          "internalType": "uint256",
          "name": "",
          "type": "uint256"
        }
      ],
      "stateMutability": "view",
      "type": "function",
      "constant": true
    },
    {
      "inputs": [],
      "name": "MARKETING_FEE",
      "outputs": [
        {
          "internalType": "uint256",
          "name": "",
          "type": "uint256"
        }
      ],
      "stateMutability": "view",
      "type": "function",
      "constant": true
    },
    {
      "inputs": [],
      "name": "PERCENTS_DIVIDER",
      "outputs": [
        {
          "internalType": "uint256",
          "name": "",
          "type": "uint256"
        }
      ],
      "stateMutability": "view",
      "type": "function",
      "constant": true
    },
    {
      "inputs": [],
      "name": "PERCENT_STEP",
      "outputs": [
        {
          "internalType": "uint256",
          "name": "",
          "type": "uint256"
        }
      ],
      "stateMutability": "view",
      "type": "function",
      "constant": true
    },
    {
      "inputs": [],
      "name": "PROJECT_FEE",
      "outputs": [
        {
          "internalType": "uint256",
          "name": "",
          "type": "uint256"
        }
      ],
      "stateMutability": "view",
      "type": "function",
      "constant": true
    },
    {
      "inputs": [
        {
          "internalType": "uint256",
          "name": "",
          "type": "uint256"
        }
      ],
      "name": "REFERRAL_PERCENTS",
      "outputs": [
        {
          "internalType": "uint256",
          "name": "",
          "type": "uint256"
        }
      ],
      "stateMutability": "view",
      "type": "function",
      "constant": true
    },
    {
      "inputs": [],
      "name": "TIME_STEP",
      "outputs": [
        {
          "internalType": "uint256",
          "name": "",
          "type": "uint256"
        }
      ],
      "stateMutability": "view",
      "type": "function",
      "constant": true
    },
    {
      "inputs": [],
      "name": "marketingWallet",
      "outputs": [
        {
          "internalType": "address payable",
          "name": "",
          "type": "address"
        }
      ],
      "stateMutability": "view",
      "type": "function",
      "constant": true
    },
    {
      "inputs": [],
      "name": "startUNIX",
      "outputs": [
        {
          "internalType": "uint256",
          "name": "",
          "type": "uint256"
        }
      ],
      "stateMutability": "view",
      "type": "function",
      "constant": true
    },
    {
      "inputs": [],
      "name": "totalRefBonus",
      "outputs": [
        {
          "internalType": "uint256",
          "name": "",
          "type": "uint256"
        }
      ],
      "stateMutability": "view",
      "type": "function",
      "constant": true
    },
    {
      "inputs": [],
      "name": "totalStaked",
      "outputs": [
        {
          "internalType": "uint256",
          "name": "",
          "type": "uint256"
        }
      ],
      "stateMutability": "view",
      "type": "function",
      "constant": true
    },
    {
      "inputs": [
        {
          "internalType": "address",
          "name": "referrer",
          "type": "address"
        },
        {
          "internalType": "uint8",
          "name": "plan",
          "type": "uint8"
        }
      ],
      "name": "invest",
      "outputs": [],
      "stateMutability": "payable",
      "type": "function",
      "payable": true
    },
    {
      "inputs": [],
      "name": "withdraw",
      "outputs": [],
      "stateMutability": "payable",
      "type": "function",
      "payable": true
    },
    {
      "inputs": [
        {
          "internalType": "uint256",
          "name": "ticketsQuantity",
          "type": "uint256"
        }
      ],
      "name": "lottoDeposit",
      "outputs": [],
      "stateMutability": "payable",
      "type": "function",
      "payable": true
    },
    {
      "inputs": [],
      "name": "getContractBalance",
      "outputs": [
        {
          "internalType": "uint256",
          "name": "",
          "type": "uint256"
        }
      ],
      "stateMutability": "view",
      "type": "function",
      "constant": true
    },
    {
      "inputs": [
        {
          "internalType": "uint8",
          "name": "plan",
          "type": "uint8"
        }
      ],
      "name": "getPlanInfo",
      "outputs": [
        {
          "internalType": "uint256",
          "name": "time",
          "type": "uint256"
        },
        {
          "internalType": "uint256",
          "name": "percent",
          "type": "uint256"
        },
        {
          "internalType": "uint256",
          "name": "reinvest",
          "type": "uint256"
        }
      ],
      "stateMutability": "view",
      "type": "function",
      "constant": true
    },
    {
      "inputs": [
        {
          "internalType": "address",
          "name": "userAddress",
          "type": "address"
        }
      ],
      "name": "getUserLottoRate",
      "outputs": [
        {
          "internalType": "uint256",
          "name": "",
          "type": "uint256"
        }
      ],
      "stateMutability": "view",
      "type": "function",
      "constant": true
    },
    {
      "inputs": [
        {
          "internalType": "uint8",
          "name": "plan",
          "type": "uint8"
        }
      ],
      "name": "getPercent",
      "outputs": [
        {
          "internalType": "uint256",
          "name": "",
          "type": "uint256"
        }
      ],
      "stateMutability": "view",
      "type": "function",
      "constant": true
    },
    {
      "inputs": [
        {
          "internalType": "uint8",
          "name": "plan",
          "type": "uint8"
        }
      ],
      "name": "getReinvest",
      "outputs": [
        {
          "internalType": "uint256",
          "name": "reinvest",
          "type": "uint256"
        }
      ],
      "stateMutability": "view",
      "type": "function",
      "constant": true
    },
    {
      "inputs": [
        {
          "internalType": "address",
          "name": "userAddress",
          "type": "address"
        }
      ],
      "name": "getTimer",
      "outputs": [
        {
          "internalType": "uint256",
          "name": "",
          "type": "uint256"
        }
      ],
      "stateMutability": "view",
      "type": "function",
      "constant": true
    },
    {
      "inputs": [
        {
          "internalType": "uint8",
          "name": "plan",
          "type": "uint8"
        },
        {
          "internalType": "uint256",
          "name": "deposit",
          "type": "uint256"
        }
      ],
      "name": "getResult",
      "outputs": [
        {
          "internalType": "uint256",
          "name": "percent",
          "type": "uint256"
        },
        {
          "internalType": "uint256",
          "name": "profit",
          "type": "uint256"
        },
        {
          "internalType": "uint256",
          "name": "finish",
          "type": "uint256"
        },
        {
          "internalType": "uint256",
          "name": "reinvest",
          "type": "uint256"
        }
      ],
      "stateMutability": "view",
      "type": "function",
      "constant": true
    },
    {
      "inputs": [
        {
          "internalType": "address",
          "name": "userAddress",
          "type": "address"
        }
      ],
      "name": "getUserDividends",
      "outputs": [
        {
          "internalType": "uint256",
          "name": "",
          "type": "uint256"
        }
      ],
      "stateMutability": "view",
      "type": "function",
      "constant": true
    },
    {
      "inputs": [
        {
          "internalType": "address",
          "name": "userAddress",
          "type": "address"
        }
      ],
      "name": "getUserCheckpoint",
      "outputs": [
        {
          "internalType": "uint256",
          "name": "",
          "type": "uint256"
        }
      ],
      "stateMutability": "view",
      "type": "function",
      "constant": true
    },
    {
      "inputs": [
        {
          "internalType": "address",
          "name": "userAddress",
          "type": "address"
        }
      ],
      "name": "getUserReinvestedAmount",
      "outputs": [
        {
          "internalType": "uint256",
          "name": "",
          "type": "uint256"
        }
      ],
      "stateMutability": "view",
      "type": "function",
      "constant": true
    },
    {
      "inputs": [
        {
          "internalType": "address",
          "name": "userAddress",
          "type": "address"
        }
      ],
      "name": "getUserReferrer",
      "outputs": [
        {
          "internalType": "address",
          "name": "",
          "type": "address"
        }
      ],
      "stateMutability": "view",
      "type": "function",
      "constant": true
    },
    {
      "inputs": [
        {
          "internalType": "address",
          "name": "userAddress",
          "type": "address"
        }
      ],
      "name": "getUserDownlineCount",
      "outputs": [
        {
          "internalType": "uint256",
          "name": "",
          "type": "uint256"
        }
      ],
      "stateMutability": "view",
      "type": "function",
      "constant": true
    },
    {
      "inputs": [
        {
          "internalType": "address",
          "name": "userAddress",
          "type": "address"
        }
      ],
      "name": "getUserReferralBonus",
      "outputs": [
        {
          "internalType": "uint256",
          "name": "",
          "type": "uint256"
        }
      ],
      "stateMutability": "view",
      "type": "function",
      "constant": true
    },
    {
      "inputs": [
        {
          "internalType": "address",
          "name": "userAddress",
          "type": "address"
        }
      ],
      "name": "getUserReferralTotalBonus",
      "outputs": [
        {
          "internalType": "uint256",
          "name": "",
          "type": "uint256"
        }
      ],
      "stateMutability": "view",
      "type": "function",
      "constant": true
    },
    {
      "inputs": [
        {
          "internalType": "address",
          "name": "userAddress",
          "type": "address"
        }
      ],
      "name": "getUserReferralWithdrawn",
      "outputs": [
        {
          "internalType": "uint256",
          "name": "",
          "type": "uint256"
        }
      ],
      "stateMutability": "view",
      "type": "function",
      "constant": true
    },
    {
      "inputs": [
        {
          "internalType": "address",
          "name": "userAddress",
          "type": "address"
        }
      ],
      "name": "getUserAvailable",
      "outputs": [
        {
          "internalType": "uint256",
          "name": "",
          "type": "uint256"
        }
      ],
      "stateMutability": "view",
      "type": "function",
      "constant": true
    },
    {
      "inputs": [
        {
          "internalType": "address",
          "name": "userAddress",
          "type": "address"
        }
      ],
      "name": "getUserAmountOfDeposits",
      "outputs": [
        {
          "internalType": "uint256",
          "name": "",
          "type": "uint256"
        }
      ],
      "stateMutability": "view",
      "type": "function",
      "constant": true
    },
    {
      "inputs": [
        {
          "internalType": "address",
          "name": "userAddress",
          "type": "address"
        }
      ],
      "name": "getUserTotalDeposits",
      "outputs": [
        {
          "internalType": "uint256",
          "name": "amount",
          "type": "uint256"
        }
      ],
      "stateMutability": "view",
      "type": "function",
      "constant": true
    },
    {
      "inputs": [
        {
          "internalType": "address",
          "name": "userAddress",
          "type": "address"
        },
        {
          "internalType": "uint256",
          "name": "index",
          "type": "uint256"
        }
      ],
      "name": "getUserDepositInfo",
      "outputs": [
        {
          "internalType": "uint8",
          "name": "plan",
          "type": "uint8"
        },
        {
          "internalType": "uint256",
          "name": "percent",
          "type": "uint256"
        },
        {
          "internalType": "uint256",
          "name": "amount",
          "type": "uint256"
        },
        {
          "internalType": "uint256",
          "name": "profit",
          "type": "uint256"
        },
        {
          "internalType": "uint256",
          "name": "start",
          "type": "uint256"
        },
        {
          "internalType": "uint256",
          "name": "finish",
          "type": "uint256"
        },
        {
          "internalType": "uint256",
          "name": "reinvest",
          "type": "uint256"
        }
      ],
      "stateMutability": "view",
      "type": "function",
      "constant": true
    },
    {
      "inputs": [],
      "name": "getlottoStats",
      "outputs": [
        {
          "internalType": "address",
          "name": "",
          "type": "address"
        },
        {
          "internalType": "address",
          "name": "",
          "type": "address"
        },
        {
          "internalType": "address",
          "name": "",
          "type": "address"
        },
        {
          "internalType": "address",
          "name": "",
          "type": "address"
        },
        {
          "internalType": "address",
          "name": "",
          "type": "address"
        },
        {
          "internalType": "uint256",
          "name": "",
          "type": "uint256"
        },
        {
          "internalType": "uint256",
          "name": "",
          "type": "uint256"
        },
        {
          "internalType": "uint256",
          "name": "",
          "type": "uint256"
        },
        {
          "internalType": "uint256",
          "name": "",
          "type": "uint256"
        },
        {
          "internalType": "uint256",
          "name": "",
          "type": "uint256"
        },
        {
          "internalType": "uint256",
          "name": "",
          "type": "uint256"
        },
        {
          "internalType": "uint256",
          "name": "",
          "type": "uint256"
        }
      ],
      "stateMutability": "view",
      "type": "function",
      "constant": true
    },
    {
      "inputs": [],
      "name": "getlottoLastPrizes",
      "outputs": [
        {
          "internalType": "uint256",
          "name": "",
          "type": "uint256"
        },
        {
          "internalType": "uint256",
          "name": "",
          "type": "uint256"
        },
        {
          "internalType": "uint256",
          "name": "",
          "type": "uint256"
        },
        {
          "internalType": "uint256",
          "name": "",
          "type": "uint256"
        },
        {
          "internalType": "uint256",
          "name": "",
          "type": "uint256"
        }
      ],
      "stateMutability": "view",
      "type": "function",
      "constant": true
    },
    {
      "inputs": [
        {
          "internalType": "address",
          "name": "userAddress",
          "type": "address"
        }
      ],
      "name": "getUserlottoStats",
      "outputs": [
        {
          "internalType": "uint256",
          "name": "",
          "type": "uint256"
        },
        {
          "internalType": "uint256",
          "name": "",
          "type": "uint256"
        },
        {
          "internalType": "uint256",
          "name": "",
          "type": "uint256"
        }
      ],
      "stateMutability": "view",
      "type": "function",
      "constant": true
    }
  ],
  "bytecode": "0x60806040526040518060a00160405280610fa061ffff1681526020016107d061ffff1681526020016103e861ffff1681526020016101f461ffff1681526020016101f461ffff1681525060009060056200005b92919062000215565b506040518060a00160405280601960ff168152602001600f60ff168152602001600a60ff168152602001600560ff168152602001600260ff168152506001906005620000a99291906200026d565b50348015620000b757600080fd5b5060405162005521380380620055218339818101604052810190620000dd919062000311565b620000ee826200020260201b60201c565b158015620000fc5750600081115b6200010657600080fd5b81601860006101000a81548173ffffffffffffffffffffffffffffffffffffffff021916908373ffffffffffffffffffffffffffffffffffffffff16021790555033601960006101000a81548173ffffffffffffffffffffffffffffffffffffffff021916908373ffffffffffffffffffffffffffffffffffffffff160217905550806017819055506014604051806060016040528060078152602001614e208152602001617530815250908060018154018082558091505060019003906000526020600020906003020160009091909190915060008201518160000155602082015181600101556040820151816002015550505050620003c4565b600080823b905060008111915050919050565b8280548282559060005260206000209081019282156200025a579160200282015b8281111562000259578251829061ffff1690559160200191906001019062000236565b5b509050620002699190620002c4565b5090565b828054828255906000526020600020908101928215620002b1579160200282015b82811115620002b0578251829060ff169055916020019190600101906200028e565b5b509050620002c09190620002c4565b5090565b5b80821115620002df576000816000905550600101620002c5565b5090565b600081519050620002f48162000390565b92915050565b6000815190506200030b81620003aa565b92915050565b600080604083850312156200032557600080fd5b60006200033585828601620002e3565b92505060206200034885828601620002fa565b9150509250929050565b60006200035f8262000366565b9050919050565b600073ffffffffffffffffffffffffffffffffffffffff82169050919050565b6000819050919050565b6200039b8162000352565b8114620003a757600080fd5b50565b620003b58162000386565b8114620003c157600080fd5b50565b61514d80620003d46000396000f3fe60806040526004361061021a5760003560e01c806369b11dd511610123578063a8aeb6c2116100ab578063d7ffca911161006f578063d7ffca911461088a578063dba90698146108c7578063e262113e14610904578063e85abe091461092f578063f64ab3751461096c5761021a565b8063a8aeb6c214610775578063aecaa634146107b2578063af3e2122146107f1578063c0806b031461081c578063c23412381461085f5761021a565b80637d8cb7a2116100f25780637d8cb7a2146106665780637e3abeea146106915780637f75567f146106ce578063817b1cd21461070d578063a51b9533146107385761021a565b806369b11dd5146105a85780636bb18556146105d35780636f9fb98a1461061057806375f0a8741461063b5761021a565b806348c37203116101a6578063581c5ae611610175578063581c5ae6146104bd5780635936cf61146104d95780635f9c863014610519578063600d20ce1461053557806365938a60146105725761021a565b806348c37203146103ed57806348d44bd11461042a5780634aa7c0031461045557806357fc86b4146104925761021a565b80631531f016116101ed5780631531f01614610301578063153ab9df1461033e57806332bc298c1461037b57806336144c9a146103a65780633ccfd60b146103e35761021a565b806301c234a81461021f57806303a93c0c1461024a578063040a772e1461028757806306903e1c146102c4575b600080fd5b34801561022b57600080fd5b5061023461099b565b6040516102419190614ba3565b60405180910390f35b34801561025657600080fd5b50610271600480360381019061026c91906147f9565b6109a2565b60405161027e9190614ba3565b60405180910390f35b34801561029357600080fd5b506102ae60048036038101906102a991906147f9565b6109ee565b6040516102bb9190614ba3565b60405180910390f35b3480156102d057600080fd5b506102eb60048036038101906102e691906148c3565b610d43565b6040516102f89190614ba3565b60405180910390f35b34801561030d57600080fd5b50610328600480360381019061032391906147f9565b610f4d565b6040516103359190614ba3565b60405180910390f35b34801561034a57600080fd5b50610365600480360381019061036091906147f9565b610f74565b6040516103729190614ba3565b60405180910390f35b34801561038757600080fd5b50610390610fa0565b60405161039d9190614ba3565b60405180910390f35b3480156103b257600080fd5b506103cd60048036038101906103c891906147f9565b610fa7565b6040516103da9190614a13565b60405180910390f35b6103eb611013565b005b3480156103f957600080fd5b50610414600480360381019061040f91906147f9565b611604565b6040516104219190614ba3565b60405180910390f35b34801561043657600080fd5b5061043f611650565b60405161044c9190614ba3565b60405180910390f35b34801561046157600080fd5b5061047c600480360381019061047791906147f9565b611656565b6040516104899190614ba3565b60405180910390f35b34801561049e57600080fd5b506104a76116c6565b6040516104b49190614ba3565b60405180910390f35b6104d760048036038101906104d2919061485e565b6116cc565b005b3480156104e557600080fd5b5061050060048036038101906104fb91906148ec565b612064565b6040516105109493929190614c1e565b60405180910390f35b610533600480360381019061052e919061489a565b61218b565b005b34801561054157600080fd5b5061055c6004803603810190610557919061489a565b61240b565b6040516105699190614ba3565b60405180910390f35b34801561057e57600080fd5b5061058761242f565b60405161059f9c9b9a99989796959493929190614a49565b60405180910390f35b3480156105b457600080fd5b506105bd612531565b6040516105ca9190614ba3565b60405180910390f35b3480156105df57600080fd5b506105fa60048036038101906105f591906147f9565b612537565b6040516106079190614ba3565b60405180910390f35b34801561061c57600080fd5b506106256125d7565b6040516106329190614ba3565b60405180910390f35b34801561064757600080fd5b506106506125df565b60405161065d9190614a2e565b60405180910390f35b34801561067257600080fd5b5061067b612605565b6040516106889190614ba3565b60405180910390f35b34801561069d57600080fd5b506106b860048036038101906106b391906147f9565b612613565b6040516106c59190614ba3565b60405180910390f35b3480156106da57600080fd5b506106f560048036038101906106f091906147f9565b612721565b60405161070493929190614be7565b60405180910390f35b34801561071957600080fd5b506107226128f1565b60405161072f9190614ba3565b60405180910390f35b34801561074457600080fd5b5061075f600480360381019061075a91906148c3565b6128f7565b60405161076c9190614ba3565b60405180910390f35b34801561078157600080fd5b5061079c600480360381019061079791906147f9565b612a1f565b6040516107a99190614ba3565b60405180910390f35b3480156107be57600080fd5b506107d960048036038101906107d491906148c3565b612a6e565b6040516107e893929190614be7565b60405180910390f35b3480156107fd57600080fd5b50610806612b6d565b6040516108139190614ba3565b60405180910390f35b34801561082857600080fd5b50610843600480360381019061083e9190614822565b612b73565b6040516108569796959493929190614d17565b60405180910390f35b34801561086b57600080fd5b50610874612e0a565b6040516108819190614ba3565b60405180910390f35b34801561089657600080fd5b506108b160048036038101906108ac91906147f9565b612e10565b6040516108be9190614ba3565b60405180910390f35b3480156108d357600080fd5b506108ee60048036038101906108e991906147f9565b612e5c565b6040516108fb9190614ba3565b60405180910390f35b34801561091057600080fd5b50610919612ea8565b6040516109269190614ba3565b60405180910390f35b34801561093b57600080fd5b50610956600480360381019061095191906147f9565b612eb5565b6040516109639190614ba3565b60405180910390f35b34801561097857600080fd5b50610981612f01565b604051610992959493929190614c63565b60405180910390f35b620186a081565b6000601560008373ffffffffffffffffffffffffffffffffffffffff1673ffffffffffffffffffffffffffffffffffffffff168152602001908152602001600020600301549050919050565b600080601560008473ffffffffffffffffffffffffffffffffffffffff1673ffffffffffffffffffffffffffffffffffffffff1681526020019081526020016000209050600080600090505b8260000180549050811015610d3857826000018181548110610a85577f4e487b7100000000000000000000000000000000000000000000000000000000600052603260045260246000fd5b90600052602060002090600702016005015483600101541015610d25576000610b66620186a0610b58866000018581548110610aea577f4e487b7100000000000000000000000000000000000000000000000000000000600052603260045260246000fd5b906000526020600020906007020160010154876000018681548110610b38577f4e487b7100000000000000000000000000000000000000000000000000000000600052603260045260246000fd5b906000526020600020906007020160020154612f2990919063ffffffff16565b612fa490919063ffffffff16565b905060008460010154856000018481548110610bab577f4e487b7100000000000000000000000000000000000000000000000000000000600052603260045260246000fd5b90600052602060002090600702016004015411610bcc578460010154610c1b565b846000018381548110610c08577f4e487b7100000000000000000000000000000000000000000000000000000000600052603260045260246000fd5b9060005260206000209060070201600401545b9050600042866000018581548110610c5c577f4e487b7100000000000000000000000000000000000000000000000000000000600052603260045260246000fd5b90600052602060002090600702016005015410610c795742610cc8565b856000018481548110610cb5577f4e487b7100000000000000000000000000000000000000000000000000000000600052603260045260246000fd5b9060005260206000209060070201600501545b905080821015610d2157610d1e610d0f62015180610d01610cf2868661300290919063ffffffff16565b87612f2990919063ffffffff16565b612fa490919063ffffffff16565b8661306190919063ffffffff16565b94505b5050505b8080610d3090614f07565b915050610a3a565b508092505050919050565b600080610d7062015180610d626017544261300290919063ffffffff16565b612fa490919063ffffffff16565b905060008360ff161415610e0e576019811115610d91576000915050610f48565b610e06610da96107d083612f2990919063ffffffff16565b60148560ff1681548110610de6577f4e487b7100000000000000000000000000000000000000000000000000000000600052603260045260246000fd5b90600052602060002090600302016002015461300290919063ffffffff16565b915050610f48565b60018360ff161415610eaa57601e811115610e2d576000915050610f48565b610ea2610e456103e883612f2990919063ffffffff16565b60148560ff1681548110610e82577f4e487b7100000000000000000000000000000000000000000000000000000000600052603260045260246000fd5b90600052602060002090600302016002015461300290919063ffffffff16565b915050610f48565b60028360ff161415610f46576028811115610ec9576000915050610f48565b610f3e610ee16101f483612f2990919063ffffffff16565b60148560ff1681548110610f1e577f4e487b7100000000000000000000000000000000000000000000000000000000600052603260045260246000fd5b90600052602060002090600302016002015461300290919063ffffffff16565b915050610f48565b505b919050565b6000610f6d62015180610f5f84612e10565b61306190919063ffffffff16565b9050919050565b6000610f99610f82836109ee565b610f8b84612eb5565b61306190919063ffffffff16565b9050919050565b6201518081565b6000601560008373ffffffffffffffffffffffffffffffffffffffff1673ffffffffffffffffffffffffffffffffffffffff16815260200190815260200160002060020160009054906101000a900473ffffffffffffffffffffffffffffffffffffffff169050919050565b6000601560003373ffffffffffffffffffffffffffffffffffffffff1673ffffffffffffffffffffffffffffffffffffffff168152602001908152602001600020905060008060005b83600001805490508110156114b5578360000181815481106110a7577f4e487b7100000000000000000000000000000000000000000000000000000000600052603260045260246000fd5b906000526020600020906007020160050154846001015410156114a2576000611188620186a061117a87600001858154811061110c577f4e487b7100000000000000000000000000000000000000000000000000000000600052603260045260246000fd5b90600052602060002090600702016001015488600001868154811061115a577f4e487b7100000000000000000000000000000000000000000000000000000000600052603260045260246000fd5b906000526020600020906007020160020154612f2990919063ffffffff16565b612fa490919063ffffffff16565b9050600085600101548660000184815481106111cd577f4e487b7100000000000000000000000000000000000000000000000000000000600052603260045260246000fd5b906000526020600020906007020160040154116111ee57856001015461123d565b85600001838154811061122a577f4e487b7100000000000000000000000000000000000000000000000000000000600052603260045260246000fd5b9060005260206000209060070201600401545b905060004287600001858154811061127e577f4e487b7100000000000000000000000000000000000000000000000000000000600052603260045260246000fd5b9060005260206000209060070201600501541061129b57426112ea565b8660000184815481106112d7577f4e487b7100000000000000000000000000000000000000000000000000000000600052603260045260246000fd5b9060005260206000209060070201600501545b90508082101561149e57600061133062015180611322611313868661300290919063ffffffff16565b87612f2990919063ffffffff16565b612fa490919063ffffffff16565b905060006113a9620186a061139b8b600001898154811061137a577f4e487b7100000000000000000000000000000000000000000000000000000000600052603260045260246000fd5b90600052602060002090600702016006015485612f2990919063ffffffff16565b612fa490919063ffffffff16565b905061140b818a60000188815481106113eb577f4e487b7100000000000000000000000000000000000000000000000000000000600052603260045260246000fd5b90600052602060002090600702016002015461306190919063ffffffff16565b896000018781548110611447577f4e487b7100000000000000000000000000000000000000000000000000000000600052603260045260246000fd5b90600052602060002090600702016002018190555061146f818361300290919063ffffffff16565b9150611484828961306190919063ffffffff16565b9750611499818861306190919063ffffffff16565b965050505b5050505b80806114ad90614f07565b91505061105c565b5060006114c133612eb5565b905060008111156114ec57600084600401819055506114e9818461306190919063ffffffff16565b92505b61150382856006015461306190919063ffffffff16565b84600601819055506000831161154e576040517f08c379a000000000000000000000000000000000000000000000000000000000815260040161154590614b03565b60405180910390fd5b60004790508381101561155f578093505b4285600101819055503373ffffffffffffffffffffffffffffffffffffffff166108fc859081150290604051600060405180830381858888f193505050501580156115ae573d6000803e3d6000fd5b503373ffffffffffffffffffffffffffffffffffffffff167f7084f5476618d8e60b11ef0d7d3f06914655adb8793e28ff7f018d4c76d505d5856040516115f59190614ba3565b60405180910390a25050505050565b6000601560008373ffffffffffffffffffffffffffffffffffffffff1673ffffffffffffffffffffffffffffffffffffffff168152602001908152602001600020600501549050919050565b61138881565b600080601560008473ffffffffffffffffffffffffffffffffffffffff1673ffffffffffffffffffffffffffffffffffffffff168152602001908152602001600020905060008160080154905060006116b9826005612f2990919063ffffffff16565b9050809350505050919050565b6103e881565b6116d5346130bf565b6000601560003373ffffffffffffffffffffffffffffffffffffffff1673ffffffffffffffffffffffffffffffffffffffff1681526020019081526020016000209050600073ffffffffffffffffffffffffffffffffffffffff168160020160009054906101000a900473ffffffffffffffffffffffffffffffffffffffff1673ffffffffffffffffffffffffffffffffffffffff161415611b6a576000601560008573ffffffffffffffffffffffffffffffffffffffff1673ffffffffffffffffffffffffffffffffffffffff168152602001908152602001600020600001805490501180156117f257503373ffffffffffffffffffffffffffffffffffffffff168373ffffffffffffffffffffffffffffffffffffffff1614155b1561183f57828160020160006101000a81548173ffffffffffffffffffffffffffffffffffffffff021916908373ffffffffffffffffffffffffffffffffffffffff1602179055506118a5565b601960009054906101000a900473ffffffffffffffffffffffffffffffffffffffff168160020160006101000a81548173ffffffffffffffffffffffffffffffffffffffff021916908373ffffffffffffffffffffffffffffffffffffffff1602179055505b60008160020160009054906101000a900473ffffffffffffffffffffffffffffffffffffffff16905060005b6005811015611b6757600073ffffffffffffffffffffffffffffffffffffffff168273ffffffffffffffffffffffffffffffffffffffff1614611b4f576119646001601560008573ffffffffffffffffffffffffffffffffffffffff1673ffffffffffffffffffffffffffffffffffffffff1681526020019081526020016000206003015461306190919063ffffffff16565b601560008473ffffffffffffffffffffffffffffffffffffffff1673ffffffffffffffffffffffffffffffffffffffff16815260200190815260200160002060030181905550600073ffffffffffffffffffffffffffffffffffffffff16601560008473ffffffffffffffffffffffffffffffffffffffff1673ffffffffffffffffffffffffffffffffffffffff16815260200190815260200160002060020160009054906101000a900473ffffffffffffffffffffffffffffffffffffffff1673ffffffffffffffffffffffffffffffffffffffff161415611ae557601960009054906101000a900473ffffffffffffffffffffffffffffffffffffffff16601560008473ffffffffffffffffffffffffffffffffffffffff1673ffffffffffffffffffffffffffffffffffffffff16815260200190815260200160002060020160006101000a81548173ffffffffffffffffffffffffffffffffffffffff021916908373ffffffffffffffffffffffffffffffffffffffff1602179055505b601560008373ffffffffffffffffffffffffffffffffffffffff1673ffffffffffffffffffffffffffffffffffffffff16815260200190815260200160002060020160009054906101000a900473ffffffffffffffffffffffffffffffffffffffff169150611b54565b611b67565b8080611b5f90614f07565b9150506118d1565b50505b600073ffffffffffffffffffffffffffffffffffffffff168160020160009054906101000a900473ffffffffffffffffffffffffffffffffffffffff1673ffffffffffffffffffffffffffffffffffffffff1614611ebd5760008160020160009054906101000a900473ffffffffffffffffffffffffffffffffffffffff16905060005b6005811015611eba57600073ffffffffffffffffffffffffffffffffffffffff168273ffffffffffffffffffffffffffffffffffffffff1614611ea2576000611c99620186a0611c8b60008581548110611c71577f4e487b7100000000000000000000000000000000000000000000000000000000600052603260045260246000fd5b906000526020600020015434612f2990919063ffffffff16565b612fa490919063ffffffff16565b9050611cf081601560008673ffffffffffffffffffffffffffffffffffffffff1673ffffffffffffffffffffffffffffffffffffffff1681526020019081526020016000206004015461306190919063ffffffff16565b601560008573ffffffffffffffffffffffffffffffffffffffff1673ffffffffffffffffffffffffffffffffffffffff16815260200190815260200160002060040181905550611d8b81601560008673ffffffffffffffffffffffffffffffffffffffff1673ffffffffffffffffffffffffffffffffffffffff1681526020019081526020016000206005015461306190919063ffffffff16565b601560008573ffffffffffffffffffffffffffffffffffffffff1673ffffffffffffffffffffffffffffffffffffffff16815260200190815260200160002060050181905550813373ffffffffffffffffffffffffffffffffffffffff168473ffffffffffffffffffffffffffffffffffffffff167fd41f7e766eebcc7ff42b11ac8691bdf864db4afc0c55e71d629d54edce460d9884604051611e2f9190614ba3565b60405180910390a4601560008473ffffffffffffffffffffffffffffffffffffffff1673ffffffffffffffffffffffffffffffffffffffff16815260200190815260200160002060020160009054906101000a900473ffffffffffffffffffffffffffffffffffffffff16925050611ea7565b611eba565b8080611eb290614f07565b915050611bee565b50505b600081600001805490501415611f0e574281600101819055507f9fd565cd14c3c391679eb0cad12a14dcf7534e9d3462bcb9b67a098a9bbbc24a33604051611f059190614a13565b60405180910390a15b600080600080611f1e8634612064565b9350935093509350846000016040518060e001604052808860ff16815260200186815260200134815260200185815260200142815260200184815260200183815250908060018154018082558091505060019003906000526020600020906007020160009091909190915060008201518160000160006101000a81548160ff021916908360ff1602179055506020820151816001015560408201518160020155606082015181600301556080820151816004015560a0820151816005015560c082015181600601555050611ffd3460025461306190919063ffffffff16565b6002819055503373ffffffffffffffffffffffffffffffffffffffff167f84e02daa69bdb087c9fe8d3041abca495512cb14e723070f6d1d4efface82e5d87863487428860405161205396959493929190614cb6565b60405180910390a250505050505050565b600080600080612073866128f7565b935061207e86610d43565b905061210860148760ff16815481106120c0577f4e487b7100000000000000000000000000000000000000000000000000000000600052603260045260246000fd5b9060005260206000209060030201600001546120fa620186a06120ec888a612f2990919063ffffffff16565b612fa490919063ffffffff16565b612f2990919063ffffffff16565b92506121806121716201518060148960ff1681548110612151577f4e487b7100000000000000000000000000000000000000000000000000000000600052603260045260246000fd5b906000526020600020906003020160000154612f2990919063ffffffff16565b4261306190919063ffffffff16565b915092959194509250565b6000601560003373ffffffffffffffffffffffffffffffffffffffff1673ffffffffffffffffffffffffffffffffffffffff1681526020019081526020016000209050600060166000600654815260200190815260200160002090506121fc8360095461306190919063ffffffff16565b6009819055506122178360075461306190919063ffffffff16565b60078190555061223483836008015461306190919063ffffffff16565b826008018190555061225383836009015461306190919063ffffffff16565b82600901819055506122703460055461306190919063ffffffff16565b6005819055506000600190505b83811161236f578160000160405180604001604052803373ffffffffffffffffffffffffffffffffffffffff1681526020016122c5600160085461306190919063ffffffff16565b815250908060018154018082558091505060019003906000526020600020906002020160009091909190915060008201518160000160006101000a81548173ffffffffffffffffffffffffffffffffffffffff021916908373ffffffffffffffffffffffffffffffffffffffff1602179055506020820151816001015550506008600081548092919061235790614f07565b9190505550808061236790614f07565b91505061227d565b503373ffffffffffffffffffffffffffffffffffffffff167f42e6ac2176f7dd4a34030aa09cee5ccc42b4b4e28bf6868b734cdf190864d9f3346008546040516123ba929190614bbe565b60405180910390a260326007541415612406576123d56131f2565b6000600581905550600060078190555060006008819055506006600081548092919061240090614f07565b91905055505b505050565b6000818154811061241b57600080fd5b906000526020600020016000915090505481565b600080600080600080600080600080600080600a60009054906101000a900473ffffffffffffffffffffffffffffffffffffffff16600b60009054906101000a900473ffffffffffffffffffffffffffffffffffffffff16600c60009054906101000a900473ffffffffffffffffffffffffffffffffffffffff16600d60009054906101000a900473ffffffffffffffffffffffffffffffffffffffff16600e60009054906101000a900473ffffffffffffffffffffffffffffffffffffffff16600654600754600954603268056bc75e2d631000006005546004549b509b509b509b509b509b509b509b509b509b509b509b50909192939495969798999a9b565b60035481565b60006125d0601560008473ffffffffffffffffffffffffffffffffffffffff1673ffffffffffffffffffffffffffffffffffffffff16815260200190815260200160002060040154601560008573ffffffffffffffffffffffffffffffffffffffff1673ffffffffffffffffffffffffffffffffffffffff1681526020019081526020016000206005015461300290919063ffffffff16565b9050919050565b600047905090565b601860009054906101000a900473ffffffffffffffffffffffffffffffffffffffff1681565b69152d02c7e14af680000081565b600080600090505b601560008473ffffffffffffffffffffffffffffffffffffffff1673ffffffffffffffffffffffffffffffffffffffff1681526020019081526020016000206000018054905081101561271b57612706601560008573ffffffffffffffffffffffffffffffffffffffff1673ffffffffffffffffffffffffffffffffffffffff16815260200190815260200160002060000182815481106126e5577f4e487b7100000000000000000000000000000000000000000000000000000000600052603260045260246000fd5b9060005260206000209060070201600201548361306190919063ffffffff16565b9150808061271390614f07565b91505061261b565b50919050565b600080600080601560008673ffffffffffffffffffffffffffffffffffffffff1673ffffffffffffffffffffffffffffffffffffffff1681526020019081526020016000206040518061014001604052908160008201805480602002602001604051908101604052809291908181526020016000905b8282101561282257838290600052602060002090600702016040518060e00160405290816000820160009054906101000a900460ff1660ff1660ff168152602001600182015481526020016002820154815260200160038201548152602001600482015481526020016005820154815260200160068201548152505081526020019060010190612797565b505050508152602001600182015481526020016002820160009054906101000a900473ffffffffffffffffffffffffffffffffffffffff1673ffffffffffffffffffffffffffffffffffffffff1673ffffffffffffffffffffffffffffffffffffffff16815260200160038201548152602001600482015481526020016005820154815260200160068201548152602001600782015481526020016008820154815260200160098201548152505090508060e00151816101000151826101200151935093509350509193909250565b60025481565b60008061290333611656565b90506017544211156129c7576129bf816129b1612954620151806129466129356017544261300290919063ffffffff16565b6103e8612f2990919063ffffffff16565b612fa490919063ffffffff16565b60148760ff1681548110612991577f4e487b7100000000000000000000000000000000000000000000000000000000600052603260045260246000fd5b90600052602060002090600302016001015461306190919063ffffffff16565b61306190919063ffffffff16565b915050612a1a565b60148360ff1681548110612a04577f4e487b7100000000000000000000000000000000000000000000000000000000600052603260045260246000fd5b9060005260206000209060030201600101549150505b919050565b6000601560008373ffffffffffffffffffffffffffffffffffffffff1673ffffffffffffffffffffffffffffffffffffffff168152602001908152602001600020600001805490509050919050565b600080600060148460ff1681548110612ab0577f4e487b7100000000000000000000000000000000000000000000000000000000600052603260045260246000fd5b906000526020600020906003020160000154925060148460ff1681548110612b01577f4e487b7100000000000000000000000000000000000000000000000000000000600052603260045260246000fd5b906000526020600020906003020160010154915060148460ff1681548110612b52577f4e487b7100000000000000000000000000000000000000000000000000000000600052603260045260246000fd5b90600052602060002090600302016002015490509193909250565b61138881565b600080600080600080600080601560008b73ffffffffffffffffffffffffffffffffffffffff1673ffffffffffffffffffffffffffffffffffffffff1681526020019081526020016000209050806000018981548110612bfc577f4e487b7100000000000000000000000000000000000000000000000000000000600052603260045260246000fd5b906000526020600020906007020160000160009054906101000a900460ff169750806000018981548110612c59577f4e487b7100000000000000000000000000000000000000000000000000000000600052603260045260246000fd5b9060005260206000209060070201600101549650806000018981548110612ca9577f4e487b7100000000000000000000000000000000000000000000000000000000600052603260045260246000fd5b9060005260206000209060070201600201549550806000018981548110612cf9577f4e487b7100000000000000000000000000000000000000000000000000000000600052603260045260246000fd5b9060005260206000209060070201600301549450806000018981548110612d49577f4e487b7100000000000000000000000000000000000000000000000000000000600052603260045260246000fd5b9060005260206000209060070201600401549350806000018981548110612d99577f4e487b7100000000000000000000000000000000000000000000000000000000600052603260045260246000fd5b9060005260206000209060070201600501549250806000018981548110612de9577f4e487b7100000000000000000000000000000000000000000000000000000000600052603260045260246000fd5b90600052602060002090600702016006015491505092959891949750929550565b60175481565b6000601560008373ffffffffffffffffffffffffffffffffffffffff1673ffffffffffffffffffffffffffffffffffffffff168152602001908152602001600020600101549050919050565b6000601560008373ffffffffffffffffffffffffffffffffffffffff1673ffffffffffffffffffffffffffffffffffffffff168152602001908152602001600020600601549050919050565b681b1ae4d6e2ef50000081565b6000601560008373ffffffffffffffffffffffffffffffffffffffff1673ffffffffffffffffffffffffffffffffffffffff168152602001908152602001600020600401549050919050565b6000806000806000600f54601054601154601254601354945094509450945094509091929394565b600080831415612f3c5760009050612f9e565b60008284612f4a9190614e1e565b9050828482612f599190614ded565b14612f99576040517f08c379a0000000000000000000000000000000000000000000000000000000008152600401612f9090614b83565b60405180910390fd5b809150505b92915050565b6000808211612fe8576040517f08c379a0000000000000000000000000000000000000000000000000000000008152600401612fdf90614b63565b60405180910390fd5b60008284612ff69190614ded565b90508091505092915050565b600082821115613047576040517f08c379a000000000000000000000000000000000000000000000000000000000815260040161303e90614b43565b60405180910390fd5b600082846130559190614e78565b90508091505092915050565b60008082846130709190614d97565b9050838110156130b5576040517f08c379a00000000000000000000000000000000000000000000000000000000081526004016130ac90614b23565b60405180910390fd5b8091505092915050565b60006130eb620186a06130dd61138885612f2990919063ffffffff16565b612fa490919063ffffffff16565b9050601960009054906101000a900473ffffffffffffffffffffffffffffffffffffffff1673ffffffffffffffffffffffffffffffffffffffff166108fc829081150290604051600060405180830381858888f19350505050158015613155573d6000803e3d6000fd5b506000613182620186a061317461138886612f2990919063ffffffff16565b612fa490919063ffffffff16565b9050601860009054906101000a900473ffffffffffffffffffffffffffffffffffffffff1673ffffffffffffffffffffffffffffffffffffffff166108fc829081150290604051600060405180830381858888f193505050501580156131ec573d6000803e3d6000fd5b50505050565b60006016600060065481526020019081526020016000209050600061321b6001603260016146d0565b9050600061322d6001603260026146d0565b9050600061323f6001603260036146d0565b905060006132516001603260046146d0565b905060006132636001603260056146d0565b90506000806005549050600060045411156132ca5760006132906014600454612fa490919063ffffffff16565b90506132a78160055461306190919063ffffffff16565b6005819055506132c28160045461300290919063ffffffff16565b600481905550505b6133056132f460646132e6600c85612f2990919063ffffffff16565b612fa490919063ffffffff16565b60045461306190919063ffffffff16565b60048190555060005b60328110156146c5576000601560008b6000018481548110613359577f4e487b7100000000000000000000000000000000000000000000000000000000600052603260045260246000fd5b906000526020600020906002020160000160009054906101000a900473ffffffffffffffffffffffffffffffffffffffff1673ffffffffffffffffffffffffffffffffffffffff1673ffffffffffffffffffffffffffffffffffffffff1681526020019081526020016000206009015414613484576000601560008b6000018481548110613410577f4e487b7100000000000000000000000000000000000000000000000000000000600052603260045260246000fd5b906000526020600020906002020160000160009054906101000a900473ffffffffffffffffffffffffffffffffffffffff1673ffffffffffffffffffffffffffffffffffffffff1673ffffffffffffffffffffffffffffffffffffffff168152602001908152602001600020600901819055505b878960000182815481106134c1577f4e487b7100000000000000000000000000000000000000000000000000000000600052603260045260246000fd5b9060005260206000209060020201600101541415613827576135466064613538600160008154811061351c577f4e487b7100000000000000000000000000000000000000000000000000000000600052603260045260246000fd5b9060005260206000200154600554612f2990919063ffffffff16565b612fa490919063ffffffff16565b9250886000018181548110613584577f4e487b7100000000000000000000000000000000000000000000000000000000600052603260045260246000fd5b906000526020600020906002020160000160009054906101000a900473ffffffffffffffffffffffffffffffffffffffff1673ffffffffffffffffffffffffffffffffffffffff166108fc849081150290604051600060405180830381858888f193505050501580156135fb573d6000803e3d6000fd5b506136be83601560008c6000018581548110613640577f4e487b7100000000000000000000000000000000000000000000000000000000600052603260045260246000fd5b906000526020600020906002020160000160009054906101000a900473ffffffffffffffffffffffffffffffffffffffff1673ffffffffffffffffffffffffffffffffffffffff1673ffffffffffffffffffffffffffffffffffffffff1681526020019081526020016000206007015461306190919063ffffffff16565b601560008b60000184815481106136fe577f4e487b7100000000000000000000000000000000000000000000000000000000600052603260045260246000fd5b906000526020600020906002020160000160009054906101000a900473ffffffffffffffffffffffffffffffffffffffff1673ffffffffffffffffffffffffffffffffffffffff1673ffffffffffffffffffffffffffffffffffffffff168152602001908152602001600020600701819055508860000181815481106137ad577f4e487b7100000000000000000000000000000000000000000000000000000000600052603260045260246000fd5b906000526020600020906002020160000160009054906101000a900473ffffffffffffffffffffffffffffffffffffffff16600a60006101000a81548173ffffffffffffffffffffffffffffffffffffffff021916908373ffffffffffffffffffffffffffffffffffffffff16021790555082600f819055505b86896000018281548110613864577f4e487b7100000000000000000000000000000000000000000000000000000000600052603260045260246000fd5b9060005260206000209060020201600101541415613bc9576138e860646138da600180815481106138be577f4e487b7100000000000000000000000000000000000000000000000000000000600052603260045260246000fd5b9060005260206000200154600554612f2990919063ffffffff16565b612fa490919063ffffffff16565b9250886000018181548110613926577f4e487b7100000000000000000000000000000000000000000000000000000000600052603260045260246000fd5b906000526020600020906002020160000160009054906101000a900473ffffffffffffffffffffffffffffffffffffffff1673ffffffffffffffffffffffffffffffffffffffff166108fc849081150290604051600060405180830381858888f1935050505015801561399d573d6000803e3d6000fd5b50613a6083601560008c60000185815481106139e2577f4e487b7100000000000000000000000000000000000000000000000000000000600052603260045260246000fd5b906000526020600020906002020160000160009054906101000a900473ffffffffffffffffffffffffffffffffffffffff1673ffffffffffffffffffffffffffffffffffffffff1673ffffffffffffffffffffffffffffffffffffffff1681526020019081526020016000206007015461306190919063ffffffff16565b601560008b6000018481548110613aa0577f4e487b7100000000000000000000000000000000000000000000000000000000600052603260045260246000fd5b906000526020600020906002020160000160009054906101000a900473ffffffffffffffffffffffffffffffffffffffff1673ffffffffffffffffffffffffffffffffffffffff1673ffffffffffffffffffffffffffffffffffffffff16815260200190815260200160002060070181905550886000018181548110613b4f577f4e487b7100000000000000000000000000000000000000000000000000000000600052603260045260246000fd5b906000526020600020906002020160000160009054906101000a900473ffffffffffffffffffffffffffffffffffffffff16600b60006101000a81548173ffffffffffffffffffffffffffffffffffffffff021916908373ffffffffffffffffffffffffffffffffffffffff160217905550826010819055505b85896000018281548110613c06577f4e487b7100000000000000000000000000000000000000000000000000000000600052603260045260246000fd5b9060005260206000209060020201600101541415613f6c57613c8b6064613c7d6001600281548110613c61577f4e487b7100000000000000000000000000000000000000000000000000000000600052603260045260246000fd5b9060005260206000200154600554612f2990919063ffffffff16565b612fa490919063ffffffff16565b9250886000018181548110613cc9577f4e487b7100000000000000000000000000000000000000000000000000000000600052603260045260246000fd5b906000526020600020906002020160000160009054906101000a900473ffffffffffffffffffffffffffffffffffffffff1673ffffffffffffffffffffffffffffffffffffffff166108fc849081150290604051600060405180830381858888f19350505050158015613d40573d6000803e3d6000fd5b50613e0383601560008c6000018581548110613d85577f4e487b7100000000000000000000000000000000000000000000000000000000600052603260045260246000fd5b906000526020600020906002020160000160009054906101000a900473ffffffffffffffffffffffffffffffffffffffff1673ffffffffffffffffffffffffffffffffffffffff1673ffffffffffffffffffffffffffffffffffffffff1681526020019081526020016000206007015461306190919063ffffffff16565b601560008b6000018481548110613e43577f4e487b7100000000000000000000000000000000000000000000000000000000600052603260045260246000fd5b906000526020600020906002020160000160009054906101000a900473ffffffffffffffffffffffffffffffffffffffff1673ffffffffffffffffffffffffffffffffffffffff1673ffffffffffffffffffffffffffffffffffffffff16815260200190815260200160002060070181905550886000018181548110613ef2577f4e487b7100000000000000000000000000000000000000000000000000000000600052603260045260246000fd5b906000526020600020906002020160000160009054906101000a900473ffffffffffffffffffffffffffffffffffffffff16600c60006101000a81548173ffffffffffffffffffffffffffffffffffffffff021916908373ffffffffffffffffffffffffffffffffffffffff160217905550826011819055505b84896000018281548110613fa9577f4e487b7100000000000000000000000000000000000000000000000000000000600052603260045260246000fd5b906000526020600020906002020160010154141561430f5761402e60646140206001600381548110614004577f4e487b7100000000000000000000000000000000000000000000000000000000600052603260045260246000fd5b9060005260206000200154600554612f2990919063ffffffff16565b612fa490919063ffffffff16565b925088600001818154811061406c577f4e487b7100000000000000000000000000000000000000000000000000000000600052603260045260246000fd5b906000526020600020906002020160000160009054906101000a900473ffffffffffffffffffffffffffffffffffffffff1673ffffffffffffffffffffffffffffffffffffffff166108fc849081150290604051600060405180830381858888f193505050501580156140e3573d6000803e3d6000fd5b506141a683601560008c6000018581548110614128577f4e487b7100000000000000000000000000000000000000000000000000000000600052603260045260246000fd5b906000526020600020906002020160000160009054906101000a900473ffffffffffffffffffffffffffffffffffffffff1673ffffffffffffffffffffffffffffffffffffffff1673ffffffffffffffffffffffffffffffffffffffff1681526020019081526020016000206007015461306190919063ffffffff16565b601560008b60000184815481106141e6577f4e487b7100000000000000000000000000000000000000000000000000000000600052603260045260246000fd5b906000526020600020906002020160000160009054906101000a900473ffffffffffffffffffffffffffffffffffffffff1673ffffffffffffffffffffffffffffffffffffffff1673ffffffffffffffffffffffffffffffffffffffff16815260200190815260200160002060070181905550886000018181548110614295577f4e487b7100000000000000000000000000000000000000000000000000000000600052603260045260246000fd5b906000526020600020906002020160000160009054906101000a900473ffffffffffffffffffffffffffffffffffffffff16600d60006101000a81548173ffffffffffffffffffffffffffffffffffffffff021916908373ffffffffffffffffffffffffffffffffffffffff160217905550826012819055505b8389600001828154811061434c577f4e487b7100000000000000000000000000000000000000000000000000000000600052603260045260246000fd5b90600052602060002090600202016001015414156146b2576143d160646143c360016004815481106143a7577f4e487b7100000000000000000000000000000000000000000000000000000000600052603260045260246000fd5b9060005260206000200154600554612f2990919063ffffffff16565b612fa490919063ffffffff16565b925088600001818154811061440f577f4e487b7100000000000000000000000000000000000000000000000000000000600052603260045260246000fd5b906000526020600020906002020160000160009054906101000a900473ffffffffffffffffffffffffffffffffffffffff1673ffffffffffffffffffffffffffffffffffffffff166108fc849081150290604051600060405180830381858888f19350505050158015614486573d6000803e3d6000fd5b5061454983601560008c60000185815481106144cb577f4e487b7100000000000000000000000000000000000000000000000000000000600052603260045260246000fd5b906000526020600020906002020160000160009054906101000a900473ffffffffffffffffffffffffffffffffffffffff1673ffffffffffffffffffffffffffffffffffffffff1673ffffffffffffffffffffffffffffffffffffffff1681526020019081526020016000206007015461306190919063ffffffff16565b601560008b6000018481548110614589577f4e487b7100000000000000000000000000000000000000000000000000000000600052603260045260246000fd5b906000526020600020906002020160000160009054906101000a900473ffffffffffffffffffffffffffffffffffffffff1673ffffffffffffffffffffffffffffffffffffffff1673ffffffffffffffffffffffffffffffffffffffff16815260200190815260200160002060070181905550886000018181548110614638577f4e487b7100000000000000000000000000000000000000000000000000000000600052603260045260246000fd5b906000526020600020906002020160000160009054906101000a900473ffffffffffffffffffffffffffffffffffffffff16600e60006101000a81548173ffffffffffffffffffffffffffffffffffffffff021916908373ffffffffffffffffffffffffffffffffffffffff160217905550826013819055505b80806146bd90614f07565b91505061330e565b505050505050505050565b6000806146f060016146e2868861477c565b61306190919063ffffffff16565b90506000859050600061476d8261475f856147148942612f2990919063ffffffff16565b6147278a44612f2990919063ffffffff16565b604051602001614738929190614bbe565b6040516020818303038152906040528051906020012060001c6147a490919063ffffffff16565b61306190919063ffffffff16565b90508093505050509392505050565b6000818311156147995781836147929190614e78565b905061479e565b600090505b92915050565b600081836147b29190614f50565b905092915050565b6000813590506147c9816150d2565b92915050565b6000813590506147de816150e9565b92915050565b6000813590506147f381615100565b92915050565b60006020828403121561480b57600080fd5b6000614819848285016147ba565b91505092915050565b6000806040838503121561483557600080fd5b6000614843858286016147ba565b9250506020614854858286016147cf565b9150509250929050565b6000806040838503121561487157600080fd5b600061487f858286016147ba565b9250506020614890858286016147e4565b9150509250929050565b6000602082840312156148ac57600080fd5b60006148ba848285016147cf565b91505092915050565b6000602082840312156148d557600080fd5b60006148e3848285016147e4565b91505092915050565b600080604083850312156148ff57600080fd5b600061490d858286016147e4565b925050602061491e858286016147cf565b9150509250929050565b61493181614ebe565b82525050565b61494081614eac565b82525050565b6000614953601583614d86565b915061495e82614fdf565b602082019050919050565b6000614976601b83614d86565b915061498182615008565b602082019050919050565b6000614999601e83614d86565b91506149a482615031565b602082019050919050565b60006149bc601a83614d86565b91506149c78261505a565b602082019050919050565b60006149df602183614d86565b91506149ea82615083565b604082019050919050565b6149fe81614ef0565b82525050565b614a0d81614efa565b82525050565b6000602082019050614a286000830184614937565b92915050565b6000602082019050614a436000830184614928565b92915050565b600061018082019050614a5f600083018f614937565b614a6c602083018e614937565b614a79604083018d614937565b614a86606083018c614937565b614a93608083018b614937565b614aa060a083018a6149f5565b614aad60c08301896149f5565b614aba60e08301886149f5565b614ac86101008301876149f5565b614ad66101208301866149f5565b614ae46101408301856149f5565b614af26101608301846149f5565b9d9c50505050505050505050505050565b60006020820190508181036000830152614b1c81614946565b9050919050565b60006020820190508181036000830152614b3c81614969565b9050919050565b60006020820190508181036000830152614b5c8161498c565b9050919050565b60006020820190508181036000830152614b7c816149af565b9050919050565b60006020820190508181036000830152614b9c816149d2565b9050919050565b6000602082019050614bb860008301846149f5565b92915050565b6000604082019050614bd360008301856149f5565b614be060208301846149f5565b9392505050565b6000606082019050614bfc60008301866149f5565b614c0960208301856149f5565b614c1660408301846149f5565b949350505050565b6000608082019050614c3360008301876149f5565b614c4060208301866149f5565b614c4d60408301856149f5565b614c5a60608301846149f5565b95945050505050565b600060a082019050614c7860008301886149f5565b614c8560208301876149f5565b614c9260408301866149f5565b614c9f60608301856149f5565b614cac60808301846149f5565b9695505050505050565b600060c082019050614ccb6000830189614a04565b614cd860208301886149f5565b614ce560408301876149f5565b614cf260608301866149f5565b614cff60808301856149f5565b614d0c60a08301846149f5565b979650505050505050565b600060e082019050614d2c600083018a614a04565b614d3960208301896149f5565b614d4660408301886149f5565b614d5360608301876149f5565b614d6060808301866149f5565b614d6d60a08301856149f5565b614d7a60c08301846149f5565b98975050505050505050565b600082825260208201905092915050565b6000614da282614ef0565b9150614dad83614ef0565b9250827fffffffffffffffffffffffffffffffffffffffffffffffffffffffffffffffff03821115614de257614de1614f81565b5b828201905092915050565b6000614df882614ef0565b9150614e0383614ef0565b925082614e1357614e12614fb0565b5b828204905092915050565b6000614e2982614ef0565b9150614e3483614ef0565b9250817fffffffffffffffffffffffffffffffffffffffffffffffffffffffffffffffff0483118215151615614e6d57614e6c614f81565b5b828202905092915050565b6000614e8382614ef0565b9150614e8e83614ef0565b925082821015614ea157614ea0614f81565b5b828203905092915050565b6000614eb782614ed0565b9050919050565b6000614ec982614ed0565b9050919050565b600073ffffffffffffffffffffffffffffffffffffffff82169050919050565b6000819050919050565b600060ff82169050919050565b6000614f1282614ef0565b91507fffffffffffffffffffffffffffffffffffffffffffffffffffffffffffffffff821415614f4557614f44614f81565b5b600182019050919050565b6000614f5b82614ef0565b9150614f6683614ef0565b925082614f7657614f75614fb0565b5b828206905092915050565b7f4e487b7100000000000000000000000000000000000000000000000000000000600052601160045260246000fd5b7f4e487b7100000000000000000000000000000000000000000000000000000000600052601260045260246000fd5b7f5573657220686173206e6f206469766964656e64730000000000000000000000600082015250565b7f536166654d6174683a206164646974696f6e206f766572666c6f770000000000600082015250565b7f536166654d6174683a207375627472616374696f6e206f766572666c6f770000600082015250565b7f536166654d6174683a206469766973696f6e206279207a65726f000000000000600082015250565b7f536166654d6174683a206d756c7469706c69636174696f6e206f766572666c6f60008201527f7700000000000000000000000000000000000000000000000000000000000000602082015250565b6150db81614eac565b81146150e657600080fd5b50565b6150f281614ef0565b81146150fd57600080fd5b50565b61510981614efa565b811461511457600080fd5b5056fea26469706673582212207064b30bc352b7b8c28ed31ea9233afe8d634d4011d4b2b858f162ee435ef42f64736f6c63430008040033",
  "immutableReferences": {},
  "source": "// SPDX-License-Identifier: MIT\n/* \nCosas que tiene que tener:\n- Reinversion tradicional fija (30%).\n- Retirar cuando uno quiera, si retira pierde el hold bonus.\n- Maximo de inversion \n- 1 plan\n\nIdeas:\n- Hold bonus combinado con el porcentaje de reinversion (cada dia que pasa dejando la plata sumo interes a mi inversion, si retiro tengo que reinvertir mas)\n- Porcentaje de reinversion como tickets de loteria.\n\nPremisas:\n- Que sea duradero (minimo de 2 meses)\n*/\n\npragma solidity >=0.8.4;\n\ncontract ThunderHold {\n    using SafeMath for uint256;\n\n    uint256 public constant INVEST_MAX_AMOUNT = 100000 ether; // 100.000 TT\n    uint256 public constant INVEST_MIN_AMOUNT = 500 ether; //500 TT\n    uint256[] public REFERRAL_PERCENTS = [40e2, 20e2, 10e2, 5e2, 5e2]; //4%,2%,1%,0.5%,0.5%\n    uint256 public constant PROJECT_FEE = 50e2;\n    uint256 public constant MARKETING_FEE = 50e2;\n    uint256 public constant PERCENT_STEP = 10e2;\n    uint256 public constant PERCENTS_DIVIDER = 1000e2;\n    uint256 public constant TIME_STEP = 1 days; // 1 days\n    uint256 internal constant LOTTOBONUS = 5; // Bonus for pay a one ticket, acumulative.\n    uint256 internal constant LOTTOTICKET = 100 ether; // 100 TT, value ticket\n    uint256[] internal LOTTO_WIN_PERCENT = [25, 15, 10, 5, 2]; // Awards Lotto\n    uint256 internal constant LOTTO_TICKET_LIMIT = 50; // 50 Entrys Lotto\n    uint256 internal constant LOTTO_USER_LIMIT = 10; // 10 Entrys Lotto per user\n\n    uint256 public totalStaked;\n    uint256 public totalRefBonus;\n\n    uint256 lottoBag;\n    uint256 lottoCurrentPot;\n    uint256 lottoCycles;\n    uint256 lottoCurrentTicketsCount;\n    uint256 lottoLastTicket;\n    uint256 lottoTotalTicketsCount;\n    address lottoLastWin1a;\n    address lottoLastWin2a;\n    address lottoLastWin3a;\n    address lottoLastWin4a;\n    address lottoLastWin5a;\n    uint256 PLastWin1;\n    uint256 PLastWin2;\n    uint256 PLastWin3;\n    uint256 PLastWin4;\n    uint256 PLastWin5;\n\n    struct cLotto {\n        address lottoId;\n        uint256 ticketNumber;\n    }\n\n    struct nLotto {\n        cLotto[] currentLotto;\n    }\n\n    struct Plan {\n        uint256 time;\n        uint256 percent;\n        uint256 reinvest;\n    }\n\n    Plan[] internal plans;\n\n    struct Deposit {\n        uint8 plan;\n        uint256 percent;\n        uint256 amount;\n        uint256 profit;\n        uint256 start;\n        uint256 finish;\n        uint256 reinvest;\n    }\n\n    struct User {\n        Deposit[] deposits;\n        uint256 checkpoint;\n        address referrer;\n        uint256 referrals;\n        uint256 bonus;\n        uint256 totalBonus;\n        uint256 totalReinvested;\n        uint256 lottobonus;\n        uint256 lottoparticipations;\n        uint256 lottolimit;\n    }\n\n    mapping(address => User) internal users;\n    mapping(uint256 => nLotto) internal nlottos;\n\n    uint256 public startUNIX;\n    address payable public marketingWallet; //TODO Tuve que ponerla public para que se puedan realizar los tests\n    address payable private developerWallet;\n\n    event Newbie(address user);\n    event NewDeposit(\n        address indexed user,\n        uint8 plan,\n        uint256 percent,\n        uint256 amount,\n        uint256 profit,\n        uint256 start,\n        uint256 finish\n    );\n    event Withdrawn(address indexed user, uint256 amount);\n    event RefBonus(\n        address indexed referrer,\n        address indexed referral,\n        uint256 indexed level,\n        uint256 amount\n    );\n    event NewParticipantLotto(address indexed user, uint256 amount, uint256 pt);\n\n    constructor(address payable wallet, uint256 start) {\n        require(!isContract(wallet) && start > 0);\n        marketingWallet = wallet;\n        developerWallet = payable(msg.sender);\n        startUNIX = start;\n\n        // Agregamos solo 1 plan los demas los comentamos\n        plans.push(Plan(7, 200e2, 300e2)); // 20% per day for 7 days, 30% reinvest\n        //plans.push(Plan(15, 180e2, 300e2)); // 18% per day for 15 days, 30% reinvest\n        //plans.push(Plan(20, 170e2, 200e2)); // 17% per day for 20 days, 20% reinvest\n    }\n\n    function Feepayout(uint256 amt) internal {\n        uint256 developerfee = amt.mul(PROJECT_FEE).div(PERCENTS_DIVIDER);\n        developerWallet.transfer(developerfee);\n        uint256 marketingFee = amt.mul(MARKETING_FEE).div(PERCENTS_DIVIDER);\n        marketingWallet.transfer(marketingFee);\n    }\n\n    function invest(address referrer, uint8 plan) public payable {\n        //require(block.timestamp >= startUNIX ,\"Not Launch\");\n        //require(msg.value >= INVEST_MIN_AMOUNT);\n        //require(msg.value <= INVEST_MAX_AMOUNT);\n        //require(plan < 1, \"Invalid plan\");\n\n        Feepayout(msg.value); // Cobran devs\n\n        User storage user = users[msg.sender];\n        if (user.referrer == address(0)) {\n            if (users[referrer].deposits.length > 0 && referrer != msg.sender) {\n                user.referrer = referrer;\n            } else {\n                user.referrer = developerWallet;\n            }\n            address upline = user.referrer;\n            for (uint256 i = 0; i < 5; i++) {\n                if (upline != address(0)) {\n                    users[upline].referrals = users[upline].referrals.add(1);\n                    if (users[upline].referrer == address(0)) {\n                        users[upline].referrer = developerWallet;\n                    }\n                    upline = users[upline].referrer;\n                } else break;\n            }\n        }\n        if (user.referrer != address(0)) {\n            address upline = user.referrer;\n            for (uint256 i = 0; i < 5; i++) {\n                if (upline != address(0)) {\n                    uint256 amount =\n                        msg.value.mul(REFERRAL_PERCENTS[i]).div(\n                            PERCENTS_DIVIDER\n                        );\n                    users[upline].bonus = users[upline].bonus.add(amount);\n                    users[upline].totalBonus = users[upline].totalBonus.add(\n                        amount\n                    );\n                    emit RefBonus(upline, msg.sender, i, amount);\n                    upline = users[upline].referrer;\n                } else break;\n            }\n        }\n\n        if (user.deposits.length == 0) {\n            user.checkpoint = block.timestamp;\n            emit Newbie(msg.sender);\n        }\n\n        (uint256 percent, uint256 profit, uint256 finish, uint256 reinvest) =\n            getResult(plan, msg.value);\n        user.deposits.push(\n            Deposit(\n                plan,\n                percent,\n                msg.value,\n                profit,\n                block.timestamp,\n                finish,\n                reinvest\n            )\n        );\n\n        totalStaked = totalStaked.add(msg.value);\n        emit NewDeposit(\n            msg.sender,\n            plan,\n            percent,\n            msg.value,\n            profit,\n            block.timestamp,\n            finish\n        );\n    }\n\n    function withdraw() public payable {\n        User storage user = users[msg.sender];\n        //\t\trequire(getTimer(msg.sender) < block.timestamp, \"withdrawals available once a day\");\n        uint256 totalAmount;\n        uint256 totalReinvestAmount;\n\n        for (uint256 i = 0; i < user.deposits.length; i++) {\n            if (user.checkpoint < user.deposits[i].finish) {\n                uint256 share =\n                    user.deposits[i].amount.mul(user.deposits[i].percent).div(\n                        PERCENTS_DIVIDER\n                    );\n                uint256 from =\n                    user.deposits[i].start > user.checkpoint\n                        ? user.deposits[i].start\n                        : user.checkpoint;\n                uint256 to =\n                    user.deposits[i].finish < block.timestamp\n                        ? user.deposits[i].finish\n                        : block.timestamp;\n                if (from < to) {\n                    uint256 payout = share.mul(to.sub(from)).div(TIME_STEP);\n                    uint256 reinvest =\n                        payout.mul(user.deposits[i].reinvest).div(\n                            PERCENTS_DIVIDER\n                        );\n                    user.deposits[i].amount = user.deposits[i].amount.add(\n                        reinvest\n                    );\n                    payout = payout.sub(reinvest);\n                    totalAmount = totalAmount.add(payout);\n                    totalReinvestAmount = totalReinvestAmount.add(reinvest);\n                }\n            }\n        }\n\n        uint256 referralBonus = getUserReferralBonus(msg.sender);\n        if (referralBonus > 0) {\n            user.bonus = 0;\n            totalAmount = totalAmount.add(referralBonus);\n        }\n\n        user.totalReinvested = user.totalReinvested.add(totalReinvestAmount);\n        require(totalAmount > 0, \"User has no dividends\");\n        uint256 contractBalance = address(this).balance;\n        if (contractBalance < totalAmount) {\n            totalAmount = contractBalance;\n        }\n\n        user.checkpoint = block.timestamp;\n        // uint256 developerfee = totalReinvestAmount.mul(PROJECT_FEE).div(PERCENTS_DIVIDER);\n        // developerWallet.transfer(developerfee.div(2));\n        // uint256 marketingFee = totalReinvestAmount.mul(MARKETING_FEE).div(PERCENTS_DIVIDER);\n        // marketingWallet.transfer(marketingFee.div(2));\n        // No sacar comision de las reinversiones para que el contrato no se vaya debilitando\n\n        payable(msg.sender).transfer(totalAmount);\n\n        emit Withdrawn(msg.sender, totalAmount);\n    }\n\n    function lottoDeposit(uint256 ticketsQuantity) external payable {\n        //require(!isContract(msg.sender) && msg.sender == tx.origin);\n        User storage user = users[msg.sender];\n        //require(user.deposits.length > 0, \"Deposit is require first\");\n        //require(ticketsQuantity >= 1, \"Minimum number of tickets is 1\");\n        /*require(\n            LOTTO_TICKET_LIMIT >=\n                ticketsQuantity.add(lottoCurrentTicketsCount) &&\n                LOTTO_USER_LIMIT >= ticketsQuantity.add(user.lottolimit),\n            \"Maximum number of tickets exceed\"\n        );*/\n        //require(msg.value >= ticketsQuantity.mul(LOTTOTICKET), \"Wrong Amount\");\n        nLotto storage nlotto = nlottos[lottoCycles];\n\n        lottoTotalTicketsCount = lottoTotalTicketsCount.add(ticketsQuantity);\n        lottoCurrentTicketsCount = lottoCurrentTicketsCount.add(\n            ticketsQuantity\n        );\n        user.lottoparticipations = user.lottoparticipations.add(\n            ticketsQuantity\n        );\n        user.lottolimit = user.lottolimit.add(ticketsQuantity);\n\n        lottoCurrentPot = lottoCurrentPot.add(msg.value);\n\n        for (uint256 i = 1; i <= ticketsQuantity; i++) {\n            nlotto.currentLotto.push(\n                cLotto(msg.sender, lottoLastTicket.add(1))\n            );\n            lottoLastTicket++;\n        }\n        emit NewParticipantLotto(msg.sender, msg.value, lottoLastTicket);\n\n        if (lottoCurrentTicketsCount == LOTTO_TICKET_LIMIT) {\n            payLottoWin();\n\n            lottoCurrentPot = 0;\n            lottoCurrentTicketsCount = 0;\n            lottoLastTicket = 0;\n            lottoCycles++;\n        }\n    }\n\n    function getRaceWin(\n        uint256 fr,\n        uint256 to,\n        uint256 mud\n    ) internal view returns (uint256) {\n        uint256 A = (minZero(to, fr)).add(1); // 50 siempre\n        uint256 B = fr; // 1 siempre\n        uint256 value =\n            uint256(\n                uint256(\n                    keccak256(\n                        abi.encode(\n                            block.timestamp.mul(mud),\n                            block.difficulty.mul(mud)\n                        )\n                    )\n                )\n                    .mod(A)\n            )\n                .add(B); // Se resuelve con el resto y agregandole uno, el hash es aleatorio gracias al abi.encoded del timestamp\n        return value; // Retorna un numero del 1 al 50\n    }\n\n    function payLottoWin() internal {\n        nLotto storage nlotto = nlottos[lottoCycles];\n\n        uint256 win1 = getRaceWin(1, LOTTO_TICKET_LIMIT, 1);\n        uint256 win2 = getRaceWin(1, LOTTO_TICKET_LIMIT, 2);\n        uint256 win3 = getRaceWin(1, LOTTO_TICKET_LIMIT, 3);\n        uint256 win4 = getRaceWin(1, LOTTO_TICKET_LIMIT, 4);\n        uint256 win5 = getRaceWin(1, LOTTO_TICKET_LIMIT, 5);\n        uint256 profit;\n\n        //Feepayout(lottoCurrentPot); // Cobran los devs\n\n        uint256 da = lottoCurrentPot;\n        if (lottoBag > 0) {\n            uint256 LBM = lottoBag.div(20);\n            lottoCurrentPot = lottoCurrentPot.add(LBM);\n            lottoBag = lottoBag.sub(LBM);\n        }\n\n        lottoBag = lottoBag.add(da.mul(12).div(100));\n\n        for (uint256 i = 0; i < LOTTO_TICKET_LIMIT; i++) {\n            if (users[nlotto.currentLotto[i].lottoId].lottolimit != 0) {\n                users[nlotto.currentLotto[i].lottoId].lottolimit = 0;\n            }\n\n            if (nlotto.currentLotto[i].ticketNumber == win1) {\n                profit = (lottoCurrentPot.mul(LOTTO_WIN_PERCENT[0])).div(100);\n                payable(address(uint160(nlotto.currentLotto[i].lottoId)))\n                    .transfer(profit);\n                users[nlotto.currentLotto[i].lottoId].lottobonus = (\n                    users[nlotto.currentLotto[i].lottoId].lottobonus\n                )\n                    .add(profit);\n                lottoLastWin1a = nlotto.currentLotto[i].lottoId;\n                PLastWin1 = profit;\n            }\n            if (nlotto.currentLotto[i].ticketNumber == win2) {\n                profit = (lottoCurrentPot.mul(LOTTO_WIN_PERCENT[1])).div(100);\n                payable(address(uint160(nlotto.currentLotto[i].lottoId)))\n                    .transfer(profit);\n                users[nlotto.currentLotto[i].lottoId].lottobonus = (\n                    users[nlotto.currentLotto[i].lottoId].lottobonus\n                )\n                    .add(profit);\n                lottoLastWin2a = nlotto.currentLotto[i].lottoId;\n                PLastWin2 = profit;\n            }\n            if (nlotto.currentLotto[i].ticketNumber == win3) {\n                profit = (lottoCurrentPot.mul(LOTTO_WIN_PERCENT[2])).div(100);\n                payable(address(uint160(nlotto.currentLotto[i].lottoId)))\n                    .transfer(profit);\n                users[nlotto.currentLotto[i].lottoId].lottobonus = (\n                    users[nlotto.currentLotto[i].lottoId].lottobonus\n                )\n                    .add(profit);\n                lottoLastWin3a = nlotto.currentLotto[i].lottoId;\n                PLastWin3 = profit;\n            }\n            if (nlotto.currentLotto[i].ticketNumber == win4) {\n                profit = (lottoCurrentPot.mul(LOTTO_WIN_PERCENT[3])).div(100);\n                payable(address(uint160(nlotto.currentLotto[i].lottoId)))\n                    .transfer(profit);\n                users[nlotto.currentLotto[i].lottoId].lottobonus = (\n                    users[nlotto.currentLotto[i].lottoId].lottobonus\n                )\n                    .add(profit);\n                lottoLastWin4a = nlotto.currentLotto[i].lottoId;\n                PLastWin4 = profit;\n            }\n            if (nlotto.currentLotto[i].ticketNumber == win5) {\n                profit = (lottoCurrentPot.mul(LOTTO_WIN_PERCENT[4])).div(100);\n                payable(address(uint160(nlotto.currentLotto[i].lottoId)))\n                    .transfer(profit);\n                users[nlotto.currentLotto[i].lottoId].lottobonus = (\n                    users[nlotto.currentLotto[i].lottoId].lottobonus\n                )\n                    .add(profit);\n                lottoLastWin5a = nlotto.currentLotto[i].lottoId;\n                PLastWin5 = profit;\n            }\n        }\n    }\n\n    function getContractBalance() public view returns (uint256) {\n        return address(this).balance;\n    }\n\n    function getPlanInfo(uint8 plan)\n        public\n        view\n        returns (\n            uint256 time,\n            uint256 percent,\n            uint256 reinvest\n        )\n    {\n        time = plans[plan].time;\n        percent = plans[plan].percent;\n        reinvest = plans[plan].reinvest;\n    }\n\n    function getUserLottoRate(address userAddress)\n        public\n        view\n        returns (uint256)\n    {\n        User storage user = users[userAddress];\n        uint256 lottoparticipations = user.lottoparticipations;\n        uint256 LMultiplier = LOTTOBONUS.mul(lottoparticipations);\n        return LMultiplier;\n    }\n\n    function getPercent(uint8 plan) public view returns (uint256) {\n        uint256 userLottoRate = getUserLottoRate(msg.sender);\n        if (block.timestamp > startUNIX) {\n            return\n                plans[plan]\n                    .percent\n                    .add(\n                    PERCENT_STEP.mul(block.timestamp.sub(startUNIX)).div(\n                        TIME_STEP\n                    )\n                )\n                    .add(userLottoRate);\n        } else {\n            return plans[plan].percent;\n        }\n    }\n\n    function getReinvest(uint8 plan) public view returns (uint256 reinvest) {\n        uint256 time = block.timestamp.sub(startUNIX).div(TIME_STEP);\n        if (plan == 0) {\n            if (time > 25) {\n                return 0;\n            } else {\n                return plans[plan].reinvest.sub(time.mul(20e2)); //reinvest decreases every day by 2%\n            }\n        }\n        if (plan == 1) {\n            if (time > 30) {\n                return 0;\n            } else {\n                return plans[plan].reinvest.sub(time.mul(10e2)); //reinvest decreases every day by 1%\n            }\n        }\n\n        if (plan == 2) {\n            if (time > 40) {\n                return 0;\n            } else {\n                return plans[plan].reinvest.sub(time.mul(5e2)); //reinvest decreases every day by 0.5%\n            }\n        }\n    }\n\n    function getTimer(address userAddress) public view returns (uint256) {\n        return getUserCheckpoint(userAddress).add(TIME_STEP);\n    }\n\n    function getResult(uint8 plan, uint256 deposit)\n        public\n        view\n        returns (\n            uint256 percent,\n            uint256 profit,\n            uint256 finish,\n            uint256 reinvest\n        )\n    {\n        percent = getPercent(plan);\n        reinvest = getReinvest(plan);\n\n        profit = deposit.mul(percent).div(PERCENTS_DIVIDER).mul(\n            plans[plan].time\n        );\n\n        finish = block.timestamp.add(plans[plan].time.mul(TIME_STEP));\n    }\n\n    function getUserDividends(address userAddress)\n        public\n        view\n        returns (uint256)\n    {\n        User storage user = users[userAddress];\n\n        uint256 totalAmount;\n\n        for (uint256 i = 0; i < user.deposits.length; i++) {\n            if (user.checkpoint < user.deposits[i].finish) {\n                uint256 share =\n                    user.deposits[i].amount.mul(user.deposits[i].percent).div(\n                        PERCENTS_DIVIDER\n                    );\n                uint256 from =\n                    user.deposits[i].start > user.checkpoint\n                        ? user.deposits[i].start\n                        : user.checkpoint;\n                uint256 to =\n                    user.deposits[i].finish < block.timestamp\n                        ? user.deposits[i].finish\n                        : block.timestamp;\n                if (from < to) {\n                    totalAmount = totalAmount.add(\n                        share.mul(to.sub(from)).div(TIME_STEP)\n                    );\n                }\n            }\n        }\n\n        return totalAmount;\n    }\n\n    function getUserCheckpoint(address userAddress)\n        public\n        view\n        returns (uint256)\n    {\n        return users[userAddress].checkpoint;\n    }\n\n    function getUserReinvestedAmount(address userAddress)\n        public\n        view\n        returns (uint256)\n    {\n        return users[userAddress].totalReinvested;\n    }\n\n    function getUserReferrer(address userAddress)\n        public\n        view\n        returns (address)\n    {\n        return users[userAddress].referrer;\n    }\n\n    function getUserDownlineCount(address userAddress)\n        public\n        view\n        returns (uint256)\n    {\n        return users[userAddress].referrals;\n    }\n\n    function getUserReferralBonus(address userAddress)\n        public\n        view\n        returns (uint256)\n    {\n        return users[userAddress].bonus;\n    }\n\n    function getUserReferralTotalBonus(address userAddress)\n        public\n        view\n        returns (uint256)\n    {\n        return users[userAddress].totalBonus;\n    }\n\n    function getUserReferralWithdrawn(address userAddress)\n        public\n        view\n        returns (uint256)\n    {\n        return users[userAddress].totalBonus.sub(users[userAddress].bonus);\n    }\n\n    function getUserAvailable(address userAddress)\n        public\n        view\n        returns (uint256)\n    {\n        return\n            getUserReferralBonus(userAddress).add(\n                getUserDividends(userAddress)\n            );\n    }\n\n    function getUserAmountOfDeposits(address userAddress)\n        public\n        view\n        returns (uint256)\n    {\n        return users[userAddress].deposits.length;\n    }\n\n    function getUserTotalDeposits(address userAddress)\n        public\n        view\n        returns (uint256 amount)\n    {\n        for (uint256 i = 0; i < users[userAddress].deposits.length; i++) {\n            amount = amount.add(users[userAddress].deposits[i].amount);\n        }\n    }\n\n    function getUserDepositInfo(address userAddress, uint256 index)\n        public\n        view\n        returns (\n            uint8 plan,\n            uint256 percent,\n            uint256 amount,\n            uint256 profit,\n            uint256 start,\n            uint256 finish,\n            uint256 reinvest\n        )\n    {\n        User storage user = users[userAddress];\n\n        plan = user.deposits[index].plan;\n        percent = user.deposits[index].percent;\n        amount = user.deposits[index].amount;\n        profit = user.deposits[index].profit;\n        start = user.deposits[index].start;\n        finish = user.deposits[index].finish;\n        reinvest = user.deposits[index].reinvest;\n    }\n\n    function getlottoStats()\n        public\n        view\n        returns (\n            address,\n            address,\n            address,\n            address,\n            address,\n            uint256,\n            uint256,\n            uint256,\n            uint256,\n            uint256,\n            uint256,\n            uint256\n        )\n    {\n        return (\n            lottoLastWin1a,\n            lottoLastWin2a,\n            lottoLastWin3a,\n            lottoLastWin4a,\n            lottoLastWin5a,\n            lottoCycles,\n            lottoCurrentTicketsCount,\n            lottoTotalTicketsCount,\n            LOTTO_TICKET_LIMIT,\n            LOTTOTICKET,\n            lottoCurrentPot,\n            lottoBag\n        );\n    }\n\n    function getlottoLastPrizes()\n        public\n        view\n        returns (\n            uint256,\n            uint256,\n            uint256,\n            uint256,\n            uint256\n        )\n    {\n        return (PLastWin1, PLastWin2, PLastWin3, PLastWin4, PLastWin5);\n    }\n\n    function getUserlottoStats(address userAddress)\n        public\n        view\n        returns (\n            uint256,\n            uint256,\n            uint256\n        )\n    {\n        User memory user = users[userAddress];\n        return (user.lottobonus, user.lottoparticipations, user.lottolimit);\n    }\n\n    function isContract(address addr) internal view returns (bool) {\n        uint256 size;\n        assembly {\n            size := extcodesize(addr)\n        }\n        return size > 0;\n    }\n\n    function minZero(uint256 a, uint256 b) internal pure returns (uint256) {\n        if (a > b) {\n            return a - b;\n        } else {\n            return 0;\n        }\n    }\n\n    function maxVal(uint256 a, uint256 b) internal pure returns (uint256) {\n        if (a > b) {\n            return a;\n        } else {\n            return b;\n        }\n    }\n\n    function minVal(uint256 a, uint256 b) internal pure returns (uint256) {\n        if (a > b) {\n            return b;\n        } else {\n            return a;\n        }\n    }\n}\n\nlibrary SafeMath {\n    function add(uint256 a, uint256 b) internal pure returns (uint256) {\n        uint256 c = a + b;\n        require(c >= a, \"SafeMath: addition overflow\");\n        return c;\n    }\n\n    function sub(uint256 a, uint256 b) internal pure returns (uint256) {\n        require(b <= a, \"SafeMath: subtraction overflow\");\n        uint256 c = a - b;\n        return c;\n    }\n\n    function mul(uint256 a, uint256 b) internal pure returns (uint256) {\n        if (a == 0) {\n            return 0;\n        }\n        uint256 c = a * b;\n        require(c / a == b, \"SafeMath: multiplication overflow\");\n        return c;\n    }\n\n    function div(uint256 a, uint256 b) internal pure returns (uint256) {\n        require(b > 0, \"SafeMath: division by zero\");\n        uint256 c = a / b;\n        return c;\n    }\n\n    function mod(uint256 a, uint256 b) internal pure returns (uint256) {\n        return a % b;\n    }\n}\n",
  "sourcePath": "/home/madim/Escritorio/projects/bnbhold/contracts/ThunderHold.sol",
  "compiler": {
    "name": "solc",
    "version": "0.8.4+commit.c7e474f2.Emscripten.clang"
  },
  "schemaVersion": "3.4.1",
  "updatedAt": "2021-07-17T22:55:21.767Z",
  "networkType": "ethereum",
  "devdoc": {
    "kind": "dev",
    "methods": {},
    "version": 1
  },
  "userdoc": {
    "kind": "user",
    "methods": {},
    "version": 1
  }
}