{
  "contractName": "ThunderHold",
  "abi": [
    {
      "inputs": [
        {
          "internalType": "address payable",
          "name": "wallet",
          "type": "address"
        },
        {
          "internalType": "uint256",
          "name": "start",
          "type": "uint256"
        }
      ],
      "stateMutability": "nonpayable",
      "type": "constructor"
    },
    {
      "anonymous": false,
      "inputs": [
        {
          "indexed": true,
          "internalType": "address",
          "name": "user",
          "type": "address"
        },
        {
          "indexed": false,
          "internalType": "uint8",
          "name": "plan",
          "type": "uint8"
        },
        {
          "indexed": false,
          "internalType": "uint256",
          "name": "percent",
          "type": "uint256"
        },
        {
          "indexed": false,
          "internalType": "uint256",
          "name": "amount",
          "type": "uint256"
        },
        {
          "indexed": false,
          "internalType": "uint256",
          "name": "profit",
          "type": "uint256"
        },
        {
          "indexed": false,
          "internalType": "uint256",
          "name": "start",
          "type": "uint256"
        },
        {
          "indexed": false,
          "internalType": "uint256",
          "name": "finish",
          "type": "uint256"
        }
      ],
      "name": "NewDeposit",
      "type": "event"
    },
    {
      "anonymous": false,
      "inputs": [
        {
          "indexed": true,
          "internalType": "address",
          "name": "user",
          "type": "address"
        },
        {
          "indexed": false,
          "internalType": "uint256",
          "name": "amount",
          "type": "uint256"
        },
        {
          "indexed": false,
          "internalType": "uint256",
          "name": "pt",
          "type": "uint256"
        }
      ],
      "name": "NewParticipantLotto",
      "type": "event"
    },
    {
      "anonymous": false,
      "inputs": [
        {
          "indexed": false,
          "internalType": "address",
          "name": "user",
          "type": "address"
        }
      ],
      "name": "Newbie",
      "type": "event"
    },
    {
      "anonymous": false,
      "inputs": [
        {
          "indexed": true,
          "internalType": "address",
          "name": "referrer",
          "type": "address"
        },
        {
          "indexed": true,
          "internalType": "address",
          "name": "referral",
          "type": "address"
        },
        {
          "indexed": true,
          "internalType": "uint256",
          "name": "level",
          "type": "uint256"
        },
        {
          "indexed": false,
          "internalType": "uint256",
          "name": "amount",
          "type": "uint256"
        }
      ],
      "name": "RefBonus",
      "type": "event"
    },
    {
      "anonymous": false,
      "inputs": [
        {
          "indexed": true,
          "internalType": "address",
          "name": "user",
          "type": "address"
        },
        {
          "indexed": false,
          "internalType": "uint256",
          "name": "amount",
          "type": "uint256"
        }
      ],
      "name": "Withdrawn",
      "type": "event"
    },
    {
      "inputs": [],
      "name": "INVEST_MAX_AMOUNT",
      "outputs": [
        {
          "internalType": "uint256",
          "name": "",
          "type": "uint256"
        }
      ],
      "stateMutability": "view",
      "type": "function",
      "constant": true
    },
    {
      "inputs": [],
      "name": "INVEST_MIN_AMOUNT",
      "outputs": [
        {
          "internalType": "uint256",
          "name": "",
          "type": "uint256"
        }
      ],
      "stateMutability": "view",
      "type": "function",
      "constant": true
    },
    {
      "inputs": [],
      "name": "MARKETING_FEE",
      "outputs": [
        {
          "internalType": "uint256",
          "name": "",
          "type": "uint256"
        }
      ],
      "stateMutability": "view",
      "type": "function",
      "constant": true
    },
    {
      "inputs": [],
      "name": "PERCENTS_DIVIDER",
      "outputs": [
        {
          "internalType": "uint256",
          "name": "",
          "type": "uint256"
        }
      ],
      "stateMutability": "view",
      "type": "function",
      "constant": true
    },
    {
      "inputs": [],
      "name": "PERCENT_STEP",
      "outputs": [
        {
          "internalType": "uint256",
          "name": "",
          "type": "uint256"
        }
      ],
      "stateMutability": "view",
      "type": "function",
      "constant": true
    },
    {
      "inputs": [],
      "name": "PROJECT_FEE",
      "outputs": [
        {
          "internalType": "uint256",
          "name": "",
          "type": "uint256"
        }
      ],
      "stateMutability": "view",
      "type": "function",
      "constant": true
    },
    {
      "inputs": [
        {
          "internalType": "uint256",
          "name": "",
          "type": "uint256"
        }
      ],
      "name": "REFERRAL_PERCENTS",
      "outputs": [
        {
          "internalType": "uint256",
          "name": "",
          "type": "uint256"
        }
      ],
      "stateMutability": "view",
      "type": "function",
      "constant": true
    },
    {
      "inputs": [],
      "name": "TIME_STEP",
      "outputs": [
        {
          "internalType": "uint256",
          "name": "",
          "type": "uint256"
        }
      ],
      "stateMutability": "view",
      "type": "function",
      "constant": true
    },
    {
      "inputs": [],
      "name": "startUNIX",
      "outputs": [
        {
          "internalType": "uint256",
          "name": "",
          "type": "uint256"
        }
      ],
      "stateMutability": "view",
      "type": "function",
      "constant": true
    },
    {
      "inputs": [],
      "name": "totalRefBonus",
      "outputs": [
        {
          "internalType": "uint256",
          "name": "",
          "type": "uint256"
        }
      ],
      "stateMutability": "view",
      "type": "function",
      "constant": true
    },
    {
      "inputs": [],
      "name": "totalStaked",
      "outputs": [
        {
          "internalType": "uint256",
          "name": "",
          "type": "uint256"
        }
      ],
      "stateMutability": "view",
      "type": "function",
      "constant": true
    },
    {
      "inputs": [
        {
          "internalType": "address",
          "name": "referrer",
          "type": "address"
        },
        {
          "internalType": "uint8",
          "name": "plan",
          "type": "uint8"
        }
      ],
      "name": "invest",
      "outputs": [],
      "stateMutability": "payable",
      "type": "function",
      "payable": true
    },
    {
      "inputs": [],
      "name": "withdraw",
      "outputs": [],
      "stateMutability": "payable",
      "type": "function",
      "payable": true
    },
    {
      "inputs": [
        {
          "internalType": "uint256",
          "name": "ticketsQuantity",
          "type": "uint256"
        }
      ],
      "name": "lottoDeposit",
      "outputs": [],
      "stateMutability": "payable",
      "type": "function",
      "payable": true
    },
    {
      "inputs": [],
      "name": "getContractBalance",
      "outputs": [
        {
          "internalType": "uint256",
          "name": "",
          "type": "uint256"
        }
      ],
      "stateMutability": "view",
      "type": "function",
      "constant": true
    },
    {
      "inputs": [
        {
          "internalType": "uint8",
          "name": "plan",
          "type": "uint8"
        }
      ],
      "name": "getPlanInfo",
      "outputs": [
        {
          "internalType": "uint256",
          "name": "time",
          "type": "uint256"
        },
        {
          "internalType": "uint256",
          "name": "percent",
          "type": "uint256"
        },
        {
          "internalType": "uint256",
          "name": "reinvest",
          "type": "uint256"
        }
      ],
      "stateMutability": "view",
      "type": "function",
      "constant": true
    },
    {
      "inputs": [
        {
          "internalType": "address",
          "name": "userAddress",
          "type": "address"
        }
      ],
      "name": "getUserLottoRate",
      "outputs": [
        {
          "internalType": "uint256",
          "name": "",
          "type": "uint256"
        }
      ],
      "stateMutability": "view",
      "type": "function",
      "constant": true
    },
    {
      "inputs": [
        {
          "internalType": "uint8",
          "name": "plan",
          "type": "uint8"
        }
      ],
      "name": "getPercent",
      "outputs": [
        {
          "internalType": "uint256",
          "name": "",
          "type": "uint256"
        }
      ],
      "stateMutability": "view",
      "type": "function",
      "constant": true
    },
    {
      "inputs": [
        {
          "internalType": "uint8",
          "name": "plan",
          "type": "uint8"
        }
      ],
      "name": "getReinvest",
      "outputs": [
        {
          "internalType": "uint256",
          "name": "reinvest",
          "type": "uint256"
        }
      ],
      "stateMutability": "view",
      "type": "function",
      "constant": true
    },
    {
      "inputs": [
        {
          "internalType": "address",
          "name": "userAddress",
          "type": "address"
        }
      ],
      "name": "getTimer",
      "outputs": [
        {
          "internalType": "uint256",
          "name": "",
          "type": "uint256"
        }
      ],
      "stateMutability": "view",
      "type": "function",
      "constant": true
    },
    {
      "inputs": [
        {
          "internalType": "uint8",
          "name": "plan",
          "type": "uint8"
        },
        {
          "internalType": "uint256",
          "name": "deposit",
          "type": "uint256"
        }
      ],
      "name": "getResult",
      "outputs": [
        {
          "internalType": "uint256",
          "name": "percent",
          "type": "uint256"
        },
        {
          "internalType": "uint256",
          "name": "profit",
          "type": "uint256"
        },
        {
          "internalType": "uint256",
          "name": "finish",
          "type": "uint256"
        },
        {
          "internalType": "uint256",
          "name": "reinvest",
          "type": "uint256"
        }
      ],
      "stateMutability": "view",
      "type": "function",
      "constant": true
    },
    {
      "inputs": [
        {
          "internalType": "address",
          "name": "userAddress",
          "type": "address"
        }
      ],
      "name": "getUserDividends",
      "outputs": [
        {
          "internalType": "uint256",
          "name": "",
          "type": "uint256"
        }
      ],
      "stateMutability": "view",
      "type": "function",
      "constant": true
    },
    {
      "inputs": [
        {
          "internalType": "address",
          "name": "userAddress",
          "type": "address"
        }
      ],
      "name": "getUserCheckpoint",
      "outputs": [
        {
          "internalType": "uint256",
          "name": "",
          "type": "uint256"
        }
      ],
      "stateMutability": "view",
      "type": "function",
      "constant": true
    },
    {
      "inputs": [
        {
          "internalType": "address",
          "name": "userAddress",
          "type": "address"
        }
      ],
      "name": "getUserReinvestedAmount",
      "outputs": [
        {
          "internalType": "uint256",
          "name": "",
          "type": "uint256"
        }
      ],
      "stateMutability": "view",
      "type": "function",
      "constant": true
    },
    {
      "inputs": [
        {
          "internalType": "address",
          "name": "userAddress",
          "type": "address"
        }
      ],
      "name": "getUserReferrer",
      "outputs": [
        {
          "internalType": "address",
          "name": "",
          "type": "address"
        }
      ],
      "stateMutability": "view",
      "type": "function",
      "constant": true
    },
    {
      "inputs": [
        {
          "internalType": "address",
          "name": "userAddress",
          "type": "address"
        }
      ],
      "name": "getUserDownlineCount",
      "outputs": [
        {
          "internalType": "uint256",
          "name": "",
          "type": "uint256"
        }
      ],
      "stateMutability": "view",
      "type": "function",
      "constant": true
    },
    {
      "inputs": [
        {
          "internalType": "address",
          "name": "userAddress",
          "type": "address"
        }
      ],
      "name": "getUserReferralBonus",
      "outputs": [
        {
          "internalType": "uint256",
          "name": "",
          "type": "uint256"
        }
      ],
      "stateMutability": "view",
      "type": "function",
      "constant": true
    },
    {
      "inputs": [
        {
          "internalType": "address",
          "name": "userAddress",
          "type": "address"
        }
      ],
      "name": "getUserReferralTotalBonus",
      "outputs": [
        {
          "internalType": "uint256",
          "name": "",
          "type": "uint256"
        }
      ],
      "stateMutability": "view",
      "type": "function",
      "constant": true
    },
    {
      "inputs": [
        {
          "internalType": "address",
          "name": "userAddress",
          "type": "address"
        }
      ],
      "name": "getUserReferralWithdrawn",
      "outputs": [
        {
          "internalType": "uint256",
          "name": "",
          "type": "uint256"
        }
      ],
      "stateMutability": "view",
      "type": "function",
      "constant": true
    },
    {
      "inputs": [
        {
          "internalType": "address",
          "name": "userAddress",
          "type": "address"
        }
      ],
      "name": "getUserAvailable",
      "outputs": [
        {
          "internalType": "uint256",
          "name": "",
          "type": "uint256"
        }
      ],
      "stateMutability": "view",
      "type": "function",
      "constant": true
    },
    {
      "inputs": [
        {
          "internalType": "address",
          "name": "userAddress",
          "type": "address"
        }
      ],
      "name": "getUserAmountOfDeposits",
      "outputs": [
        {
          "internalType": "uint256",
          "name": "",
          "type": "uint256"
        }
      ],
      "stateMutability": "view",
      "type": "function",
      "constant": true
    },
    {
      "inputs": [
        {
          "internalType": "address",
          "name": "userAddress",
          "type": "address"
        }
      ],
      "name": "getUserTotalDeposits",
      "outputs": [
        {
          "internalType": "uint256",
          "name": "amount",
          "type": "uint256"
        }
      ],
      "stateMutability": "view",
      "type": "function",
      "constant": true
    },
    {
      "inputs": [
        {
          "internalType": "address",
          "name": "userAddress",
          "type": "address"
        },
        {
          "internalType": "uint256",
          "name": "index",
          "type": "uint256"
        }
      ],
      "name": "getUserDepositInfo",
      "outputs": [
        {
          "internalType": "uint8",
          "name": "plan",
          "type": "uint8"
        },
        {
          "internalType": "uint256",
          "name": "percent",
          "type": "uint256"
        },
        {
          "internalType": "uint256",
          "name": "amount",
          "type": "uint256"
        },
        {
          "internalType": "uint256",
          "name": "profit",
          "type": "uint256"
        },
        {
          "internalType": "uint256",
          "name": "start",
          "type": "uint256"
        },
        {
          "internalType": "uint256",
          "name": "finish",
          "type": "uint256"
        },
        {
          "internalType": "uint256",
          "name": "reinvest",
          "type": "uint256"
        }
      ],
      "stateMutability": "view",
      "type": "function",
      "constant": true
    },
    {
      "inputs": [],
      "name": "getlottoStats",
      "outputs": [
        {
          "internalType": "address",
          "name": "",
          "type": "address"
        },
        {
          "internalType": "address",
          "name": "",
          "type": "address"
        },
        {
          "internalType": "address",
          "name": "",
          "type": "address"
        },
        {
          "internalType": "address",
          "name": "",
          "type": "address"
        },
        {
          "internalType": "address",
          "name": "",
          "type": "address"
        },
        {
          "internalType": "uint256",
          "name": "",
          "type": "uint256"
        },
        {
          "internalType": "uint256",
          "name": "",
          "type": "uint256"
        },
        {
          "internalType": "uint256",
          "name": "",
          "type": "uint256"
        },
        {
          "internalType": "uint256",
          "name": "",
          "type": "uint256"
        },
        {
          "internalType": "uint256",
          "name": "",
          "type": "uint256"
        },
        {
          "internalType": "uint256",
          "name": "",
          "type": "uint256"
        },
        {
          "internalType": "uint256",
          "name": "",
          "type": "uint256"
        }
      ],
      "stateMutability": "view",
      "type": "function",
      "constant": true
    },
    {
      "inputs": [],
      "name": "getlottoLastPrizes",
      "outputs": [
        {
          "internalType": "uint256",
          "name": "",
          "type": "uint256"
        },
        {
          "internalType": "uint256",
          "name": "",
          "type": "uint256"
        },
        {
          "internalType": "uint256",
          "name": "",
          "type": "uint256"
        },
        {
          "internalType": "uint256",
          "name": "",
          "type": "uint256"
        },
        {
          "internalType": "uint256",
          "name": "",
          "type": "uint256"
        }
      ],
      "stateMutability": "view",
      "type": "function",
      "constant": true
    },
    {
      "inputs": [
        {
          "internalType": "address",
          "name": "userAddress",
          "type": "address"
        }
      ],
      "name": "getUserlottoStats",
      "outputs": [
        {
          "internalType": "uint256",
          "name": "",
          "type": "uint256"
        },
        {
          "internalType": "uint256",
          "name": "",
          "type": "uint256"
        },
        {
          "internalType": "uint256",
          "name": "",
          "type": "uint256"
        }
      ],
      "stateMutability": "view",
      "type": "function",
      "constant": true
    }
  ],
  "bytecode": "0x60806040526040518060a00160405280610fa061ffff1681526020016107d061ffff1681526020016103e861ffff1681526020016101f461ffff1681526020016101f461ffff1681525060009060056200005b92919062000215565b506040518060a00160405280601960ff168152602001600f60ff168152602001600a60ff168152602001600560ff168152602001600260ff168152506001906005620000a99291906200026d565b50348015620000b757600080fd5b5060405162005489380380620054898339818101604052810190620000dd919062000311565b620000ee826200020260201b60201c565b158015620000fc5750600081115b6200010657600080fd5b81601860006101000a81548173ffffffffffffffffffffffffffffffffffffffff021916908373ffffffffffffffffffffffffffffffffffffffff16021790555033601960006101000a81548173ffffffffffffffffffffffffffffffffffffffff021916908373ffffffffffffffffffffffffffffffffffffffff160217905550806017819055506014604051806060016040528060078152602001614e208152602001617530815250908060018154018082558091505060019003906000526020600020906003020160009091909190915060008201518160000155602082015181600101556040820151816002015550505050620003c4565b600080823b905060008111915050919050565b8280548282559060005260206000209081019282156200025a579160200282015b8281111562000259578251829061ffff1690559160200191906001019062000236565b5b509050620002699190620002c4565b5090565b828054828255906000526020600020908101928215620002b1579160200282015b82811115620002b0578251829060ff169055916020019190600101906200028e565b5b509050620002c09190620002c4565b5090565b5b80821115620002df576000816000905550600101620002c5565b5090565b600081519050620002f48162000390565b92915050565b6000815190506200030b81620003aa565b92915050565b600080604083850312156200032557600080fd5b60006200033585828601620002e3565b92505060206200034885828601620002fa565b9150509250929050565b60006200035f8262000366565b9050919050565b600073ffffffffffffffffffffffffffffffffffffffff82169050919050565b6000819050919050565b6200039b8162000352565b8114620003a757600080fd5b50565b620003b58162000386565b8114620003c157600080fd5b50565b6150b580620003d46000396000f3fe60806040526004361061020f5760003560e01c806369b11dd511610118578063aecaa634116100a0578063d7ffca911161006f578063d7ffca9114610854578063dba9069814610891578063e262113e146108ce578063e85abe09146108f9578063f64ab375146109365761020f565b8063aecaa6341461077c578063af3e2122146107bb578063c0806b03146107e6578063c2341238146108295761020f565b80637e3abeea116100e75780637e3abeea1461065b5780637f75567f14610698578063817b1cd2146106d7578063a51b953314610702578063a8aeb6c21461073f5761020f565b806369b11dd51461059d5780636bb18556146105c85780636f9fb98a146106055780637d8cb7a2146106305761020f565b806348c372031161019b578063581c5ae61161016a578063581c5ae6146104b25780635936cf61146104ce5780635f9c86301461050e578063600d20ce1461052a57806365938a60146105675761020f565b806348c37203146103e257806348d44bd11461041f5780634aa7c0031461044a57806357fc86b4146104875761020f565b80631531f016116101e25780631531f016146102f6578063153ab9df1461033357806332bc298c1461037057806336144c9a1461039b5780633ccfd60b146103d85761020f565b806301c234a81461021457806303a93c0c1461023f578063040a772e1461027c57806306903e1c146102b9575b600080fd5b34801561022057600080fd5b50610229610965565b6040516102369190614b1d565b60405180910390f35b34801561024b57600080fd5b506102666004803603810190610261919061479d565b61096c565b6040516102739190614b1d565b60405180910390f35b34801561028857600080fd5b506102a3600480360381019061029e919061479d565b6109b8565b6040516102b09190614b1d565b60405180910390f35b3480156102c557600080fd5b506102e060048036038101906102db9190614867565b610d0d565b6040516102ed9190614b1d565b60405180910390f35b34801561030257600080fd5b5061031d6004803603810190610318919061479d565b610f17565b60405161032a9190614b1d565b60405180910390f35b34801561033f57600080fd5b5061035a6004803603810190610355919061479d565b610f3e565b6040516103679190614b1d565b60405180910390f35b34801561037c57600080fd5b50610385610f6a565b6040516103929190614b1d565b60405180910390f35b3480156103a757600080fd5b506103c260048036038101906103bd919061479d565b610f71565b6040516103cf91906149a8565b60405180910390f35b6103e0610fdd565b005b3480156103ee57600080fd5b506104096004803603810190610404919061479d565b6115ce565b6040516104169190614b1d565b60405180910390f35b34801561042b57600080fd5b5061043461161a565b6040516104419190614b1d565b60405180910390f35b34801561045657600080fd5b50610471600480360381019061046c919061479d565b611620565b60405161047e9190614b1d565b60405180910390f35b34801561049357600080fd5b5061049c611690565b6040516104a99190614b1d565b60405180910390f35b6104cc60048036038101906104c79190614802565b611696565b005b3480156104da57600080fd5b506104f560048036038101906104f09190614890565b61202e565b6040516105059493929190614b98565b60405180910390f35b6105286004803603810190610523919061483e565b612155565b005b34801561053657600080fd5b50610551600480360381019061054c919061483e565b6123d5565b60405161055e9190614b1d565b60405180910390f35b34801561057357600080fd5b5061057c6123f9565b6040516105949c9b9a999897969594939291906149c3565b60405180910390f35b3480156105a957600080fd5b506105b26124fb565b6040516105bf9190614b1d565b60405180910390f35b3480156105d457600080fd5b506105ef60048036038101906105ea919061479d565b612501565b6040516105fc9190614b1d565b60405180910390f35b34801561061157600080fd5b5061061a6125a1565b6040516106279190614b1d565b60405180910390f35b34801561063c57600080fd5b506106456125a9565b6040516106529190614b1d565b60405180910390f35b34801561066757600080fd5b50610682600480360381019061067d919061479d565b6125b7565b60405161068f9190614b1d565b60405180910390f35b3480156106a457600080fd5b506106bf60048036038101906106ba919061479d565b6126c5565b6040516106ce93929190614b61565b60405180910390f35b3480156106e357600080fd5b506106ec612895565b6040516106f99190614b1d565b60405180910390f35b34801561070e57600080fd5b5061072960048036038101906107249190614867565b61289b565b6040516107369190614b1d565b60405180910390f35b34801561074b57600080fd5b506107666004803603810190610761919061479d565b6129c3565b6040516107739190614b1d565b60405180910390f35b34801561078857600080fd5b506107a3600480360381019061079e9190614867565b612a12565b6040516107b293929190614b61565b60405180910390f35b3480156107c757600080fd5b506107d0612b11565b6040516107dd9190614b1d565b60405180910390f35b3480156107f257600080fd5b5061080d600480360381019061080891906147c6565b612b17565b6040516108209796959493929190614c91565b60405180910390f35b34801561083557600080fd5b5061083e612dae565b60405161084b9190614b1d565b60405180910390f35b34801561086057600080fd5b5061087b6004803603810190610876919061479d565b612db4565b6040516108889190614b1d565b60405180910390f35b34801561089d57600080fd5b506108b860048036038101906108b3919061479d565b612e00565b6040516108c59190614b1d565b60405180910390f35b3480156108da57600080fd5b506108e3612e4c565b6040516108f09190614b1d565b60405180910390f35b34801561090557600080fd5b50610920600480360381019061091b919061479d565b612e59565b60405161092d9190614b1d565b60405180910390f35b34801561094257600080fd5b5061094b612ea5565b60405161095c959493929190614bdd565b60405180910390f35b620186a081565b6000601560008373ffffffffffffffffffffffffffffffffffffffff1673ffffffffffffffffffffffffffffffffffffffff168152602001908152602001600020600301549050919050565b600080601560008473ffffffffffffffffffffffffffffffffffffffff1673ffffffffffffffffffffffffffffffffffffffff1681526020019081526020016000209050600080600090505b8260000180549050811015610d0257826000018181548110610a4f577f4e487b7100000000000000000000000000000000000000000000000000000000600052603260045260246000fd5b90600052602060002090600702016005015483600101541015610cef576000610b30620186a0610b22866000018581548110610ab4577f4e487b7100000000000000000000000000000000000000000000000000000000600052603260045260246000fd5b906000526020600020906007020160010154876000018681548110610b02577f4e487b7100000000000000000000000000000000000000000000000000000000600052603260045260246000fd5b906000526020600020906007020160020154612ecd90919063ffffffff16565b612f4890919063ffffffff16565b905060008460010154856000018481548110610b75577f4e487b7100000000000000000000000000000000000000000000000000000000600052603260045260246000fd5b90600052602060002090600702016004015411610b96578460010154610be5565b846000018381548110610bd2577f4e487b7100000000000000000000000000000000000000000000000000000000600052603260045260246000fd5b9060005260206000209060070201600401545b9050600042866000018581548110610c26577f4e487b7100000000000000000000000000000000000000000000000000000000600052603260045260246000fd5b90600052602060002090600702016005015410610c435742610c92565b856000018481548110610c7f577f4e487b7100000000000000000000000000000000000000000000000000000000600052603260045260246000fd5b9060005260206000209060070201600501545b905080821015610ceb57610ce8610cd962015180610ccb610cbc8686612fa690919063ffffffff16565b87612ecd90919063ffffffff16565b612f4890919063ffffffff16565b8661300590919063ffffffff16565b94505b5050505b8080610cfa90614e6f565b915050610a04565b508092505050919050565b600080610d3a62015180610d2c60175442612fa690919063ffffffff16565b612f4890919063ffffffff16565b905060008360ff161415610dd8576019811115610d5b576000915050610f12565b610dd0610d736107d083612ecd90919063ffffffff16565b60148560ff1681548110610db0577f4e487b7100000000000000000000000000000000000000000000000000000000600052603260045260246000fd5b906000526020600020906003020160020154612fa690919063ffffffff16565b915050610f12565b60018360ff161415610e7457601e811115610df7576000915050610f12565b610e6c610e0f6103e883612ecd90919063ffffffff16565b60148560ff1681548110610e4c577f4e487b7100000000000000000000000000000000000000000000000000000000600052603260045260246000fd5b906000526020600020906003020160020154612fa690919063ffffffff16565b915050610f12565b60028360ff161415610f10576028811115610e93576000915050610f12565b610f08610eab6101f483612ecd90919063ffffffff16565b60148560ff1681548110610ee8577f4e487b7100000000000000000000000000000000000000000000000000000000600052603260045260246000fd5b906000526020600020906003020160020154612fa690919063ffffffff16565b915050610f12565b505b919050565b6000610f3762015180610f2984612db4565b61300590919063ffffffff16565b9050919050565b6000610f63610f4c836109b8565b610f5584612e59565b61300590919063ffffffff16565b9050919050565b6201518081565b6000601560008373ffffffffffffffffffffffffffffffffffffffff1673ffffffffffffffffffffffffffffffffffffffff16815260200190815260200160002060020160009054906101000a900473ffffffffffffffffffffffffffffffffffffffff169050919050565b6000601560003373ffffffffffffffffffffffffffffffffffffffff1673ffffffffffffffffffffffffffffffffffffffff168152602001908152602001600020905060008060005b836000018054905081101561147f57836000018181548110611071577f4e487b7100000000000000000000000000000000000000000000000000000000600052603260045260246000fd5b9060005260206000209060070201600501548460010154101561146c576000611152620186a06111448760000185815481106110d6577f4e487b7100000000000000000000000000000000000000000000000000000000600052603260045260246000fd5b906000526020600020906007020160010154886000018681548110611124577f4e487b7100000000000000000000000000000000000000000000000000000000600052603260045260246000fd5b906000526020600020906007020160020154612ecd90919063ffffffff16565b612f4890919063ffffffff16565b905060008560010154866000018481548110611197577f4e487b7100000000000000000000000000000000000000000000000000000000600052603260045260246000fd5b906000526020600020906007020160040154116111b8578560010154611207565b8560000183815481106111f4577f4e487b7100000000000000000000000000000000000000000000000000000000600052603260045260246000fd5b9060005260206000209060070201600401545b9050600042876000018581548110611248577f4e487b7100000000000000000000000000000000000000000000000000000000600052603260045260246000fd5b9060005260206000209060070201600501541061126557426112b4565b8660000184815481106112a1577f4e487b7100000000000000000000000000000000000000000000000000000000600052603260045260246000fd5b9060005260206000209060070201600501545b9050808210156114685760006112fa620151806112ec6112dd8686612fa690919063ffffffff16565b87612ecd90919063ffffffff16565b612f4890919063ffffffff16565b90506000611373620186a06113658b6000018981548110611344577f4e487b7100000000000000000000000000000000000000000000000000000000600052603260045260246000fd5b90600052602060002090600702016006015485612ecd90919063ffffffff16565b612f4890919063ffffffff16565b90506113d5818a60000188815481106113b5577f4e487b7100000000000000000000000000000000000000000000000000000000600052603260045260246000fd5b90600052602060002090600702016002015461300590919063ffffffff16565b896000018781548110611411577f4e487b7100000000000000000000000000000000000000000000000000000000600052603260045260246000fd5b9060005260206000209060070201600201819055506114398183612fa690919063ffffffff16565b915061144e828961300590919063ffffffff16565b9750611463818861300590919063ffffffff16565b965050505b5050505b808061147790614e6f565b915050611026565b50600061148b33612e59565b905060008111156114b657600084600401819055506114b3818461300590919063ffffffff16565b92505b6114cd82856006015461300590919063ffffffff16565b846006018190555060008311611518576040517f08c379a000000000000000000000000000000000000000000000000000000000815260040161150f90614a7d565b60405180910390fd5b600047905083811015611529578093505b4285600101819055503373ffffffffffffffffffffffffffffffffffffffff166108fc859081150290604051600060405180830381858888f19350505050158015611578573d6000803e3d6000fd5b503373ffffffffffffffffffffffffffffffffffffffff167f7084f5476618d8e60b11ef0d7d3f06914655adb8793e28ff7f018d4c76d505d5856040516115bf9190614b1d565b60405180910390a25050505050565b6000601560008373ffffffffffffffffffffffffffffffffffffffff1673ffffffffffffffffffffffffffffffffffffffff168152602001908152602001600020600501549050919050565b61138881565b600080601560008473ffffffffffffffffffffffffffffffffffffffff1673ffffffffffffffffffffffffffffffffffffffff16815260200190815260200160002090506000816008015490506000611683826005612ecd90919063ffffffff16565b9050809350505050919050565b6103e881565b61169f34613063565b6000601560003373ffffffffffffffffffffffffffffffffffffffff1673ffffffffffffffffffffffffffffffffffffffff1681526020019081526020016000209050600073ffffffffffffffffffffffffffffffffffffffff168160020160009054906101000a900473ffffffffffffffffffffffffffffffffffffffff1673ffffffffffffffffffffffffffffffffffffffff161415611b34576000601560008573ffffffffffffffffffffffffffffffffffffffff1673ffffffffffffffffffffffffffffffffffffffff168152602001908152602001600020600001805490501180156117bc57503373ffffffffffffffffffffffffffffffffffffffff168373ffffffffffffffffffffffffffffffffffffffff1614155b1561180957828160020160006101000a81548173ffffffffffffffffffffffffffffffffffffffff021916908373ffffffffffffffffffffffffffffffffffffffff16021790555061186f565b601960009054906101000a900473ffffffffffffffffffffffffffffffffffffffff168160020160006101000a81548173ffffffffffffffffffffffffffffffffffffffff021916908373ffffffffffffffffffffffffffffffffffffffff1602179055505b60008160020160009054906101000a900473ffffffffffffffffffffffffffffffffffffffff16905060005b6005811015611b3157600073ffffffffffffffffffffffffffffffffffffffff168273ffffffffffffffffffffffffffffffffffffffff1614611b195761192e6001601560008573ffffffffffffffffffffffffffffffffffffffff1673ffffffffffffffffffffffffffffffffffffffff1681526020019081526020016000206003015461300590919063ffffffff16565b601560008473ffffffffffffffffffffffffffffffffffffffff1673ffffffffffffffffffffffffffffffffffffffff16815260200190815260200160002060030181905550600073ffffffffffffffffffffffffffffffffffffffff16601560008473ffffffffffffffffffffffffffffffffffffffff1673ffffffffffffffffffffffffffffffffffffffff16815260200190815260200160002060020160009054906101000a900473ffffffffffffffffffffffffffffffffffffffff1673ffffffffffffffffffffffffffffffffffffffff161415611aaf57601960009054906101000a900473ffffffffffffffffffffffffffffffffffffffff16601560008473ffffffffffffffffffffffffffffffffffffffff1673ffffffffffffffffffffffffffffffffffffffff16815260200190815260200160002060020160006101000a81548173ffffffffffffffffffffffffffffffffffffffff021916908373ffffffffffffffffffffffffffffffffffffffff1602179055505b601560008373ffffffffffffffffffffffffffffffffffffffff1673ffffffffffffffffffffffffffffffffffffffff16815260200190815260200160002060020160009054906101000a900473ffffffffffffffffffffffffffffffffffffffff169150611b1e565b611b31565b8080611b2990614e6f565b91505061189b565b50505b600073ffffffffffffffffffffffffffffffffffffffff168160020160009054906101000a900473ffffffffffffffffffffffffffffffffffffffff1673ffffffffffffffffffffffffffffffffffffffff1614611e875760008160020160009054906101000a900473ffffffffffffffffffffffffffffffffffffffff16905060005b6005811015611e8457600073ffffffffffffffffffffffffffffffffffffffff168273ffffffffffffffffffffffffffffffffffffffff1614611e6c576000611c63620186a0611c5560008581548110611c3b577f4e487b7100000000000000000000000000000000000000000000000000000000600052603260045260246000fd5b906000526020600020015434612ecd90919063ffffffff16565b612f4890919063ffffffff16565b9050611cba81601560008673ffffffffffffffffffffffffffffffffffffffff1673ffffffffffffffffffffffffffffffffffffffff1681526020019081526020016000206004015461300590919063ffffffff16565b601560008573ffffffffffffffffffffffffffffffffffffffff1673ffffffffffffffffffffffffffffffffffffffff16815260200190815260200160002060040181905550611d5581601560008673ffffffffffffffffffffffffffffffffffffffff1673ffffffffffffffffffffffffffffffffffffffff1681526020019081526020016000206005015461300590919063ffffffff16565b601560008573ffffffffffffffffffffffffffffffffffffffff1673ffffffffffffffffffffffffffffffffffffffff16815260200190815260200160002060050181905550813373ffffffffffffffffffffffffffffffffffffffff168473ffffffffffffffffffffffffffffffffffffffff167fd41f7e766eebcc7ff42b11ac8691bdf864db4afc0c55e71d629d54edce460d9884604051611df99190614b1d565b60405180910390a4601560008473ffffffffffffffffffffffffffffffffffffffff1673ffffffffffffffffffffffffffffffffffffffff16815260200190815260200160002060020160009054906101000a900473ffffffffffffffffffffffffffffffffffffffff16925050611e71565b611e84565b8080611e7c90614e6f565b915050611bb8565b50505b600081600001805490501415611ed8574281600101819055507f9fd565cd14c3c391679eb0cad12a14dcf7534e9d3462bcb9b67a098a9bbbc24a33604051611ecf91906149a8565b60405180910390a15b600080600080611ee8863461202e565b9350935093509350846000016040518060e001604052808860ff16815260200186815260200134815260200185815260200142815260200184815260200183815250908060018154018082558091505060019003906000526020600020906007020160009091909190915060008201518160000160006101000a81548160ff021916908360ff1602179055506020820151816001015560408201518160020155606082015181600301556080820151816004015560a0820151816005015560c082015181600601555050611fc73460025461300590919063ffffffff16565b6002819055503373ffffffffffffffffffffffffffffffffffffffff167f84e02daa69bdb087c9fe8d3041abca495512cb14e723070f6d1d4efface82e5d87863487428860405161201d96959493929190614c30565b60405180910390a250505050505050565b60008060008061203d8661289b565b935061204886610d0d565b90506120d260148760ff168154811061208a577f4e487b7100000000000000000000000000000000000000000000000000000000600052603260045260246000fd5b9060005260206000209060030201600001546120c4620186a06120b6888a612ecd90919063ffffffff16565b612f4890919063ffffffff16565b612ecd90919063ffffffff16565b925061214a61213b6201518060148960ff168154811061211b577f4e487b7100000000000000000000000000000000000000000000000000000000600052603260045260246000fd5b906000526020600020906003020160000154612ecd90919063ffffffff16565b4261300590919063ffffffff16565b915092959194509250565b6000601560003373ffffffffffffffffffffffffffffffffffffffff1673ffffffffffffffffffffffffffffffffffffffff1681526020019081526020016000209050600060166000600654815260200190815260200160002090506121c68360095461300590919063ffffffff16565b6009819055506121e18360075461300590919063ffffffff16565b6007819055506121fe83836008015461300590919063ffffffff16565b826008018190555061221d83836009015461300590919063ffffffff16565b826009018190555061223a3460055461300590919063ffffffff16565b6005819055506000600190505b838111612339578160000160405180604001604052803373ffffffffffffffffffffffffffffffffffffffff16815260200161228f600160085461300590919063ffffffff16565b815250908060018154018082558091505060019003906000526020600020906002020160009091909190915060008201518160000160006101000a81548173ffffffffffffffffffffffffffffffffffffffff021916908373ffffffffffffffffffffffffffffffffffffffff1602179055506020820151816001015550506008600081548092919061232190614e6f565b9190505550808061233190614e6f565b915050612247565b503373ffffffffffffffffffffffffffffffffffffffff167f42e6ac2176f7dd4a34030aa09cee5ccc42b4b4e28bf6868b734cdf190864d9f334600854604051612384929190614b38565b60405180910390a2603260075414156123d05761239f613196565b600060058190555060006007819055506000600881905550600660008154809291906123ca90614e6f565b91905055505b505050565b600081815481106123e557600080fd5b906000526020600020016000915090505481565b600080600080600080600080600080600080600a60009054906101000a900473ffffffffffffffffffffffffffffffffffffffff16600b60009054906101000a900473ffffffffffffffffffffffffffffffffffffffff16600c60009054906101000a900473ffffffffffffffffffffffffffffffffffffffff16600d60009054906101000a900473ffffffffffffffffffffffffffffffffffffffff16600e60009054906101000a900473ffffffffffffffffffffffffffffffffffffffff16600654600754600954603268056bc75e2d631000006005546004549b509b509b509b509b509b509b509b509b509b509b509b50909192939495969798999a9b565b60035481565b600061259a601560008473ffffffffffffffffffffffffffffffffffffffff1673ffffffffffffffffffffffffffffffffffffffff16815260200190815260200160002060040154601560008573ffffffffffffffffffffffffffffffffffffffff1673ffffffffffffffffffffffffffffffffffffffff16815260200190815260200160002060050154612fa690919063ffffffff16565b9050919050565b600047905090565b69152d02c7e14af680000081565b600080600090505b601560008473ffffffffffffffffffffffffffffffffffffffff1673ffffffffffffffffffffffffffffffffffffffff168152602001908152602001600020600001805490508110156126bf576126aa601560008573ffffffffffffffffffffffffffffffffffffffff1673ffffffffffffffffffffffffffffffffffffffff1681526020019081526020016000206000018281548110612689577f4e487b7100000000000000000000000000000000000000000000000000000000600052603260045260246000fd5b9060005260206000209060070201600201548361300590919063ffffffff16565b915080806126b790614e6f565b9150506125bf565b50919050565b600080600080601560008673ffffffffffffffffffffffffffffffffffffffff1673ffffffffffffffffffffffffffffffffffffffff1681526020019081526020016000206040518061014001604052908160008201805480602002602001604051908101604052809291908181526020016000905b828210156127c657838290600052602060002090600702016040518060e00160405290816000820160009054906101000a900460ff1660ff1660ff16815260200160018201548152602001600282015481526020016003820154815260200160048201548152602001600582015481526020016006820154815250508152602001906001019061273b565b505050508152602001600182015481526020016002820160009054906101000a900473ffffffffffffffffffffffffffffffffffffffff1673ffffffffffffffffffffffffffffffffffffffff1673ffffffffffffffffffffffffffffffffffffffff16815260200160038201548152602001600482015481526020016005820154815260200160068201548152602001600782015481526020016008820154815260200160098201548152505090508060e00151816101000151826101200151935093509350509193909250565b60025481565b6000806128a733611620565b905060175442111561296b57612963816129556128f8620151806128ea6128d960175442612fa690919063ffffffff16565b6103e8612ecd90919063ffffffff16565b612f4890919063ffffffff16565b60148760ff1681548110612935577f4e487b7100000000000000000000000000000000000000000000000000000000600052603260045260246000fd5b90600052602060002090600302016001015461300590919063ffffffff16565b61300590919063ffffffff16565b9150506129be565b60148360ff16815481106129a8577f4e487b7100000000000000000000000000000000000000000000000000000000600052603260045260246000fd5b9060005260206000209060030201600101549150505b919050565b6000601560008373ffffffffffffffffffffffffffffffffffffffff1673ffffffffffffffffffffffffffffffffffffffff168152602001908152602001600020600001805490509050919050565b600080600060148460ff1681548110612a54577f4e487b7100000000000000000000000000000000000000000000000000000000600052603260045260246000fd5b906000526020600020906003020160000154925060148460ff1681548110612aa5577f4e487b7100000000000000000000000000000000000000000000000000000000600052603260045260246000fd5b906000526020600020906003020160010154915060148460ff1681548110612af6577f4e487b7100000000000000000000000000000000000000000000000000000000600052603260045260246000fd5b90600052602060002090600302016002015490509193909250565b61138881565b600080600080600080600080601560008b73ffffffffffffffffffffffffffffffffffffffff1673ffffffffffffffffffffffffffffffffffffffff1681526020019081526020016000209050806000018981548110612ba0577f4e487b7100000000000000000000000000000000000000000000000000000000600052603260045260246000fd5b906000526020600020906007020160000160009054906101000a900460ff169750806000018981548110612bfd577f4e487b7100000000000000000000000000000000000000000000000000000000600052603260045260246000fd5b9060005260206000209060070201600101549650806000018981548110612c4d577f4e487b7100000000000000000000000000000000000000000000000000000000600052603260045260246000fd5b9060005260206000209060070201600201549550806000018981548110612c9d577f4e487b7100000000000000000000000000000000000000000000000000000000600052603260045260246000fd5b9060005260206000209060070201600301549450806000018981548110612ced577f4e487b7100000000000000000000000000000000000000000000000000000000600052603260045260246000fd5b9060005260206000209060070201600401549350806000018981548110612d3d577f4e487b7100000000000000000000000000000000000000000000000000000000600052603260045260246000fd5b9060005260206000209060070201600501549250806000018981548110612d8d577f4e487b7100000000000000000000000000000000000000000000000000000000600052603260045260246000fd5b90600052602060002090600702016006015491505092959891949750929550565b60175481565b6000601560008373ffffffffffffffffffffffffffffffffffffffff1673ffffffffffffffffffffffffffffffffffffffff168152602001908152602001600020600101549050919050565b6000601560008373ffffffffffffffffffffffffffffffffffffffff1673ffffffffffffffffffffffffffffffffffffffff168152602001908152602001600020600601549050919050565b681b1ae4d6e2ef50000081565b6000601560008373ffffffffffffffffffffffffffffffffffffffff1673ffffffffffffffffffffffffffffffffffffffff168152602001908152602001600020600401549050919050565b6000806000806000600f54601054601154601254601354945094509450945094509091929394565b600080831415612ee05760009050612f42565b60008284612eee9190614d98565b9050828482612efd9190614d67565b14612f3d576040517f08c379a0000000000000000000000000000000000000000000000000000000008152600401612f3490614afd565b60405180910390fd5b809150505b92915050565b6000808211612f8c576040517f08c379a0000000000000000000000000000000000000000000000000000000008152600401612f8390614add565b60405180910390fd5b60008284612f9a9190614d67565b90508091505092915050565b600082821115612feb576040517f08c379a0000000000000000000000000000000000000000000000000000000008152600401612fe290614abd565b60405180910390fd5b60008284612ff99190614df2565b90508091505092915050565b60008082846130149190614d11565b905083811015613059576040517f08c379a000000000000000000000000000000000000000000000000000000000815260040161305090614a9d565b60405180910390fd5b8091505092915050565b600061308f620186a061308161138885612ecd90919063ffffffff16565b612f4890919063ffffffff16565b9050601960009054906101000a900473ffffffffffffffffffffffffffffffffffffffff1673ffffffffffffffffffffffffffffffffffffffff166108fc829081150290604051600060405180830381858888f193505050501580156130f9573d6000803e3d6000fd5b506000613126620186a061311861138886612ecd90919063ffffffff16565b612f4890919063ffffffff16565b9050601860009054906101000a900473ffffffffffffffffffffffffffffffffffffffff1673ffffffffffffffffffffffffffffffffffffffff166108fc829081150290604051600060405180830381858888f19350505050158015613190573d6000803e3d6000fd5b50505050565b6000601660006006548152602001908152602001600020905060006131bf600160326001614674565b905060006131d1600160326002614674565b905060006131e3600160326003614674565b905060006131f5600160326004614674565b90506000613207600160326005614674565b905060008060055490506000600454111561326e5760006132346014600454612f4890919063ffffffff16565b905061324b8160055461300590919063ffffffff16565b60058190555061326681600454612fa690919063ffffffff16565b600481905550505b6132a9613298606461328a600c85612ecd90919063ffffffff16565b612f4890919063ffffffff16565b60045461300590919063ffffffff16565b60048190555060005b6032811015614669576000601560008b60000184815481106132fd577f4e487b7100000000000000000000000000000000000000000000000000000000600052603260045260246000fd5b906000526020600020906002020160000160009054906101000a900473ffffffffffffffffffffffffffffffffffffffff1673ffffffffffffffffffffffffffffffffffffffff1673ffffffffffffffffffffffffffffffffffffffff1681526020019081526020016000206009015414613428576000601560008b60000184815481106133b4577f4e487b7100000000000000000000000000000000000000000000000000000000600052603260045260246000fd5b906000526020600020906002020160000160009054906101000a900473ffffffffffffffffffffffffffffffffffffffff1673ffffffffffffffffffffffffffffffffffffffff1673ffffffffffffffffffffffffffffffffffffffff168152602001908152602001600020600901819055505b87896000018281548110613465577f4e487b7100000000000000000000000000000000000000000000000000000000600052603260045260246000fd5b90600052602060002090600202016001015414156137cb576134ea60646134dc60016000815481106134c0577f4e487b7100000000000000000000000000000000000000000000000000000000600052603260045260246000fd5b9060005260206000200154600554612ecd90919063ffffffff16565b612f4890919063ffffffff16565b9250886000018181548110613528577f4e487b7100000000000000000000000000000000000000000000000000000000600052603260045260246000fd5b906000526020600020906002020160000160009054906101000a900473ffffffffffffffffffffffffffffffffffffffff1673ffffffffffffffffffffffffffffffffffffffff166108fc849081150290604051600060405180830381858888f1935050505015801561359f573d6000803e3d6000fd5b5061366283601560008c60000185815481106135e4577f4e487b7100000000000000000000000000000000000000000000000000000000600052603260045260246000fd5b906000526020600020906002020160000160009054906101000a900473ffffffffffffffffffffffffffffffffffffffff1673ffffffffffffffffffffffffffffffffffffffff1673ffffffffffffffffffffffffffffffffffffffff1681526020019081526020016000206007015461300590919063ffffffff16565b601560008b60000184815481106136a2577f4e487b7100000000000000000000000000000000000000000000000000000000600052603260045260246000fd5b906000526020600020906002020160000160009054906101000a900473ffffffffffffffffffffffffffffffffffffffff1673ffffffffffffffffffffffffffffffffffffffff1673ffffffffffffffffffffffffffffffffffffffff16815260200190815260200160002060070181905550886000018181548110613751577f4e487b7100000000000000000000000000000000000000000000000000000000600052603260045260246000fd5b906000526020600020906002020160000160009054906101000a900473ffffffffffffffffffffffffffffffffffffffff16600a60006101000a81548173ffffffffffffffffffffffffffffffffffffffff021916908373ffffffffffffffffffffffffffffffffffffffff16021790555082600f819055505b86896000018281548110613808577f4e487b7100000000000000000000000000000000000000000000000000000000600052603260045260246000fd5b9060005260206000209060020201600101541415613b6d5761388c606461387e60018081548110613862577f4e487b7100000000000000000000000000000000000000000000000000000000600052603260045260246000fd5b9060005260206000200154600554612ecd90919063ffffffff16565b612f4890919063ffffffff16565b92508860000181815481106138ca577f4e487b7100000000000000000000000000000000000000000000000000000000600052603260045260246000fd5b906000526020600020906002020160000160009054906101000a900473ffffffffffffffffffffffffffffffffffffffff1673ffffffffffffffffffffffffffffffffffffffff166108fc849081150290604051600060405180830381858888f19350505050158015613941573d6000803e3d6000fd5b50613a0483601560008c6000018581548110613986577f4e487b7100000000000000000000000000000000000000000000000000000000600052603260045260246000fd5b906000526020600020906002020160000160009054906101000a900473ffffffffffffffffffffffffffffffffffffffff1673ffffffffffffffffffffffffffffffffffffffff1673ffffffffffffffffffffffffffffffffffffffff1681526020019081526020016000206007015461300590919063ffffffff16565b601560008b6000018481548110613a44577f4e487b7100000000000000000000000000000000000000000000000000000000600052603260045260246000fd5b906000526020600020906002020160000160009054906101000a900473ffffffffffffffffffffffffffffffffffffffff1673ffffffffffffffffffffffffffffffffffffffff1673ffffffffffffffffffffffffffffffffffffffff16815260200190815260200160002060070181905550886000018181548110613af3577f4e487b7100000000000000000000000000000000000000000000000000000000600052603260045260246000fd5b906000526020600020906002020160000160009054906101000a900473ffffffffffffffffffffffffffffffffffffffff16600b60006101000a81548173ffffffffffffffffffffffffffffffffffffffff021916908373ffffffffffffffffffffffffffffffffffffffff160217905550826010819055505b85896000018281548110613baa577f4e487b7100000000000000000000000000000000000000000000000000000000600052603260045260246000fd5b9060005260206000209060020201600101541415613f1057613c2f6064613c216001600281548110613c05577f4e487b7100000000000000000000000000000000000000000000000000000000600052603260045260246000fd5b9060005260206000200154600554612ecd90919063ffffffff16565b612f4890919063ffffffff16565b9250886000018181548110613c6d577f4e487b7100000000000000000000000000000000000000000000000000000000600052603260045260246000fd5b906000526020600020906002020160000160009054906101000a900473ffffffffffffffffffffffffffffffffffffffff1673ffffffffffffffffffffffffffffffffffffffff166108fc849081150290604051600060405180830381858888f19350505050158015613ce4573d6000803e3d6000fd5b50613da783601560008c6000018581548110613d29577f4e487b7100000000000000000000000000000000000000000000000000000000600052603260045260246000fd5b906000526020600020906002020160000160009054906101000a900473ffffffffffffffffffffffffffffffffffffffff1673ffffffffffffffffffffffffffffffffffffffff1673ffffffffffffffffffffffffffffffffffffffff1681526020019081526020016000206007015461300590919063ffffffff16565b601560008b6000018481548110613de7577f4e487b7100000000000000000000000000000000000000000000000000000000600052603260045260246000fd5b906000526020600020906002020160000160009054906101000a900473ffffffffffffffffffffffffffffffffffffffff1673ffffffffffffffffffffffffffffffffffffffff1673ffffffffffffffffffffffffffffffffffffffff16815260200190815260200160002060070181905550886000018181548110613e96577f4e487b7100000000000000000000000000000000000000000000000000000000600052603260045260246000fd5b906000526020600020906002020160000160009054906101000a900473ffffffffffffffffffffffffffffffffffffffff16600c60006101000a81548173ffffffffffffffffffffffffffffffffffffffff021916908373ffffffffffffffffffffffffffffffffffffffff160217905550826011819055505b84896000018281548110613f4d577f4e487b7100000000000000000000000000000000000000000000000000000000600052603260045260246000fd5b90600052602060002090600202016001015414156142b357613fd26064613fc46001600381548110613fa8577f4e487b7100000000000000000000000000000000000000000000000000000000600052603260045260246000fd5b9060005260206000200154600554612ecd90919063ffffffff16565b612f4890919063ffffffff16565b9250886000018181548110614010577f4e487b7100000000000000000000000000000000000000000000000000000000600052603260045260246000fd5b906000526020600020906002020160000160009054906101000a900473ffffffffffffffffffffffffffffffffffffffff1673ffffffffffffffffffffffffffffffffffffffff166108fc849081150290604051600060405180830381858888f19350505050158015614087573d6000803e3d6000fd5b5061414a83601560008c60000185815481106140cc577f4e487b7100000000000000000000000000000000000000000000000000000000600052603260045260246000fd5b906000526020600020906002020160000160009054906101000a900473ffffffffffffffffffffffffffffffffffffffff1673ffffffffffffffffffffffffffffffffffffffff1673ffffffffffffffffffffffffffffffffffffffff1681526020019081526020016000206007015461300590919063ffffffff16565b601560008b600001848154811061418a577f4e487b7100000000000000000000000000000000000000000000000000000000600052603260045260246000fd5b906000526020600020906002020160000160009054906101000a900473ffffffffffffffffffffffffffffffffffffffff1673ffffffffffffffffffffffffffffffffffffffff1673ffffffffffffffffffffffffffffffffffffffff16815260200190815260200160002060070181905550886000018181548110614239577f4e487b7100000000000000000000000000000000000000000000000000000000600052603260045260246000fd5b906000526020600020906002020160000160009054906101000a900473ffffffffffffffffffffffffffffffffffffffff16600d60006101000a81548173ffffffffffffffffffffffffffffffffffffffff021916908373ffffffffffffffffffffffffffffffffffffffff160217905550826012819055505b838960000182815481106142f0577f4e487b7100000000000000000000000000000000000000000000000000000000600052603260045260246000fd5b9060005260206000209060020201600101541415614656576143756064614367600160048154811061434b577f4e487b7100000000000000000000000000000000000000000000000000000000600052603260045260246000fd5b9060005260206000200154600554612ecd90919063ffffffff16565b612f4890919063ffffffff16565b92508860000181815481106143b3577f4e487b7100000000000000000000000000000000000000000000000000000000600052603260045260246000fd5b906000526020600020906002020160000160009054906101000a900473ffffffffffffffffffffffffffffffffffffffff1673ffffffffffffffffffffffffffffffffffffffff166108fc849081150290604051600060405180830381858888f1935050505015801561442a573d6000803e3d6000fd5b506144ed83601560008c600001858154811061446f577f4e487b7100000000000000000000000000000000000000000000000000000000600052603260045260246000fd5b906000526020600020906002020160000160009054906101000a900473ffffffffffffffffffffffffffffffffffffffff1673ffffffffffffffffffffffffffffffffffffffff1673ffffffffffffffffffffffffffffffffffffffff1681526020019081526020016000206007015461300590919063ffffffff16565b601560008b600001848154811061452d577f4e487b7100000000000000000000000000000000000000000000000000000000600052603260045260246000fd5b906000526020600020906002020160000160009054906101000a900473ffffffffffffffffffffffffffffffffffffffff1673ffffffffffffffffffffffffffffffffffffffff1673ffffffffffffffffffffffffffffffffffffffff168152602001908152602001600020600701819055508860000181815481106145dc577f4e487b7100000000000000000000000000000000000000000000000000000000600052603260045260246000fd5b906000526020600020906002020160000160009054906101000a900473ffffffffffffffffffffffffffffffffffffffff16600e60006101000a81548173ffffffffffffffffffffffffffffffffffffffff021916908373ffffffffffffffffffffffffffffffffffffffff160217905550826013819055505b808061466190614e6f565b9150506132b2565b505050505050505050565b60008061469460016146868688614720565b61300590919063ffffffff16565b90506000859050600061471182614703856146b88942612ecd90919063ffffffff16565b6146cb8a44612ecd90919063ffffffff16565b6040516020016146dc929190614b38565b6040516020818303038152906040528051906020012060001c61474890919063ffffffff16565b61300590919063ffffffff16565b90508093505050509392505050565b60008183111561473d5781836147369190614df2565b9050614742565b600090505b92915050565b600081836147569190614eb8565b905092915050565b60008135905061476d8161503a565b92915050565b60008135905061478281615051565b92915050565b60008135905061479781615068565b92915050565b6000602082840312156147af57600080fd5b60006147bd8482850161475e565b91505092915050565b600080604083850312156147d957600080fd5b60006147e78582860161475e565b92505060206147f885828601614773565b9150509250929050565b6000806040838503121561481557600080fd5b60006148238582860161475e565b925050602061483485828601614788565b9150509250929050565b60006020828403121561485057600080fd5b600061485e84828501614773565b91505092915050565b60006020828403121561487957600080fd5b600061488784828501614788565b91505092915050565b600080604083850312156148a357600080fd5b60006148b185828601614788565b92505060206148c285828601614773565b9150509250929050565b6148d581614e26565b82525050565b60006148e8601583614d00565b91506148f382614f47565b602082019050919050565b600061490b601b83614d00565b915061491682614f70565b602082019050919050565b600061492e601e83614d00565b915061493982614f99565b602082019050919050565b6000614951601a83614d00565b915061495c82614fc2565b602082019050919050565b6000614974602183614d00565b915061497f82614feb565b604082019050919050565b61499381614e58565b82525050565b6149a281614e62565b82525050565b60006020820190506149bd60008301846148cc565b92915050565b6000610180820190506149d9600083018f6148cc565b6149e6602083018e6148cc565b6149f3604083018d6148cc565b614a00606083018c6148cc565b614a0d608083018b6148cc565b614a1a60a083018a61498a565b614a2760c083018961498a565b614a3460e083018861498a565b614a4261010083018761498a565b614a5061012083018661498a565b614a5e61014083018561498a565b614a6c61016083018461498a565b9d9c50505050505050505050505050565b60006020820190508181036000830152614a96816148db565b9050919050565b60006020820190508181036000830152614ab6816148fe565b9050919050565b60006020820190508181036000830152614ad681614921565b9050919050565b60006020820190508181036000830152614af681614944565b9050919050565b60006020820190508181036000830152614b1681614967565b9050919050565b6000602082019050614b32600083018461498a565b92915050565b6000604082019050614b4d600083018561498a565b614b5a602083018461498a565b9392505050565b6000606082019050614b76600083018661498a565b614b83602083018561498a565b614b90604083018461498a565b949350505050565b6000608082019050614bad600083018761498a565b614bba602083018661498a565b614bc7604083018561498a565b614bd4606083018461498a565b95945050505050565b600060a082019050614bf2600083018861498a565b614bff602083018761498a565b614c0c604083018661498a565b614c19606083018561498a565b614c26608083018461498a565b9695505050505050565b600060c082019050614c456000830189614999565b614c52602083018861498a565b614c5f604083018761498a565b614c6c606083018661498a565b614c79608083018561498a565b614c8660a083018461498a565b979650505050505050565b600060e082019050614ca6600083018a614999565b614cb3602083018961498a565b614cc0604083018861498a565b614ccd606083018761498a565b614cda608083018661498a565b614ce760a083018561498a565b614cf460c083018461498a565b98975050505050505050565b600082825260208201905092915050565b6000614d1c82614e58565b9150614d2783614e58565b9250827fffffffffffffffffffffffffffffffffffffffffffffffffffffffffffffffff03821115614d5c57614d5b614ee9565b5b828201905092915050565b6000614d7282614e58565b9150614d7d83614e58565b925082614d8d57614d8c614f18565b5b828204905092915050565b6000614da382614e58565b9150614dae83614e58565b9250817fffffffffffffffffffffffffffffffffffffffffffffffffffffffffffffffff0483118215151615614de757614de6614ee9565b5b828202905092915050565b6000614dfd82614e58565b9150614e0883614e58565b925082821015614e1b57614e1a614ee9565b5b828203905092915050565b6000614e3182614e38565b9050919050565b600073ffffffffffffffffffffffffffffffffffffffff82169050919050565b6000819050919050565b600060ff82169050919050565b6000614e7a82614e58565b91507fffffffffffffffffffffffffffffffffffffffffffffffffffffffffffffffff821415614ead57614eac614ee9565b5b600182019050919050565b6000614ec382614e58565b9150614ece83614e58565b925082614ede57614edd614f18565b5b828206905092915050565b7f4e487b7100000000000000000000000000000000000000000000000000000000600052601160045260246000fd5b7f4e487b7100000000000000000000000000000000000000000000000000000000600052601260045260246000fd5b7f5573657220686173206e6f206469766964656e64730000000000000000000000600082015250565b7f536166654d6174683a206164646974696f6e206f766572666c6f770000000000600082015250565b7f536166654d6174683a207375627472616374696f6e206f766572666c6f770000600082015250565b7f536166654d6174683a206469766973696f6e206279207a65726f000000000000600082015250565b7f536166654d6174683a206d756c7469706c69636174696f6e206f766572666c6f60008201527f7700000000000000000000000000000000000000000000000000000000000000602082015250565b61504381614e26565b811461504e57600080fd5b50565b61505a81614e58565b811461506557600080fd5b50565b61507181614e62565b811461507c57600080fd5b5056fea26469706673582212202742e6711b1fe179c58ff3d2c4564afeb1786427b1d29aef1fee391898dbba2f64736f6c63430008040033",
  "immutableReferences": {},
  "source": "// SPDX-License-Identifier: MIT\n/* \nCosas que tiene que tener:\n- Reinversion tradicional fija (30%).\n- Retirar cuando uno quiera, si retira pierde el hold bonus.\n- Maximo de inversion \n- 1 plan\n\nIdeas:\n- Hold bonus combinado con el porcentaje de reinversion (cada dia que pasa dejando la plata sumo interes a mi inversion, si retiro tengo que reinvertir mas)\n- Porcentaje de reinversion como tickets de loteria.\n\nPremisas:\n- Que sea duradero (minimo de 2 meses)\n*/\n\npragma solidity >=0.8.4;\n\ncontract ThunderHold {\n    using SafeMath for uint256;\n\n    uint256 public constant INVEST_MAX_AMOUNT = 100000 ether; // 100.000 TT\n    uint256 public constant INVEST_MIN_AMOUNT = 500 ether; //500 TT\n    uint256[] public REFERRAL_PERCENTS = [40e2, 20e2, 10e2, 5e2, 5e2]; //4%,2%,1%,0.5%,0.5%\n    uint256 public constant PROJECT_FEE = 50e2;\n    uint256 public constant MARKETING_FEE = 50e2;\n    uint256 public constant PERCENT_STEP = 10e2;\n    uint256 public constant PERCENTS_DIVIDER = 1000e2;\n    uint256 public constant TIME_STEP = 1 days; // 1 days\n    uint256 internal constant LOTTOBONUS = 5; // Bonus for pay a one ticket, acumulative.\n    uint256 internal constant LOTTOTICKET = 100 ether; // 100 TT, value ticket\n    uint256[] internal LOTTO_WIN_PERCENT = [25, 15, 10, 5, 2]; // Awards Lotto\n    uint256 internal constant LOTTO_TICKET_LIMIT = 50; // 50 Entrys Lotto\n    uint256 internal constant LOTTO_USER_LIMIT = 10; // 10 Entrys Lotto per user\n\n    uint256 public totalStaked;\n    uint256 public totalRefBonus;\n\n    uint256 lottoBag;\n    uint256 lottoCurrentPot;\n    uint256 lottoCycles;\n    uint256 lottoCurrentTicketsCount;\n    uint256 lottoLastTicket;\n    uint256 lottoTotalTicketsCount;\n    address lottoLastWin1a;\n    address lottoLastWin2a;\n    address lottoLastWin3a;\n    address lottoLastWin4a;\n    address lottoLastWin5a;\n    uint256 PLastWin1;\n    uint256 PLastWin2;\n    uint256 PLastWin3;\n    uint256 PLastWin4;\n    uint256 PLastWin5;\n\n    struct cLotto {\n        address lottoId;\n        uint256 ticketNumber;\n    }\n\n    struct nLotto {\n        cLotto[] currentLotto;\n    }\n\n    struct Plan {\n        uint256 time;\n        uint256 percent;\n        uint256 reinvest;\n    }\n\n    Plan[] internal plans;\n\n    struct Deposit {\n        uint8 plan;\n        uint256 percent;\n        uint256 amount;\n        uint256 profit;\n        uint256 start;\n        uint256 finish;\n        uint256 reinvest;\n    }\n\n    struct User {\n        Deposit[] deposits;\n        uint256 checkpoint;\n        address referrer;\n        uint256 referrals;\n        uint256 bonus;\n        uint256 totalBonus;\n        uint256 totalReinvested;\n        uint256 lottobonus;\n        uint256 lottoparticipations;\n        uint256 lottolimit;\n    }\n\n    mapping(address => User) internal users;\n    mapping(uint256 => nLotto) internal nlottos;\n\n    uint256 public startUNIX;\n    address payable private marketingWallet;\n    address payable private developerWallet;\n\n    event Newbie(address user);\n    event NewDeposit(\n        address indexed user,\n        uint8 plan,\n        uint256 percent,\n        uint256 amount,\n        uint256 profit,\n        uint256 start,\n        uint256 finish\n    );\n    event Withdrawn(address indexed user, uint256 amount);\n    event RefBonus(\n        address indexed referrer,\n        address indexed referral,\n        uint256 indexed level,\n        uint256 amount\n    );\n    event NewParticipantLotto(address indexed user, uint256 amount, uint256 pt);\n\n    constructor(address payable wallet, uint256 start) {\n        require(!isContract(wallet) && start > 0);\n        marketingWallet = wallet;\n        developerWallet = payable(msg.sender);\n        startUNIX = start;\n\n        // Agregamos solo 1 plan los demas los comentamos\n        plans.push(Plan(7, 200e2, 300e2)); // 20% per day for 7 days, 30% reinvest\n        //plans.push(Plan(15, 180e2, 300e2)); // 18% per day for 15 days, 30% reinvest\n        //plans.push(Plan(20, 170e2, 200e2)); // 17% per day for 20 days, 20% reinvest\n    }\n\n    function Feepayout(uint256 amt) internal {\n        uint256 developerfee = amt.mul(PROJECT_FEE).div(PERCENTS_DIVIDER);\n        developerWallet.transfer(developerfee);\n        uint256 marketingFee = amt.mul(MARKETING_FEE).div(PERCENTS_DIVIDER);\n        marketingWallet.transfer(marketingFee);\n    }\n\n    function invest(address referrer, uint8 plan) public payable {\n        //require(block.timestamp >= startUNIX ,\"Not Launch\");\n        //require(msg.value >= INVEST_MIN_AMOUNT);\n        //require(msg.value <= INVEST_MAX_AMOUNT);\n        //require(plan < 1, \"Invalid plan\");\n\n        Feepayout(msg.value); // Cobran devs\n\n        User storage user = users[msg.sender];\n        if (user.referrer == address(0)) {\n            if (users[referrer].deposits.length > 0 && referrer != msg.sender) {\n                user.referrer = referrer;\n            } else {\n                user.referrer = developerWallet;\n            }\n            address upline = user.referrer;\n            for (uint256 i = 0; i < 5; i++) {\n                if (upline != address(0)) {\n                    users[upline].referrals = users[upline].referrals.add(1);\n                    if (users[upline].referrer == address(0)) {\n                        users[upline].referrer = developerWallet;\n                    }\n                    upline = users[upline].referrer;\n                } else break;\n            }\n        }\n        if (user.referrer != address(0)) {\n            address upline = user.referrer;\n            for (uint256 i = 0; i < 5; i++) {\n                if (upline != address(0)) {\n                    uint256 amount =\n                        msg.value.mul(REFERRAL_PERCENTS[i]).div(\n                            PERCENTS_DIVIDER\n                        );\n                    users[upline].bonus = users[upline].bonus.add(amount);\n                    users[upline].totalBonus = users[upline].totalBonus.add(\n                        amount\n                    );\n                    emit RefBonus(upline, msg.sender, i, amount);\n                    upline = users[upline].referrer;\n                } else break;\n            }\n        }\n\n        if (user.deposits.length == 0) {\n            user.checkpoint = block.timestamp;\n            emit Newbie(msg.sender);\n        }\n\n        (uint256 percent, uint256 profit, uint256 finish, uint256 reinvest) =\n            getResult(plan, msg.value);\n        user.deposits.push(\n            Deposit(\n                plan,\n                percent,\n                msg.value,\n                profit,\n                block.timestamp,\n                finish,\n                reinvest\n            )\n        );\n\n        totalStaked = totalStaked.add(msg.value);\n        emit NewDeposit(\n            msg.sender,\n            plan,\n            percent,\n            msg.value,\n            profit,\n            block.timestamp,\n            finish\n        );\n    }\n\n    function withdraw() public payable {\n        User storage user = users[msg.sender];\n        //\t\trequire(getTimer(msg.sender) < block.timestamp, \"withdrawals available once a day\");\n        uint256 totalAmount;\n        uint256 totalReinvestAmount;\n\n        for (uint256 i = 0; i < user.deposits.length; i++) {\n            if (user.checkpoint < user.deposits[i].finish) {\n                uint256 share =\n                    user.deposits[i].amount.mul(user.deposits[i].percent).div(\n                        PERCENTS_DIVIDER\n                    );\n                uint256 from =\n                    user.deposits[i].start > user.checkpoint\n                        ? user.deposits[i].start\n                        : user.checkpoint;\n                uint256 to =\n                    user.deposits[i].finish < block.timestamp\n                        ? user.deposits[i].finish\n                        : block.timestamp;\n                if (from < to) {\n                    uint256 payout = share.mul(to.sub(from)).div(TIME_STEP);\n                    uint256 reinvest =\n                        payout.mul(user.deposits[i].reinvest).div(\n                            PERCENTS_DIVIDER\n                        );\n                    user.deposits[i].amount = user.deposits[i].amount.add(\n                        reinvest\n                    );\n                    payout = payout.sub(reinvest);\n                    totalAmount = totalAmount.add(payout);\n                    totalReinvestAmount = totalReinvestAmount.add(reinvest);\n                }\n            }\n        }\n\n        uint256 referralBonus = getUserReferralBonus(msg.sender);\n        if (referralBonus > 0) {\n            user.bonus = 0;\n            totalAmount = totalAmount.add(referralBonus);\n        }\n\n        user.totalReinvested = user.totalReinvested.add(totalReinvestAmount);\n        require(totalAmount > 0, \"User has no dividends\");\n        uint256 contractBalance = address(this).balance;\n        if (contractBalance < totalAmount) {\n            totalAmount = contractBalance;\n        }\n\n        user.checkpoint = block.timestamp;\n        // uint256 developerfee = totalReinvestAmount.mul(PROJECT_FEE).div(PERCENTS_DIVIDER);\n        // developerWallet.transfer(developerfee.div(2));\n        // uint256 marketingFee = totalReinvestAmount.mul(MARKETING_FEE).div(PERCENTS_DIVIDER);\n        // marketingWallet.transfer(marketingFee.div(2));\n        // No sacar comision de las reinversiones para que el contrato no se vaya debilitando\n\n        payable(msg.sender).transfer(totalAmount);\n\n        emit Withdrawn(msg.sender, totalAmount);\n    }\n\n    function lottoDeposit(uint256 ticketsQuantity) external payable {\n        //require(!isContract(msg.sender) && msg.sender == tx.origin);\n        User storage user = users[msg.sender];\n        //require(user.deposits.length > 0, \"Deposit is require first\");\n        //require(ticketsQuantity >= 1, \"Minimum number of tickets is 1\");\n        /*require(\n            LOTTO_TICKET_LIMIT >=\n                ticketsQuantity.add(lottoCurrentTicketsCount) &&\n                LOTTO_USER_LIMIT >= ticketsQuantity.add(user.lottolimit),\n            \"Maximum number of tickets exceed\"\n        );*/\n        //require(msg.value >= ticketsQuantity.mul(LOTTOTICKET), \"Wrong Amount\");\n        nLotto storage nlotto = nlottos[lottoCycles];\n\n        lottoTotalTicketsCount = lottoTotalTicketsCount.add(ticketsQuantity);\n        lottoCurrentTicketsCount = lottoCurrentTicketsCount.add(\n            ticketsQuantity\n        );\n        user.lottoparticipations = user.lottoparticipations.add(\n            ticketsQuantity\n        );\n        user.lottolimit = user.lottolimit.add(ticketsQuantity);\n\n        lottoCurrentPot = lottoCurrentPot.add(msg.value);\n\n        for (uint256 i = 1; i <= ticketsQuantity; i++) {\n            nlotto.currentLotto.push(\n                cLotto(msg.sender, lottoLastTicket.add(1))\n            );\n            lottoLastTicket++;\n        }\n        emit NewParticipantLotto(msg.sender, msg.value, lottoLastTicket);\n\n        if (lottoCurrentTicketsCount == LOTTO_TICKET_LIMIT) {\n            payLottoWin();\n\n            lottoCurrentPot = 0;\n            lottoCurrentTicketsCount = 0;\n            lottoLastTicket = 0;\n            lottoCycles++;\n        }\n    }\n\n    function getRaceWin(\n        uint256 fr,\n        uint256 to,\n        uint256 mud\n    ) internal view returns (uint256) {\n        uint256 A = (minZero(to, fr)).add(1); // 50 siempre\n        uint256 B = fr; // 1 siempre\n        uint256 value =\n            uint256(\n                uint256(\n                    keccak256(\n                        abi.encode(\n                            block.timestamp.mul(mud),\n                            block.difficulty.mul(mud)\n                        )\n                    )\n                )\n                    .mod(A)\n            )\n                .add(B); // Se resuelve con el resto y agregandole uno, el hash es aleatorio gracias al abi.encoded del timestamp\n        return value; // Retorna un numero del 1 al 50\n    }\n\n    function payLottoWin() internal {\n        nLotto storage nlotto = nlottos[lottoCycles];\n\n        uint256 win1 = getRaceWin(1, LOTTO_TICKET_LIMIT, 1);\n        uint256 win2 = getRaceWin(1, LOTTO_TICKET_LIMIT, 2);\n        uint256 win3 = getRaceWin(1, LOTTO_TICKET_LIMIT, 3);\n        uint256 win4 = getRaceWin(1, LOTTO_TICKET_LIMIT, 4);\n        uint256 win5 = getRaceWin(1, LOTTO_TICKET_LIMIT, 5);\n        uint256 profit;\n\n        //Feepayout(lottoCurrentPot); // Cobran los devs\n\n        uint256 da = lottoCurrentPot;\n        if (lottoBag > 0) {\n            uint256 LBM = lottoBag.div(20);\n            lottoCurrentPot = lottoCurrentPot.add(LBM);\n            lottoBag = lottoBag.sub(LBM);\n        }\n\n        lottoBag = lottoBag.add(da.mul(12).div(100));\n\n        for (uint256 i = 0; i < LOTTO_TICKET_LIMIT; i++) {\n            if (users[nlotto.currentLotto[i].lottoId].lottolimit != 0) {\n                users[nlotto.currentLotto[i].lottoId].lottolimit = 0;\n            }\n\n            if (nlotto.currentLotto[i].ticketNumber == win1) {\n                profit = (lottoCurrentPot.mul(LOTTO_WIN_PERCENT[0])).div(100);\n                payable(address(uint160(nlotto.currentLotto[i].lottoId)))\n                    .transfer(profit);\n                users[nlotto.currentLotto[i].lottoId].lottobonus = (\n                    users[nlotto.currentLotto[i].lottoId].lottobonus\n                )\n                    .add(profit);\n                lottoLastWin1a = nlotto.currentLotto[i].lottoId;\n                PLastWin1 = profit;\n            }\n            if (nlotto.currentLotto[i].ticketNumber == win2) {\n                profit = (lottoCurrentPot.mul(LOTTO_WIN_PERCENT[1])).div(100);\n                payable(address(uint160(nlotto.currentLotto[i].lottoId)))\n                    .transfer(profit);\n                users[nlotto.currentLotto[i].lottoId].lottobonus = (\n                    users[nlotto.currentLotto[i].lottoId].lottobonus\n                )\n                    .add(profit);\n                lottoLastWin2a = nlotto.currentLotto[i].lottoId;\n                PLastWin2 = profit;\n            }\n            if (nlotto.currentLotto[i].ticketNumber == win3) {\n                profit = (lottoCurrentPot.mul(LOTTO_WIN_PERCENT[2])).div(100);\n                payable(address(uint160(nlotto.currentLotto[i].lottoId)))\n                    .transfer(profit);\n                users[nlotto.currentLotto[i].lottoId].lottobonus = (\n                    users[nlotto.currentLotto[i].lottoId].lottobonus\n                )\n                    .add(profit);\n                lottoLastWin3a = nlotto.currentLotto[i].lottoId;\n                PLastWin3 = profit;\n            }\n            if (nlotto.currentLotto[i].ticketNumber == win4) {\n                profit = (lottoCurrentPot.mul(LOTTO_WIN_PERCENT[3])).div(100);\n                payable(address(uint160(nlotto.currentLotto[i].lottoId)))\n                    .transfer(profit);\n                users[nlotto.currentLotto[i].lottoId].lottobonus = (\n                    users[nlotto.currentLotto[i].lottoId].lottobonus\n                )\n                    .add(profit);\n                lottoLastWin4a = nlotto.currentLotto[i].lottoId;\n                PLastWin4 = profit;\n            }\n            if (nlotto.currentLotto[i].ticketNumber == win5) {\n                profit = (lottoCurrentPot.mul(LOTTO_WIN_PERCENT[4])).div(100);\n                payable(address(uint160(nlotto.currentLotto[i].lottoId)))\n                    .transfer(profit);\n                users[nlotto.currentLotto[i].lottoId].lottobonus = (\n                    users[nlotto.currentLotto[i].lottoId].lottobonus\n                )\n                    .add(profit);\n                lottoLastWin5a = nlotto.currentLotto[i].lottoId;\n                PLastWin5 = profit;\n            }\n        }\n    }\n\n    function getContractBalance() public view returns (uint256) {\n        return address(this).balance;\n    }\n\n    function getPlanInfo(uint8 plan)\n        public\n        view\n        returns (\n            uint256 time,\n            uint256 percent,\n            uint256 reinvest\n        )\n    {\n        time = plans[plan].time;\n        percent = plans[plan].percent;\n        reinvest = plans[plan].reinvest;\n    }\n\n    function getUserLottoRate(address userAddress)\n        public\n        view\n        returns (uint256)\n    {\n        User storage user = users[userAddress];\n        uint256 lottoparticipations = user.lottoparticipations;\n        uint256 LMultiplier = LOTTOBONUS.mul(lottoparticipations);\n        return LMultiplier;\n    }\n\n    function getPercent(uint8 plan) public view returns (uint256) {\n        uint256 userLottoRate = getUserLottoRate(msg.sender);\n        if (block.timestamp > startUNIX) {\n            return\n                plans[plan]\n                    .percent\n                    .add(\n                    PERCENT_STEP.mul(block.timestamp.sub(startUNIX)).div(\n                        TIME_STEP\n                    )\n                )\n                    .add(userLottoRate);\n        } else {\n            return plans[plan].percent;\n        }\n    }\n\n    function getReinvest(uint8 plan) public view returns (uint256 reinvest) {\n        uint256 time = block.timestamp.sub(startUNIX).div(TIME_STEP);\n        if (plan == 0) {\n            if (time > 25) {\n                return 0;\n            } else {\n                return plans[plan].reinvest.sub(time.mul(20e2)); //reinvest decreases every day by 2%\n            }\n        }\n        if (plan == 1) {\n            if (time > 30) {\n                return 0;\n            } else {\n                return plans[plan].reinvest.sub(time.mul(10e2)); //reinvest decreases every day by 1%\n            }\n        }\n\n        if (plan == 2) {\n            if (time > 40) {\n                return 0;\n            } else {\n                return plans[plan].reinvest.sub(time.mul(5e2)); //reinvest decreases every day by 0.5%\n            }\n        }\n    }\n\n    function getTimer(address userAddress) public view returns (uint256) {\n        return getUserCheckpoint(userAddress).add(TIME_STEP);\n    }\n\n    function getResult(uint8 plan, uint256 deposit)\n        public\n        view\n        returns (\n            uint256 percent,\n            uint256 profit,\n            uint256 finish,\n            uint256 reinvest\n        )\n    {\n        percent = getPercent(plan);\n        reinvest = getReinvest(plan);\n\n        profit = deposit.mul(percent).div(PERCENTS_DIVIDER).mul(\n            plans[plan].time\n        );\n\n        finish = block.timestamp.add(plans[plan].time.mul(TIME_STEP));\n    }\n\n    function getUserDividends(address userAddress)\n        public\n        view\n        returns (uint256)\n    {\n        User storage user = users[userAddress];\n\n        uint256 totalAmount;\n\n        for (uint256 i = 0; i < user.deposits.length; i++) {\n            if (user.checkpoint < user.deposits[i].finish) {\n                uint256 share =\n                    user.deposits[i].amount.mul(user.deposits[i].percent).div(\n                        PERCENTS_DIVIDER\n                    );\n                uint256 from =\n                    user.deposits[i].start > user.checkpoint\n                        ? user.deposits[i].start\n                        : user.checkpoint;\n                uint256 to =\n                    user.deposits[i].finish < block.timestamp\n                        ? user.deposits[i].finish\n                        : block.timestamp;\n                if (from < to) {\n                    totalAmount = totalAmount.add(\n                        share.mul(to.sub(from)).div(TIME_STEP)\n                    );\n                }\n            }\n        }\n\n        return totalAmount;\n    }\n\n    function getUserCheckpoint(address userAddress)\n        public\n        view\n        returns (uint256)\n    {\n        return users[userAddress].checkpoint;\n    }\n\n    function getUserReinvestedAmount(address userAddress)\n        public\n        view\n        returns (uint256)\n    {\n        return users[userAddress].totalReinvested;\n    }\n\n    function getUserReferrer(address userAddress)\n        public\n        view\n        returns (address)\n    {\n        return users[userAddress].referrer;\n    }\n\n    function getUserDownlineCount(address userAddress)\n        public\n        view\n        returns (uint256)\n    {\n        return users[userAddress].referrals;\n    }\n\n    function getUserReferralBonus(address userAddress)\n        public\n        view\n        returns (uint256)\n    {\n        return users[userAddress].bonus;\n    }\n\n    function getUserReferralTotalBonus(address userAddress)\n        public\n        view\n        returns (uint256)\n    {\n        return users[userAddress].totalBonus;\n    }\n\n    function getUserReferralWithdrawn(address userAddress)\n        public\n        view\n        returns (uint256)\n    {\n        return users[userAddress].totalBonus.sub(users[userAddress].bonus);\n    }\n\n    function getUserAvailable(address userAddress)\n        public\n        view\n        returns (uint256)\n    {\n        return\n            getUserReferralBonus(userAddress).add(\n                getUserDividends(userAddress)\n            );\n    }\n\n    function getUserAmountOfDeposits(address userAddress)\n        public\n        view\n        returns (uint256)\n    {\n        return users[userAddress].deposits.length;\n    }\n\n    function getUserTotalDeposits(address userAddress)\n        public\n        view\n        returns (uint256 amount)\n    {\n        for (uint256 i = 0; i < users[userAddress].deposits.length; i++) {\n            amount = amount.add(users[userAddress].deposits[i].amount);\n        }\n    }\n\n    function getUserDepositInfo(address userAddress, uint256 index)\n        public\n        view\n        returns (\n            uint8 plan,\n            uint256 percent,\n            uint256 amount,\n            uint256 profit,\n            uint256 start,\n            uint256 finish,\n            uint256 reinvest\n        )\n    {\n        User storage user = users[userAddress];\n\n        plan = user.deposits[index].plan;\n        percent = user.deposits[index].percent;\n        amount = user.deposits[index].amount;\n        profit = user.deposits[index].profit;\n        start = user.deposits[index].start;\n        finish = user.deposits[index].finish;\n        reinvest = user.deposits[index].reinvest;\n    }\n\n    function getlottoStats()\n        public\n        view\n        returns (\n            address,\n            address,\n            address,\n            address,\n            address,\n            uint256,\n            uint256,\n            uint256,\n            uint256,\n            uint256,\n            uint256,\n            uint256\n        )\n    {\n        return (\n            lottoLastWin1a,\n            lottoLastWin2a,\n            lottoLastWin3a,\n            lottoLastWin4a,\n            lottoLastWin5a,\n            lottoCycles,\n            lottoCurrentTicketsCount,\n            lottoTotalTicketsCount,\n            LOTTO_TICKET_LIMIT,\n            LOTTOTICKET,\n            lottoCurrentPot,\n            lottoBag\n        );\n    }\n\n    function getlottoLastPrizes()\n        public\n        view\n        returns (\n            uint256,\n            uint256,\n            uint256,\n            uint256,\n            uint256\n        )\n    {\n        return (PLastWin1, PLastWin2, PLastWin3, PLastWin4, PLastWin5);\n    }\n\n    function getUserlottoStats(address userAddress)\n        public\n        view\n        returns (\n            uint256,\n            uint256,\n            uint256\n        )\n    {\n        User memory user = users[userAddress];\n        return (user.lottobonus, user.lottoparticipations, user.lottolimit);\n    }\n\n    function isContract(address addr) internal view returns (bool) {\n        uint256 size;\n        assembly {\n            size := extcodesize(addr)\n        }\n        return size > 0;\n    }\n\n    function minZero(uint256 a, uint256 b) internal pure returns (uint256) {\n        if (a > b) {\n            return a - b;\n        } else {\n            return 0;\n        }\n    }\n\n    function maxVal(uint256 a, uint256 b) internal pure returns (uint256) {\n        if (a > b) {\n            return a;\n        } else {\n            return b;\n        }\n    }\n\n    function minVal(uint256 a, uint256 b) internal pure returns (uint256) {\n        if (a > b) {\n            return b;\n        } else {\n            return a;\n        }\n    }\n}\n\nlibrary SafeMath {\n    function add(uint256 a, uint256 b) internal pure returns (uint256) {\n        uint256 c = a + b;\n        require(c >= a, \"SafeMath: addition overflow\");\n        return c;\n    }\n\n    function sub(uint256 a, uint256 b) internal pure returns (uint256) {\n        require(b <= a, \"SafeMath: subtraction overflow\");\n        uint256 c = a - b;\n        return c;\n    }\n\n    function mul(uint256 a, uint256 b) internal pure returns (uint256) {\n        if (a == 0) {\n            return 0;\n        }\n        uint256 c = a * b;\n        require(c / a == b, \"SafeMath: multiplication overflow\");\n        return c;\n    }\n\n    function div(uint256 a, uint256 b) internal pure returns (uint256) {\n        require(b > 0, \"SafeMath: division by zero\");\n        uint256 c = a / b;\n        return c;\n    }\n\n    function mod(uint256 a, uint256 b) internal pure returns (uint256) {\n        return a % b;\n    }\n}\n",
  "sourcePath": "/home/madim/Desktop/projects/BNBHold/contracts/ThunderHold.sol",
  "compiler": {
    "name": "solc",
    "version": "0.8.4+commit.c7e474f2.Emscripten.clang"
  },
  "schemaVersion": "3.4.1",
  "updatedAt": "2021-07-04T00:43:15.463Z",
  "networkType": "ethereum",
  "devdoc": {
    "kind": "dev",
    "methods": {},
    "version": 1
  },
  "userdoc": {
    "kind": "user",
    "methods": {},
    "version": 1
  }
}