{
  "contractName": "AntiWallet",
  "abi": [
    {
      "inputs": [
        {
          "internalType": "uint256",
          "name": "start",
          "type": "uint256"
        }
      ],
      "stateMutability": "nonpayable",
      "type": "constructor"
    },
    {
      "anonymous": false,
      "inputs": [
        {
          "indexed": true,
          "internalType": "uint256",
          "name": "val1",
          "type": "uint256"
        },
        {
          "indexed": true,
          "internalType": "uint256",
          "name": "val2",
          "type": "uint256"
        }
      ],
      "name": "AliciaEvent",
      "type": "event"
    },
    {
      "anonymous": false,
      "inputs": [
        {
          "indexed": true,
          "internalType": "address",
          "name": "user",
          "type": "address"
        },
        {
          "indexed": false,
          "internalType": "uint8",
          "name": "plan",
          "type": "uint8"
        },
        {
          "indexed": false,
          "internalType": "uint256",
          "name": "percent",
          "type": "uint256"
        },
        {
          "indexed": false,
          "internalType": "uint256",
          "name": "amount",
          "type": "uint256"
        },
        {
          "indexed": false,
          "internalType": "uint256",
          "name": "profit",
          "type": "uint256"
        },
        {
          "indexed": false,
          "internalType": "uint256",
          "name": "start",
          "type": "uint256"
        },
        {
          "indexed": false,
          "internalType": "uint256",
          "name": "finish",
          "type": "uint256"
        }
      ],
      "name": "NewDeposit",
      "type": "event"
    },
    {
      "anonymous": false,
      "inputs": [
        {
          "indexed": false,
          "internalType": "address",
          "name": "user",
          "type": "address"
        }
      ],
      "name": "Newbie",
      "type": "event"
    },
    {
      "anonymous": false,
      "inputs": [
        {
          "indexed": true,
          "internalType": "address",
          "name": "referrer",
          "type": "address"
        },
        {
          "indexed": true,
          "internalType": "address",
          "name": "referral",
          "type": "address"
        },
        {
          "indexed": true,
          "internalType": "uint256",
          "name": "level",
          "type": "uint256"
        },
        {
          "indexed": false,
          "internalType": "uint256",
          "name": "amount",
          "type": "uint256"
        }
      ],
      "name": "RefBonus",
      "type": "event"
    },
    {
      "anonymous": false,
      "inputs": [
        {
          "indexed": true,
          "internalType": "address",
          "name": "user",
          "type": "address"
        },
        {
          "indexed": false,
          "internalType": "uint256",
          "name": "amount",
          "type": "uint256"
        }
      ],
      "name": "Withdrawn",
      "type": "event"
    },
    {
      "inputs": [],
      "name": "INVEST_MAX_AMOUNT",
      "outputs": [
        {
          "internalType": "uint256",
          "name": "",
          "type": "uint256"
        }
      ],
      "stateMutability": "view",
      "type": "function",
      "constant": true
    },
    {
      "inputs": [],
      "name": "INVEST_MIN_AMOUNT",
      "outputs": [
        {
          "internalType": "uint256",
          "name": "",
          "type": "uint256"
        }
      ],
      "stateMutability": "view",
      "type": "function",
      "constant": true
    },
    {
      "inputs": [],
      "name": "PERCENTS_DIVIDER",
      "outputs": [
        {
          "internalType": "uint256",
          "name": "",
          "type": "uint256"
        }
      ],
      "stateMutability": "view",
      "type": "function",
      "constant": true
    },
    {
      "inputs": [],
      "name": "PERCENT_STEP",
      "outputs": [
        {
          "internalType": "uint256",
          "name": "",
          "type": "uint256"
        }
      ],
      "stateMutability": "view",
      "type": "function",
      "constant": true
    },
    {
      "inputs": [],
      "name": "PROJECT_FEE",
      "outputs": [
        {
          "internalType": "uint256",
          "name": "",
          "type": "uint256"
        }
      ],
      "stateMutability": "view",
      "type": "function",
      "constant": true
    },
    {
      "inputs": [
        {
          "internalType": "uint256",
          "name": "",
          "type": "uint256"
        }
      ],
      "name": "REFERRAL_PERCENTS",
      "outputs": [
        {
          "internalType": "uint256",
          "name": "",
          "type": "uint256"
        }
      ],
      "stateMutability": "view",
      "type": "function",
      "constant": true
    },
    {
      "inputs": [],
      "name": "TIME_STEP",
      "outputs": [
        {
          "internalType": "uint256",
          "name": "",
          "type": "uint256"
        }
      ],
      "stateMutability": "view",
      "type": "function",
      "constant": true
    },
    {
      "inputs": [],
      "name": "startUNIX",
      "outputs": [
        {
          "internalType": "uint256",
          "name": "",
          "type": "uint256"
        }
      ],
      "stateMutability": "view",
      "type": "function",
      "constant": true
    },
    {
      "inputs": [],
      "name": "totalRefBonus",
      "outputs": [
        {
          "internalType": "uint256",
          "name": "",
          "type": "uint256"
        }
      ],
      "stateMutability": "view",
      "type": "function",
      "constant": true
    },
    {
      "inputs": [],
      "name": "totalStaked",
      "outputs": [
        {
          "internalType": "uint256",
          "name": "",
          "type": "uint256"
        }
      ],
      "stateMutability": "view",
      "type": "function",
      "constant": true
    },
    {
      "inputs": [
        {
          "internalType": "uint256",
          "name": "val1",
          "type": "uint256"
        },
        {
          "internalType": "uint256",
          "name": "val2",
          "type": "uint256"
        }
      ],
      "name": "alice",
      "outputs": [
        {
          "internalType": "uint256",
          "name": "",
          "type": "uint256"
        }
      ],
      "stateMutability": "nonpayable",
      "type": "function"
    },
    {
      "inputs": [
        {
          "internalType": "address",
          "name": "referrer",
          "type": "address"
        },
        {
          "internalType": "uint8",
          "name": "plan",
          "type": "uint8"
        }
      ],
      "name": "invest",
      "outputs": [],
      "stateMutability": "payable",
      "type": "function",
      "payable": true
    },
    {
      "inputs": [],
      "name": "withdraw",
      "outputs": [],
      "stateMutability": "nonpayable",
      "type": "function"
    },
    {
      "inputs": [],
      "name": "getContractBalance",
      "outputs": [
        {
          "internalType": "uint256",
          "name": "",
          "type": "uint256"
        }
      ],
      "stateMutability": "view",
      "type": "function",
      "constant": true
    },
    {
      "inputs": [
        {
          "internalType": "uint8",
          "name": "plan",
          "type": "uint8"
        }
      ],
      "name": "getPlanInfo",
      "outputs": [
        {
          "internalType": "uint256",
          "name": "time",
          "type": "uint256"
        },
        {
          "internalType": "uint256",
          "name": "percent",
          "type": "uint256"
        },
        {
          "internalType": "uint256",
          "name": "reinvest",
          "type": "uint256"
        }
      ],
      "stateMutability": "view",
      "type": "function",
      "constant": true
    },
    {
      "inputs": [
        {
          "internalType": "uint8",
          "name": "plan",
          "type": "uint8"
        }
      ],
      "name": "getPercent",
      "outputs": [
        {
          "internalType": "uint256",
          "name": "",
          "type": "uint256"
        }
      ],
      "stateMutability": "view",
      "type": "function",
      "constant": true
    },
    {
      "inputs": [
        {
          "internalType": "uint8",
          "name": "plan",
          "type": "uint8"
        }
      ],
      "name": "getReinvest",
      "outputs": [
        {
          "internalType": "uint256",
          "name": "reinvest",
          "type": "uint256"
        }
      ],
      "stateMutability": "view",
      "type": "function",
      "constant": true
    },
    {
      "inputs": [
        {
          "internalType": "address",
          "name": "userAddress",
          "type": "address"
        }
      ],
      "name": "getTimer",
      "outputs": [
        {
          "internalType": "uint256",
          "name": "",
          "type": "uint256"
        }
      ],
      "stateMutability": "view",
      "type": "function",
      "constant": true
    },
    {
      "inputs": [
        {
          "internalType": "uint8",
          "name": "plan",
          "type": "uint8"
        },
        {
          "internalType": "uint256",
          "name": "deposit",
          "type": "uint256"
        }
      ],
      "name": "getResult",
      "outputs": [
        {
          "internalType": "uint256",
          "name": "percent",
          "type": "uint256"
        },
        {
          "internalType": "uint256",
          "name": "profit",
          "type": "uint256"
        },
        {
          "internalType": "uint256",
          "name": "finish",
          "type": "uint256"
        },
        {
          "internalType": "uint256",
          "name": "reinvest",
          "type": "uint256"
        }
      ],
      "stateMutability": "view",
      "type": "function",
      "constant": true
    },
    {
      "inputs": [
        {
          "internalType": "address",
          "name": "userAddress",
          "type": "address"
        }
      ],
      "name": "getUserDividends",
      "outputs": [
        {
          "internalType": "uint256",
          "name": "",
          "type": "uint256"
        }
      ],
      "stateMutability": "view",
      "type": "function",
      "constant": true
    },
    {
      "inputs": [
        {
          "internalType": "address",
          "name": "userAddress",
          "type": "address"
        }
      ],
      "name": "getUserCheckpoint",
      "outputs": [
        {
          "internalType": "uint256",
          "name": "",
          "type": "uint256"
        }
      ],
      "stateMutability": "view",
      "type": "function",
      "constant": true
    },
    {
      "inputs": [
        {
          "internalType": "address",
          "name": "userAddress",
          "type": "address"
        }
      ],
      "name": "getUserReinvestedAmount",
      "outputs": [
        {
          "internalType": "uint256",
          "name": "",
          "type": "uint256"
        }
      ],
      "stateMutability": "view",
      "type": "function",
      "constant": true
    },
    {
      "inputs": [
        {
          "internalType": "address",
          "name": "userAddress",
          "type": "address"
        }
      ],
      "name": "getUserReferrer",
      "outputs": [
        {
          "internalType": "address",
          "name": "",
          "type": "address"
        }
      ],
      "stateMutability": "view",
      "type": "function",
      "constant": true
    },
    {
      "inputs": [
        {
          "internalType": "address",
          "name": "userAddress",
          "type": "address"
        }
      ],
      "name": "getUserDownlineCount",
      "outputs": [
        {
          "internalType": "uint256",
          "name": "",
          "type": "uint256"
        }
      ],
      "stateMutability": "view",
      "type": "function",
      "constant": true
    },
    {
      "inputs": [
        {
          "internalType": "address",
          "name": "userAddress",
          "type": "address"
        }
      ],
      "name": "getUserReferralBonus",
      "outputs": [
        {
          "internalType": "uint256",
          "name": "",
          "type": "uint256"
        }
      ],
      "stateMutability": "view",
      "type": "function",
      "constant": true
    },
    {
      "inputs": [
        {
          "internalType": "address",
          "name": "userAddress",
          "type": "address"
        }
      ],
      "name": "getUserReferralTotalBonus",
      "outputs": [
        {
          "internalType": "uint256",
          "name": "",
          "type": "uint256"
        }
      ],
      "stateMutability": "view",
      "type": "function",
      "constant": true
    },
    {
      "inputs": [
        {
          "internalType": "address",
          "name": "userAddress",
          "type": "address"
        }
      ],
      "name": "getUserReferralWithdrawn",
      "outputs": [
        {
          "internalType": "uint256",
          "name": "",
          "type": "uint256"
        }
      ],
      "stateMutability": "view",
      "type": "function",
      "constant": true
    },
    {
      "inputs": [
        {
          "internalType": "address",
          "name": "userAddress",
          "type": "address"
        }
      ],
      "name": "getUserAvailable",
      "outputs": [
        {
          "internalType": "uint256",
          "name": "",
          "type": "uint256"
        }
      ],
      "stateMutability": "view",
      "type": "function",
      "constant": true
    },
    {
      "inputs": [
        {
          "internalType": "address",
          "name": "userAddress",
          "type": "address"
        }
      ],
      "name": "getUserAmountOfDeposits",
      "outputs": [
        {
          "internalType": "uint256",
          "name": "",
          "type": "uint256"
        }
      ],
      "stateMutability": "view",
      "type": "function",
      "constant": true
    },
    {
      "inputs": [
        {
          "internalType": "address",
          "name": "userAddress",
          "type": "address"
        }
      ],
      "name": "getUserTotalDeposits",
      "outputs": [
        {
          "internalType": "uint256",
          "name": "amount",
          "type": "uint256"
        }
      ],
      "stateMutability": "view",
      "type": "function",
      "constant": true
    },
    {
      "inputs": [
        {
          "internalType": "address",
          "name": "userAddress",
          "type": "address"
        },
        {
          "internalType": "uint256",
          "name": "index",
          "type": "uint256"
        }
      ],
      "name": "getUserDepositInfo",
      "outputs": [
        {
          "internalType": "uint8",
          "name": "plan",
          "type": "uint8"
        },
        {
          "internalType": "uint256",
          "name": "percent",
          "type": "uint256"
        },
        {
          "internalType": "uint256",
          "name": "amount",
          "type": "uint256"
        },
        {
          "internalType": "uint256",
          "name": "profit",
          "type": "uint256"
        },
        {
          "internalType": "uint256",
          "name": "start",
          "type": "uint256"
        },
        {
          "internalType": "uint256",
          "name": "finish",
          "type": "uint256"
        },
        {
          "internalType": "uint256",
          "name": "reinvest",
          "type": "uint256"
        }
      ],
      "stateMutability": "view",
      "type": "function",
      "constant": true
    }
  ],
  "bytecode": "0x60806040526040518060a00160405280610fa061ffff1681526020016107d061ffff1681526020016103e861ffff1681526020016101f461ffff1681526020016101f461ffff1681525060009060056200005b9291906200025d565b503480156200006957600080fd5b50604051620037f4380380620037f483398181016040528101906200008f9190620002eb565b600081116200009d57600080fd5b33600660006101000a81548173ffffffffffffffffffffffffffffffffffffffff021916908373ffffffffffffffffffffffffffffffffffffffff160217905550806005819055506017600a7f111010fa83b9bb8a00fe3111492d064ead856e76d7edba5697e4668007e78c2d60405160405180910390a36003604051806060016040528060078152602001614e2081526020016175308152509080600181540180825580915050600190039060005260206000209060030201600090919091909150600082015181600001556020820151816001015560408201518160020155505060036040518060600160405280600f815260200161465081526020016175308152509080600181540180825580915050600190039060005260206000209060030201600090919091909150600082015181600001556020820151816001015560408201518160020155505060036040518060600160405280601481526020016142688152602001614e2081525090806001815401808255809150506001900390600052602060002090600302016000909190919091506000820151816000015560208201518160010155604082015181600201555050506200033b565b828054828255906000526020600020908101928215620002a2579160200282015b82811115620002a1578251829061ffff169055916020019190600101906200027e565b5b509050620002b19190620002b5565b5090565b5b80821115620002d0576000816000905550600101620002b6565b5090565b600081519050620002e58162000321565b92915050565b600060208284031215620002fe57600080fd5b60006200030e84828501620002d4565b91505092915050565b6000819050919050565b6200032c8162000317565b81146200033857600080fd5b50565b6134a9806200034b6000396000f3fe6080604052600436106101d85760003560e01c8063600d20ce11610102578063a8aeb6c211610095578063d7ffca9111610064578063d7ffca911461076e578063dba90698146107ab578063e262113e146107e8578063e85abe0914610813576101d8565b8063a8aeb6c214610684578063aecaa634146106c1578063c0806b0314610700578063c234123814610743576101d8565b80637d8cb7a2116100d15780637d8cb7a2146105b45780637e3abeea146105df578063817b1cd21461061c578063a51b953314610647576101d8565b8063600d20ce146104e457806369b11dd5146105215780636bb185561461054c5780636f9fb98a14610589576101d8565b806336144c9a1161017a57806348d44bd11161014957806348d44bd11461043257806357fc86b41461045d578063581c5ae6146104885780635936cf61146104a4576101d8565b806336144c9a146103645780633ccfd60b146103a15780633fc7e38f146103b857806348c37203146103f5576101d8565b806306903e1c116101b657806306903e1c146102825780631531f016146102bf578063153ab9df146102fc57806332bc298c14610339576101d8565b806301c234a8146101dd57806303a93c0c14610208578063040a772e14610245575b600080fd5b3480156101e957600080fd5b506101f2610850565b6040516101ff9190612f0c565b60405180910390f35b34801561021457600080fd5b5061022f600480360381019061022a9190612ac6565b610857565b60405161023c9190612f0c565b60405180910390f35b34801561025157600080fd5b5061026c60048036038101906102679190612ac6565b6108a3565b6040516102799190612f0c565b60405180910390f35b34801561028e57600080fd5b506102a960048036038101906102a49190612bcc565b610bf8565b6040516102b69190612f0c565b60405180910390f35b3480156102cb57600080fd5b506102e660048036038101906102e19190612ac6565b610e02565b6040516102f39190612f0c565b60405180910390f35b34801561030857600080fd5b50610323600480360381019061031e9190612ac6565b610e29565b6040516103309190612f0c565b60405180910390f35b34801561034557600080fd5b5061034e610e55565b60405161035b9190612f0c565b60405180910390f35b34801561037057600080fd5b5061038b60048036038101906103869190612ac6565b610e5c565b6040516103989190612dd1565b60405180910390f35b3480156103ad57600080fd5b506103b6610ec8565b005b3480156103c457600080fd5b506103df60048036038101906103da9190612b90565b611569565b6040516103ec9190612f0c565b60405180910390f35b34801561040157600080fd5b5061041c60048036038101906104179190612ac6565b6115b8565b6040516104299190612f0c565b60405180910390f35b34801561043e57600080fd5b50610447611604565b6040516104549190612f0c565b60405180910390f35b34801561046957600080fd5b5061047261160a565b60405161047f9190612f0c565b60405180910390f35b6104a2600480360381019061049d9190612b2b565b611610565b005b3480156104b057600080fd5b506104cb60048036038101906104c69190612bf5565b61205c565b6040516104db9493929190612f5e565b60405180910390f35b3480156104f057600080fd5b5061050b60048036038101906105069190612b67565b612183565b6040516105189190612f0c565b60405180910390f35b34801561052d57600080fd5b506105366121a7565b6040516105439190612f0c565b60405180910390f35b34801561055857600080fd5b50610573600480360381019061056e9190612ac6565b6121ad565b6040516105809190612f0c565b60405180910390f35b34801561059557600080fd5b5061059e61224d565b6040516105ab9190612f0c565b60405180910390f35b3480156105c057600080fd5b506105c9612255565b6040516105d69190612f0c565b60405180910390f35b3480156105eb57600080fd5b5061060660048036038101906106019190612ac6565b612261565b6040516106139190612f0c565b60405180910390f35b34801561062857600080fd5b5061063161236f565b60405161063e9190612f0c565b60405180910390f35b34801561065357600080fd5b5061066e60048036038101906106699190612bcc565b612375565b60405161067b9190612f0c565b60405180910390f35b34801561069057600080fd5b506106ab60048036038101906106a69190612ac6565b61237c565b6040516106b89190612f0c565b60405180910390f35b3480156106cd57600080fd5b506106e860048036038101906106e39190612bcc565b6123cb565b6040516106f793929190612f27565b60405180910390f35b34801561070c57600080fd5b5061072760048036038101906107229190612aef565b6124ca565b60405161073a9796959493929190613004565b60405180910390f35b34801561074f57600080fd5b50610758612761565b6040516107659190612f0c565b60405180910390f35b34801561077a57600080fd5b5061079560048036038101906107909190612ac6565b612767565b6040516107a29190612f0c565b60405180910390f35b3480156107b757600080fd5b506107d260048036038101906107cd9190612ac6565b6127b3565b6040516107df9190612f0c565b60405180910390f35b3480156107f457600080fd5b506107fd6127ff565b60405161080a9190612f0c565b60405180910390f35b34801561081f57600080fd5b5061083a60048036038101906108359190612ac6565b61280a565b6040516108479190612f0c565b60405180910390f35b620186a081565b6000600460008373ffffffffffffffffffffffffffffffffffffffff1673ffffffffffffffffffffffffffffffffffffffff168152602001908152602001600020600301549050919050565b600080600460008473ffffffffffffffffffffffffffffffffffffffff1673ffffffffffffffffffffffffffffffffffffffff1681526020019081526020016000209050600080600090505b8260000180549050811015610bed5782600001818154811061093a577f4e487b7100000000000000000000000000000000000000000000000000000000600052603260045260246000fd5b90600052602060002090600702016005015483600101541015610bda576000610a1b620186a0610a0d86600001858154811061099f577f4e487b7100000000000000000000000000000000000000000000000000000000600052603260045260246000fd5b9060005260206000209060070201600101548760000186815481106109ed577f4e487b7100000000000000000000000000000000000000000000000000000000600052603260045260246000fd5b90600052602060002090600702016002015461285690919063ffffffff16565b6128d190919063ffffffff16565b905060008460010154856000018481548110610a60577f4e487b7100000000000000000000000000000000000000000000000000000000600052603260045260246000fd5b90600052602060002090600702016004015411610a81578460010154610ad0565b846000018381548110610abd577f4e487b7100000000000000000000000000000000000000000000000000000000600052603260045260246000fd5b9060005260206000209060070201600401545b9050600042866000018581548110610b11577f4e487b7100000000000000000000000000000000000000000000000000000000600052603260045260246000fd5b90600052602060002090600702016005015410610b2e5742610b7d565b856000018481548110610b6a577f4e487b7100000000000000000000000000000000000000000000000000000000600052603260045260246000fd5b9060005260206000209060070201600501545b905080821015610bd657610bd3610bc462015180610bb6610ba7868661292f90919063ffffffff16565b8761285690919063ffffffff16565b6128d190919063ffffffff16565b8661298e90919063ffffffff16565b94505b5050505b8080610be5906131ed565b9150506108ef565b508092505050919050565b600080610c2562015180610c176005544261292f90919063ffffffff16565b6128d190919063ffffffff16565b905060008360ff161415610cc3576019811115610c46576000915050610dfd565b610cbb610c5e6107d08361285690919063ffffffff16565b60038560ff1681548110610c9b577f4e487b7100000000000000000000000000000000000000000000000000000000600052603260045260246000fd5b90600052602060002090600302016002015461292f90919063ffffffff16565b915050610dfd565b60018360ff161415610d5f57601e811115610ce2576000915050610dfd565b610d57610cfa6103e88361285690919063ffffffff16565b60038560ff1681548110610d37577f4e487b7100000000000000000000000000000000000000000000000000000000600052603260045260246000fd5b90600052602060002090600302016002015461292f90919063ffffffff16565b915050610dfd565b60028360ff161415610dfb576028811115610d7e576000915050610dfd565b610df3610d966101f48361285690919063ffffffff16565b60038560ff1681548110610dd3577f4e487b7100000000000000000000000000000000000000000000000000000000600052603260045260246000fd5b90600052602060002090600302016002015461292f90919063ffffffff16565b915050610dfd565b505b919050565b6000610e2262015180610e1484612767565b61298e90919063ffffffff16565b9050919050565b6000610e4e610e37836108a3565b610e408461280a565b61298e90919063ffffffff16565b9050919050565b6201518081565b6000600460008373ffffffffffffffffffffffffffffffffffffffff1673ffffffffffffffffffffffffffffffffffffffff16815260200190815260200160002060020160009054906101000a900473ffffffffffffffffffffffffffffffffffffffff169050919050565b6000600460003373ffffffffffffffffffffffffffffffffffffffff1673ffffffffffffffffffffffffffffffffffffffff168152602001908152602001600020905042610f1533610e02565b10610f55576040517f08c379a0000000000000000000000000000000000000000000000000000000008152600401610f4c90612e0c565b60405180910390fd5b60008060005b83600001805490508110156113b457836000018181548110610fa6577f4e487b7100000000000000000000000000000000000000000000000000000000600052603260045260246000fd5b906000526020600020906007020160050154846001015410156113a1576000611087620186a061107987600001858154811061100b577f4e487b7100000000000000000000000000000000000000000000000000000000600052603260045260246000fd5b906000526020600020906007020160010154886000018681548110611059577f4e487b7100000000000000000000000000000000000000000000000000000000600052603260045260246000fd5b90600052602060002090600702016002015461285690919063ffffffff16565b6128d190919063ffffffff16565b9050600085600101548660000184815481106110cc577f4e487b7100000000000000000000000000000000000000000000000000000000600052603260045260246000fd5b906000526020600020906007020160040154116110ed57856001015461113c565b856000018381548110611129577f4e487b7100000000000000000000000000000000000000000000000000000000600052603260045260246000fd5b9060005260206000209060070201600401545b905060004287600001858154811061117d577f4e487b7100000000000000000000000000000000000000000000000000000000600052603260045260246000fd5b9060005260206000209060070201600501541061119a57426111e9565b8660000184815481106111d6577f4e487b7100000000000000000000000000000000000000000000000000000000600052603260045260246000fd5b9060005260206000209060070201600501545b90508082101561139d57600061122f62015180611221611212868661292f90919063ffffffff16565b8761285690919063ffffffff16565b6128d190919063ffffffff16565b905060006112a8620186a061129a8b6000018981548110611279577f4e487b7100000000000000000000000000000000000000000000000000000000600052603260045260246000fd5b9060005260206000209060070201600601548561285690919063ffffffff16565b6128d190919063ffffffff16565b905061130a818a60000188815481106112ea577f4e487b7100000000000000000000000000000000000000000000000000000000600052603260045260246000fd5b90600052602060002090600702016002015461298e90919063ffffffff16565b896000018781548110611346577f4e487b7100000000000000000000000000000000000000000000000000000000600052603260045260246000fd5b90600052602060002090600702016002018190555061136e818361292f90919063ffffffff16565b9150611383828961298e90919063ffffffff16565b9750611398818861298e90919063ffffffff16565b965050505b5050505b80806113ac906131ed565b915050610f5b565b5060006113c03361280a565b905060008111156113eb57600084600401819055506113e8818461298e90919063ffffffff16565b92505b61140282856006015461298e90919063ffffffff16565b84600601819055506000831161144d576040517f08c379a000000000000000000000000000000000000000000000000000000000815260040161144490612dec565b60405180910390fd5b60004790508381101561145e578093505b42856001018190555060003373ffffffffffffffffffffffffffffffffffffffff168560405161148d90612dbc565b60006040518083038185875af1925050503d80600081146114ca576040519150601f19603f3d011682016040523d82523d6000602084013e6114cf565b606091505b5050905080611513576040517f08c379a000000000000000000000000000000000000000000000000000000000815260040161150a90612eac565b60405180910390fd5b3373ffffffffffffffffffffffffffffffffffffffff167f7084f5476618d8e60b11ef0d7d3f06914655adb8793e28ff7f018d4c76d505d5866040516115599190612f0c565b60405180910390a2505050505050565b600080839050600083905080827f111010fa83b9bb8a00fe3111492d064ead856e76d7edba5697e4668007e78c2d60405160405180910390a380826115ae9190613116565b9250505092915050565b6000600460008373ffffffffffffffffffffffffffffffffffffffff1673ffffffffffffffffffffffffffffffffffffffff168152602001908152602001600020600501549050919050565b61138881565b6103e881565b600554421015611655576040517f08c379a000000000000000000000000000000000000000000000000000000000815260040161164c90612eec565b60405180910390fd5b66b1a2bc2ec5000034101561166957600080fd5b678ac7230489e8000034111561167e57600080fd5b60038160ff16106116c4576040517f08c379a00000000000000000000000000000000000000000000000000000000081526004016116bb90612ecc565b60405180910390fd5b6116cd346129ec565b6000600460003373ffffffffffffffffffffffffffffffffffffffff1673ffffffffffffffffffffffffffffffffffffffff1681526020019081526020016000209050600073ffffffffffffffffffffffffffffffffffffffff168160020160009054906101000a900473ffffffffffffffffffffffffffffffffffffffff1673ffffffffffffffffffffffffffffffffffffffff161415611b62576000600460008573ffffffffffffffffffffffffffffffffffffffff1673ffffffffffffffffffffffffffffffffffffffff168152602001908152602001600020600001805490501180156117ea57503373ffffffffffffffffffffffffffffffffffffffff168373ffffffffffffffffffffffffffffffffffffffff1614155b1561183757828160020160006101000a81548173ffffffffffffffffffffffffffffffffffffffff021916908373ffffffffffffffffffffffffffffffffffffffff16021790555061189d565b600660009054906101000a900473ffffffffffffffffffffffffffffffffffffffff168160020160006101000a81548173ffffffffffffffffffffffffffffffffffffffff021916908373ffffffffffffffffffffffffffffffffffffffff1602179055505b60008160020160009054906101000a900473ffffffffffffffffffffffffffffffffffffffff16905060005b6005811015611b5f57600073ffffffffffffffffffffffffffffffffffffffff168273ffffffffffffffffffffffffffffffffffffffff1614611b475761195c6001600460008573ffffffffffffffffffffffffffffffffffffffff1673ffffffffffffffffffffffffffffffffffffffff1681526020019081526020016000206003015461298e90919063ffffffff16565b600460008473ffffffffffffffffffffffffffffffffffffffff1673ffffffffffffffffffffffffffffffffffffffff16815260200190815260200160002060030181905550600073ffffffffffffffffffffffffffffffffffffffff16600460008473ffffffffffffffffffffffffffffffffffffffff1673ffffffffffffffffffffffffffffffffffffffff16815260200190815260200160002060020160009054906101000a900473ffffffffffffffffffffffffffffffffffffffff1673ffffffffffffffffffffffffffffffffffffffff161415611add57600660009054906101000a900473ffffffffffffffffffffffffffffffffffffffff16600460008473ffffffffffffffffffffffffffffffffffffffff1673ffffffffffffffffffffffffffffffffffffffff16815260200190815260200160002060020160006101000a81548173ffffffffffffffffffffffffffffffffffffffff021916908373ffffffffffffffffffffffffffffffffffffffff1602179055505b600460008373ffffffffffffffffffffffffffffffffffffffff1673ffffffffffffffffffffffffffffffffffffffff16815260200190815260200160002060020160009054906101000a900473ffffffffffffffffffffffffffffffffffffffff169150611b4c565b611b5f565b8080611b57906131ed565b9150506118c9565b50505b600073ffffffffffffffffffffffffffffffffffffffff168160020160009054906101000a900473ffffffffffffffffffffffffffffffffffffffff1673ffffffffffffffffffffffffffffffffffffffff1614611eb55760008160020160009054906101000a900473ffffffffffffffffffffffffffffffffffffffff16905060005b6005811015611eb257600073ffffffffffffffffffffffffffffffffffffffff168273ffffffffffffffffffffffffffffffffffffffff1614611e9a576000611c91620186a0611c8360008581548110611c69577f4e487b7100000000000000000000000000000000000000000000000000000000600052603260045260246000fd5b90600052602060002001543461285690919063ffffffff16565b6128d190919063ffffffff16565b9050611ce881600460008673ffffffffffffffffffffffffffffffffffffffff1673ffffffffffffffffffffffffffffffffffffffff1681526020019081526020016000206004015461298e90919063ffffffff16565b600460008573ffffffffffffffffffffffffffffffffffffffff1673ffffffffffffffffffffffffffffffffffffffff16815260200190815260200160002060040181905550611d8381600460008673ffffffffffffffffffffffffffffffffffffffff1673ffffffffffffffffffffffffffffffffffffffff1681526020019081526020016000206005015461298e90919063ffffffff16565b600460008573ffffffffffffffffffffffffffffffffffffffff1673ffffffffffffffffffffffffffffffffffffffff16815260200190815260200160002060050181905550813373ffffffffffffffffffffffffffffffffffffffff168473ffffffffffffffffffffffffffffffffffffffff167fd41f7e766eebcc7ff42b11ac8691bdf864db4afc0c55e71d629d54edce460d9884604051611e279190612f0c565b60405180910390a4600460008473ffffffffffffffffffffffffffffffffffffffff1673ffffffffffffffffffffffffffffffffffffffff16815260200190815260200160002060020160009054906101000a900473ffffffffffffffffffffffffffffffffffffffff16925050611e9f565b611eb2565b8080611eaa906131ed565b915050611be6565b50505b600081600001805490501415611f06574281600101819055507f9fd565cd14c3c391679eb0cad12a14dcf7534e9d3462bcb9b67a098a9bbbc24a33604051611efd9190612dd1565b60405180910390a15b600080600080611f16863461205c565b9350935093509350846000016040518060e001604052808860ff16815260200186815260200134815260200185815260200142815260200184815260200183815250908060018154018082558091505060019003906000526020600020906007020160009091909190915060008201518160000160006101000a81548160ff021916908360ff1602179055506020820151816001015560408201518160020155606082015181600301556080820151816004015560a0820151816005015560c082015181600601555050611ff53460015461298e90919063ffffffff16565b6001819055503373ffffffffffffffffffffffffffffffffffffffff167f84e02daa69bdb087c9fe8d3041abca495512cb14e723070f6d1d4efface82e5d87863487428860405161204b96959493929190612fa3565b60405180910390a250505050505050565b60008060008061206b86612375565b935061207686610bf8565b905061210060038760ff16815481106120b8577f4e487b7100000000000000000000000000000000000000000000000000000000600052603260045260246000fd5b9060005260206000209060030201600001546120f2620186a06120e4888a61285690919063ffffffff16565b6128d190919063ffffffff16565b61285690919063ffffffff16565b92506121786121696201518060038960ff1681548110612149577f4e487b7100000000000000000000000000000000000000000000000000000000600052603260045260246000fd5b90600052602060002090600302016000015461285690919063ffffffff16565b4261298e90919063ffffffff16565b915092959194509250565b6000818154811061219357600080fd5b906000526020600020016000915090505481565b60025481565b6000612246600460008473ffffffffffffffffffffffffffffffffffffffff1673ffffffffffffffffffffffffffffffffffffffff16815260200190815260200160002060040154600460008573ffffffffffffffffffffffffffffffffffffffff1673ffffffffffffffffffffffffffffffffffffffff1681526020019081526020016000206005015461292f90919063ffffffff16565b9050919050565b600047905090565b678ac7230489e8000081565b600080600090505b600460008473ffffffffffffffffffffffffffffffffffffffff1673ffffffffffffffffffffffffffffffffffffffff1681526020019081526020016000206000018054905081101561236957612354600460008573ffffffffffffffffffffffffffffffffffffffff1673ffffffffffffffffffffffffffffffffffffffff1681526020019081526020016000206000018281548110612333577f4e487b7100000000000000000000000000000000000000000000000000000000600052603260045260246000fd5b9060005260206000209060070201600201548361298e90919063ffffffff16565b91508080612361906131ed565b915050612269565b50919050565b60015481565b6000919050565b6000600460008373ffffffffffffffffffffffffffffffffffffffff1673ffffffffffffffffffffffffffffffffffffffff168152602001908152602001600020600001805490509050919050565b600080600060038460ff168154811061240d577f4e487b7100000000000000000000000000000000000000000000000000000000600052603260045260246000fd5b906000526020600020906003020160000154925060038460ff168154811061245e577f4e487b7100000000000000000000000000000000000000000000000000000000600052603260045260246000fd5b906000526020600020906003020160010154915060038460ff16815481106124af577f4e487b7100000000000000000000000000000000000000000000000000000000600052603260045260246000fd5b90600052602060002090600302016002015490509193909250565b600080600080600080600080600460008b73ffffffffffffffffffffffffffffffffffffffff1673ffffffffffffffffffffffffffffffffffffffff1681526020019081526020016000209050806000018981548110612553577f4e487b7100000000000000000000000000000000000000000000000000000000600052603260045260246000fd5b906000526020600020906007020160000160009054906101000a900460ff1697508060000189815481106125b0577f4e487b7100000000000000000000000000000000000000000000000000000000600052603260045260246000fd5b9060005260206000209060070201600101549650806000018981548110612600577f4e487b7100000000000000000000000000000000000000000000000000000000600052603260045260246000fd5b9060005260206000209060070201600201549550806000018981548110612650577f4e487b7100000000000000000000000000000000000000000000000000000000600052603260045260246000fd5b90600052602060002090600702016003015494508060000189815481106126a0577f4e487b7100000000000000000000000000000000000000000000000000000000600052603260045260246000fd5b90600052602060002090600702016004015493508060000189815481106126f0577f4e487b7100000000000000000000000000000000000000000000000000000000600052603260045260246000fd5b9060005260206000209060070201600501549250806000018981548110612740577f4e487b7100000000000000000000000000000000000000000000000000000000600052603260045260246000fd5b90600052602060002090600702016006015491505092959891949750929550565b60055481565b6000600460008373ffffffffffffffffffffffffffffffffffffffff1673ffffffffffffffffffffffffffffffffffffffff168152602001908152602001600020600101549050919050565b6000600460008373ffffffffffffffffffffffffffffffffffffffff1673ffffffffffffffffffffffffffffffffffffffff168152602001908152602001600020600601549050919050565b66b1a2bc2ec5000081565b6000600460008373ffffffffffffffffffffffffffffffffffffffff1673ffffffffffffffffffffffffffffffffffffffff168152602001908152602001600020600401549050919050565b60008083141561286957600090506128cb565b600082846128779190613116565b905082848261288691906130e5565b146128c6576040517f08c379a00000000000000000000000000000000000000000000000000000000081526004016128bd90612e8c565b60405180910390fd5b809150505b92915050565b6000808211612915576040517f08c379a000000000000000000000000000000000000000000000000000000000815260040161290c90612e6c565b60405180910390fd5b6000828461292391906130e5565b90508091505092915050565b600082821115612974576040517f08c379a000000000000000000000000000000000000000000000000000000000815260040161296b90612e4c565b60405180910390fd5b600082846129829190613170565b90508091505092915050565b600080828461299d919061308f565b9050838110156129e2576040517f08c379a00000000000000000000000000000000000000000000000000000000081526004016129d990612e2c565b60405180910390fd5b8091505092915050565b6000612a18620186a0612a0a6113888561285690919063ffffffff16565b6128d190919063ffffffff16565b9050600660009054906101000a900473ffffffffffffffffffffffffffffffffffffffff1673ffffffffffffffffffffffffffffffffffffffff166108fc829081150290604051600060405180830381858888f19350505050158015612a82573d6000803e3d6000fd5b505050565b600081359050612a968161342e565b92915050565b600081359050612aab81613445565b92915050565b600081359050612ac08161345c565b92915050565b600060208284031215612ad857600080fd5b6000612ae684828501612a87565b91505092915050565b60008060408385031215612b0257600080fd5b6000612b1085828601612a87565b9250506020612b2185828601612a9c565b9150509250929050565b60008060408385031215612b3e57600080fd5b6000612b4c85828601612a87565b9250506020612b5d85828601612ab1565b9150509250929050565b600060208284031215612b7957600080fd5b6000612b8784828501612a9c565b91505092915050565b60008060408385031215612ba357600080fd5b6000612bb185828601612a9c565b9250506020612bc285828601612a9c565b9150509250929050565b600060208284031215612bde57600080fd5b6000612bec84828501612ab1565b91505092915050565b60008060408385031215612c0857600080fd5b6000612c1685828601612ab1565b9250506020612c2785828601612a9c565b9150509250929050565b612c3a816131a4565b82525050565b6000612c4d60158361307e565b9150612c5882613294565b602082019050919050565b6000612c7060208361307e565b9150612c7b826132bd565b602082019050919050565b6000612c93601b8361307e565b9150612c9e826132e6565b602082019050919050565b6000612cb6601e8361307e565b9150612cc18261330f565b602082019050919050565b6000612cd9601a8361307e565b9150612ce482613338565b602082019050919050565b6000612cfc60218361307e565b9150612d0782613361565b604082019050919050565b6000612d1f600083613073565b9150612d2a826133b0565b600082019050919050565b6000612d4260108361307e565b9150612d4d826133b3565b602082019050919050565b6000612d65600c8361307e565b9150612d70826133dc565b602082019050919050565b6000612d88600a8361307e565b9150612d9382613405565b602082019050919050565b612da7816131d6565b82525050565b612db6816131e0565b82525050565b6000612dc782612d12565b9150819050919050565b6000602082019050612de66000830184612c31565b92915050565b60006020820190508181036000830152612e0581612c40565b9050919050565b60006020820190508181036000830152612e2581612c63565b9050919050565b60006020820190508181036000830152612e4581612c86565b9050919050565b60006020820190508181036000830152612e6581612ca9565b9050919050565b60006020820190508181036000830152612e8581612ccc565b9050919050565b60006020820190508181036000830152612ea581612cef565b9050919050565b60006020820190508181036000830152612ec581612d35565b9050919050565b60006020820190508181036000830152612ee581612d58565b9050919050565b60006020820190508181036000830152612f0581612d7b565b9050919050565b6000602082019050612f216000830184612d9e565b92915050565b6000606082019050612f3c6000830186612d9e565b612f496020830185612d9e565b612f566040830184612d9e565b949350505050565b6000608082019050612f736000830187612d9e565b612f806020830186612d9e565b612f8d6040830185612d9e565b612f9a6060830184612d9e565b95945050505050565b600060c082019050612fb86000830189612dad565b612fc56020830188612d9e565b612fd26040830187612d9e565b612fdf6060830186612d9e565b612fec6080830185612d9e565b612ff960a0830184612d9e565b979650505050505050565b600060e082019050613019600083018a612dad565b6130266020830189612d9e565b6130336040830188612d9e565b6130406060830187612d9e565b61304d6080830186612d9e565b61305a60a0830185612d9e565b61306760c0830184612d9e565b98975050505050505050565b600081905092915050565b600082825260208201905092915050565b600061309a826131d6565b91506130a5836131d6565b9250827fffffffffffffffffffffffffffffffffffffffffffffffffffffffffffffffff038211156130da576130d9613236565b5b828201905092915050565b60006130f0826131d6565b91506130fb836131d6565b92508261310b5761310a613265565b5b828204905092915050565b6000613121826131d6565b915061312c836131d6565b9250817fffffffffffffffffffffffffffffffffffffffffffffffffffffffffffffffff048311821515161561316557613164613236565b5b828202905092915050565b600061317b826131d6565b9150613186836131d6565b92508282101561319957613198613236565b5b828203905092915050565b60006131af826131b6565b9050919050565b600073ffffffffffffffffffffffffffffffffffffffff82169050919050565b6000819050919050565b600060ff82169050919050565b60006131f8826131d6565b91507fffffffffffffffffffffffffffffffffffffffffffffffffffffffffffffffff82141561322b5761322a613236565b5b600182019050919050565b7f4e487b7100000000000000000000000000000000000000000000000000000000600052601160045260246000fd5b7f4e487b7100000000000000000000000000000000000000000000000000000000600052601260045260246000fd5b7f5573657220686173206e6f206469766964656e64730000000000000000000000600082015250565b7f7769746864726177616c7320617661696c61626c65206f6e6365206120646179600082015250565b7f536166654d6174683a206164646974696f6e206f766572666c6f770000000000600082015250565b7f536166654d6174683a207375627472616374696f6e206f766572666c6f770000600082015250565b7f536166654d6174683a206469766973696f6e206279207a65726f000000000000600082015250565b7f536166654d6174683a206d756c7469706c69636174696f6e206f766572666c6f60008201527f7700000000000000000000000000000000000000000000000000000000000000602082015250565b50565b7f5472616e73666572206661696c65642e00000000000000000000000000000000600082015250565b7f496e76616c696420706c616e0000000000000000000000000000000000000000600082015250565b7f4e6f74204c61756e636800000000000000000000000000000000000000000000600082015250565b613437816131a4565b811461344257600080fd5b50565b61344e816131d6565b811461345957600080fd5b50565b613465816131e0565b811461347057600080fd5b5056fea264697066735822122063bcc4f96c51788d75407c9816f9d0adae535a60a5462d7a0747a487ca92192b64736f6c63430008040033",
  "immutableReferences": {},
  "source": "// SPDX-License-Identifier: MIT\n/* \nCosas que tiene que tener:\n- Reinversion tradicional fija (30%).\n- Retirar cuando uno quiera, si retira pierde el hold bonus.\n- Maximo de inversion \n- 1 plan\n\nIdeas:\n- Hold bonus combinado con el porcentaje de reinversion (cada dia que pasa dejando la plata sumo interes a mi inversion, si retiro tengo que reinvertir mas)\n- Porcentaje de reinversion como tickets de loteria.\n\nPremisas:\n- Que sea duradero (minimo de 2 meses)\n*/\n\npragma solidity 0.8.4;\n\ncontract AntiWallet {\n    using SafeMath for uint256;\n\n    uint256 public constant INVEST_MAX_AMOUNT = 10 ether;\n    uint256 public constant INVEST_MIN_AMOUNT = 0.05 ether;\n\n    uint256[] public REFERRAL_PERCENTS = [40e2, 20e2, 10e2, 5e2, 5e2]; //4%,2%,1%,0.5%,0.5%\n    uint256 public constant PROJECT_FEE = 50e2;\n    uint256 public constant PERCENT_STEP = 10e2;\n    uint256 public constant PERCENTS_DIVIDER = 1000e2;\n    uint256 public constant TIME_STEP = 1 days; // 1 days\n\n    uint256 public totalStaked;\n    uint256 public totalRefBonus;\n\n    struct Plan {\n        uint256 time;\n        uint256 percent;\n        uint256 reinvest;\n    }\n\n    Plan[] internal plans;\n\n    struct Deposit {\n        uint8 plan;\n        uint256 percent;\n        uint256 amount;\n        uint256 profit;\n        uint256 start;\n        uint256 finish;\n        uint256 reinvest;\n    }\n\n    struct User {\n        Deposit[] deposits;\n        uint256 checkpoint;\n        address referrer;\n        uint256 referrals;\n        uint256 bonus;\n        uint256 totalBonus;\n        uint256 totalReinvested;\n    }\n\n    mapping(address => User) internal users;\n\n    uint256 public startUNIX;\n\n    // Propiedad privada, porque?\n    address payable private developerWallet;\n\n    // Evento\n    event AliciaEvent(uint256 indexed val1, uint256 indexed val2);\n\n    event Newbie(address user);\n    event NewDeposit(\n        address indexed user,\n        uint8 plan,\n        uint256 percent,\n        uint256 amount,\n        uint256 profit,\n        uint256 start,\n        uint256 finish\n    );\n    event Withdrawn(address indexed user, uint256 amount);\n    event RefBonus(\n        address indexed referrer,\n        address indexed referral,\n        uint256 indexed level,\n        uint256 amount\n    );\n\n    constructor(uint256 start) {\n        require(start > 0);\n        developerWallet = payable(msg.sender);\n        startUNIX = start;\n\n        emit AliciaEvent(10, 23);\n\n        // Agregamos solo 1 plan los demas los comentamos\n        plans.push(Plan(7, 200e2, 300e2)); // 20% per day for 7 days, 30% reinvest\n        plans.push(Plan(15, 180e2, 300e2)); // 18% per day for 15 days, 30% reinvest\n        plans.push(Plan(20, 170e2, 200e2)); // 17% per day for 20 days, 20% reinvest\n    }\n\n    function alice(uint256 val1, uint256 val2) public returns (uint256) {\n        uint256 res1 = val1;\n        uint256 res2 = val2;\n        emit AliciaEvent(res1, res2);\n\n        return res1 * res2;\n    }\n\n    function feepayout(uint256 amt) internal {\n        uint256 developerfee = amt.mul(PROJECT_FEE).div(PERCENTS_DIVIDER);\n        developerWallet.transfer(developerfee);\n    }\n\n    function invest(address referrer, uint8 plan) public payable {\n        require(block.timestamp >= startUNIX, \"Not Launch\");\n        require(msg.value >= INVEST_MIN_AMOUNT);\n        require(msg.value <= INVEST_MAX_AMOUNT);\n        require(plan < 3, \"Invalid plan\");\n\n        feepayout(msg.value);\n\n        User storage user = users[msg.sender];\n\n        if (user.referrer == address(0)) {\n            if (users[referrer].deposits.length > 0 && referrer != msg.sender) {\n                user.referrer = referrer;\n            } else {\n                user.referrer = developerWallet;\n            }\n            address upline = user.referrer;\n            for (uint256 i = 0; i < 5; i++) {\n                if (upline != address(0)) {\n                    users[upline].referrals = users[upline].referrals.add(1);\n                    if (users[upline].referrer == address(0)) {\n                        users[upline].referrer = developerWallet;\n                    }\n                    upline = users[upline].referrer;\n                } else break;\n            }\n        }\n        if (user.referrer != address(0)) {\n            address upline = user.referrer;\n            for (uint256 i = 0; i < 5; i++) {\n                if (upline != address(0)) {\n                    uint256 amount =\n                        msg.value.mul(REFERRAL_PERCENTS[i]).div(\n                            PERCENTS_DIVIDER\n                        );\n                    users[upline].bonus = users[upline].bonus.add(amount);\n                    users[upline].totalBonus = users[upline].totalBonus.add(\n                        amount\n                    );\n                    emit RefBonus(upline, msg.sender, i, amount);\n                    upline = users[upline].referrer;\n                } else break;\n            }\n        }\n\n        if (user.deposits.length == 0) {\n            user.checkpoint = block.timestamp;\n            emit Newbie(msg.sender);\n        }\n\n        (uint256 percent, uint256 profit, uint256 finish, uint256 reinvest) =\n            getResult(plan, msg.value);\n        user.deposits.push(\n            Deposit(\n                plan,\n                percent,\n                msg.value,\n                profit,\n                block.timestamp,\n                finish,\n                reinvest\n            )\n        );\n\n        totalStaked = totalStaked.add(msg.value);\n        emit NewDeposit(\n            msg.sender,\n            plan,\n            percent,\n            msg.value,\n            profit,\n            block.timestamp,\n            finish\n        );\n    }\n\n    function withdraw() external {\n        User storage user = users[msg.sender];\n        require(\n            getTimer(msg.sender) < block.timestamp,\n            \"withdrawals available once a day\"\n        );\n        uint256 totalAmount;\n        uint256 totalReinvestAmount;\n\n        for (uint256 i = 0; i < user.deposits.length; i++) {\n            if (user.checkpoint < user.deposits[i].finish) {\n                uint256 share =\n                    user.deposits[i].amount.mul(user.deposits[i].percent).div(\n                        PERCENTS_DIVIDER\n                    );\n                uint256 from =\n                    user.deposits[i].start > user.checkpoint\n                        ? user.deposits[i].start\n                        : user.checkpoint;\n                uint256 to =\n                    user.deposits[i].finish < block.timestamp\n                        ? user.deposits[i].finish\n                        : block.timestamp;\n                if (from < to) {\n                    uint256 payout = share.mul(to.sub(from)).div(TIME_STEP);\n                    uint256 reinvest =\n                        payout.mul(user.deposits[i].reinvest).div(\n                            PERCENTS_DIVIDER\n                        );\n                    user.deposits[i].amount = user.deposits[i].amount.add(\n                        reinvest\n                    );\n                    payout = payout.sub(reinvest);\n                    totalAmount = totalAmount.add(payout);\n                    totalReinvestAmount = totalReinvestAmount.add(reinvest);\n                }\n            }\n        }\n\n        uint256 referralBonus = getUserReferralBonus(msg.sender);\n        if (referralBonus > 0) {\n            user.bonus = 0;\n            totalAmount = totalAmount.add(referralBonus);\n        }\n\n        user.totalReinvested = user.totalReinvested.add(totalReinvestAmount);\n        require(totalAmount > 0, \"User has no dividends\");\n        uint256 contractBalance = address(this).balance;\n        if (contractBalance < totalAmount) {\n            totalAmount = contractBalance;\n        }\n\n        user.checkpoint = block.timestamp;\n\n        (bool success, ) = msg.sender.call{value: totalAmount}(\"\");\n        require(success, \"Transfer failed.\");\n\n        emit Withdrawn(msg.sender, totalAmount);\n    }\n\n    function getContractBalance() public view returns (uint256) {\n        return address(this).balance;\n    }\n\n    function getPlanInfo(uint8 plan)\n        public\n        view\n        returns (\n            uint256 time,\n            uint256 percent,\n            uint256 reinvest\n        )\n    {\n        time = plans[plan].time;\n        percent = plans[plan].percent;\n        reinvest = plans[plan].reinvest;\n    }\n\n    function getPercent(uint8 plan) public view returns (uint256) {}\n\n    function getReinvest(uint8 plan) public view returns (uint256 reinvest) {\n        uint256 time = block.timestamp.sub(startUNIX).div(TIME_STEP);\n        if (plan == 0) {\n            if (time > 25) {\n                return 0;\n            } else {\n                return plans[plan].reinvest.sub(time.mul(20e2)); //reinvest decreases every day by 2%\n            }\n        }\n        if (plan == 1) {\n            if (time > 30) {\n                return 0;\n            } else {\n                return plans[plan].reinvest.sub(time.mul(10e2)); //reinvest decreases every day by 1%\n            }\n        }\n\n        if (plan == 2) {\n            if (time > 40) {\n                return 0;\n            } else {\n                return plans[plan].reinvest.sub(time.mul(5e2)); //reinvest decreases every day by 0.5%\n            }\n        }\n    }\n\n    function getTimer(address userAddress) public view returns (uint256) {\n        return getUserCheckpoint(userAddress).add(TIME_STEP);\n    }\n\n    function getResult(uint8 plan, uint256 deposit)\n        public\n        view\n        returns (\n            uint256 percent,\n            uint256 profit,\n            uint256 finish,\n            uint256 reinvest\n        )\n    {\n        percent = getPercent(plan);\n        reinvest = getReinvest(plan);\n\n        profit = deposit.mul(percent).div(PERCENTS_DIVIDER).mul(\n            plans[plan].time\n        );\n\n        finish = block.timestamp.add(plans[plan].time.mul(TIME_STEP));\n    }\n\n    function getUserDividends(address userAddress)\n        public\n        view\n        returns (uint256)\n    {\n        User storage user = users[userAddress];\n\n        uint256 totalAmount;\n\n        for (uint256 i = 0; i < user.deposits.length; i++) {\n            if (user.checkpoint < user.deposits[i].finish) {\n                uint256 share =\n                    user.deposits[i].amount.mul(user.deposits[i].percent).div(\n                        PERCENTS_DIVIDER\n                    );\n                uint256 from =\n                    user.deposits[i].start > user.checkpoint\n                        ? user.deposits[i].start\n                        : user.checkpoint;\n                uint256 to =\n                    user.deposits[i].finish < block.timestamp\n                        ? user.deposits[i].finish\n                        : block.timestamp;\n                if (from < to) {\n                    totalAmount = totalAmount.add(\n                        share.mul(to.sub(from)).div(TIME_STEP)\n                    );\n                }\n            }\n        }\n\n        return totalAmount;\n    }\n\n    function getUserCheckpoint(address userAddress)\n        public\n        view\n        returns (uint256)\n    {\n        return users[userAddress].checkpoint;\n    }\n\n    function getUserReinvestedAmount(address userAddress)\n        public\n        view\n        returns (uint256)\n    {\n        return users[userAddress].totalReinvested;\n    }\n\n    function getUserReferrer(address userAddress)\n        public\n        view\n        returns (address)\n    {\n        return users[userAddress].referrer;\n    }\n\n    function getUserDownlineCount(address userAddress)\n        public\n        view\n        returns (uint256)\n    {\n        return users[userAddress].referrals;\n    }\n\n    function getUserReferralBonus(address userAddress)\n        public\n        view\n        returns (uint256)\n    {\n        return users[userAddress].bonus;\n    }\n\n    function getUserReferralTotalBonus(address userAddress)\n        public\n        view\n        returns (uint256)\n    {\n        return users[userAddress].totalBonus;\n    }\n\n    function getUserReferralWithdrawn(address userAddress)\n        public\n        view\n        returns (uint256)\n    {\n        return users[userAddress].totalBonus.sub(users[userAddress].bonus);\n    }\n\n    function getUserAvailable(address userAddress)\n        public\n        view\n        returns (uint256)\n    {\n        return\n            getUserReferralBonus(userAddress).add(\n                getUserDividends(userAddress)\n            );\n    }\n\n    function getUserAmountOfDeposits(address userAddress)\n        public\n        view\n        returns (uint256)\n    {\n        return users[userAddress].deposits.length;\n    }\n\n    function getUserTotalDeposits(address userAddress)\n        public\n        view\n        returns (uint256 amount)\n    {\n        for (uint256 i = 0; i < users[userAddress].deposits.length; i++) {\n            amount = amount.add(users[userAddress].deposits[i].amount);\n        }\n    }\n\n    function getUserDepositInfo(address userAddress, uint256 index)\n        public\n        view\n        returns (\n            uint8 plan,\n            uint256 percent,\n            uint256 amount,\n            uint256 profit,\n            uint256 start,\n            uint256 finish,\n            uint256 reinvest\n        )\n    {\n        User storage user = users[userAddress];\n\n        plan = user.deposits[index].plan;\n        percent = user.deposits[index].percent;\n        amount = user.deposits[index].amount;\n        profit = user.deposits[index].profit;\n        start = user.deposits[index].start;\n        finish = user.deposits[index].finish;\n        reinvest = user.deposits[index].reinvest;\n    }\n\n    function isContract(address addr) internal view returns (bool) {\n        uint256 size;\n        assembly {\n            size := extcodesize(addr)\n        }\n        return size > 0;\n    }\n\n    function minZero(uint256 a, uint256 b) internal pure returns (uint256) {\n        if (a > b) {\n            return a - b;\n        } else {\n            return 0;\n        }\n    }\n\n    function maxVal(uint256 a, uint256 b) internal pure returns (uint256) {\n        if (a > b) {\n            return a;\n        } else {\n            return b;\n        }\n    }\n\n    function minVal(uint256 a, uint256 b) internal pure returns (uint256) {\n        if (a > b) {\n            return b;\n        } else {\n            return a;\n        }\n    }\n}\n\nlibrary SafeMath {\n    function add(uint256 a, uint256 b) internal pure returns (uint256) {\n        uint256 c = a + b;\n        require(c >= a, \"SafeMath: addition overflow\");\n        return c;\n    }\n\n    function sub(uint256 a, uint256 b) internal pure returns (uint256) {\n        require(b <= a, \"SafeMath: subtraction overflow\");\n        uint256 c = a - b;\n        return c;\n    }\n\n    function mul(uint256 a, uint256 b) internal pure returns (uint256) {\n        if (a == 0) {\n            return 0;\n        }\n        uint256 c = a * b;\n        require(c / a == b, \"SafeMath: multiplication overflow\");\n        return c;\n    }\n\n    function div(uint256 a, uint256 b) internal pure returns (uint256) {\n        require(b > 0, \"SafeMath: division by zero\");\n        uint256 c = a / b;\n        return c;\n    }\n\n    function mod(uint256 a, uint256 b) internal pure returns (uint256) {\n        return a % b;\n    }\n}\n",
  "sourcePath": "/home/madim/Desktop/proyectos/BNBHold/contracts/AntiWallet.sol",
  "compiler": {
    "name": "solc",
    "version": "0.8.4+commit.c7e474f2.Emscripten.clang"
  },
  "schemaVersion": "3.4.0",
  "updatedAt": "2021-05-09T04:37:17.881Z",
  "networkType": "ethereum",
  "devdoc": {
    "kind": "dev",
    "methods": {},
    "version": 1
  },
  "userdoc": {
    "kind": "user",
    "methods": {},
    "version": 1
  }
}