{
  "contractName": "AntiWallet",
  "abi": [
    {
      "inputs": [
        {
          "internalType": "uint256",
          "name": "start",
          "type": "uint256"
        }
      ],
      "stateMutability": "nonpayable",
      "type": "constructor"
    },
    {
      "anonymous": false,
      "inputs": [
        {
          "indexed": false,
          "internalType": "uint256",
          "name": "val1",
          "type": "uint256"
        },
        {
          "indexed": false,
          "internalType": "uint256",
          "name": "val2",
          "type": "uint256"
        },
        {
          "indexed": false,
          "internalType": "uint256",
          "name": "res",
          "type": "uint256"
        }
      ],
      "name": "AliciaEvent",
      "type": "event"
    },
    {
      "anonymous": false,
      "inputs": [
        {
          "indexed": true,
          "internalType": "address",
          "name": "user",
          "type": "address"
        },
        {
          "indexed": false,
          "internalType": "uint8",
          "name": "plan",
          "type": "uint8"
        },
        {
          "indexed": false,
          "internalType": "uint256",
          "name": "percent",
          "type": "uint256"
        },
        {
          "indexed": false,
          "internalType": "uint256",
          "name": "amount",
          "type": "uint256"
        },
        {
          "indexed": false,
          "internalType": "uint256",
          "name": "profit",
          "type": "uint256"
        },
        {
          "indexed": false,
          "internalType": "uint256",
          "name": "start",
          "type": "uint256"
        },
        {
          "indexed": false,
          "internalType": "uint256",
          "name": "finish",
          "type": "uint256"
        }
      ],
      "name": "NewDeposit",
      "type": "event"
    },
    {
      "anonymous": false,
      "inputs": [
        {
          "indexed": false,
          "internalType": "address",
          "name": "user",
          "type": "address"
        }
      ],
      "name": "Newbie",
      "type": "event"
    },
    {
      "anonymous": false,
      "inputs": [
        {
          "indexed": true,
          "internalType": "address",
          "name": "referrer",
          "type": "address"
        },
        {
          "indexed": true,
          "internalType": "address",
          "name": "referral",
          "type": "address"
        },
        {
          "indexed": true,
          "internalType": "uint256",
          "name": "level",
          "type": "uint256"
        },
        {
          "indexed": false,
          "internalType": "uint256",
          "name": "amount",
          "type": "uint256"
        }
      ],
      "name": "RefBonus",
      "type": "event"
    },
    {
      "anonymous": false,
      "inputs": [
        {
          "indexed": true,
          "internalType": "address",
          "name": "user",
          "type": "address"
        },
        {
          "indexed": false,
          "internalType": "uint256",
          "name": "amount",
          "type": "uint256"
        }
      ],
      "name": "Withdrawn",
      "type": "event"
    },
    {
      "inputs": [],
      "name": "INVEST_MAX_AMOUNT",
      "outputs": [
        {
          "internalType": "uint256",
          "name": "",
          "type": "uint256"
        }
      ],
      "stateMutability": "view",
      "type": "function",
      "constant": true
    },
    {
      "inputs": [],
      "name": "INVEST_MIN_AMOUNT",
      "outputs": [
        {
          "internalType": "uint256",
          "name": "",
          "type": "uint256"
        }
      ],
      "stateMutability": "view",
      "type": "function",
      "constant": true
    },
    {
      "inputs": [],
      "name": "PERCENTS_DIVIDER",
      "outputs": [
        {
          "internalType": "uint256",
          "name": "",
          "type": "uint256"
        }
      ],
      "stateMutability": "view",
      "type": "function",
      "constant": true
    },
    {
      "inputs": [],
      "name": "PERCENT_STEP",
      "outputs": [
        {
          "internalType": "uint256",
          "name": "",
          "type": "uint256"
        }
      ],
      "stateMutability": "view",
      "type": "function",
      "constant": true
    },
    {
      "inputs": [],
      "name": "PROJECT_FEE",
      "outputs": [
        {
          "internalType": "uint256",
          "name": "",
          "type": "uint256"
        }
      ],
      "stateMutability": "view",
      "type": "function",
      "constant": true
    },
    {
      "inputs": [
        {
          "internalType": "uint256",
          "name": "",
          "type": "uint256"
        }
      ],
      "name": "REFERRAL_PERCENTS",
      "outputs": [
        {
          "internalType": "uint256",
          "name": "",
          "type": "uint256"
        }
      ],
      "stateMutability": "view",
      "type": "function",
      "constant": true
    },
    {
      "inputs": [],
      "name": "TIME_STEP",
      "outputs": [
        {
          "internalType": "uint256",
          "name": "",
          "type": "uint256"
        }
      ],
      "stateMutability": "view",
      "type": "function",
      "constant": true
    },
    {
      "inputs": [],
      "name": "res",
      "outputs": [
        {
          "internalType": "uint256",
          "name": "",
          "type": "uint256"
        }
      ],
      "stateMutability": "view",
      "type": "function",
      "constant": true
    },
    {
      "inputs": [],
      "name": "startUNIX",
      "outputs": [
        {
          "internalType": "uint256",
          "name": "",
          "type": "uint256"
        }
      ],
      "stateMutability": "view",
      "type": "function",
      "constant": true
    },
    {
      "inputs": [],
      "name": "totalRefBonus",
      "outputs": [
        {
          "internalType": "uint256",
          "name": "",
          "type": "uint256"
        }
      ],
      "stateMutability": "view",
      "type": "function",
      "constant": true
    },
    {
      "inputs": [],
      "name": "totalStaked",
      "outputs": [
        {
          "internalType": "uint256",
          "name": "",
          "type": "uint256"
        }
      ],
      "stateMutability": "view",
      "type": "function",
      "constant": true
    },
    {
      "inputs": [
        {
          "internalType": "uint256",
          "name": "val1",
          "type": "uint256"
        },
        {
          "internalType": "uint256",
          "name": "val2",
          "type": "uint256"
        }
      ],
      "name": "alice",
      "outputs": [],
      "stateMutability": "nonpayable",
      "type": "function"
    },
    {
      "inputs": [
        {
          "internalType": "address",
          "name": "referrer",
          "type": "address"
        },
        {
          "internalType": "uint8",
          "name": "plan",
          "type": "uint8"
        }
      ],
      "name": "invest",
      "outputs": [],
      "stateMutability": "payable",
      "type": "function",
      "payable": true
    },
    {
      "inputs": [],
      "name": "withdraw",
      "outputs": [],
      "stateMutability": "nonpayable",
      "type": "function"
    },
    {
      "inputs": [],
      "name": "getContractBalance",
      "outputs": [
        {
          "internalType": "uint256",
          "name": "",
          "type": "uint256"
        }
      ],
      "stateMutability": "view",
      "type": "function",
      "constant": true
    },
    {
      "inputs": [
        {
          "internalType": "uint8",
          "name": "plan",
          "type": "uint8"
        }
      ],
      "name": "getPlanInfo",
      "outputs": [
        {
          "internalType": "uint256",
          "name": "time",
          "type": "uint256"
        },
        {
          "internalType": "uint256",
          "name": "percent",
          "type": "uint256"
        },
        {
          "internalType": "uint256",
          "name": "reinvest",
          "type": "uint256"
        }
      ],
      "stateMutability": "view",
      "type": "function",
      "constant": true
    },
    {
      "inputs": [
        {
          "internalType": "uint8",
          "name": "plan",
          "type": "uint8"
        }
      ],
      "name": "getPercent",
      "outputs": [
        {
          "internalType": "uint256",
          "name": "",
          "type": "uint256"
        }
      ],
      "stateMutability": "view",
      "type": "function",
      "constant": true
    },
    {
      "inputs": [
        {
          "internalType": "uint8",
          "name": "plan",
          "type": "uint8"
        }
      ],
      "name": "getReinvest",
      "outputs": [
        {
          "internalType": "uint256",
          "name": "reinvest",
          "type": "uint256"
        }
      ],
      "stateMutability": "view",
      "type": "function",
      "constant": true
    },
    {
      "inputs": [
        {
          "internalType": "address",
          "name": "userAddress",
          "type": "address"
        }
      ],
      "name": "getTimer",
      "outputs": [
        {
          "internalType": "uint256",
          "name": "",
          "type": "uint256"
        }
      ],
      "stateMutability": "view",
      "type": "function",
      "constant": true
    },
    {
      "inputs": [
        {
          "internalType": "uint8",
          "name": "plan",
          "type": "uint8"
        },
        {
          "internalType": "uint256",
          "name": "deposit",
          "type": "uint256"
        }
      ],
      "name": "getResult",
      "outputs": [
        {
          "internalType": "uint256",
          "name": "percent",
          "type": "uint256"
        },
        {
          "internalType": "uint256",
          "name": "profit",
          "type": "uint256"
        },
        {
          "internalType": "uint256",
          "name": "finish",
          "type": "uint256"
        },
        {
          "internalType": "uint256",
          "name": "reinvest",
          "type": "uint256"
        }
      ],
      "stateMutability": "view",
      "type": "function",
      "constant": true
    },
    {
      "inputs": [
        {
          "internalType": "address",
          "name": "userAddress",
          "type": "address"
        }
      ],
      "name": "getUserDividends",
      "outputs": [
        {
          "internalType": "uint256",
          "name": "",
          "type": "uint256"
        }
      ],
      "stateMutability": "view",
      "type": "function",
      "constant": true
    },
    {
      "inputs": [
        {
          "internalType": "address",
          "name": "userAddress",
          "type": "address"
        }
      ],
      "name": "getUserCheckpoint",
      "outputs": [
        {
          "internalType": "uint256",
          "name": "",
          "type": "uint256"
        }
      ],
      "stateMutability": "view",
      "type": "function",
      "constant": true
    },
    {
      "inputs": [
        {
          "internalType": "address",
          "name": "userAddress",
          "type": "address"
        }
      ],
      "name": "getUserReinvestedAmount",
      "outputs": [
        {
          "internalType": "uint256",
          "name": "",
          "type": "uint256"
        }
      ],
      "stateMutability": "view",
      "type": "function",
      "constant": true
    },
    {
      "inputs": [
        {
          "internalType": "address",
          "name": "userAddress",
          "type": "address"
        }
      ],
      "name": "getUserReferrer",
      "outputs": [
        {
          "internalType": "address",
          "name": "",
          "type": "address"
        }
      ],
      "stateMutability": "view",
      "type": "function",
      "constant": true
    },
    {
      "inputs": [
        {
          "internalType": "address",
          "name": "userAddress",
          "type": "address"
        }
      ],
      "name": "getUserDownlineCount",
      "outputs": [
        {
          "internalType": "uint256",
          "name": "",
          "type": "uint256"
        }
      ],
      "stateMutability": "view",
      "type": "function",
      "constant": true
    },
    {
      "inputs": [
        {
          "internalType": "address",
          "name": "userAddress",
          "type": "address"
        }
      ],
      "name": "getUserReferralBonus",
      "outputs": [
        {
          "internalType": "uint256",
          "name": "",
          "type": "uint256"
        }
      ],
      "stateMutability": "view",
      "type": "function",
      "constant": true
    },
    {
      "inputs": [
        {
          "internalType": "address",
          "name": "userAddress",
          "type": "address"
        }
      ],
      "name": "getUserReferralTotalBonus",
      "outputs": [
        {
          "internalType": "uint256",
          "name": "",
          "type": "uint256"
        }
      ],
      "stateMutability": "view",
      "type": "function",
      "constant": true
    },
    {
      "inputs": [
        {
          "internalType": "address",
          "name": "userAddress",
          "type": "address"
        }
      ],
      "name": "getUserReferralWithdrawn",
      "outputs": [
        {
          "internalType": "uint256",
          "name": "",
          "type": "uint256"
        }
      ],
      "stateMutability": "view",
      "type": "function",
      "constant": true
    },
    {
      "inputs": [
        {
          "internalType": "address",
          "name": "userAddress",
          "type": "address"
        }
      ],
      "name": "getUserAvailable",
      "outputs": [
        {
          "internalType": "uint256",
          "name": "",
          "type": "uint256"
        }
      ],
      "stateMutability": "view",
      "type": "function",
      "constant": true
    },
    {
      "inputs": [
        {
          "internalType": "address",
          "name": "userAddress",
          "type": "address"
        }
      ],
      "name": "getUserAmountOfDeposits",
      "outputs": [
        {
          "internalType": "uint256",
          "name": "",
          "type": "uint256"
        }
      ],
      "stateMutability": "view",
      "type": "function",
      "constant": true
    },
    {
      "inputs": [
        {
          "internalType": "address",
          "name": "userAddress",
          "type": "address"
        }
      ],
      "name": "getUserTotalDeposits",
      "outputs": [
        {
          "internalType": "uint256",
          "name": "amount",
          "type": "uint256"
        }
      ],
      "stateMutability": "view",
      "type": "function",
      "constant": true
    },
    {
      "inputs": [
        {
          "internalType": "address",
          "name": "userAddress",
          "type": "address"
        },
        {
          "internalType": "uint256",
          "name": "index",
          "type": "uint256"
        }
      ],
      "name": "getUserDepositInfo",
      "outputs": [
        {
          "internalType": "uint8",
          "name": "plan",
          "type": "uint8"
        },
        {
          "internalType": "uint256",
          "name": "percent",
          "type": "uint256"
        },
        {
          "internalType": "uint256",
          "name": "amount",
          "type": "uint256"
        },
        {
          "internalType": "uint256",
          "name": "profit",
          "type": "uint256"
        },
        {
          "internalType": "uint256",
          "name": "start",
          "type": "uint256"
        },
        {
          "internalType": "uint256",
          "name": "finish",
          "type": "uint256"
        },
        {
          "internalType": "uint256",
          "name": "reinvest",
          "type": "uint256"
        }
      ],
      "stateMutability": "view",
      "type": "function",
      "constant": true
    }
  ],
  "bytecode": "0x60806040526040518060a00160405280610fa061ffff1681526020016107d061ffff1681526020016103e861ffff1681526020016101f461ffff1681526020016101f461ffff1681525060009060056200005b9291906200022d565b503480156200006957600080fd5b50604051620037f0380380620037f083398181016040528101906200008f9190620002bb565b600081116200009d57600080fd5b33600760006101000a81548173ffffffffffffffffffffffffffffffffffffffff021916908373ffffffffffffffffffffffffffffffffffffffff160217905550806006819055506004604051806060016040528060078152602001614e2081526020016175308152509080600181540180825580915050600190039060005260206000209060030201600090919091909150600082015181600001556020820151816001015560408201518160020155505060046040518060600160405280600f815260200161465081526020016175308152509080600181540180825580915050600190039060005260206000209060030201600090919091909150600082015181600001556020820151816001015560408201518160020155505060046040518060600160405280601481526020016142688152602001614e2081525090806001815401808255809150506001900390600052602060002090600302016000909190919091506000820151816000015560208201518160010155604082015181600201555050506200030b565b82805482825590600052602060002090810192821562000272579160200282015b8281111562000271578251829061ffff169055916020019190600101906200024e565b5b50905062000281919062000285565b5090565b5b80821115620002a057600081600090555060010162000286565b5090565b600081519050620002b581620002f1565b92915050565b600060208284031215620002ce57600080fd5b6000620002de84828501620002a4565b91505092915050565b6000819050919050565b620002fc81620002e7565b81146200030857600080fd5b50565b6134d5806200031b6000396000f3fe6080604052600436106101e35760003560e01c806369b11dd511610102578063a8aeb6c211610095578063d7ffca9111610064578063d7ffca9114610790578063dba90698146107cd578063e262113e1461080a578063e85abe0914610835576101e3565b8063a8aeb6c2146106a6578063aecaa634146106e3578063c0806b0314610722578063c234123814610765576101e3565b80637d8cb7a2116100d15780637d8cb7a2146105d65780637e3abeea14610601578063817b1cd21461063e578063a51b953314610669576101e3565b806369b11dd5146105185780636bb18556146105435780636f10e285146105805780636f9fb98a146105ab576101e3565b80633ccfd60b1161017a57806357fc86b41161014957806357fc86b414610454578063581c5ae61461047f5780635936cf611461049b578063600d20ce146104db576101e3565b80633ccfd60b146103ac5780633fc7e38f146103c357806348c37203146103ec57806348d44bd114610429576101e3565b80631531f016116101b65780631531f016146102ca578063153ab9df1461030757806332bc298c1461034457806336144c9a1461036f576101e3565b806301c234a8146101e857806303a93c0c14610213578063040a772e1461025057806306903e1c1461028d575b600080fd5b3480156101f457600080fd5b506101fd610872565b60405161020a9190612f38565b60405180910390f35b34801561021f57600080fd5b5061023a60048036038101906102359190612af2565b610879565b6040516102479190612f38565b60405180910390f35b34801561025c57600080fd5b5061027760048036038101906102729190612af2565b6108c5565b6040516102849190612f38565b60405180910390f35b34801561029957600080fd5b506102b460048036038101906102af9190612bf8565b610c1a565b6040516102c19190612f38565b60405180910390f35b3480156102d657600080fd5b506102f160048036038101906102ec9190612af2565b610e24565b6040516102fe9190612f38565b60405180910390f35b34801561031357600080fd5b5061032e60048036038101906103299190612af2565b610e4b565b60405161033b9190612f38565b60405180910390f35b34801561035057600080fd5b50610359610e77565b6040516103669190612f38565b60405180910390f35b34801561037b57600080fd5b5061039660048036038101906103919190612af2565b610e7e565b6040516103a39190612dfd565b60405180910390f35b3480156103b857600080fd5b506103c1610eea565b005b3480156103cf57600080fd5b506103ea60048036038101906103e59190612bbc565b61158b565b005b3480156103f857600080fd5b50610413600480360381019061040e9190612af2565b6115de565b6040516104209190612f38565b60405180910390f35b34801561043557600080fd5b5061043e61162a565b60405161044b9190612f38565b60405180910390f35b34801561046057600080fd5b50610469611630565b6040516104769190612f38565b60405180910390f35b61049960048036038101906104949190612b57565b611636565b005b3480156104a757600080fd5b506104c260048036038101906104bd9190612c21565b612082565b6040516104d29493929190612f8a565b60405180910390f35b3480156104e757600080fd5b5061050260048036038101906104fd9190612b93565b6121a9565b60405161050f9190612f38565b60405180910390f35b34801561052457600080fd5b5061052d6121cd565b60405161053a9190612f38565b60405180910390f35b34801561054f57600080fd5b5061056a60048036038101906105659190612af2565b6121d3565b6040516105779190612f38565b60405180910390f35b34801561058c57600080fd5b50610595612273565b6040516105a29190612f38565b60405180910390f35b3480156105b757600080fd5b506105c0612279565b6040516105cd9190612f38565b60405180910390f35b3480156105e257600080fd5b506105eb612281565b6040516105f89190612f38565b60405180910390f35b34801561060d57600080fd5b5061062860048036038101906106239190612af2565b61228d565b6040516106359190612f38565b60405180910390f35b34801561064a57600080fd5b5061065361239b565b6040516106609190612f38565b60405180910390f35b34801561067557600080fd5b50610690600480360381019061068b9190612bf8565b6123a1565b60405161069d9190612f38565b60405180910390f35b3480156106b257600080fd5b506106cd60048036038101906106c89190612af2565b6123a8565b6040516106da9190612f38565b60405180910390f35b3480156106ef57600080fd5b5061070a60048036038101906107059190612bf8565b6123f7565b60405161071993929190612f53565b60405180910390f35b34801561072e57600080fd5b5061074960048036038101906107449190612b1b565b6124f6565b60405161075c9796959493929190613030565b60405180910390f35b34801561077157600080fd5b5061077a61278d565b6040516107879190612f38565b60405180910390f35b34801561079c57600080fd5b506107b760048036038101906107b29190612af2565b612793565b6040516107c49190612f38565b60405180910390f35b3480156107d957600080fd5b506107f460048036038101906107ef9190612af2565b6127df565b6040516108019190612f38565b60405180910390f35b34801561081657600080fd5b5061081f61282b565b60405161082c9190612f38565b60405180910390f35b34801561084157600080fd5b5061085c60048036038101906108579190612af2565b612836565b6040516108699190612f38565b60405180910390f35b620186a081565b6000600560008373ffffffffffffffffffffffffffffffffffffffff1673ffffffffffffffffffffffffffffffffffffffff168152602001908152602001600020600301549050919050565b600080600560008473ffffffffffffffffffffffffffffffffffffffff1673ffffffffffffffffffffffffffffffffffffffff1681526020019081526020016000209050600080600090505b8260000180549050811015610c0f5782600001818154811061095c577f4e487b7100000000000000000000000000000000000000000000000000000000600052603260045260246000fd5b90600052602060002090600702016005015483600101541015610bfc576000610a3d620186a0610a2f8660000185815481106109c1577f4e487b7100000000000000000000000000000000000000000000000000000000600052603260045260246000fd5b906000526020600020906007020160010154876000018681548110610a0f577f4e487b7100000000000000000000000000000000000000000000000000000000600052603260045260246000fd5b90600052602060002090600702016002015461288290919063ffffffff16565b6128fd90919063ffffffff16565b905060008460010154856000018481548110610a82577f4e487b7100000000000000000000000000000000000000000000000000000000600052603260045260246000fd5b90600052602060002090600702016004015411610aa3578460010154610af2565b846000018381548110610adf577f4e487b7100000000000000000000000000000000000000000000000000000000600052603260045260246000fd5b9060005260206000209060070201600401545b9050600042866000018581548110610b33577f4e487b7100000000000000000000000000000000000000000000000000000000600052603260045260246000fd5b90600052602060002090600702016005015410610b505742610b9f565b856000018481548110610b8c577f4e487b7100000000000000000000000000000000000000000000000000000000600052603260045260246000fd5b9060005260206000209060070201600501545b905080821015610bf857610bf5610be662015180610bd8610bc9868661295b90919063ffffffff16565b8761288290919063ffffffff16565b6128fd90919063ffffffff16565b866129ba90919063ffffffff16565b94505b5050505b8080610c0790613219565b915050610911565b508092505050919050565b600080610c4762015180610c396006544261295b90919063ffffffff16565b6128fd90919063ffffffff16565b905060008360ff161415610ce5576019811115610c68576000915050610e1f565b610cdd610c806107d08361288290919063ffffffff16565b60048560ff1681548110610cbd577f4e487b7100000000000000000000000000000000000000000000000000000000600052603260045260246000fd5b90600052602060002090600302016002015461295b90919063ffffffff16565b915050610e1f565b60018360ff161415610d8157601e811115610d04576000915050610e1f565b610d79610d1c6103e88361288290919063ffffffff16565b60048560ff1681548110610d59577f4e487b7100000000000000000000000000000000000000000000000000000000600052603260045260246000fd5b90600052602060002090600302016002015461295b90919063ffffffff16565b915050610e1f565b60028360ff161415610e1d576028811115610da0576000915050610e1f565b610e15610db86101f48361288290919063ffffffff16565b60048560ff1681548110610df5577f4e487b7100000000000000000000000000000000000000000000000000000000600052603260045260246000fd5b90600052602060002090600302016002015461295b90919063ffffffff16565b915050610e1f565b505b919050565b6000610e4462015180610e3684612793565b6129ba90919063ffffffff16565b9050919050565b6000610e70610e59836108c5565b610e6284612836565b6129ba90919063ffffffff16565b9050919050565b6201518081565b6000600560008373ffffffffffffffffffffffffffffffffffffffff1673ffffffffffffffffffffffffffffffffffffffff16815260200190815260200160002060020160009054906101000a900473ffffffffffffffffffffffffffffffffffffffff169050919050565b6000600560003373ffffffffffffffffffffffffffffffffffffffff1673ffffffffffffffffffffffffffffffffffffffff168152602001908152602001600020905042610f3733610e24565b10610f77576040517f08c379a0000000000000000000000000000000000000000000000000000000008152600401610f6e90612e38565b60405180910390fd5b60008060005b83600001805490508110156113d657836000018181548110610fc8577f4e487b7100000000000000000000000000000000000000000000000000000000600052603260045260246000fd5b906000526020600020906007020160050154846001015410156113c35760006110a9620186a061109b87600001858154811061102d577f4e487b7100000000000000000000000000000000000000000000000000000000600052603260045260246000fd5b90600052602060002090600702016001015488600001868154811061107b577f4e487b7100000000000000000000000000000000000000000000000000000000600052603260045260246000fd5b90600052602060002090600702016002015461288290919063ffffffff16565b6128fd90919063ffffffff16565b9050600085600101548660000184815481106110ee577f4e487b7100000000000000000000000000000000000000000000000000000000600052603260045260246000fd5b9060005260206000209060070201600401541161110f57856001015461115e565b85600001838154811061114b577f4e487b7100000000000000000000000000000000000000000000000000000000600052603260045260246000fd5b9060005260206000209060070201600401545b905060004287600001858154811061119f577f4e487b7100000000000000000000000000000000000000000000000000000000600052603260045260246000fd5b906000526020600020906007020160050154106111bc574261120b565b8660000184815481106111f8577f4e487b7100000000000000000000000000000000000000000000000000000000600052603260045260246000fd5b9060005260206000209060070201600501545b9050808210156113bf57600061125162015180611243611234868661295b90919063ffffffff16565b8761288290919063ffffffff16565b6128fd90919063ffffffff16565b905060006112ca620186a06112bc8b600001898154811061129b577f4e487b7100000000000000000000000000000000000000000000000000000000600052603260045260246000fd5b9060005260206000209060070201600601548561288290919063ffffffff16565b6128fd90919063ffffffff16565b905061132c818a600001888154811061130c577f4e487b7100000000000000000000000000000000000000000000000000000000600052603260045260246000fd5b9060005260206000209060070201600201546129ba90919063ffffffff16565b896000018781548110611368577f4e487b7100000000000000000000000000000000000000000000000000000000600052603260045260246000fd5b906000526020600020906007020160020181905550611390818361295b90919063ffffffff16565b91506113a582896129ba90919063ffffffff16565b97506113ba81886129ba90919063ffffffff16565b965050505b5050505b80806113ce90613219565b915050610f7d565b5060006113e233612836565b9050600081111561140d576000846004018190555061140a81846129ba90919063ffffffff16565b92505b6114248285600601546129ba90919063ffffffff16565b84600601819055506000831161146f576040517f08c379a000000000000000000000000000000000000000000000000000000000815260040161146690612e18565b60405180910390fd5b600047905083811015611480578093505b42856001018190555060003373ffffffffffffffffffffffffffffffffffffffff16856040516114af90612de8565b60006040518083038185875af1925050503d80600081146114ec576040519150601f19603f3d011682016040523d82523d6000602084013e6114f1565b606091505b5050905080611535576040517f08c379a000000000000000000000000000000000000000000000000000000000815260040161152c90612ed8565b60405180910390fd5b3373ffffffffffffffffffffffffffffffffffffffff167f7084f5476618d8e60b11ef0d7d3f06914655adb8793e28ff7f018d4c76d505d58660405161157b9190612f38565b60405180910390a2505050505050565b808261159791906130bb565b6003819055507fd29cede7762d848c94eb9fec9c22df7a6f7d59820b48116b1ef362b6393d55ce82826003546040516115d293929190612f53565b60405180910390a15050565b6000600560008373ffffffffffffffffffffffffffffffffffffffff1673ffffffffffffffffffffffffffffffffffffffff168152602001908152602001600020600501549050919050565b61138881565b6103e881565b60065442101561167b576040517f08c379a000000000000000000000000000000000000000000000000000000000815260040161167290612f18565b60405180910390fd5b66b1a2bc2ec5000034101561168f57600080fd5b678ac7230489e800003411156116a457600080fd5b60038160ff16106116ea576040517f08c379a00000000000000000000000000000000000000000000000000000000081526004016116e190612ef8565b60405180910390fd5b6116f334612a18565b6000600560003373ffffffffffffffffffffffffffffffffffffffff1673ffffffffffffffffffffffffffffffffffffffff1681526020019081526020016000209050600073ffffffffffffffffffffffffffffffffffffffff168160020160009054906101000a900473ffffffffffffffffffffffffffffffffffffffff1673ffffffffffffffffffffffffffffffffffffffff161415611b88576000600560008573ffffffffffffffffffffffffffffffffffffffff1673ffffffffffffffffffffffffffffffffffffffff1681526020019081526020016000206000018054905011801561181057503373ffffffffffffffffffffffffffffffffffffffff168373ffffffffffffffffffffffffffffffffffffffff1614155b1561185d57828160020160006101000a81548173ffffffffffffffffffffffffffffffffffffffff021916908373ffffffffffffffffffffffffffffffffffffffff1602179055506118c3565b600760009054906101000a900473ffffffffffffffffffffffffffffffffffffffff168160020160006101000a81548173ffffffffffffffffffffffffffffffffffffffff021916908373ffffffffffffffffffffffffffffffffffffffff1602179055505b60008160020160009054906101000a900473ffffffffffffffffffffffffffffffffffffffff16905060005b6005811015611b8557600073ffffffffffffffffffffffffffffffffffffffff168273ffffffffffffffffffffffffffffffffffffffff1614611b6d576119826001600560008573ffffffffffffffffffffffffffffffffffffffff1673ffffffffffffffffffffffffffffffffffffffff168152602001908152602001600020600301546129ba90919063ffffffff16565b600560008473ffffffffffffffffffffffffffffffffffffffff1673ffffffffffffffffffffffffffffffffffffffff16815260200190815260200160002060030181905550600073ffffffffffffffffffffffffffffffffffffffff16600560008473ffffffffffffffffffffffffffffffffffffffff1673ffffffffffffffffffffffffffffffffffffffff16815260200190815260200160002060020160009054906101000a900473ffffffffffffffffffffffffffffffffffffffff1673ffffffffffffffffffffffffffffffffffffffff161415611b0357600760009054906101000a900473ffffffffffffffffffffffffffffffffffffffff16600560008473ffffffffffffffffffffffffffffffffffffffff1673ffffffffffffffffffffffffffffffffffffffff16815260200190815260200160002060020160006101000a81548173ffffffffffffffffffffffffffffffffffffffff021916908373ffffffffffffffffffffffffffffffffffffffff1602179055505b600560008373ffffffffffffffffffffffffffffffffffffffff1673ffffffffffffffffffffffffffffffffffffffff16815260200190815260200160002060020160009054906101000a900473ffffffffffffffffffffffffffffffffffffffff169150611b72565b611b85565b8080611b7d90613219565b9150506118ef565b50505b600073ffffffffffffffffffffffffffffffffffffffff168160020160009054906101000a900473ffffffffffffffffffffffffffffffffffffffff1673ffffffffffffffffffffffffffffffffffffffff1614611edb5760008160020160009054906101000a900473ffffffffffffffffffffffffffffffffffffffff16905060005b6005811015611ed857600073ffffffffffffffffffffffffffffffffffffffff168273ffffffffffffffffffffffffffffffffffffffff1614611ec0576000611cb7620186a0611ca960008581548110611c8f577f4e487b7100000000000000000000000000000000000000000000000000000000600052603260045260246000fd5b90600052602060002001543461288290919063ffffffff16565b6128fd90919063ffffffff16565b9050611d0e81600560008673ffffffffffffffffffffffffffffffffffffffff1673ffffffffffffffffffffffffffffffffffffffff168152602001908152602001600020600401546129ba90919063ffffffff16565b600560008573ffffffffffffffffffffffffffffffffffffffff1673ffffffffffffffffffffffffffffffffffffffff16815260200190815260200160002060040181905550611da981600560008673ffffffffffffffffffffffffffffffffffffffff1673ffffffffffffffffffffffffffffffffffffffff168152602001908152602001600020600501546129ba90919063ffffffff16565b600560008573ffffffffffffffffffffffffffffffffffffffff1673ffffffffffffffffffffffffffffffffffffffff16815260200190815260200160002060050181905550813373ffffffffffffffffffffffffffffffffffffffff168473ffffffffffffffffffffffffffffffffffffffff167fd41f7e766eebcc7ff42b11ac8691bdf864db4afc0c55e71d629d54edce460d9884604051611e4d9190612f38565b60405180910390a4600560008473ffffffffffffffffffffffffffffffffffffffff1673ffffffffffffffffffffffffffffffffffffffff16815260200190815260200160002060020160009054906101000a900473ffffffffffffffffffffffffffffffffffffffff16925050611ec5565b611ed8565b8080611ed090613219565b915050611c0c565b50505b600081600001805490501415611f2c574281600101819055507f9fd565cd14c3c391679eb0cad12a14dcf7534e9d3462bcb9b67a098a9bbbc24a33604051611f239190612dfd565b60405180910390a15b600080600080611f3c8634612082565b9350935093509350846000016040518060e001604052808860ff16815260200186815260200134815260200185815260200142815260200184815260200183815250908060018154018082558091505060019003906000526020600020906007020160009091909190915060008201518160000160006101000a81548160ff021916908360ff1602179055506020820151816001015560408201518160020155606082015181600301556080820151816004015560a0820151816005015560c08201518160060155505061201b346001546129ba90919063ffffffff16565b6001819055503373ffffffffffffffffffffffffffffffffffffffff167f84e02daa69bdb087c9fe8d3041abca495512cb14e723070f6d1d4efface82e5d87863487428860405161207196959493929190612fcf565b60405180910390a250505050505050565b600080600080612091866123a1565b935061209c86610c1a565b905061212660048760ff16815481106120de577f4e487b7100000000000000000000000000000000000000000000000000000000600052603260045260246000fd5b906000526020600020906003020160000154612118620186a061210a888a61288290919063ffffffff16565b6128fd90919063ffffffff16565b61288290919063ffffffff16565b925061219e61218f6201518060048960ff168154811061216f577f4e487b7100000000000000000000000000000000000000000000000000000000600052603260045260246000fd5b90600052602060002090600302016000015461288290919063ffffffff16565b426129ba90919063ffffffff16565b915092959194509250565b600081815481106121b957600080fd5b906000526020600020016000915090505481565b60025481565b600061226c600560008473ffffffffffffffffffffffffffffffffffffffff1673ffffffffffffffffffffffffffffffffffffffff16815260200190815260200160002060040154600560008573ffffffffffffffffffffffffffffffffffffffff1673ffffffffffffffffffffffffffffffffffffffff1681526020019081526020016000206005015461295b90919063ffffffff16565b9050919050565b60035481565b600047905090565b678ac7230489e8000081565b600080600090505b600560008473ffffffffffffffffffffffffffffffffffffffff1673ffffffffffffffffffffffffffffffffffffffff1681526020019081526020016000206000018054905081101561239557612380600560008573ffffffffffffffffffffffffffffffffffffffff1673ffffffffffffffffffffffffffffffffffffffff168152602001908152602001600020600001828154811061235f577f4e487b7100000000000000000000000000000000000000000000000000000000600052603260045260246000fd5b906000526020600020906007020160020154836129ba90919063ffffffff16565b9150808061238d90613219565b915050612295565b50919050565b60015481565b6000919050565b6000600560008373ffffffffffffffffffffffffffffffffffffffff1673ffffffffffffffffffffffffffffffffffffffff168152602001908152602001600020600001805490509050919050565b600080600060048460ff1681548110612439577f4e487b7100000000000000000000000000000000000000000000000000000000600052603260045260246000fd5b906000526020600020906003020160000154925060048460ff168154811061248a577f4e487b7100000000000000000000000000000000000000000000000000000000600052603260045260246000fd5b906000526020600020906003020160010154915060048460ff16815481106124db577f4e487b7100000000000000000000000000000000000000000000000000000000600052603260045260246000fd5b90600052602060002090600302016002015490509193909250565b600080600080600080600080600560008b73ffffffffffffffffffffffffffffffffffffffff1673ffffffffffffffffffffffffffffffffffffffff168152602001908152602001600020905080600001898154811061257f577f4e487b7100000000000000000000000000000000000000000000000000000000600052603260045260246000fd5b906000526020600020906007020160000160009054906101000a900460ff1697508060000189815481106125dc577f4e487b7100000000000000000000000000000000000000000000000000000000600052603260045260246000fd5b906000526020600020906007020160010154965080600001898154811061262c577f4e487b7100000000000000000000000000000000000000000000000000000000600052603260045260246000fd5b906000526020600020906007020160020154955080600001898154811061267c577f4e487b7100000000000000000000000000000000000000000000000000000000600052603260045260246000fd5b90600052602060002090600702016003015494508060000189815481106126cc577f4e487b7100000000000000000000000000000000000000000000000000000000600052603260045260246000fd5b906000526020600020906007020160040154935080600001898154811061271c577f4e487b7100000000000000000000000000000000000000000000000000000000600052603260045260246000fd5b906000526020600020906007020160050154925080600001898154811061276c577f4e487b7100000000000000000000000000000000000000000000000000000000600052603260045260246000fd5b90600052602060002090600702016006015491505092959891949750929550565b60065481565b6000600560008373ffffffffffffffffffffffffffffffffffffffff1673ffffffffffffffffffffffffffffffffffffffff168152602001908152602001600020600101549050919050565b6000600560008373ffffffffffffffffffffffffffffffffffffffff1673ffffffffffffffffffffffffffffffffffffffff168152602001908152602001600020600601549050919050565b66b1a2bc2ec5000081565b6000600560008373ffffffffffffffffffffffffffffffffffffffff1673ffffffffffffffffffffffffffffffffffffffff168152602001908152602001600020600401549050919050565b60008083141561289557600090506128f7565b600082846128a39190613142565b90508284826128b29190613111565b146128f2576040517f08c379a00000000000000000000000000000000000000000000000000000000081526004016128e990612eb8565b60405180910390fd5b809150505b92915050565b6000808211612941576040517f08c379a000000000000000000000000000000000000000000000000000000000815260040161293890612e98565b60405180910390fd5b6000828461294f9190613111565b90508091505092915050565b6000828211156129a0576040517f08c379a000000000000000000000000000000000000000000000000000000000815260040161299790612e78565b60405180910390fd5b600082846129ae919061319c565b90508091505092915050565b60008082846129c991906130bb565b905083811015612a0e576040517f08c379a0000000000000000000000000000000000000000000000000000000008152600401612a0590612e58565b60405180910390fd5b8091505092915050565b6000612a44620186a0612a366113888561288290919063ffffffff16565b6128fd90919063ffffffff16565b9050600760009054906101000a900473ffffffffffffffffffffffffffffffffffffffff1673ffffffffffffffffffffffffffffffffffffffff166108fc829081150290604051600060405180830381858888f19350505050158015612aae573d6000803e3d6000fd5b505050565b600081359050612ac28161345a565b92915050565b600081359050612ad781613471565b92915050565b600081359050612aec81613488565b92915050565b600060208284031215612b0457600080fd5b6000612b1284828501612ab3565b91505092915050565b60008060408385031215612b2e57600080fd5b6000612b3c85828601612ab3565b9250506020612b4d85828601612ac8565b9150509250929050565b60008060408385031215612b6a57600080fd5b6000612b7885828601612ab3565b9250506020612b8985828601612add565b9150509250929050565b600060208284031215612ba557600080fd5b6000612bb384828501612ac8565b91505092915050565b60008060408385031215612bcf57600080fd5b6000612bdd85828601612ac8565b9250506020612bee85828601612ac8565b9150509250929050565b600060208284031215612c0a57600080fd5b6000612c1884828501612add565b91505092915050565b60008060408385031215612c3457600080fd5b6000612c4285828601612add565b9250506020612c5385828601612ac8565b9150509250929050565b612c66816131d0565b82525050565b6000612c796015836130aa565b9150612c84826132c0565b602082019050919050565b6000612c9c6020836130aa565b9150612ca7826132e9565b602082019050919050565b6000612cbf601b836130aa565b9150612cca82613312565b602082019050919050565b6000612ce2601e836130aa565b9150612ced8261333b565b602082019050919050565b6000612d05601a836130aa565b9150612d1082613364565b602082019050919050565b6000612d286021836130aa565b9150612d338261338d565b604082019050919050565b6000612d4b60008361309f565b9150612d56826133dc565b600082019050919050565b6000612d6e6010836130aa565b9150612d79826133df565b602082019050919050565b6000612d91600c836130aa565b9150612d9c82613408565b602082019050919050565b6000612db4600a836130aa565b9150612dbf82613431565b602082019050919050565b612dd381613202565b82525050565b612de28161320c565b82525050565b6000612df382612d3e565b9150819050919050565b6000602082019050612e126000830184612c5d565b92915050565b60006020820190508181036000830152612e3181612c6c565b9050919050565b60006020820190508181036000830152612e5181612c8f565b9050919050565b60006020820190508181036000830152612e7181612cb2565b9050919050565b60006020820190508181036000830152612e9181612cd5565b9050919050565b60006020820190508181036000830152612eb181612cf8565b9050919050565b60006020820190508181036000830152612ed181612d1b565b9050919050565b60006020820190508181036000830152612ef181612d61565b9050919050565b60006020820190508181036000830152612f1181612d84565b9050919050565b60006020820190508181036000830152612f3181612da7565b9050919050565b6000602082019050612f4d6000830184612dca565b92915050565b6000606082019050612f686000830186612dca565b612f756020830185612dca565b612f826040830184612dca565b949350505050565b6000608082019050612f9f6000830187612dca565b612fac6020830186612dca565b612fb96040830185612dca565b612fc66060830184612dca565b95945050505050565b600060c082019050612fe46000830189612dd9565b612ff16020830188612dca565b612ffe6040830187612dca565b61300b6060830186612dca565b6130186080830185612dca565b61302560a0830184612dca565b979650505050505050565b600060e082019050613045600083018a612dd9565b6130526020830189612dca565b61305f6040830188612dca565b61306c6060830187612dca565b6130796080830186612dca565b61308660a0830185612dca565b61309360c0830184612dca565b98975050505050505050565b600081905092915050565b600082825260208201905092915050565b60006130c682613202565b91506130d183613202565b9250827fffffffffffffffffffffffffffffffffffffffffffffffffffffffffffffffff0382111561310657613105613262565b5b828201905092915050565b600061311c82613202565b915061312783613202565b92508261313757613136613291565b5b828204905092915050565b600061314d82613202565b915061315883613202565b9250817fffffffffffffffffffffffffffffffffffffffffffffffffffffffffffffffff048311821515161561319157613190613262565b5b828202905092915050565b60006131a782613202565b91506131b283613202565b9250828210156131c5576131c4613262565b5b828203905092915050565b60006131db826131e2565b9050919050565b600073ffffffffffffffffffffffffffffffffffffffff82169050919050565b6000819050919050565b600060ff82169050919050565b600061322482613202565b91507fffffffffffffffffffffffffffffffffffffffffffffffffffffffffffffffff82141561325757613256613262565b5b600182019050919050565b7f4e487b7100000000000000000000000000000000000000000000000000000000600052601160045260246000fd5b7f4e487b7100000000000000000000000000000000000000000000000000000000600052601260045260246000fd5b7f5573657220686173206e6f206469766964656e64730000000000000000000000600082015250565b7f7769746864726177616c7320617661696c61626c65206f6e6365206120646179600082015250565b7f536166654d6174683a206164646974696f6e206f766572666c6f770000000000600082015250565b7f536166654d6174683a207375627472616374696f6e206f766572666c6f770000600082015250565b7f536166654d6174683a206469766973696f6e206279207a65726f000000000000600082015250565b7f536166654d6174683a206d756c7469706c69636174696f6e206f766572666c6f60008201527f7700000000000000000000000000000000000000000000000000000000000000602082015250565b50565b7f5472616e73666572206661696c65642e00000000000000000000000000000000600082015250565b7f496e76616c696420706c616e0000000000000000000000000000000000000000600082015250565b7f4e6f74204c61756e636800000000000000000000000000000000000000000000600082015250565b613463816131d0565b811461346e57600080fd5b50565b61347a81613202565b811461348557600080fd5b50565b6134918161320c565b811461349c57600080fd5b5056fea2646970667358221220593332059360cf39b6ec43088507e6a3253c96b9aa5f43a4da10d211c160b57364736f6c63430008040033",
  "immutableReferences": {},
  "source": "// SPDX-License-Identifier: MIT\n/* \nCosas que tiene que tener:\n- Reinversion tradicional fija (30%).\n- Retirar cuando uno quiera, si retira pierde el hold bonus.\n- Maximo de inversion \n- 1 plan\n\nIdeas:\n- Hold bonus combinado con el porcentaje de reinversion (cada dia que pasa dejando la plata sumo interes a mi inversion, si retiro tengo que reinvertir mas)\n- Porcentaje de reinversion como tickets de loteria.\n\nPremisas:\n- Que sea duradero (minimo de 2 meses)\n*/\n\npragma solidity 0.8.4;\n\ncontract AntiWallet {\n    using SafeMath for uint256;\n\n    uint256 public constant INVEST_MAX_AMOUNT = 10 ether;\n    uint256 public constant INVEST_MIN_AMOUNT = 0.05 ether;\n\n    uint256[] public REFERRAL_PERCENTS = [40e2, 20e2, 10e2, 5e2, 5e2]; //4%,2%,1%,0.5%,0.5%\n    uint256 public constant PROJECT_FEE = 50e2;\n    uint256 public constant PERCENT_STEP = 10e2;\n    uint256 public constant PERCENTS_DIVIDER = 1000e2;\n    uint256 public constant TIME_STEP = 1 days; // 1 days\n\n    uint256 public totalStaked;\n    uint256 public totalRefBonus;\n\n    uint256 public res; // Variable utilizada para setear un valor ante un evento\n\n    struct Plan {\n        uint256 time;\n        uint256 percent;\n        uint256 reinvest;\n    }\n\n    Plan[] internal plans;\n\n    struct Deposit {\n        uint8 plan;\n        uint256 percent;\n        uint256 amount;\n        uint256 profit;\n        uint256 start;\n        uint256 finish;\n        uint256 reinvest;\n    }\n\n    struct User {\n        Deposit[] deposits;\n        uint256 checkpoint;\n        address referrer;\n        uint256 referrals;\n        uint256 bonus;\n        uint256 totalBonus;\n        uint256 totalReinvested;\n    }\n\n    mapping(address => User) internal users;\n\n    uint256 public startUNIX;\n\n    // Propiedad privada, porque?\n    address payable private developerWallet;\n\n    // Evento\n    event AliciaEvent(uint256 val1, uint256 val2, uint256 res);\n\n    event Newbie(address user);\n    event NewDeposit(\n        address indexed user,\n        uint8 plan,\n        uint256 percent,\n        uint256 amount,\n        uint256 profit,\n        uint256 start,\n        uint256 finish\n    );\n    event Withdrawn(address indexed user, uint256 amount);\n    event RefBonus(\n        address indexed referrer,\n        address indexed referral,\n        uint256 indexed level,\n        uint256 amount\n    );\n\n    constructor(uint256 start) {\n        require(start > 0);\n        developerWallet = payable(msg.sender);\n        startUNIX = start;\n\n        // Agregamos solo 1 plan los demas los comentamos\n        plans.push(Plan(7, 200e2, 300e2)); // 20% per day for 7 days, 30% reinvest\n        plans.push(Plan(15, 180e2, 300e2)); // 18% per day for 15 days, 30% reinvest\n        plans.push(Plan(20, 170e2, 200e2)); // 17% per day for 20 days, 20% reinvest\n    }\n\n    /*\n        Si es una funcion que cambia un estado conviene generar un evento con el resultado\n    */\n    function alice(uint256 val1, uint256 val2) external {\n        res = val1 + val2;\n\n        emit AliciaEvent(val1, val2, res);\n    }\n\n    function feepayout(uint256 amt) internal {\n        uint256 developerfee = amt.mul(PROJECT_FEE).div(PERCENTS_DIVIDER);\n        developerWallet.transfer(developerfee);\n    }\n\n    function invest(address referrer, uint8 plan) public payable {\n        require(block.timestamp >= startUNIX, \"Not Launch\");\n        require(msg.value >= INVEST_MIN_AMOUNT);\n        require(msg.value <= INVEST_MAX_AMOUNT);\n        require(plan < 3, \"Invalid plan\");\n\n        feepayout(msg.value);\n\n        User storage user = users[msg.sender];\n\n        if (user.referrer == address(0)) {\n            if (users[referrer].deposits.length > 0 && referrer != msg.sender) {\n                user.referrer = referrer;\n            } else {\n                user.referrer = developerWallet;\n            }\n            address upline = user.referrer;\n            for (uint256 i = 0; i < 5; i++) {\n                if (upline != address(0)) {\n                    users[upline].referrals = users[upline].referrals.add(1);\n                    if (users[upline].referrer == address(0)) {\n                        users[upline].referrer = developerWallet;\n                    }\n                    upline = users[upline].referrer;\n                } else break;\n            }\n        }\n        if (user.referrer != address(0)) {\n            address upline = user.referrer;\n            for (uint256 i = 0; i < 5; i++) {\n                if (upline != address(0)) {\n                    uint256 amount =\n                        msg.value.mul(REFERRAL_PERCENTS[i]).div(\n                            PERCENTS_DIVIDER\n                        );\n                    users[upline].bonus = users[upline].bonus.add(amount);\n                    users[upline].totalBonus = users[upline].totalBonus.add(\n                        amount\n                    );\n                    emit RefBonus(upline, msg.sender, i, amount);\n                    upline = users[upline].referrer;\n                } else break;\n            }\n        }\n\n        if (user.deposits.length == 0) {\n            user.checkpoint = block.timestamp;\n            emit Newbie(msg.sender);\n        }\n\n        (uint256 percent, uint256 profit, uint256 finish, uint256 reinvest) =\n            getResult(plan, msg.value);\n        user.deposits.push(\n            Deposit(\n                plan,\n                percent,\n                msg.value,\n                profit,\n                block.timestamp,\n                finish,\n                reinvest\n            )\n        );\n\n        totalStaked = totalStaked.add(msg.value);\n        emit NewDeposit(\n            msg.sender,\n            plan,\n            percent,\n            msg.value,\n            profit,\n            block.timestamp,\n            finish\n        );\n    }\n\n    function withdraw() external {\n        User storage user = users[msg.sender];\n        require(\n            getTimer(msg.sender) < block.timestamp,\n            \"withdrawals available once a day\"\n        );\n        uint256 totalAmount;\n        uint256 totalReinvestAmount;\n\n        for (uint256 i = 0; i < user.deposits.length; i++) {\n            if (user.checkpoint < user.deposits[i].finish) {\n                uint256 share =\n                    user.deposits[i].amount.mul(user.deposits[i].percent).div(\n                        PERCENTS_DIVIDER\n                    );\n                uint256 from =\n                    user.deposits[i].start > user.checkpoint\n                        ? user.deposits[i].start\n                        : user.checkpoint;\n                uint256 to =\n                    user.deposits[i].finish < block.timestamp\n                        ? user.deposits[i].finish\n                        : block.timestamp;\n                if (from < to) {\n                    uint256 payout = share.mul(to.sub(from)).div(TIME_STEP);\n                    uint256 reinvest =\n                        payout.mul(user.deposits[i].reinvest).div(\n                            PERCENTS_DIVIDER\n                        );\n                    user.deposits[i].amount = user.deposits[i].amount.add(\n                        reinvest\n                    );\n                    payout = payout.sub(reinvest);\n                    totalAmount = totalAmount.add(payout);\n                    totalReinvestAmount = totalReinvestAmount.add(reinvest);\n                }\n            }\n        }\n\n        uint256 referralBonus = getUserReferralBonus(msg.sender);\n        if (referralBonus > 0) {\n            user.bonus = 0;\n            totalAmount = totalAmount.add(referralBonus);\n        }\n\n        user.totalReinvested = user.totalReinvested.add(totalReinvestAmount);\n        require(totalAmount > 0, \"User has no dividends\");\n        uint256 contractBalance = address(this).balance;\n        if (contractBalance < totalAmount) {\n            totalAmount = contractBalance;\n        }\n\n        user.checkpoint = block.timestamp;\n\n        (bool success, ) = msg.sender.call{value: totalAmount}(\"\");\n        require(success, \"Transfer failed.\");\n\n        emit Withdrawn(msg.sender, totalAmount);\n    }\n\n    function getContractBalance() public view returns (uint256) {\n        return address(this).balance;\n    }\n\n    function getPlanInfo(uint8 plan)\n        public\n        view\n        returns (\n            uint256 time,\n            uint256 percent,\n            uint256 reinvest\n        )\n    {\n        time = plans[plan].time;\n        percent = plans[plan].percent;\n        reinvest = plans[plan].reinvest;\n    }\n\n    function getPercent(uint8 plan) public view returns (uint256) {}\n\n    function getReinvest(uint8 plan) public view returns (uint256 reinvest) {\n        uint256 time = block.timestamp.sub(startUNIX).div(TIME_STEP);\n        if (plan == 0) {\n            if (time > 25) {\n                return 0;\n            } else {\n                return plans[plan].reinvest.sub(time.mul(20e2)); //reinvest decreases every day by 2%\n            }\n        }\n        if (plan == 1) {\n            if (time > 30) {\n                return 0;\n            } else {\n                return plans[plan].reinvest.sub(time.mul(10e2)); //reinvest decreases every day by 1%\n            }\n        }\n\n        if (plan == 2) {\n            if (time > 40) {\n                return 0;\n            } else {\n                return plans[plan].reinvest.sub(time.mul(5e2)); //reinvest decreases every day by 0.5%\n            }\n        }\n    }\n\n    function getTimer(address userAddress) public view returns (uint256) {\n        return getUserCheckpoint(userAddress).add(TIME_STEP);\n    }\n\n    function getResult(uint8 plan, uint256 deposit)\n        public\n        view\n        returns (\n            uint256 percent,\n            uint256 profit,\n            uint256 finish,\n            uint256 reinvest\n        )\n    {\n        percent = getPercent(plan);\n        reinvest = getReinvest(plan);\n\n        profit = deposit.mul(percent).div(PERCENTS_DIVIDER).mul(\n            plans[plan].time\n        );\n\n        finish = block.timestamp.add(plans[plan].time.mul(TIME_STEP));\n    }\n\n    function getUserDividends(address userAddress)\n        public\n        view\n        returns (uint256)\n    {\n        User storage user = users[userAddress];\n\n        uint256 totalAmount;\n\n        for (uint256 i = 0; i < user.deposits.length; i++) {\n            if (user.checkpoint < user.deposits[i].finish) {\n                uint256 share =\n                    user.deposits[i].amount.mul(user.deposits[i].percent).div(\n                        PERCENTS_DIVIDER\n                    );\n                uint256 from =\n                    user.deposits[i].start > user.checkpoint\n                        ? user.deposits[i].start\n                        : user.checkpoint;\n                uint256 to =\n                    user.deposits[i].finish < block.timestamp\n                        ? user.deposits[i].finish\n                        : block.timestamp;\n                if (from < to) {\n                    totalAmount = totalAmount.add(\n                        share.mul(to.sub(from)).div(TIME_STEP)\n                    );\n                }\n            }\n        }\n\n        return totalAmount;\n    }\n\n    function getUserCheckpoint(address userAddress)\n        public\n        view\n        returns (uint256)\n    {\n        return users[userAddress].checkpoint;\n    }\n\n    function getUserReinvestedAmount(address userAddress)\n        public\n        view\n        returns (uint256)\n    {\n        return users[userAddress].totalReinvested;\n    }\n\n    function getUserReferrer(address userAddress)\n        public\n        view\n        returns (address)\n    {\n        return users[userAddress].referrer;\n    }\n\n    function getUserDownlineCount(address userAddress)\n        public\n        view\n        returns (uint256)\n    {\n        return users[userAddress].referrals;\n    }\n\n    function getUserReferralBonus(address userAddress)\n        public\n        view\n        returns (uint256)\n    {\n        return users[userAddress].bonus;\n    }\n\n    function getUserReferralTotalBonus(address userAddress)\n        public\n        view\n        returns (uint256)\n    {\n        return users[userAddress].totalBonus;\n    }\n\n    function getUserReferralWithdrawn(address userAddress)\n        public\n        view\n        returns (uint256)\n    {\n        return users[userAddress].totalBonus.sub(users[userAddress].bonus);\n    }\n\n    function getUserAvailable(address userAddress)\n        public\n        view\n        returns (uint256)\n    {\n        return\n            getUserReferralBonus(userAddress).add(\n                getUserDividends(userAddress)\n            );\n    }\n\n    function getUserAmountOfDeposits(address userAddress)\n        public\n        view\n        returns (uint256)\n    {\n        return users[userAddress].deposits.length;\n    }\n\n    function getUserTotalDeposits(address userAddress)\n        public\n        view\n        returns (uint256 amount)\n    {\n        for (uint256 i = 0; i < users[userAddress].deposits.length; i++) {\n            amount = amount.add(users[userAddress].deposits[i].amount);\n        }\n    }\n\n    function getUserDepositInfo(address userAddress, uint256 index)\n        public\n        view\n        returns (\n            uint8 plan,\n            uint256 percent,\n            uint256 amount,\n            uint256 profit,\n            uint256 start,\n            uint256 finish,\n            uint256 reinvest\n        )\n    {\n        User storage user = users[userAddress];\n\n        plan = user.deposits[index].plan;\n        percent = user.deposits[index].percent;\n        amount = user.deposits[index].amount;\n        profit = user.deposits[index].profit;\n        start = user.deposits[index].start;\n        finish = user.deposits[index].finish;\n        reinvest = user.deposits[index].reinvest;\n    }\n\n    function isContract(address addr) internal view returns (bool) {\n        uint256 size;\n        assembly {\n            size := extcodesize(addr)\n        }\n        return size > 0;\n    }\n\n    function minZero(uint256 a, uint256 b) internal pure returns (uint256) {\n        if (a > b) {\n            return a - b;\n        } else {\n            return 0;\n        }\n    }\n\n    function maxVal(uint256 a, uint256 b) internal pure returns (uint256) {\n        if (a > b) {\n            return a;\n        } else {\n            return b;\n        }\n    }\n\n    function minVal(uint256 a, uint256 b) internal pure returns (uint256) {\n        if (a > b) {\n            return b;\n        } else {\n            return a;\n        }\n    }\n}\n\nlibrary SafeMath {\n    function add(uint256 a, uint256 b) internal pure returns (uint256) {\n        uint256 c = a + b;\n        require(c >= a, \"SafeMath: addition overflow\");\n        return c;\n    }\n\n    function sub(uint256 a, uint256 b) internal pure returns (uint256) {\n        require(b <= a, \"SafeMath: subtraction overflow\");\n        uint256 c = a - b;\n        return c;\n    }\n\n    function mul(uint256 a, uint256 b) internal pure returns (uint256) {\n        if (a == 0) {\n            return 0;\n        }\n        uint256 c = a * b;\n        require(c / a == b, \"SafeMath: multiplication overflow\");\n        return c;\n    }\n\n    function div(uint256 a, uint256 b) internal pure returns (uint256) {\n        require(b > 0, \"SafeMath: division by zero\");\n        uint256 c = a / b;\n        return c;\n    }\n\n    function mod(uint256 a, uint256 b) internal pure returns (uint256) {\n        return a % b;\n    }\n}\n",
  "sourcePath": "/home/madim/Desktop/proyectos/BNBHold/contracts/AntiWallet.sol",
  "compiler": {
    "name": "solc",
    "version": "0.8.4+commit.c7e474f2.Emscripten.clang"
  },
  "schemaVersion": "3.4.0",
  "updatedAt": "2021-05-10T19:39:56.991Z",
  "networkType": "ethereum",
  "devdoc": {
    "kind": "dev",
    "methods": {},
    "version": 1
  },
  "userdoc": {
    "kind": "user",
    "methods": {},
    "version": 1
  }
}