{
  "contractName": "AntiWallet",
  "abi": [
    {
      "inputs": [
        {
          "internalType": "uint256",
          "name": "start",
          "type": "uint256"
        }
      ],
      "stateMutability": "nonpayable",
      "type": "constructor"
    },
    {
      "anonymous": false,
      "inputs": [
        {
          "indexed": false,
          "internalType": "uint256",
          "name": "data",
          "type": "uint256"
        },
        {
          "indexed": false,
          "internalType": "uint256",
          "name": "date",
          "type": "uint256"
        }
      ],
      "name": "Const",
      "type": "event"
    },
    {
      "anonymous": false,
      "inputs": [
        {
          "indexed": true,
          "internalType": "address",
          "name": "user",
          "type": "address"
        },
        {
          "indexed": false,
          "internalType": "uint8",
          "name": "plan",
          "type": "uint8"
        },
        {
          "indexed": false,
          "internalType": "uint256",
          "name": "percent",
          "type": "uint256"
        },
        {
          "indexed": false,
          "internalType": "uint256",
          "name": "amount",
          "type": "uint256"
        },
        {
          "indexed": false,
          "internalType": "uint256",
          "name": "profit",
          "type": "uint256"
        },
        {
          "indexed": false,
          "internalType": "uint256",
          "name": "start",
          "type": "uint256"
        },
        {
          "indexed": false,
          "internalType": "uint256",
          "name": "finish",
          "type": "uint256"
        }
      ],
      "name": "NewDeposit",
      "type": "event"
    },
    {
      "anonymous": false,
      "inputs": [
        {
          "indexed": false,
          "internalType": "address",
          "name": "user",
          "type": "address"
        }
      ],
      "name": "Newbie",
      "type": "event"
    },
    {
      "anonymous": false,
      "inputs": [
        {
          "indexed": true,
          "internalType": "address",
          "name": "referrer",
          "type": "address"
        },
        {
          "indexed": true,
          "internalType": "address",
          "name": "referral",
          "type": "address"
        },
        {
          "indexed": true,
          "internalType": "uint256",
          "name": "level",
          "type": "uint256"
        },
        {
          "indexed": false,
          "internalType": "uint256",
          "name": "amount",
          "type": "uint256"
        }
      ],
      "name": "RefBonus",
      "type": "event"
    },
    {
      "anonymous": false,
      "inputs": [
        {
          "indexed": true,
          "internalType": "address",
          "name": "user",
          "type": "address"
        },
        {
          "indexed": false,
          "internalType": "uint256",
          "name": "amount",
          "type": "uint256"
        }
      ],
      "name": "Withdrawn",
      "type": "event"
    },
    {
      "inputs": [],
      "name": "INVEST_MAX_AMOUNT",
      "outputs": [
        {
          "internalType": "uint256",
          "name": "",
          "type": "uint256"
        }
      ],
      "stateMutability": "view",
      "type": "function",
      "constant": true
    },
    {
      "inputs": [],
      "name": "INVEST_MIN_AMOUNT",
      "outputs": [
        {
          "internalType": "uint256",
          "name": "",
          "type": "uint256"
        }
      ],
      "stateMutability": "view",
      "type": "function",
      "constant": true
    },
    {
      "inputs": [],
      "name": "PERCENTS_DIVIDER",
      "outputs": [
        {
          "internalType": "uint256",
          "name": "",
          "type": "uint256"
        }
      ],
      "stateMutability": "view",
      "type": "function",
      "constant": true
    },
    {
      "inputs": [],
      "name": "PERCENT_STEP",
      "outputs": [
        {
          "internalType": "uint256",
          "name": "",
          "type": "uint256"
        }
      ],
      "stateMutability": "view",
      "type": "function",
      "constant": true
    },
    {
      "inputs": [],
      "name": "PROJECT_FEE",
      "outputs": [
        {
          "internalType": "uint256",
          "name": "",
          "type": "uint256"
        }
      ],
      "stateMutability": "view",
      "type": "function",
      "constant": true
    },
    {
      "inputs": [
        {
          "internalType": "uint256",
          "name": "",
          "type": "uint256"
        }
      ],
      "name": "REFERRAL_PERCENTS",
      "outputs": [
        {
          "internalType": "uint256",
          "name": "",
          "type": "uint256"
        }
      ],
      "stateMutability": "view",
      "type": "function",
      "constant": true
    },
    {
      "inputs": [],
      "name": "TIME_STEP",
      "outputs": [
        {
          "internalType": "uint256",
          "name": "",
          "type": "uint256"
        }
      ],
      "stateMutability": "view",
      "type": "function",
      "constant": true
    },
    {
      "inputs": [],
      "name": "startUNIX",
      "outputs": [
        {
          "internalType": "uint256",
          "name": "",
          "type": "uint256"
        }
      ],
      "stateMutability": "view",
      "type": "function",
      "constant": true
    },
    {
      "inputs": [],
      "name": "totalRefBonus",
      "outputs": [
        {
          "internalType": "uint256",
          "name": "",
          "type": "uint256"
        }
      ],
      "stateMutability": "view",
      "type": "function",
      "constant": true
    },
    {
      "inputs": [],
      "name": "totalStaked",
      "outputs": [
        {
          "internalType": "uint256",
          "name": "",
          "type": "uint256"
        }
      ],
      "stateMutability": "view",
      "type": "function",
      "constant": true
    },
    {
      "inputs": [
        {
          "internalType": "address",
          "name": "referrer",
          "type": "address"
        },
        {
          "internalType": "uint8",
          "name": "plan",
          "type": "uint8"
        }
      ],
      "name": "invest",
      "outputs": [],
      "stateMutability": "payable",
      "type": "function",
      "payable": true
    },
    {
      "inputs": [],
      "name": "withdraw",
      "outputs": [],
      "stateMutability": "nonpayable",
      "type": "function"
    },
    {
      "inputs": [],
      "name": "getContractBalance",
      "outputs": [
        {
          "internalType": "uint256",
          "name": "",
          "type": "uint256"
        }
      ],
      "stateMutability": "view",
      "type": "function",
      "constant": true
    },
    {
      "inputs": [
        {
          "internalType": "uint8",
          "name": "plan",
          "type": "uint8"
        }
      ],
      "name": "getPlanInfo",
      "outputs": [
        {
          "internalType": "uint256",
          "name": "time",
          "type": "uint256"
        },
        {
          "internalType": "uint256",
          "name": "percent",
          "type": "uint256"
        },
        {
          "internalType": "uint256",
          "name": "reinvest",
          "type": "uint256"
        }
      ],
      "stateMutability": "view",
      "type": "function",
      "constant": true
    },
    {
      "inputs": [
        {
          "internalType": "uint8",
          "name": "plan",
          "type": "uint8"
        }
      ],
      "name": "getPercent",
      "outputs": [
        {
          "internalType": "uint256",
          "name": "",
          "type": "uint256"
        }
      ],
      "stateMutability": "view",
      "type": "function",
      "constant": true
    },
    {
      "inputs": [
        {
          "internalType": "uint8",
          "name": "plan",
          "type": "uint8"
        }
      ],
      "name": "getReinvest",
      "outputs": [
        {
          "internalType": "uint256",
          "name": "reinvest",
          "type": "uint256"
        }
      ],
      "stateMutability": "view",
      "type": "function",
      "constant": true
    },
    {
      "inputs": [
        {
          "internalType": "address",
          "name": "userAddress",
          "type": "address"
        }
      ],
      "name": "getTimer",
      "outputs": [
        {
          "internalType": "uint256",
          "name": "",
          "type": "uint256"
        }
      ],
      "stateMutability": "view",
      "type": "function",
      "constant": true
    },
    {
      "inputs": [
        {
          "internalType": "uint8",
          "name": "plan",
          "type": "uint8"
        },
        {
          "internalType": "uint256",
          "name": "deposit",
          "type": "uint256"
        }
      ],
      "name": "getResult",
      "outputs": [
        {
          "internalType": "uint256",
          "name": "percent",
          "type": "uint256"
        },
        {
          "internalType": "uint256",
          "name": "profit",
          "type": "uint256"
        },
        {
          "internalType": "uint256",
          "name": "finish",
          "type": "uint256"
        },
        {
          "internalType": "uint256",
          "name": "reinvest",
          "type": "uint256"
        }
      ],
      "stateMutability": "view",
      "type": "function",
      "constant": true
    },
    {
      "inputs": [
        {
          "internalType": "address",
          "name": "userAddress",
          "type": "address"
        }
      ],
      "name": "getUserDividends",
      "outputs": [
        {
          "internalType": "uint256",
          "name": "",
          "type": "uint256"
        }
      ],
      "stateMutability": "view",
      "type": "function",
      "constant": true
    },
    {
      "inputs": [
        {
          "internalType": "address",
          "name": "userAddress",
          "type": "address"
        }
      ],
      "name": "getUserCheckpoint",
      "outputs": [
        {
          "internalType": "uint256",
          "name": "",
          "type": "uint256"
        }
      ],
      "stateMutability": "view",
      "type": "function",
      "constant": true
    },
    {
      "inputs": [
        {
          "internalType": "address",
          "name": "userAddress",
          "type": "address"
        }
      ],
      "name": "getUserReinvestedAmount",
      "outputs": [
        {
          "internalType": "uint256",
          "name": "",
          "type": "uint256"
        }
      ],
      "stateMutability": "view",
      "type": "function",
      "constant": true
    },
    {
      "inputs": [
        {
          "internalType": "address",
          "name": "userAddress",
          "type": "address"
        }
      ],
      "name": "getUserReferrer",
      "outputs": [
        {
          "internalType": "address",
          "name": "",
          "type": "address"
        }
      ],
      "stateMutability": "view",
      "type": "function",
      "constant": true
    },
    {
      "inputs": [
        {
          "internalType": "address",
          "name": "userAddress",
          "type": "address"
        }
      ],
      "name": "getUserDownlineCount",
      "outputs": [
        {
          "internalType": "uint256",
          "name": "",
          "type": "uint256"
        }
      ],
      "stateMutability": "view",
      "type": "function",
      "constant": true
    },
    {
      "inputs": [
        {
          "internalType": "address",
          "name": "userAddress",
          "type": "address"
        }
      ],
      "name": "getUserReferralBonus",
      "outputs": [
        {
          "internalType": "uint256",
          "name": "",
          "type": "uint256"
        }
      ],
      "stateMutability": "view",
      "type": "function",
      "constant": true
    },
    {
      "inputs": [
        {
          "internalType": "address",
          "name": "userAddress",
          "type": "address"
        }
      ],
      "name": "getUserReferralTotalBonus",
      "outputs": [
        {
          "internalType": "uint256",
          "name": "",
          "type": "uint256"
        }
      ],
      "stateMutability": "view",
      "type": "function",
      "constant": true
    },
    {
      "inputs": [
        {
          "internalType": "address",
          "name": "userAddress",
          "type": "address"
        }
      ],
      "name": "getUserReferralWithdrawn",
      "outputs": [
        {
          "internalType": "uint256",
          "name": "",
          "type": "uint256"
        }
      ],
      "stateMutability": "view",
      "type": "function",
      "constant": true
    },
    {
      "inputs": [
        {
          "internalType": "address",
          "name": "userAddress",
          "type": "address"
        }
      ],
      "name": "getUserAvailable",
      "outputs": [
        {
          "internalType": "uint256",
          "name": "",
          "type": "uint256"
        }
      ],
      "stateMutability": "view",
      "type": "function",
      "constant": true
    },
    {
      "inputs": [
        {
          "internalType": "address",
          "name": "userAddress",
          "type": "address"
        }
      ],
      "name": "getUserAmountOfDeposits",
      "outputs": [
        {
          "internalType": "uint256",
          "name": "",
          "type": "uint256"
        }
      ],
      "stateMutability": "view",
      "type": "function",
      "constant": true
    },
    {
      "inputs": [
        {
          "internalType": "address",
          "name": "userAddress",
          "type": "address"
        }
      ],
      "name": "getUserTotalDeposits",
      "outputs": [
        {
          "internalType": "uint256",
          "name": "amount",
          "type": "uint256"
        }
      ],
      "stateMutability": "view",
      "type": "function",
      "constant": true
    },
    {
      "inputs": [
        {
          "internalType": "address",
          "name": "userAddress",
          "type": "address"
        },
        {
          "internalType": "uint256",
          "name": "index",
          "type": "uint256"
        }
      ],
      "name": "getUserDepositInfo",
      "outputs": [
        {
          "internalType": "uint8",
          "name": "plan",
          "type": "uint8"
        },
        {
          "internalType": "uint256",
          "name": "percent",
          "type": "uint256"
        },
        {
          "internalType": "uint256",
          "name": "amount",
          "type": "uint256"
        },
        {
          "internalType": "uint256",
          "name": "profit",
          "type": "uint256"
        },
        {
          "internalType": "uint256",
          "name": "start",
          "type": "uint256"
        },
        {
          "internalType": "uint256",
          "name": "finish",
          "type": "uint256"
        },
        {
          "internalType": "uint256",
          "name": "reinvest",
          "type": "uint256"
        }
      ],
      "stateMutability": "view",
      "type": "function",
      "constant": true
    }
  ],
  "bytecode": "0x60806040526040518060a00160405280610fa061ffff1681526020016107d061ffff1681526020016103e861ffff1681526020016101f461ffff1681526020016101f461ffff1681525060009060056200005b9291906200026a565b503480156200006957600080fd5b50604051620037a5380380620037a583398181016040528101906200008f9190620002f8565b600081116200009d57600080fd5b33600660006101000a81548173ffffffffffffffffffffffffffffffffffffffff021916908373ffffffffffffffffffffffffffffffffffffffff160217905550806005819055507fb5f01035a0e1938944bd20c57c1f404387b1bc601331ba45cca4646188d9be4b600a60176040516200011a92919062000346565b60405180910390a16003604051806060016040528060078152602001614e2081526020016175308152509080600181540180825580915050600190039060005260206000209060030201600090919091909150600082015181600001556020820151816001015560408201518160020155505060036040518060600160405280600f815260200161465081526020016175308152509080600181540180825580915050600190039060005260206000209060030201600090919091909150600082015181600001556020820151816001015560408201518160020155505060036040518060600160405280601481526020016142688152602001614e208152509080600181540180825580915050600190039060005260206000209060030201600090919091909150600082015181600001556020820151816001015560408201518160020155505050620003bf565b828054828255906000526020600020908101928215620002af579160200282015b82811115620002ae578251829061ffff169055916020019190600101906200028b565b5b509050620002be9190620002c2565b5090565b5b80821115620002dd576000816000905550600101620002c3565b5090565b600081519050620002f281620003a5565b92915050565b6000602082840312156200030b57600080fd5b60006200031b84828501620002e1565b91505092915050565b6200032f816200037d565b82525050565b620003408162000391565b82525050565b60006040820190506200035d600083018562000324565b6200036c602083018462000335565b9392505050565b6000819050919050565b60006200038a8262000373565b9050919050565b60006200039e8262000373565b9050919050565b620003b08162000373565b8114620003bc57600080fd5b50565b6133d680620003cf6000396000f3fe6080604052600436106101cd5760003560e01c806369b11dd5116100f7578063a8aeb6c211610095578063d7ffca9111610064578063d7ffca9114610726578063dba9069814610763578063e262113e146107a0578063e85abe09146107cb576101cd565b8063a8aeb6c21461063c578063aecaa63414610679578063c0806b03146106b8578063c2341238146106fb576101cd565b80637d8cb7a2116100d15780637d8cb7a21461056c5780637e3abeea14610597578063817b1cd2146105d4578063a51b9533146105ff576101cd565b806369b11dd5146104d95780636bb18556146105045780636f9fb98a14610541576101cd565b806336144c9a1161016f57806357fc86b41161013e57806357fc86b414610415578063581c5ae6146104405780635936cf611461045c578063600d20ce1461049c576101cd565b806336144c9a146103595780633ccfd60b1461039657806348c37203146103ad57806348d44bd1146103ea576101cd565b806306903e1c116101ab57806306903e1c146102775780631531f016146102b4578063153ab9df146102f157806332bc298c1461032e576101cd565b806301c234a8146101d257806303a93c0c146101fd578063040a772e1461023a575b600080fd5b3480156101de57600080fd5b506101e7610808565b6040516101f49190612e39565b60405180910390f35b34801561020957600080fd5b50610224600480360381019061021f9190612a2f565b61080f565b6040516102319190612e39565b60405180910390f35b34801561024657600080fd5b50610261600480360381019061025c9190612a2f565b61085b565b60405161026e9190612e39565b60405180910390f35b34801561028357600080fd5b5061029e60048036038101906102999190612af9565b610bb0565b6040516102ab9190612e39565b60405180910390f35b3480156102c057600080fd5b506102db60048036038101906102d69190612a2f565b610dba565b6040516102e89190612e39565b60405180910390f35b3480156102fd57600080fd5b5061031860048036038101906103139190612a2f565b610de1565b6040516103259190612e39565b60405180910390f35b34801561033a57600080fd5b50610343610e0d565b6040516103509190612e39565b60405180910390f35b34801561036557600080fd5b50610380600480360381019061037b9190612a2f565b610e14565b60405161038d9190612cfe565b60405180910390f35b3480156103a257600080fd5b506103ab610e80565b005b3480156103b957600080fd5b506103d460048036038101906103cf9190612a2f565b611521565b6040516103e19190612e39565b60405180910390f35b3480156103f657600080fd5b506103ff61156d565b60405161040c9190612e39565b60405180910390f35b34801561042157600080fd5b5061042a611573565b6040516104379190612e39565b60405180910390f35b61045a60048036038101906104559190612a94565b611579565b005b34801561046857600080fd5b50610483600480360381019061047e9190612b22565b611fc5565b6040516104939493929190612e8b565b60405180910390f35b3480156104a857600080fd5b506104c360048036038101906104be9190612ad0565b6120ec565b6040516104d09190612e39565b60405180910390f35b3480156104e557600080fd5b506104ee612110565b6040516104fb9190612e39565b60405180910390f35b34801561051057600080fd5b5061052b60048036038101906105269190612a2f565b612116565b6040516105389190612e39565b60405180910390f35b34801561054d57600080fd5b506105566121b6565b6040516105639190612e39565b60405180910390f35b34801561057857600080fd5b506105816121be565b60405161058e9190612e39565b60405180910390f35b3480156105a357600080fd5b506105be60048036038101906105b99190612a2f565b6121ca565b6040516105cb9190612e39565b60405180910390f35b3480156105e057600080fd5b506105e96122d8565b6040516105f69190612e39565b60405180910390f35b34801561060b57600080fd5b5061062660048036038101906106219190612af9565b6122de565b6040516106339190612e39565b60405180910390f35b34801561064857600080fd5b50610663600480360381019061065e9190612a2f565b6122e5565b6040516106709190612e39565b60405180910390f35b34801561068557600080fd5b506106a0600480360381019061069b9190612af9565b612334565b6040516106af93929190612e54565b60405180910390f35b3480156106c457600080fd5b506106df60048036038101906106da9190612a58565b612433565b6040516106f29796959493929190612f31565b60405180910390f35b34801561070757600080fd5b506107106126ca565b60405161071d9190612e39565b60405180910390f35b34801561073257600080fd5b5061074d60048036038101906107489190612a2f565b6126d0565b60405161075a9190612e39565b60405180910390f35b34801561076f57600080fd5b5061078a60048036038101906107859190612a2f565b61271c565b6040516107979190612e39565b60405180910390f35b3480156107ac57600080fd5b506107b5612768565b6040516107c29190612e39565b60405180910390f35b3480156107d757600080fd5b506107f260048036038101906107ed9190612a2f565b612773565b6040516107ff9190612e39565b60405180910390f35b620186a081565b6000600460008373ffffffffffffffffffffffffffffffffffffffff1673ffffffffffffffffffffffffffffffffffffffff168152602001908152602001600020600301549050919050565b600080600460008473ffffffffffffffffffffffffffffffffffffffff1673ffffffffffffffffffffffffffffffffffffffff1681526020019081526020016000209050600080600090505b8260000180549050811015610ba5578260000181815481106108f2577f4e487b7100000000000000000000000000000000000000000000000000000000600052603260045260246000fd5b90600052602060002090600702016005015483600101541015610b925760006109d3620186a06109c5866000018581548110610957577f4e487b7100000000000000000000000000000000000000000000000000000000600052603260045260246000fd5b9060005260206000209060070201600101548760000186815481106109a5577f4e487b7100000000000000000000000000000000000000000000000000000000600052603260045260246000fd5b9060005260206000209060070201600201546127bf90919063ffffffff16565b61283a90919063ffffffff16565b905060008460010154856000018481548110610a18577f4e487b7100000000000000000000000000000000000000000000000000000000600052603260045260246000fd5b90600052602060002090600702016004015411610a39578460010154610a88565b846000018381548110610a75577f4e487b7100000000000000000000000000000000000000000000000000000000600052603260045260246000fd5b9060005260206000209060070201600401545b9050600042866000018581548110610ac9577f4e487b7100000000000000000000000000000000000000000000000000000000600052603260045260246000fd5b90600052602060002090600702016005015410610ae65742610b35565b856000018481548110610b22577f4e487b7100000000000000000000000000000000000000000000000000000000600052603260045260246000fd5b9060005260206000209060070201600501545b905080821015610b8e57610b8b610b7c62015180610b6e610b5f868661289890919063ffffffff16565b876127bf90919063ffffffff16565b61283a90919063ffffffff16565b866128f790919063ffffffff16565b94505b5050505b8080610b9d9061311a565b9150506108a7565b508092505050919050565b600080610bdd62015180610bcf6005544261289890919063ffffffff16565b61283a90919063ffffffff16565b905060008360ff161415610c7b576019811115610bfe576000915050610db5565b610c73610c166107d0836127bf90919063ffffffff16565b60038560ff1681548110610c53577f4e487b7100000000000000000000000000000000000000000000000000000000600052603260045260246000fd5b90600052602060002090600302016002015461289890919063ffffffff16565b915050610db5565b60018360ff161415610d1757601e811115610c9a576000915050610db5565b610d0f610cb26103e8836127bf90919063ffffffff16565b60038560ff1681548110610cef577f4e487b7100000000000000000000000000000000000000000000000000000000600052603260045260246000fd5b90600052602060002090600302016002015461289890919063ffffffff16565b915050610db5565b60028360ff161415610db3576028811115610d36576000915050610db5565b610dab610d4e6101f4836127bf90919063ffffffff16565b60038560ff1681548110610d8b577f4e487b7100000000000000000000000000000000000000000000000000000000600052603260045260246000fd5b90600052602060002090600302016002015461289890919063ffffffff16565b915050610db5565b505b919050565b6000610dda62015180610dcc846126d0565b6128f790919063ffffffff16565b9050919050565b6000610e06610def8361085b565b610df884612773565b6128f790919063ffffffff16565b9050919050565b6201518081565b6000600460008373ffffffffffffffffffffffffffffffffffffffff1673ffffffffffffffffffffffffffffffffffffffff16815260200190815260200160002060020160009054906101000a900473ffffffffffffffffffffffffffffffffffffffff169050919050565b6000600460003373ffffffffffffffffffffffffffffffffffffffff1673ffffffffffffffffffffffffffffffffffffffff168152602001908152602001600020905042610ecd33610dba565b10610f0d576040517f08c379a0000000000000000000000000000000000000000000000000000000008152600401610f0490612d39565b60405180910390fd5b60008060005b836000018054905081101561136c57836000018181548110610f5e577f4e487b7100000000000000000000000000000000000000000000000000000000600052603260045260246000fd5b9060005260206000209060070201600501548460010154101561135957600061103f620186a0611031876000018581548110610fc3577f4e487b7100000000000000000000000000000000000000000000000000000000600052603260045260246000fd5b906000526020600020906007020160010154886000018681548110611011577f4e487b7100000000000000000000000000000000000000000000000000000000600052603260045260246000fd5b9060005260206000209060070201600201546127bf90919063ffffffff16565b61283a90919063ffffffff16565b905060008560010154866000018481548110611084577f4e487b7100000000000000000000000000000000000000000000000000000000600052603260045260246000fd5b906000526020600020906007020160040154116110a55785600101546110f4565b8560000183815481106110e1577f4e487b7100000000000000000000000000000000000000000000000000000000600052603260045260246000fd5b9060005260206000209060070201600401545b9050600042876000018581548110611135577f4e487b7100000000000000000000000000000000000000000000000000000000600052603260045260246000fd5b9060005260206000209060070201600501541061115257426111a1565b86600001848154811061118e577f4e487b7100000000000000000000000000000000000000000000000000000000600052603260045260246000fd5b9060005260206000209060070201600501545b9050808210156113555760006111e7620151806111d96111ca868661289890919063ffffffff16565b876127bf90919063ffffffff16565b61283a90919063ffffffff16565b90506000611260620186a06112528b6000018981548110611231577f4e487b7100000000000000000000000000000000000000000000000000000000600052603260045260246000fd5b906000526020600020906007020160060154856127bf90919063ffffffff16565b61283a90919063ffffffff16565b90506112c2818a60000188815481106112a2577f4e487b7100000000000000000000000000000000000000000000000000000000600052603260045260246000fd5b9060005260206000209060070201600201546128f790919063ffffffff16565b8960000187815481106112fe577f4e487b7100000000000000000000000000000000000000000000000000000000600052603260045260246000fd5b906000526020600020906007020160020181905550611326818361289890919063ffffffff16565b915061133b82896128f790919063ffffffff16565b975061135081886128f790919063ffffffff16565b965050505b5050505b80806113649061311a565b915050610f13565b50600061137833612773565b905060008111156113a357600084600401819055506113a081846128f790919063ffffffff16565b92505b6113ba8285600601546128f790919063ffffffff16565b846006018190555060008311611405576040517f08c379a00000000000000000000000000000000000000000000000000000000081526004016113fc90612d19565b60405180910390fd5b600047905083811015611416578093505b42856001018190555060003373ffffffffffffffffffffffffffffffffffffffff168560405161144590612ce9565b60006040518083038185875af1925050503d8060008114611482576040519150601f19603f3d011682016040523d82523d6000602084013e611487565b606091505b50509050806114cb576040517f08c379a00000000000000000000000000000000000000000000000000000000081526004016114c290612dd9565b60405180910390fd5b3373ffffffffffffffffffffffffffffffffffffffff167f7084f5476618d8e60b11ef0d7d3f06914655adb8793e28ff7f018d4c76d505d5866040516115119190612e39565b60405180910390a2505050505050565b6000600460008373ffffffffffffffffffffffffffffffffffffffff1673ffffffffffffffffffffffffffffffffffffffff168152602001908152602001600020600501549050919050565b61138881565b6103e881565b6005544210156115be576040517f08c379a00000000000000000000000000000000000000000000000000000000081526004016115b590612e19565b60405180910390fd5b66b1a2bc2ec500003410156115d257600080fd5b678ac7230489e800003411156115e757600080fd5b60038160ff161061162d576040517f08c379a000000000000000000000000000000000000000000000000000000000815260040161162490612df9565b60405180910390fd5b61163634612955565b6000600460003373ffffffffffffffffffffffffffffffffffffffff1673ffffffffffffffffffffffffffffffffffffffff1681526020019081526020016000209050600073ffffffffffffffffffffffffffffffffffffffff168160020160009054906101000a900473ffffffffffffffffffffffffffffffffffffffff1673ffffffffffffffffffffffffffffffffffffffff161415611acb576000600460008573ffffffffffffffffffffffffffffffffffffffff1673ffffffffffffffffffffffffffffffffffffffff1681526020019081526020016000206000018054905011801561175357503373ffffffffffffffffffffffffffffffffffffffff168373ffffffffffffffffffffffffffffffffffffffff1614155b156117a057828160020160006101000a81548173ffffffffffffffffffffffffffffffffffffffff021916908373ffffffffffffffffffffffffffffffffffffffff160217905550611806565b600660009054906101000a900473ffffffffffffffffffffffffffffffffffffffff168160020160006101000a81548173ffffffffffffffffffffffffffffffffffffffff021916908373ffffffffffffffffffffffffffffffffffffffff1602179055505b60008160020160009054906101000a900473ffffffffffffffffffffffffffffffffffffffff16905060005b6005811015611ac857600073ffffffffffffffffffffffffffffffffffffffff168273ffffffffffffffffffffffffffffffffffffffff1614611ab0576118c56001600460008573ffffffffffffffffffffffffffffffffffffffff1673ffffffffffffffffffffffffffffffffffffffff168152602001908152602001600020600301546128f790919063ffffffff16565b600460008473ffffffffffffffffffffffffffffffffffffffff1673ffffffffffffffffffffffffffffffffffffffff16815260200190815260200160002060030181905550600073ffffffffffffffffffffffffffffffffffffffff16600460008473ffffffffffffffffffffffffffffffffffffffff1673ffffffffffffffffffffffffffffffffffffffff16815260200190815260200160002060020160009054906101000a900473ffffffffffffffffffffffffffffffffffffffff1673ffffffffffffffffffffffffffffffffffffffff161415611a4657600660009054906101000a900473ffffffffffffffffffffffffffffffffffffffff16600460008473ffffffffffffffffffffffffffffffffffffffff1673ffffffffffffffffffffffffffffffffffffffff16815260200190815260200160002060020160006101000a81548173ffffffffffffffffffffffffffffffffffffffff021916908373ffffffffffffffffffffffffffffffffffffffff1602179055505b600460008373ffffffffffffffffffffffffffffffffffffffff1673ffffffffffffffffffffffffffffffffffffffff16815260200190815260200160002060020160009054906101000a900473ffffffffffffffffffffffffffffffffffffffff169150611ab5565b611ac8565b8080611ac09061311a565b915050611832565b50505b600073ffffffffffffffffffffffffffffffffffffffff168160020160009054906101000a900473ffffffffffffffffffffffffffffffffffffffff1673ffffffffffffffffffffffffffffffffffffffff1614611e1e5760008160020160009054906101000a900473ffffffffffffffffffffffffffffffffffffffff16905060005b6005811015611e1b57600073ffffffffffffffffffffffffffffffffffffffff168273ffffffffffffffffffffffffffffffffffffffff1614611e03576000611bfa620186a0611bec60008581548110611bd2577f4e487b7100000000000000000000000000000000000000000000000000000000600052603260045260246000fd5b9060005260206000200154346127bf90919063ffffffff16565b61283a90919063ffffffff16565b9050611c5181600460008673ffffffffffffffffffffffffffffffffffffffff1673ffffffffffffffffffffffffffffffffffffffff168152602001908152602001600020600401546128f790919063ffffffff16565b600460008573ffffffffffffffffffffffffffffffffffffffff1673ffffffffffffffffffffffffffffffffffffffff16815260200190815260200160002060040181905550611cec81600460008673ffffffffffffffffffffffffffffffffffffffff1673ffffffffffffffffffffffffffffffffffffffff168152602001908152602001600020600501546128f790919063ffffffff16565b600460008573ffffffffffffffffffffffffffffffffffffffff1673ffffffffffffffffffffffffffffffffffffffff16815260200190815260200160002060050181905550813373ffffffffffffffffffffffffffffffffffffffff168473ffffffffffffffffffffffffffffffffffffffff167fd41f7e766eebcc7ff42b11ac8691bdf864db4afc0c55e71d629d54edce460d9884604051611d909190612e39565b60405180910390a4600460008473ffffffffffffffffffffffffffffffffffffffff1673ffffffffffffffffffffffffffffffffffffffff16815260200190815260200160002060020160009054906101000a900473ffffffffffffffffffffffffffffffffffffffff16925050611e08565b611e1b565b8080611e139061311a565b915050611b4f565b50505b600081600001805490501415611e6f574281600101819055507f9fd565cd14c3c391679eb0cad12a14dcf7534e9d3462bcb9b67a098a9bbbc24a33604051611e669190612cfe565b60405180910390a15b600080600080611e7f8634611fc5565b9350935093509350846000016040518060e001604052808860ff16815260200186815260200134815260200185815260200142815260200184815260200183815250908060018154018082558091505060019003906000526020600020906007020160009091909190915060008201518160000160006101000a81548160ff021916908360ff1602179055506020820151816001015560408201518160020155606082015181600301556080820151816004015560a0820151816005015560c082015181600601555050611f5e346001546128f790919063ffffffff16565b6001819055503373ffffffffffffffffffffffffffffffffffffffff167f84e02daa69bdb087c9fe8d3041abca495512cb14e723070f6d1d4efface82e5d878634874288604051611fb496959493929190612ed0565b60405180910390a250505050505050565b600080600080611fd4866122de565b9350611fdf86610bb0565b905061206960038760ff1681548110612021577f4e487b7100000000000000000000000000000000000000000000000000000000600052603260045260246000fd5b90600052602060002090600302016000015461205b620186a061204d888a6127bf90919063ffffffff16565b61283a90919063ffffffff16565b6127bf90919063ffffffff16565b92506120e16120d26201518060038960ff16815481106120b2577f4e487b7100000000000000000000000000000000000000000000000000000000600052603260045260246000fd5b9060005260206000209060030201600001546127bf90919063ffffffff16565b426128f790919063ffffffff16565b915092959194509250565b600081815481106120fc57600080fd5b906000526020600020016000915090505481565b60025481565b60006121af600460008473ffffffffffffffffffffffffffffffffffffffff1673ffffffffffffffffffffffffffffffffffffffff16815260200190815260200160002060040154600460008573ffffffffffffffffffffffffffffffffffffffff1673ffffffffffffffffffffffffffffffffffffffff1681526020019081526020016000206005015461289890919063ffffffff16565b9050919050565b600047905090565b678ac7230489e8000081565b600080600090505b600460008473ffffffffffffffffffffffffffffffffffffffff1673ffffffffffffffffffffffffffffffffffffffff168152602001908152602001600020600001805490508110156122d2576122bd600460008573ffffffffffffffffffffffffffffffffffffffff1673ffffffffffffffffffffffffffffffffffffffff168152602001908152602001600020600001828154811061229c577f4e487b7100000000000000000000000000000000000000000000000000000000600052603260045260246000fd5b906000526020600020906007020160020154836128f790919063ffffffff16565b915080806122ca9061311a565b9150506121d2565b50919050565b60015481565b6000919050565b6000600460008373ffffffffffffffffffffffffffffffffffffffff1673ffffffffffffffffffffffffffffffffffffffff168152602001908152602001600020600001805490509050919050565b600080600060038460ff1681548110612376577f4e487b7100000000000000000000000000000000000000000000000000000000600052603260045260246000fd5b906000526020600020906003020160000154925060038460ff16815481106123c7577f4e487b7100000000000000000000000000000000000000000000000000000000600052603260045260246000fd5b906000526020600020906003020160010154915060038460ff1681548110612418577f4e487b7100000000000000000000000000000000000000000000000000000000600052603260045260246000fd5b90600052602060002090600302016002015490509193909250565b600080600080600080600080600460008b73ffffffffffffffffffffffffffffffffffffffff1673ffffffffffffffffffffffffffffffffffffffff16815260200190815260200160002090508060000189815481106124bc577f4e487b7100000000000000000000000000000000000000000000000000000000600052603260045260246000fd5b906000526020600020906007020160000160009054906101000a900460ff169750806000018981548110612519577f4e487b7100000000000000000000000000000000000000000000000000000000600052603260045260246000fd5b9060005260206000209060070201600101549650806000018981548110612569577f4e487b7100000000000000000000000000000000000000000000000000000000600052603260045260246000fd5b90600052602060002090600702016002015495508060000189815481106125b9577f4e487b7100000000000000000000000000000000000000000000000000000000600052603260045260246000fd5b9060005260206000209060070201600301549450806000018981548110612609577f4e487b7100000000000000000000000000000000000000000000000000000000600052603260045260246000fd5b9060005260206000209060070201600401549350806000018981548110612659577f4e487b7100000000000000000000000000000000000000000000000000000000600052603260045260246000fd5b90600052602060002090600702016005015492508060000189815481106126a9577f4e487b7100000000000000000000000000000000000000000000000000000000600052603260045260246000fd5b90600052602060002090600702016006015491505092959891949750929550565b60055481565b6000600460008373ffffffffffffffffffffffffffffffffffffffff1673ffffffffffffffffffffffffffffffffffffffff168152602001908152602001600020600101549050919050565b6000600460008373ffffffffffffffffffffffffffffffffffffffff1673ffffffffffffffffffffffffffffffffffffffff168152602001908152602001600020600601549050919050565b66b1a2bc2ec5000081565b6000600460008373ffffffffffffffffffffffffffffffffffffffff1673ffffffffffffffffffffffffffffffffffffffff168152602001908152602001600020600401549050919050565b6000808314156127d25760009050612834565b600082846127e09190613043565b90508284826127ef9190613012565b1461282f576040517f08c379a000000000000000000000000000000000000000000000000000000000815260040161282690612db9565b60405180910390fd5b809150505b92915050565b600080821161287e576040517f08c379a000000000000000000000000000000000000000000000000000000000815260040161287590612d99565b60405180910390fd5b6000828461288c9190613012565b90508091505092915050565b6000828211156128dd576040517f08c379a00000000000000000000000000000000000000000000000000000000081526004016128d490612d79565b60405180910390fd5b600082846128eb919061309d565b90508091505092915050565b60008082846129069190612fbc565b90508381101561294b576040517f08c379a000000000000000000000000000000000000000000000000000000000815260040161294290612d59565b60405180910390fd5b8091505092915050565b6000612981620186a0612973611388856127bf90919063ffffffff16565b61283a90919063ffffffff16565b9050600660009054906101000a900473ffffffffffffffffffffffffffffffffffffffff1673ffffffffffffffffffffffffffffffffffffffff166108fc829081150290604051600060405180830381858888f193505050501580156129eb573d6000803e3d6000fd5b505050565b6000813590506129ff8161335b565b92915050565b600081359050612a1481613372565b92915050565b600081359050612a2981613389565b92915050565b600060208284031215612a4157600080fd5b6000612a4f848285016129f0565b91505092915050565b60008060408385031215612a6b57600080fd5b6000612a79858286016129f0565b9250506020612a8a85828601612a05565b9150509250929050565b60008060408385031215612aa757600080fd5b6000612ab5858286016129f0565b9250506020612ac685828601612a1a565b9150509250929050565b600060208284031215612ae257600080fd5b6000612af084828501612a05565b91505092915050565b600060208284031215612b0b57600080fd5b6000612b1984828501612a1a565b91505092915050565b60008060408385031215612b3557600080fd5b6000612b4385828601612a1a565b9250506020612b5485828601612a05565b9150509250929050565b612b67816130d1565b82525050565b6000612b7a601583612fab565b9150612b85826131c1565b602082019050919050565b6000612b9d602083612fab565b9150612ba8826131ea565b602082019050919050565b6000612bc0601b83612fab565b9150612bcb82613213565b602082019050919050565b6000612be3601e83612fab565b9150612bee8261323c565b602082019050919050565b6000612c06601a83612fab565b9150612c1182613265565b602082019050919050565b6000612c29602183612fab565b9150612c348261328e565b604082019050919050565b6000612c4c600083612fa0565b9150612c57826132dd565b600082019050919050565b6000612c6f601083612fab565b9150612c7a826132e0565b602082019050919050565b6000612c92600c83612fab565b9150612c9d82613309565b602082019050919050565b6000612cb5600a83612fab565b9150612cc082613332565b602082019050919050565b612cd481613103565b82525050565b612ce38161310d565b82525050565b6000612cf482612c3f565b9150819050919050565b6000602082019050612d136000830184612b5e565b92915050565b60006020820190508181036000830152612d3281612b6d565b9050919050565b60006020820190508181036000830152612d5281612b90565b9050919050565b60006020820190508181036000830152612d7281612bb3565b9050919050565b60006020820190508181036000830152612d9281612bd6565b9050919050565b60006020820190508181036000830152612db281612bf9565b9050919050565b60006020820190508181036000830152612dd281612c1c565b9050919050565b60006020820190508181036000830152612df281612c62565b9050919050565b60006020820190508181036000830152612e1281612c85565b9050919050565b60006020820190508181036000830152612e3281612ca8565b9050919050565b6000602082019050612e4e6000830184612ccb565b92915050565b6000606082019050612e696000830186612ccb565b612e766020830185612ccb565b612e836040830184612ccb565b949350505050565b6000608082019050612ea06000830187612ccb565b612ead6020830186612ccb565b612eba6040830185612ccb565b612ec76060830184612ccb565b95945050505050565b600060c082019050612ee56000830189612cda565b612ef26020830188612ccb565b612eff6040830187612ccb565b612f0c6060830186612ccb565b612f196080830185612ccb565b612f2660a0830184612ccb565b979650505050505050565b600060e082019050612f46600083018a612cda565b612f536020830189612ccb565b612f606040830188612ccb565b612f6d6060830187612ccb565b612f7a6080830186612ccb565b612f8760a0830185612ccb565b612f9460c0830184612ccb565b98975050505050505050565b600081905092915050565b600082825260208201905092915050565b6000612fc782613103565b9150612fd283613103565b9250827fffffffffffffffffffffffffffffffffffffffffffffffffffffffffffffffff0382111561300757613006613163565b5b828201905092915050565b600061301d82613103565b915061302883613103565b92508261303857613037613192565b5b828204905092915050565b600061304e82613103565b915061305983613103565b9250817fffffffffffffffffffffffffffffffffffffffffffffffffffffffffffffffff048311821515161561309257613091613163565b5b828202905092915050565b60006130a882613103565b91506130b383613103565b9250828210156130c6576130c5613163565b5b828203905092915050565b60006130dc826130e3565b9050919050565b600073ffffffffffffffffffffffffffffffffffffffff82169050919050565b6000819050919050565b600060ff82169050919050565b600061312582613103565b91507fffffffffffffffffffffffffffffffffffffffffffffffffffffffffffffffff82141561315857613157613163565b5b600182019050919050565b7f4e487b7100000000000000000000000000000000000000000000000000000000600052601160045260246000fd5b7f4e487b7100000000000000000000000000000000000000000000000000000000600052601260045260246000fd5b7f5573657220686173206e6f206469766964656e64730000000000000000000000600082015250565b7f7769746864726177616c7320617661696c61626c65206f6e6365206120646179600082015250565b7f536166654d6174683a206164646974696f6e206f766572666c6f770000000000600082015250565b7f536166654d6174683a207375627472616374696f6e206f766572666c6f770000600082015250565b7f536166654d6174683a206469766973696f6e206279207a65726f000000000000600082015250565b7f536166654d6174683a206d756c7469706c69636174696f6e206f766572666c6f60008201527f7700000000000000000000000000000000000000000000000000000000000000602082015250565b50565b7f5472616e73666572206661696c65642e00000000000000000000000000000000600082015250565b7f496e76616c696420706c616e0000000000000000000000000000000000000000600082015250565b7f4e6f74204c61756e636800000000000000000000000000000000000000000000600082015250565b613364816130d1565b811461336f57600080fd5b50565b61337b81613103565b811461338657600080fd5b50565b6133928161310d565b811461339d57600080fd5b5056fea26469706673582212201252ca4f4168a9cfddb69a18b8517d8c1304685b208c908cbef6b941c24338b764736f6c63430008040033",
  "immutableReferences": {},
  "source": "// SPDX-License-Identifier: MIT\n/* \nCosas que tiene que tener:\n- Reinversion tradicional fija (30%).\n- Retirar cuando uno quiera, si retira pierde el hold bonus.\n- Maximo de inversion \n- 1 plan\n\nIdeas:\n- Hold bonus combinado con el porcentaje de reinversion (cada dia que pasa dejando la plata sumo interes a mi inversion, si retiro tengo que reinvertir mas)\n- Porcentaje de reinversion como tickets de loteria.\n\nPremisas:\n- Que sea duradero (minimo de 2 meses)\n*/\n\npragma solidity 0.8.4;\n\ncontract AntiWallet {\n    using SafeMath for uint256;\n\n    uint256 public constant INVEST_MAX_AMOUNT = 10 ether;\n    uint256 public constant INVEST_MIN_AMOUNT = 0.05 ether;\n\n    uint256[] public REFERRAL_PERCENTS = [40e2, 20e2, 10e2, 5e2, 5e2]; //4%,2%,1%,0.5%,0.5%\n    uint256 public constant PROJECT_FEE = 50e2;\n    uint256 public constant PERCENT_STEP = 10e2;\n    uint256 public constant PERCENTS_DIVIDER = 1000e2;\n    uint256 public constant TIME_STEP = 1 days; // 1 days\n\n    uint256 public totalStaked;\n    uint256 public totalRefBonus;\n\n    struct Plan {\n        uint256 time;\n        uint256 percent;\n        uint256 reinvest;\n    }\n\n    Plan[] internal plans;\n\n    struct Deposit {\n        uint8 plan;\n        uint256 percent;\n        uint256 amount;\n        uint256 profit;\n        uint256 start;\n        uint256 finish;\n        uint256 reinvest;\n    }\n\n    struct User {\n        Deposit[] deposits;\n        uint256 checkpoint;\n        address referrer;\n        uint256 referrals;\n        uint256 bonus;\n        uint256 totalBonus;\n        uint256 totalReinvested;\n    }\n\n    mapping(address => User) internal users;\n\n    uint256 public startUNIX;\n\n    // Propiedad privada, porque?\n    address payable private developerWallet;\n\n    event Const(uint256 data, uint256 date);\n    event Newbie(address user);\n    event NewDeposit(\n        address indexed user,\n        uint8 plan,\n        uint256 percent,\n        uint256 amount,\n        uint256 profit,\n        uint256 start,\n        uint256 finish\n    );\n    event Withdrawn(address indexed user, uint256 amount);\n    event RefBonus(\n        address indexed referrer,\n        address indexed referral,\n        uint256 indexed level,\n        uint256 amount\n    );\n\n    constructor(uint256 start) {\n        require(start > 0);\n        developerWallet = payable(msg.sender);\n        startUNIX = start;\n\n        emit Const(10, 23);\n\n        // Agregamos solo 1 plan los demas los comentamos\n        plans.push(Plan(7, 200e2, 300e2)); // 20% per day for 7 days, 30% reinvest\n        plans.push(Plan(15, 180e2, 300e2)); // 18% per day for 15 days, 30% reinvest\n        plans.push(Plan(20, 170e2, 200e2)); // 17% per day for 20 days, 20% reinvest\n    }\n\n    function feepayout(uint256 amt) internal {\n        uint256 developerfee = amt.mul(PROJECT_FEE).div(PERCENTS_DIVIDER);\n        developerWallet.transfer(developerfee);\n    }\n\n    function invest(address referrer, uint8 plan) public payable {\n        require(block.timestamp >= startUNIX, \"Not Launch\");\n        require(msg.value >= INVEST_MIN_AMOUNT);\n        require(msg.value <= INVEST_MAX_AMOUNT);\n        require(plan < 3, \"Invalid plan\");\n\n        feepayout(msg.value);\n\n        User storage user = users[msg.sender];\n\n        if (user.referrer == address(0)) {\n            if (users[referrer].deposits.length > 0 && referrer != msg.sender) {\n                user.referrer = referrer;\n            } else {\n                user.referrer = developerWallet;\n            }\n            address upline = user.referrer;\n            for (uint256 i = 0; i < 5; i++) {\n                if (upline != address(0)) {\n                    users[upline].referrals = users[upline].referrals.add(1);\n                    if (users[upline].referrer == address(0)) {\n                        users[upline].referrer = developerWallet;\n                    }\n                    upline = users[upline].referrer;\n                } else break;\n            }\n        }\n        if (user.referrer != address(0)) {\n            address upline = user.referrer;\n            for (uint256 i = 0; i < 5; i++) {\n                if (upline != address(0)) {\n                    uint256 amount =\n                        msg.value.mul(REFERRAL_PERCENTS[i]).div(\n                            PERCENTS_DIVIDER\n                        );\n                    users[upline].bonus = users[upline].bonus.add(amount);\n                    users[upline].totalBonus = users[upline].totalBonus.add(\n                        amount\n                    );\n                    emit RefBonus(upline, msg.sender, i, amount);\n                    upline = users[upline].referrer;\n                } else break;\n            }\n        }\n\n        if (user.deposits.length == 0) {\n            user.checkpoint = block.timestamp;\n            emit Newbie(msg.sender);\n        }\n\n        (uint256 percent, uint256 profit, uint256 finish, uint256 reinvest) =\n            getResult(plan, msg.value);\n        user.deposits.push(\n            Deposit(\n                plan,\n                percent,\n                msg.value,\n                profit,\n                block.timestamp,\n                finish,\n                reinvest\n            )\n        );\n\n        totalStaked = totalStaked.add(msg.value);\n        emit NewDeposit(\n            msg.sender,\n            plan,\n            percent,\n            msg.value,\n            profit,\n            block.timestamp,\n            finish\n        );\n    }\n\n    function withdraw() external {\n        User storage user = users[msg.sender];\n        require(\n            getTimer(msg.sender) < block.timestamp,\n            \"withdrawals available once a day\"\n        );\n        uint256 totalAmount;\n        uint256 totalReinvestAmount;\n\n        for (uint256 i = 0; i < user.deposits.length; i++) {\n            if (user.checkpoint < user.deposits[i].finish) {\n                uint256 share =\n                    user.deposits[i].amount.mul(user.deposits[i].percent).div(\n                        PERCENTS_DIVIDER\n                    );\n                uint256 from =\n                    user.deposits[i].start > user.checkpoint\n                        ? user.deposits[i].start\n                        : user.checkpoint;\n                uint256 to =\n                    user.deposits[i].finish < block.timestamp\n                        ? user.deposits[i].finish\n                        : block.timestamp;\n                if (from < to) {\n                    uint256 payout = share.mul(to.sub(from)).div(TIME_STEP);\n                    uint256 reinvest =\n                        payout.mul(user.deposits[i].reinvest).div(\n                            PERCENTS_DIVIDER\n                        );\n                    user.deposits[i].amount = user.deposits[i].amount.add(\n                        reinvest\n                    );\n                    payout = payout.sub(reinvest);\n                    totalAmount = totalAmount.add(payout);\n                    totalReinvestAmount = totalReinvestAmount.add(reinvest);\n                }\n            }\n        }\n\n        uint256 referralBonus = getUserReferralBonus(msg.sender);\n        if (referralBonus > 0) {\n            user.bonus = 0;\n            totalAmount = totalAmount.add(referralBonus);\n        }\n\n        user.totalReinvested = user.totalReinvested.add(totalReinvestAmount);\n        require(totalAmount > 0, \"User has no dividends\");\n        uint256 contractBalance = address(this).balance;\n        if (contractBalance < totalAmount) {\n            totalAmount = contractBalance;\n        }\n\n        user.checkpoint = block.timestamp;\n\n        (bool success, ) = msg.sender.call{value: totalAmount}(\"\");\n        require(success, \"Transfer failed.\");\n\n        emit Withdrawn(msg.sender, totalAmount);\n    }\n\n    function getContractBalance() public view returns (uint256) {\n        return address(this).balance;\n    }\n\n    function getPlanInfo(uint8 plan)\n        public\n        view\n        returns (\n            uint256 time,\n            uint256 percent,\n            uint256 reinvest\n        )\n    {\n        time = plans[plan].time;\n        percent = plans[plan].percent;\n        reinvest = plans[plan].reinvest;\n    }\n\n    function getPercent(uint8 plan) public view returns (uint256) {}\n\n    function getReinvest(uint8 plan) public view returns (uint256 reinvest) {\n        uint256 time = block.timestamp.sub(startUNIX).div(TIME_STEP);\n        if (plan == 0) {\n            if (time > 25) {\n                return 0;\n            } else {\n                return plans[plan].reinvest.sub(time.mul(20e2)); //reinvest decreases every day by 2%\n            }\n        }\n        if (plan == 1) {\n            if (time > 30) {\n                return 0;\n            } else {\n                return plans[plan].reinvest.sub(time.mul(10e2)); //reinvest decreases every day by 1%\n            }\n        }\n\n        if (plan == 2) {\n            if (time > 40) {\n                return 0;\n            } else {\n                return plans[plan].reinvest.sub(time.mul(5e2)); //reinvest decreases every day by 0.5%\n            }\n        }\n    }\n\n    function getTimer(address userAddress) public view returns (uint256) {\n        return getUserCheckpoint(userAddress).add(TIME_STEP);\n    }\n\n    function getResult(uint8 plan, uint256 deposit)\n        public\n        view\n        returns (\n            uint256 percent,\n            uint256 profit,\n            uint256 finish,\n            uint256 reinvest\n        )\n    {\n        percent = getPercent(plan);\n        reinvest = getReinvest(plan);\n\n        profit = deposit.mul(percent).div(PERCENTS_DIVIDER).mul(\n            plans[plan].time\n        );\n\n        finish = block.timestamp.add(plans[plan].time.mul(TIME_STEP));\n    }\n\n    function getUserDividends(address userAddress)\n        public\n        view\n        returns (uint256)\n    {\n        User storage user = users[userAddress];\n\n        uint256 totalAmount;\n\n        for (uint256 i = 0; i < user.deposits.length; i++) {\n            if (user.checkpoint < user.deposits[i].finish) {\n                uint256 share =\n                    user.deposits[i].amount.mul(user.deposits[i].percent).div(\n                        PERCENTS_DIVIDER\n                    );\n                uint256 from =\n                    user.deposits[i].start > user.checkpoint\n                        ? user.deposits[i].start\n                        : user.checkpoint;\n                uint256 to =\n                    user.deposits[i].finish < block.timestamp\n                        ? user.deposits[i].finish\n                        : block.timestamp;\n                if (from < to) {\n                    totalAmount = totalAmount.add(\n                        share.mul(to.sub(from)).div(TIME_STEP)\n                    );\n                }\n            }\n        }\n\n        return totalAmount;\n    }\n\n    function getUserCheckpoint(address userAddress)\n        public\n        view\n        returns (uint256)\n    {\n        return users[userAddress].checkpoint;\n    }\n\n    function getUserReinvestedAmount(address userAddress)\n        public\n        view\n        returns (uint256)\n    {\n        return users[userAddress].totalReinvested;\n    }\n\n    function getUserReferrer(address userAddress)\n        public\n        view\n        returns (address)\n    {\n        return users[userAddress].referrer;\n    }\n\n    function getUserDownlineCount(address userAddress)\n        public\n        view\n        returns (uint256)\n    {\n        return users[userAddress].referrals;\n    }\n\n    function getUserReferralBonus(address userAddress)\n        public\n        view\n        returns (uint256)\n    {\n        return users[userAddress].bonus;\n    }\n\n    function getUserReferralTotalBonus(address userAddress)\n        public\n        view\n        returns (uint256)\n    {\n        return users[userAddress].totalBonus;\n    }\n\n    function getUserReferralWithdrawn(address userAddress)\n        public\n        view\n        returns (uint256)\n    {\n        return users[userAddress].totalBonus.sub(users[userAddress].bonus);\n    }\n\n    function getUserAvailable(address userAddress)\n        public\n        view\n        returns (uint256)\n    {\n        return\n            getUserReferralBonus(userAddress).add(\n                getUserDividends(userAddress)\n            );\n    }\n\n    function getUserAmountOfDeposits(address userAddress)\n        public\n        view\n        returns (uint256)\n    {\n        return users[userAddress].deposits.length;\n    }\n\n    function getUserTotalDeposits(address userAddress)\n        public\n        view\n        returns (uint256 amount)\n    {\n        for (uint256 i = 0; i < users[userAddress].deposits.length; i++) {\n            amount = amount.add(users[userAddress].deposits[i].amount);\n        }\n    }\n\n    function getUserDepositInfo(address userAddress, uint256 index)\n        public\n        view\n        returns (\n            uint8 plan,\n            uint256 percent,\n            uint256 amount,\n            uint256 profit,\n            uint256 start,\n            uint256 finish,\n            uint256 reinvest\n        )\n    {\n        User storage user = users[userAddress];\n\n        plan = user.deposits[index].plan;\n        percent = user.deposits[index].percent;\n        amount = user.deposits[index].amount;\n        profit = user.deposits[index].profit;\n        start = user.deposits[index].start;\n        finish = user.deposits[index].finish;\n        reinvest = user.deposits[index].reinvest;\n    }\n\n    function isContract(address addr) internal view returns (bool) {\n        uint256 size;\n        assembly {\n            size := extcodesize(addr)\n        }\n        return size > 0;\n    }\n\n    function minZero(uint256 a, uint256 b) internal pure returns (uint256) {\n        if (a > b) {\n            return a - b;\n        } else {\n            return 0;\n        }\n    }\n\n    function maxVal(uint256 a, uint256 b) internal pure returns (uint256) {\n        if (a > b) {\n            return a;\n        } else {\n            return b;\n        }\n    }\n\n    function minVal(uint256 a, uint256 b) internal pure returns (uint256) {\n        if (a > b) {\n            return b;\n        } else {\n            return a;\n        }\n    }\n}\n\nlibrary SafeMath {\n    function add(uint256 a, uint256 b) internal pure returns (uint256) {\n        uint256 c = a + b;\n        require(c >= a, \"SafeMath: addition overflow\");\n        return c;\n    }\n\n    function sub(uint256 a, uint256 b) internal pure returns (uint256) {\n        require(b <= a, \"SafeMath: subtraction overflow\");\n        uint256 c = a - b;\n        return c;\n    }\n\n    function mul(uint256 a, uint256 b) internal pure returns (uint256) {\n        if (a == 0) {\n            return 0;\n        }\n        uint256 c = a * b;\n        require(c / a == b, \"SafeMath: multiplication overflow\");\n        return c;\n    }\n\n    function div(uint256 a, uint256 b) internal pure returns (uint256) {\n        require(b > 0, \"SafeMath: division by zero\");\n        uint256 c = a / b;\n        return c;\n    }\n\n    function mod(uint256 a, uint256 b) internal pure returns (uint256) {\n        return a % b;\n    }\n}\n",
  "sourcePath": "/home/madim/Desktop/proyectos/BNBHold/contracts/AntiWallet.sol",
  "compiler": {
    "name": "solc",
    "version": "0.8.4+commit.c7e474f2.Emscripten.clang"
  },
  "schemaVersion": "3.4.0",
  "updatedAt": "2021-05-01T03:07:42.502Z",
  "networkType": "ethereum",
  "devdoc": {
    "kind": "dev",
    "methods": {},
    "version": 1
  },
  "userdoc": {
    "kind": "user",
    "methods": {},
    "version": 1
  }
}