{
  "contractName": "ThunderHold",
  "abi": [
    {
      "inputs": [
        {
          "internalType": "address payable",
          "name": "wallet",
          "type": "address"
        },
        {
          "internalType": "uint256",
          "name": "start",
          "type": "uint256"
        }
      ],
      "stateMutability": "nonpayable",
      "type": "constructor"
    },
    {
      "anonymous": false,
      "inputs": [
        {
          "indexed": true,
          "internalType": "address",
          "name": "user",
          "type": "address"
        },
        {
          "indexed": false,
          "internalType": "uint8",
          "name": "plan",
          "type": "uint8"
        },
        {
          "indexed": false,
          "internalType": "uint256",
          "name": "percent",
          "type": "uint256"
        },
        {
          "indexed": false,
          "internalType": "uint256",
          "name": "amount",
          "type": "uint256"
        },
        {
          "indexed": false,
          "internalType": "uint256",
          "name": "profit",
          "type": "uint256"
        },
        {
          "indexed": false,
          "internalType": "uint256",
          "name": "start",
          "type": "uint256"
        },
        {
          "indexed": false,
          "internalType": "uint256",
          "name": "finish",
          "type": "uint256"
        }
      ],
      "name": "NewDeposit",
      "type": "event"
    },
    {
      "anonymous": false,
      "inputs": [
        {
          "indexed": true,
          "internalType": "address",
          "name": "user",
          "type": "address"
        },
        {
          "indexed": false,
          "internalType": "uint256",
          "name": "amount",
          "type": "uint256"
        },
        {
          "indexed": false,
          "internalType": "uint256",
          "name": "pt",
          "type": "uint256"
        }
      ],
      "name": "NewParticipantLotto",
      "type": "event"
    },
    {
      "anonymous": false,
      "inputs": [
        {
          "indexed": false,
          "internalType": "address",
          "name": "user",
          "type": "address"
        }
      ],
      "name": "Newbie",
      "type": "event"
    },
    {
      "anonymous": false,
      "inputs": [
        {
          "indexed": true,
          "internalType": "address",
          "name": "referrer",
          "type": "address"
        },
        {
          "indexed": true,
          "internalType": "address",
          "name": "referral",
          "type": "address"
        },
        {
          "indexed": true,
          "internalType": "uint256",
          "name": "level",
          "type": "uint256"
        },
        {
          "indexed": false,
          "internalType": "uint256",
          "name": "amount",
          "type": "uint256"
        }
      ],
      "name": "RefBonus",
      "type": "event"
    },
    {
      "anonymous": false,
      "inputs": [
        {
          "indexed": true,
          "internalType": "address",
          "name": "user",
          "type": "address"
        },
        {
          "indexed": false,
          "internalType": "uint256",
          "name": "amount",
          "type": "uint256"
        }
      ],
      "name": "Withdrawn",
      "type": "event"
    },
    {
      "inputs": [],
      "name": "INVEST_MAX_AMOUNT",
      "outputs": [
        {
          "internalType": "uint256",
          "name": "",
          "type": "uint256"
        }
      ],
      "stateMutability": "view",
      "type": "function"
    },
    {
      "inputs": [],
      "name": "INVEST_MIN_AMOUNT",
      "outputs": [
        {
          "internalType": "uint256",
          "name": "",
          "type": "uint256"
        }
      ],
      "stateMutability": "view",
      "type": "function"
    },
    {
      "inputs": [],
      "name": "MARKETING_FEE",
      "outputs": [
        {
          "internalType": "uint256",
          "name": "",
          "type": "uint256"
        }
      ],
      "stateMutability": "view",
      "type": "function"
    },
    {
      "inputs": [],
      "name": "PERCENTS_DIVIDER",
      "outputs": [
        {
          "internalType": "uint256",
          "name": "",
          "type": "uint256"
        }
      ],
      "stateMutability": "view",
      "type": "function"
    },
    {
      "inputs": [],
      "name": "PERCENT_STEP",
      "outputs": [
        {
          "internalType": "uint256",
          "name": "",
          "type": "uint256"
        }
      ],
      "stateMutability": "view",
      "type": "function"
    },
    {
      "inputs": [],
      "name": "PROJECT_FEE",
      "outputs": [
        {
          "internalType": "uint256",
          "name": "",
          "type": "uint256"
        }
      ],
      "stateMutability": "view",
      "type": "function"
    },
    {
      "inputs": [
        {
          "internalType": "uint256",
          "name": "",
          "type": "uint256"
        }
      ],
      "name": "REFERRAL_PERCENTS",
      "outputs": [
        {
          "internalType": "uint256",
          "name": "",
          "type": "uint256"
        }
      ],
      "stateMutability": "view",
      "type": "function"
    },
    {
      "inputs": [],
      "name": "TIME_STEP",
      "outputs": [
        {
          "internalType": "uint256",
          "name": "",
          "type": "uint256"
        }
      ],
      "stateMutability": "view",
      "type": "function"
    },
    {
      "inputs": [],
      "name": "startUNIX",
      "outputs": [
        {
          "internalType": "uint256",
          "name": "",
          "type": "uint256"
        }
      ],
      "stateMutability": "view",
      "type": "function"
    },
    {
      "inputs": [],
      "name": "totalRefBonus",
      "outputs": [
        {
          "internalType": "uint256",
          "name": "",
          "type": "uint256"
        }
      ],
      "stateMutability": "view",
      "type": "function"
    },
    {
      "inputs": [],
      "name": "totalStaked",
      "outputs": [
        {
          "internalType": "uint256",
          "name": "",
          "type": "uint256"
        }
      ],
      "stateMutability": "view",
      "type": "function"
    },
    {
      "inputs": [
        {
          "internalType": "address",
          "name": "referrer",
          "type": "address"
        },
        {
          "internalType": "uint8",
          "name": "plan",
          "type": "uint8"
        }
      ],
      "name": "invest",
      "outputs": [],
      "stateMutability": "payable",
      "type": "function"
    },
    {
      "inputs": [],
      "name": "withdraw",
      "outputs": [],
      "stateMutability": "nonpayable",
      "type": "function"
    },
    {
      "inputs": [
        {
          "internalType": "uint256",
          "name": "ticketsQuantity",
          "type": "uint256"
        }
      ],
      "name": "lottoDeposit",
      "outputs": [],
      "stateMutability": "payable",
      "type": "function"
    },
    {
      "inputs": [],
      "name": "getContractBalance",
      "outputs": [
        {
          "internalType": "uint256",
          "name": "",
          "type": "uint256"
        }
      ],
      "stateMutability": "view",
      "type": "function"
    },
    {
      "inputs": [
        {
          "internalType": "uint8",
          "name": "plan",
          "type": "uint8"
        }
      ],
      "name": "getPlanInfo",
      "outputs": [
        {
          "internalType": "uint256",
          "name": "time",
          "type": "uint256"
        },
        {
          "internalType": "uint256",
          "name": "percent",
          "type": "uint256"
        },
        {
          "internalType": "uint256",
          "name": "reinvest",
          "type": "uint256"
        }
      ],
      "stateMutability": "view",
      "type": "function"
    },
    {
      "inputs": [
        {
          "internalType": "address",
          "name": "userAddress",
          "type": "address"
        }
      ],
      "name": "getUserLottoRate",
      "outputs": [
        {
          "internalType": "uint256",
          "name": "",
          "type": "uint256"
        }
      ],
      "stateMutability": "view",
      "type": "function"
    },
    {
      "inputs": [
        {
          "internalType": "uint8",
          "name": "plan",
          "type": "uint8"
        }
      ],
      "name": "getPercent",
      "outputs": [
        {
          "internalType": "uint256",
          "name": "",
          "type": "uint256"
        }
      ],
      "stateMutability": "view",
      "type": "function"
    },
    {
      "inputs": [
        {
          "internalType": "uint8",
          "name": "plan",
          "type": "uint8"
        }
      ],
      "name": "getReinvest",
      "outputs": [
        {
          "internalType": "uint256",
          "name": "reinvest",
          "type": "uint256"
        }
      ],
      "stateMutability": "view",
      "type": "function"
    },
    {
      "inputs": [
        {
          "internalType": "address",
          "name": "userAddress",
          "type": "address"
        }
      ],
      "name": "getTimer",
      "outputs": [
        {
          "internalType": "uint256",
          "name": "",
          "type": "uint256"
        }
      ],
      "stateMutability": "view",
      "type": "function"
    },
    {
      "inputs": [
        {
          "internalType": "uint8",
          "name": "plan",
          "type": "uint8"
        },
        {
          "internalType": "uint256",
          "name": "deposit",
          "type": "uint256"
        }
      ],
      "name": "getResult",
      "outputs": [
        {
          "internalType": "uint256",
          "name": "percent",
          "type": "uint256"
        },
        {
          "internalType": "uint256",
          "name": "profit",
          "type": "uint256"
        },
        {
          "internalType": "uint256",
          "name": "finish",
          "type": "uint256"
        },
        {
          "internalType": "uint256",
          "name": "reinvest",
          "type": "uint256"
        }
      ],
      "stateMutability": "view",
      "type": "function"
    },
    {
      "inputs": [
        {
          "internalType": "address",
          "name": "userAddress",
          "type": "address"
        }
      ],
      "name": "getUserDividends",
      "outputs": [
        {
          "internalType": "uint256",
          "name": "",
          "type": "uint256"
        }
      ],
      "stateMutability": "view",
      "type": "function"
    },
    {
      "inputs": [
        {
          "internalType": "address",
          "name": "userAddress",
          "type": "address"
        }
      ],
      "name": "getUserCheckpoint",
      "outputs": [
        {
          "internalType": "uint256",
          "name": "",
          "type": "uint256"
        }
      ],
      "stateMutability": "view",
      "type": "function"
    },
    {
      "inputs": [
        {
          "internalType": "address",
          "name": "userAddress",
          "type": "address"
        }
      ],
      "name": "getUserReinvestedAmount",
      "outputs": [
        {
          "internalType": "uint256",
          "name": "",
          "type": "uint256"
        }
      ],
      "stateMutability": "view",
      "type": "function"
    },
    {
      "inputs": [
        {
          "internalType": "address",
          "name": "userAddress",
          "type": "address"
        }
      ],
      "name": "getUserReferrer",
      "outputs": [
        {
          "internalType": "address",
          "name": "",
          "type": "address"
        }
      ],
      "stateMutability": "view",
      "type": "function"
    },
    {
      "inputs": [
        {
          "internalType": "address",
          "name": "userAddress",
          "type": "address"
        }
      ],
      "name": "getUserDownlineCount",
      "outputs": [
        {
          "internalType": "uint256",
          "name": "",
          "type": "uint256"
        }
      ],
      "stateMutability": "view",
      "type": "function"
    },
    {
      "inputs": [
        {
          "internalType": "address",
          "name": "userAddress",
          "type": "address"
        }
      ],
      "name": "getUserReferralBonus",
      "outputs": [
        {
          "internalType": "uint256",
          "name": "",
          "type": "uint256"
        }
      ],
      "stateMutability": "view",
      "type": "function"
    },
    {
      "inputs": [
        {
          "internalType": "address",
          "name": "userAddress",
          "type": "address"
        }
      ],
      "name": "getUserReferralTotalBonus",
      "outputs": [
        {
          "internalType": "uint256",
          "name": "",
          "type": "uint256"
        }
      ],
      "stateMutability": "view",
      "type": "function"
    },
    {
      "inputs": [
        {
          "internalType": "address",
          "name": "userAddress",
          "type": "address"
        }
      ],
      "name": "getUserReferralWithdrawn",
      "outputs": [
        {
          "internalType": "uint256",
          "name": "",
          "type": "uint256"
        }
      ],
      "stateMutability": "view",
      "type": "function"
    },
    {
      "inputs": [
        {
          "internalType": "address",
          "name": "userAddress",
          "type": "address"
        }
      ],
      "name": "getUserAvailable",
      "outputs": [
        {
          "internalType": "uint256",
          "name": "",
          "type": "uint256"
        }
      ],
      "stateMutability": "view",
      "type": "function"
    },
    {
      "inputs": [
        {
          "internalType": "address",
          "name": "userAddress",
          "type": "address"
        }
      ],
      "name": "getUserAmountOfDeposits",
      "outputs": [
        {
          "internalType": "uint256",
          "name": "",
          "type": "uint256"
        }
      ],
      "stateMutability": "view",
      "type": "function"
    },
    {
      "inputs": [
        {
          "internalType": "address",
          "name": "userAddress",
          "type": "address"
        }
      ],
      "name": "getUserTotalDeposits",
      "outputs": [
        {
          "internalType": "uint256",
          "name": "amount",
          "type": "uint256"
        }
      ],
      "stateMutability": "view",
      "type": "function"
    },
    {
      "inputs": [
        {
          "internalType": "address",
          "name": "userAddress",
          "type": "address"
        },
        {
          "internalType": "uint256",
          "name": "index",
          "type": "uint256"
        }
      ],
      "name": "getUserDepositInfo",
      "outputs": [
        {
          "internalType": "uint8",
          "name": "plan",
          "type": "uint8"
        },
        {
          "internalType": "uint256",
          "name": "percent",
          "type": "uint256"
        },
        {
          "internalType": "uint256",
          "name": "amount",
          "type": "uint256"
        },
        {
          "internalType": "uint256",
          "name": "profit",
          "type": "uint256"
        },
        {
          "internalType": "uint256",
          "name": "start",
          "type": "uint256"
        },
        {
          "internalType": "uint256",
          "name": "finish",
          "type": "uint256"
        },
        {
          "internalType": "uint256",
          "name": "reinvest",
          "type": "uint256"
        }
      ],
      "stateMutability": "view",
      "type": "function"
    },
    {
      "inputs": [],
      "name": "getlottoStats",
      "outputs": [
        {
          "internalType": "address",
          "name": "",
          "type": "address"
        },
        {
          "internalType": "address",
          "name": "",
          "type": "address"
        },
        {
          "internalType": "address",
          "name": "",
          "type": "address"
        },
        {
          "internalType": "address",
          "name": "",
          "type": "address"
        },
        {
          "internalType": "address",
          "name": "",
          "type": "address"
        },
        {
          "internalType": "uint256",
          "name": "",
          "type": "uint256"
        },
        {
          "internalType": "uint256",
          "name": "",
          "type": "uint256"
        },
        {
          "internalType": "uint256",
          "name": "",
          "type": "uint256"
        },
        {
          "internalType": "uint256",
          "name": "",
          "type": "uint256"
        },
        {
          "internalType": "uint256",
          "name": "",
          "type": "uint256"
        },
        {
          "internalType": "uint256",
          "name": "",
          "type": "uint256"
        },
        {
          "internalType": "uint256",
          "name": "",
          "type": "uint256"
        }
      ],
      "stateMutability": "view",
      "type": "function"
    },
    {
      "inputs": [],
      "name": "getlottoLastPrizes",
      "outputs": [
        {
          "internalType": "uint256",
          "name": "",
          "type": "uint256"
        },
        {
          "internalType": "uint256",
          "name": "",
          "type": "uint256"
        },
        {
          "internalType": "uint256",
          "name": "",
          "type": "uint256"
        },
        {
          "internalType": "uint256",
          "name": "",
          "type": "uint256"
        },
        {
          "internalType": "uint256",
          "name": "",
          "type": "uint256"
        }
      ],
      "stateMutability": "view",
      "type": "function"
    },
    {
      "inputs": [
        {
          "internalType": "address",
          "name": "userAddress",
          "type": "address"
        }
      ],
      "name": "getUserlottoStats",
      "outputs": [
        {
          "internalType": "uint256",
          "name": "",
          "type": "uint256"
        },
        {
          "internalType": "uint256",
          "name": "",
          "type": "uint256"
        },
        {
          "internalType": "uint256",
          "name": "",
          "type": "uint256"
        }
      ],
      "stateMutability": "view",
      "type": "function"
    }
  ],
  "bytecode": "0x60806040526040518060a00160405280610fa061ffff1681526020016107d061ffff1681526020016103e861ffff1681526020016101f461ffff1681526020016101f461ffff1681525060009060056200005b92919062000215565b506040518060a00160405280601960ff168152602001600f60ff168152602001600a60ff168152602001600560ff168152602001600260ff168152506001906005620000a99291906200026d565b50348015620000b757600080fd5b5060405162005a5038038062005a508339818101604052810190620000dd919062000311565b620000ee826200020260201b60201c565b158015620000fc5750600081115b6200010657600080fd5b81601860006101000a81548173ffffffffffffffffffffffffffffffffffffffff021916908373ffffffffffffffffffffffffffffffffffffffff16021790555033601960006101000a81548173ffffffffffffffffffffffffffffffffffffffff021916908373ffffffffffffffffffffffffffffffffffffffff160217905550806017819055506014604051806060016040528060078152602001614e208152602001617530815250908060018154018082558091505060019003906000526020600020906003020160009091909190915060008201518160000155602082015181600101556040820151816002015550505050620003c4565b600080823b905060008111915050919050565b8280548282559060005260206000209081019282156200025a579160200282015b8281111562000259578251829061ffff1690559160200191906001019062000236565b5b509050620002699190620002c4565b5090565b828054828255906000526020600020908101928215620002b1579160200282015b82811115620002b0578251829060ff169055916020019190600101906200028e565b5b509050620002c09190620002c4565b5090565b5b80821115620002df576000816000905550600101620002c5565b5090565b600081519050620002f48162000390565b92915050565b6000815190506200030b81620003aa565b92915050565b600080604083850312156200032557600080fd5b60006200033585828601620002e3565b92505060206200034885828601620002fa565b9150509250929050565b60006200035f8262000366565b9050919050565b600073ffffffffffffffffffffffffffffffffffffffff82169050919050565b6000819050919050565b6200039b8162000352565b8114620003a757600080fd5b50565b620003b58162000386565b8114620003c157600080fd5b50565b61567c80620003d46000396000f3fe60806040526004361061020f5760003560e01c806369b11dd511610118578063aecaa634116100a0578063d7ffca911161006f578063d7ffca9114610861578063dba906981461089e578063e262113e146108db578063e85abe0914610906578063f64ab375146109435761020f565b8063aecaa63414610789578063af3e2122146107c8578063c0806b03146107f3578063c2341238146108365761020f565b80637e3abeea116100e75780637e3abeea146106685780637f75567f146106a5578063817b1cd2146106e4578063a51b95331461070f578063a8aeb6c21461074c5761020f565b806369b11dd5146105aa5780636bb18556146105d55780636f9fb98a146106125780637d8cb7a21461063d5761020f565b806348c372031161019b578063581c5ae61161016a578063581c5ae6146104bf5780635936cf61146104db5780635f9c86301461051b578063600d20ce1461053757806365938a60146105745761020f565b806348c37203146103ef57806348d44bd11461042c5780634aa7c0031461045757806357fc86b4146104945761020f565b80631531f016116101e25780631531f016146102f6578063153ab9df1461033357806332bc298c1461037057806336144c9a1461039b5780633ccfd60b146103d85761020f565b806301c234a81461021457806303a93c0c1461023f578063040a772e1461027c57806306903e1c146102b9575b600080fd5b34801561022057600080fd5b50610229610972565b6040516102369190614fc5565b60405180910390f35b34801561024b57600080fd5b5061026660048036038101906102619190614a70565b610979565b6040516102739190614fc5565b60405180910390f35b34801561028857600080fd5b506102a3600480360381019061029e9190614a70565b6109c5565b6040516102b09190614fc5565b60405180910390f35b3480156102c557600080fd5b506102e060048036038101906102db9190614b3a565b610d1a565b6040516102ed9190614fc5565b60405180910390f35b34801561030257600080fd5b5061031d60048036038101906103189190614a70565b610f24565b60405161032a9190614fc5565b60405180910390f35b34801561033f57600080fd5b5061035a60048036038101906103559190614a70565b610f4b565b6040516103679190614fc5565b60405180910390f35b34801561037c57600080fd5b50610385610f77565b6040516103929190614fc5565b60405180910390f35b3480156103a757600080fd5b506103c260048036038101906103bd9190614a70565b610f7e565b6040516103cf9190614d70565b60405180910390f35b3480156103e457600080fd5b506103ed610fea565b005b3480156103fb57600080fd5b5061041660048036038101906104119190614a70565b611625565b6040516104239190614fc5565b60405180910390f35b34801561043857600080fd5b50610441611671565b60405161044e9190614fc5565b60405180910390f35b34801561046357600080fd5b5061047e60048036038101906104799190614a70565b611677565b60405161048b9190614fc5565b60405180910390f35b3480156104a057600080fd5b506104a96116e7565b6040516104b69190614fc5565b60405180910390f35b6104d960048036038101906104d49190614ad5565b6116ed565b005b3480156104e757600080fd5b5061050260048036038101906104fd9190614b63565b61213d565b6040516105129493929190615040565b60405180910390f35b61053560048036038101906105309190614b11565b612264565b005b34801561054357600080fd5b5061055e60048036038101906105599190614b11565b612695565b60405161056b9190614fc5565b60405180910390f35b34801561058057600080fd5b506105896126b9565b6040516105a19c9b9a99989796959493929190614d8b565b60405180910390f35b3480156105b657600080fd5b506105bf6127bb565b6040516105cc9190614fc5565b60405180910390f35b3480156105e157600080fd5b506105fc60048036038101906105f79190614a70565b6127c1565b6040516106099190614fc5565b60405180910390f35b34801561061e57600080fd5b50610627612861565b6040516106349190614fc5565b60405180910390f35b34801561064957600080fd5b50610652612869565b60405161065f9190614fc5565b60405180910390f35b34801561067457600080fd5b5061068f600480360381019061068a9190614a70565b612877565b60405161069c9190614fc5565b60405180910390f35b3480156106b157600080fd5b506106cc60048036038101906106c79190614a70565b612985565b6040516106db93929190615009565b60405180910390f35b3480156106f057600080fd5b506106f9612b55565b6040516107069190614fc5565b60405180910390f35b34801561071b57600080fd5b5061073660048036038101906107319190614b3a565b612b5b565b6040516107439190614fc5565b60405180910390f35b34801561075857600080fd5b50610773600480360381019061076e9190614a70565b612c83565b6040516107809190614fc5565b60405180910390f35b34801561079557600080fd5b506107b060048036038101906107ab9190614b3a565b612cd2565b6040516107bf93929190615009565b60405180910390f35b3480156107d457600080fd5b506107dd612dd1565b6040516107ea9190614fc5565b60405180910390f35b3480156107ff57600080fd5b5061081a60048036038101906108159190614a99565b612dd7565b60405161082d9796959493929190615139565b60405180910390f35b34801561084257600080fd5b5061084b61306e565b6040516108589190614fc5565b60405180910390f35b34801561086d57600080fd5b5061088860048036038101906108839190614a70565b613074565b6040516108959190614fc5565b60405180910390f35b3480156108aa57600080fd5b506108c560048036038101906108c09190614a70565b6130c0565b6040516108d29190614fc5565b60405180910390f35b3480156108e757600080fd5b506108f061310c565b6040516108fd9190614fc5565b60405180910390f35b34801561091257600080fd5b5061092d60048036038101906109289190614a70565b613119565b60405161093a9190614fc5565b60405180910390f35b34801561094f57600080fd5b50610958613165565b604051610969959493929190615085565b60405180910390f35b620186a081565b6000601560008373ffffffffffffffffffffffffffffffffffffffff1673ffffffffffffffffffffffffffffffffffffffff168152602001908152602001600020600301549050919050565b600080601560008473ffffffffffffffffffffffffffffffffffffffff1673ffffffffffffffffffffffffffffffffffffffff1681526020019081526020016000209050600080600090505b8260000180549050811015610d0f57826000018181548110610a5c577f4e487b7100000000000000000000000000000000000000000000000000000000600052603260045260246000fd5b90600052602060002090600702016005015483600101541015610cfc576000610b3d620186a0610b2f866000018581548110610ac1577f4e487b7100000000000000000000000000000000000000000000000000000000600052603260045260246000fd5b906000526020600020906007020160010154876000018681548110610b0f577f4e487b7100000000000000000000000000000000000000000000000000000000600052603260045260246000fd5b90600052602060002090600702016002015461318d90919063ffffffff16565b61320890919063ffffffff16565b905060008460010154856000018481548110610b82577f4e487b7100000000000000000000000000000000000000000000000000000000600052603260045260246000fd5b90600052602060002090600702016004015411610ba3578460010154610bf2565b846000018381548110610bdf577f4e487b7100000000000000000000000000000000000000000000000000000000600052603260045260246000fd5b9060005260206000209060070201600401545b9050600042866000018581548110610c33577f4e487b7100000000000000000000000000000000000000000000000000000000600052603260045260246000fd5b90600052602060002090600702016005015410610c505742610c9f565b856000018481548110610c8c577f4e487b7100000000000000000000000000000000000000000000000000000000600052603260045260246000fd5b9060005260206000209060070201600501545b905080821015610cf857610cf5610ce662015180610cd8610cc9868661326690919063ffffffff16565b8761318d90919063ffffffff16565b61320890919063ffffffff16565b866132c590919063ffffffff16565b94505b5050505b8080610d0790615317565b915050610a11565b508092505050919050565b600080610d4762015180610d396017544261326690919063ffffffff16565b61320890919063ffffffff16565b905060008360ff161415610de5576019811115610d68576000915050610f1f565b610ddd610d806107d08361318d90919063ffffffff16565b60148560ff1681548110610dbd577f4e487b7100000000000000000000000000000000000000000000000000000000600052603260045260246000fd5b90600052602060002090600302016002015461326690919063ffffffff16565b915050610f1f565b60018360ff161415610e8157601e811115610e04576000915050610f1f565b610e79610e1c6103e88361318d90919063ffffffff16565b60148560ff1681548110610e59577f4e487b7100000000000000000000000000000000000000000000000000000000600052603260045260246000fd5b90600052602060002090600302016002015461326690919063ffffffff16565b915050610f1f565b60028360ff161415610f1d576028811115610ea0576000915050610f1f565b610f15610eb86101f48361318d90919063ffffffff16565b60148560ff1681548110610ef5577f4e487b7100000000000000000000000000000000000000000000000000000000600052603260045260246000fd5b90600052602060002090600302016002015461326690919063ffffffff16565b915050610f1f565b505b919050565b6000610f4462015180610f3684613074565b6132c590919063ffffffff16565b9050919050565b6000610f70610f59836109c5565b610f6284613119565b6132c590919063ffffffff16565b9050919050565b6201518081565b6000601560008373ffffffffffffffffffffffffffffffffffffffff1673ffffffffffffffffffffffffffffffffffffffff16815260200190815260200160002060020160009054906101000a900473ffffffffffffffffffffffffffffffffffffffff169050919050565b6000601560003373ffffffffffffffffffffffffffffffffffffffff1673ffffffffffffffffffffffffffffffffffffffff16815260200190815260200160002090504261103733610f24565b10611077576040517f08c379a000000000000000000000000000000000000000000000000000000000815260040161106e90614e65565b60405180910390fd5b60008060005b83600001805490508110156114d6578360000181815481106110c8577f4e487b7100000000000000000000000000000000000000000000000000000000600052603260045260246000fd5b906000526020600020906007020160050154846001015410156114c35760006111a9620186a061119b87600001858154811061112d577f4e487b7100000000000000000000000000000000000000000000000000000000600052603260045260246000fd5b90600052602060002090600702016001015488600001868154811061117b577f4e487b7100000000000000000000000000000000000000000000000000000000600052603260045260246000fd5b90600052602060002090600702016002015461318d90919063ffffffff16565b61320890919063ffffffff16565b9050600085600101548660000184815481106111ee577f4e487b7100000000000000000000000000000000000000000000000000000000600052603260045260246000fd5b9060005260206000209060070201600401541161120f57856001015461125e565b85600001838154811061124b577f4e487b7100000000000000000000000000000000000000000000000000000000600052603260045260246000fd5b9060005260206000209060070201600401545b905060004287600001858154811061129f577f4e487b7100000000000000000000000000000000000000000000000000000000600052603260045260246000fd5b906000526020600020906007020160050154106112bc574261130b565b8660000184815481106112f8577f4e487b7100000000000000000000000000000000000000000000000000000000600052603260045260246000fd5b9060005260206000209060070201600501545b9050808210156114bf57600061135162015180611343611334868661326690919063ffffffff16565b8761318d90919063ffffffff16565b61320890919063ffffffff16565b905060006113ca620186a06113bc8b600001898154811061139b577f4e487b7100000000000000000000000000000000000000000000000000000000600052603260045260246000fd5b9060005260206000209060070201600601548561318d90919063ffffffff16565b61320890919063ffffffff16565b905061142c818a600001888154811061140c577f4e487b7100000000000000000000000000000000000000000000000000000000600052603260045260246000fd5b9060005260206000209060070201600201546132c590919063ffffffff16565b896000018781548110611468577f4e487b7100000000000000000000000000000000000000000000000000000000600052603260045260246000fd5b906000526020600020906007020160020181905550611490818361326690919063ffffffff16565b91506114a582896132c590919063ffffffff16565b97506114ba81886132c590919063ffffffff16565b965050505b5050505b80806114ce90615317565b91505061107d565b5060006114e233613119565b9050600081111561150d576000846004018190555061150a81846132c590919063ffffffff16565b92505b6115248285600601546132c590919063ffffffff16565b84600601819055506000831161156f576040517f08c379a000000000000000000000000000000000000000000000000000000000815260040161156690614e45565b60405180910390fd5b600047905083811015611580578093505b4285600101819055503373ffffffffffffffffffffffffffffffffffffffff166108fc859081150290604051600060405180830381858888f193505050501580156115cf573d6000803e3d6000fd5b503373ffffffffffffffffffffffffffffffffffffffff167f7084f5476618d8e60b11ef0d7d3f06914655adb8793e28ff7f018d4c76d505d5856040516116169190614fc5565b60405180910390a25050505050565b6000601560008373ffffffffffffffffffffffffffffffffffffffff1673ffffffffffffffffffffffffffffffffffffffff168152602001908152602001600020600501549050919050565b61138881565b600080601560008473ffffffffffffffffffffffffffffffffffffffff1673ffffffffffffffffffffffffffffffffffffffff168152602001908152602001600020905060008160080154905060006116da82600561318d90919063ffffffff16565b9050809350505050919050565b6103e881565b601754421015611732576040517f08c379a000000000000000000000000000000000000000000000000000000000815260040161172990614fa5565b60405180910390fd5b681b1ae4d6e2ef50000034101561174857600080fd5b69152d02c7e14af680000034111561175f57600080fd5b60038160ff16106117a5576040517f08c379a000000000000000000000000000000000000000000000000000000000815260040161179c90614f85565b60405180910390fd5b6117ae34613323565b6000601560003373ffffffffffffffffffffffffffffffffffffffff1673ffffffffffffffffffffffffffffffffffffffff1681526020019081526020016000209050600073ffffffffffffffffffffffffffffffffffffffff168160020160009054906101000a900473ffffffffffffffffffffffffffffffffffffffff1673ffffffffffffffffffffffffffffffffffffffff161415611c43576000601560008573ffffffffffffffffffffffffffffffffffffffff1673ffffffffffffffffffffffffffffffffffffffff168152602001908152602001600020600001805490501180156118cb57503373ffffffffffffffffffffffffffffffffffffffff168373ffffffffffffffffffffffffffffffffffffffff1614155b1561191857828160020160006101000a81548173ffffffffffffffffffffffffffffffffffffffff021916908373ffffffffffffffffffffffffffffffffffffffff16021790555061197e565b601960009054906101000a900473ffffffffffffffffffffffffffffffffffffffff168160020160006101000a81548173ffffffffffffffffffffffffffffffffffffffff021916908373ffffffffffffffffffffffffffffffffffffffff1602179055505b60008160020160009054906101000a900473ffffffffffffffffffffffffffffffffffffffff16905060005b6005811015611c4057600073ffffffffffffffffffffffffffffffffffffffff168273ffffffffffffffffffffffffffffffffffffffff1614611c2857611a3d6001601560008573ffffffffffffffffffffffffffffffffffffffff1673ffffffffffffffffffffffffffffffffffffffff168152602001908152602001600020600301546132c590919063ffffffff16565b601560008473ffffffffffffffffffffffffffffffffffffffff1673ffffffffffffffffffffffffffffffffffffffff16815260200190815260200160002060030181905550600073ffffffffffffffffffffffffffffffffffffffff16601560008473ffffffffffffffffffffffffffffffffffffffff1673ffffffffffffffffffffffffffffffffffffffff16815260200190815260200160002060020160009054906101000a900473ffffffffffffffffffffffffffffffffffffffff1673ffffffffffffffffffffffffffffffffffffffff161415611bbe57601960009054906101000a900473ffffffffffffffffffffffffffffffffffffffff16601560008473ffffffffffffffffffffffffffffffffffffffff1673ffffffffffffffffffffffffffffffffffffffff16815260200190815260200160002060020160006101000a81548173ffffffffffffffffffffffffffffffffffffffff021916908373ffffffffffffffffffffffffffffffffffffffff1602179055505b601560008373ffffffffffffffffffffffffffffffffffffffff1673ffffffffffffffffffffffffffffffffffffffff16815260200190815260200160002060020160009054906101000a900473ffffffffffffffffffffffffffffffffffffffff169150611c2d565b611c40565b8080611c3890615317565b9150506119aa565b50505b600073ffffffffffffffffffffffffffffffffffffffff168160020160009054906101000a900473ffffffffffffffffffffffffffffffffffffffff1673ffffffffffffffffffffffffffffffffffffffff1614611f965760008160020160009054906101000a900473ffffffffffffffffffffffffffffffffffffffff16905060005b6005811015611f9357600073ffffffffffffffffffffffffffffffffffffffff168273ffffffffffffffffffffffffffffffffffffffff1614611f7b576000611d72620186a0611d6460008581548110611d4a577f4e487b7100000000000000000000000000000000000000000000000000000000600052603260045260246000fd5b90600052602060002001543461318d90919063ffffffff16565b61320890919063ffffffff16565b9050611dc981601560008673ffffffffffffffffffffffffffffffffffffffff1673ffffffffffffffffffffffffffffffffffffffff168152602001908152602001600020600401546132c590919063ffffffff16565b601560008573ffffffffffffffffffffffffffffffffffffffff1673ffffffffffffffffffffffffffffffffffffffff16815260200190815260200160002060040181905550611e6481601560008673ffffffffffffffffffffffffffffffffffffffff1673ffffffffffffffffffffffffffffffffffffffff168152602001908152602001600020600501546132c590919063ffffffff16565b601560008573ffffffffffffffffffffffffffffffffffffffff1673ffffffffffffffffffffffffffffffffffffffff16815260200190815260200160002060050181905550813373ffffffffffffffffffffffffffffffffffffffff168473ffffffffffffffffffffffffffffffffffffffff167fd41f7e766eebcc7ff42b11ac8691bdf864db4afc0c55e71d629d54edce460d9884604051611f089190614fc5565b60405180910390a4601560008473ffffffffffffffffffffffffffffffffffffffff1673ffffffffffffffffffffffffffffffffffffffff16815260200190815260200160002060020160009054906101000a900473ffffffffffffffffffffffffffffffffffffffff16925050611f80565b611f93565b8080611f8b90615317565b915050611cc7565b50505b600081600001805490501415611fe7574281600101819055507f9fd565cd14c3c391679eb0cad12a14dcf7534e9d3462bcb9b67a098a9bbbc24a33604051611fde9190614d70565b60405180910390a15b600080600080611ff7863461213d565b9350935093509350846000016040518060e001604052808860ff16815260200186815260200134815260200185815260200142815260200184815260200183815250908060018154018082558091505060019003906000526020600020906007020160009091909190915060008201518160000160006101000a81548160ff021916908360ff1602179055506020820151816001015560408201518160020155606082015181600301556080820151816004015560a0820151816005015560c0820151816006015550506120d6346002546132c590919063ffffffff16565b6002819055503373ffffffffffffffffffffffffffffffffffffffff167f84e02daa69bdb087c9fe8d3041abca495512cb14e723070f6d1d4efface82e5d87863487428860405161212c969594939291906150d8565b60405180910390a250505050505050565b60008060008061214c86612b5b565b935061215786610d1a565b90506121e160148760ff1681548110612199577f4e487b7100000000000000000000000000000000000000000000000000000000600052603260045260246000fd5b9060005260206000209060030201600001546121d3620186a06121c5888a61318d90919063ffffffff16565b61320890919063ffffffff16565b61318d90919063ffffffff16565b925061225961224a6201518060148960ff168154811061222a577f4e487b7100000000000000000000000000000000000000000000000000000000600052603260045260246000fd5b90600052602060002090600302016000015461318d90919063ffffffff16565b426132c590919063ffffffff16565b915092959194509250565b61226d33613456565b1580156122a557503273ffffffffffffffffffffffffffffffffffffffff163373ffffffffffffffffffffffffffffffffffffffff16145b6122ae57600080fd5b6000601560003373ffffffffffffffffffffffffffffffffffffffff1673ffffffffffffffffffffffffffffffffffffffff1681526020019081526020016000209050600081600001805490501161233b576040517f08c379a000000000000000000000000000000000000000000000000000000000815260040161233290614f45565b60405180910390fd5b600182101561237f576040517f08c379a000000000000000000000000000000000000000000000000000000000815260040161237690614ee5565b60405180910390fd5b612394600754836132c590919063ffffffff16565b6032101580156123bb57506123b68160090154836132c590919063ffffffff16565b600a10155b6123fa576040517f08c379a00000000000000000000000000000000000000000000000000000000081526004016123f190614f65565b60405180910390fd5b61241668056bc75e2d631000008361318d90919063ffffffff16565b341015612458576040517f08c379a000000000000000000000000000000000000000000000000000000000815260040161244f90614f05565b60405180910390fd5b60006016600060065481526020019081526020016000209050612486836009546132c590919063ffffffff16565b6009819055506124a1836007546132c590919063ffffffff16565b6007819055506124be8383600801546132c590919063ffffffff16565b82600801819055506124dd8383600901546132c590919063ffffffff16565b82600901819055506124fa346005546132c590919063ffffffff16565b6005819055506000600190505b8381116125f9578160000160405180604001604052803373ffffffffffffffffffffffffffffffffffffffff16815260200161254f60016008546132c590919063ffffffff16565b815250908060018154018082558091505060019003906000526020600020906002020160009091909190915060008201518160000160006101000a81548173ffffffffffffffffffffffffffffffffffffffff021916908373ffffffffffffffffffffffffffffffffffffffff160217905550602082015181600101555050600860008154809291906125e190615317565b919050555080806125f190615317565b915050612507565b503373ffffffffffffffffffffffffffffffffffffffff167f42e6ac2176f7dd4a34030aa09cee5ccc42b4b4e28bf6868b734cdf190864d9f334600854604051612644929190614fe0565b60405180910390a2603260075414156126905761265f613469565b6000600581905550600060078190555060006008819055506006600081548092919061268a90615317565b91905055505b505050565b600081815481106126a557600080fd5b906000526020600020016000915090505481565b600080600080600080600080600080600080600a60009054906101000a900473ffffffffffffffffffffffffffffffffffffffff16600b60009054906101000a900473ffffffffffffffffffffffffffffffffffffffff16600c60009054906101000a900473ffffffffffffffffffffffffffffffffffffffff16600d60009054906101000a900473ffffffffffffffffffffffffffffffffffffffff16600e60009054906101000a900473ffffffffffffffffffffffffffffffffffffffff16600654600754600954603268056bc75e2d631000006005546004549b509b509b509b509b509b509b509b509b509b509b509b50909192939495969798999a9b565b60035481565b600061285a601560008473ffffffffffffffffffffffffffffffffffffffff1673ffffffffffffffffffffffffffffffffffffffff16815260200190815260200160002060040154601560008573ffffffffffffffffffffffffffffffffffffffff1673ffffffffffffffffffffffffffffffffffffffff1681526020019081526020016000206005015461326690919063ffffffff16565b9050919050565b600047905090565b69152d02c7e14af680000081565b600080600090505b601560008473ffffffffffffffffffffffffffffffffffffffff1673ffffffffffffffffffffffffffffffffffffffff1681526020019081526020016000206000018054905081101561297f5761296a601560008573ffffffffffffffffffffffffffffffffffffffff1673ffffffffffffffffffffffffffffffffffffffff1681526020019081526020016000206000018281548110612949577f4e487b7100000000000000000000000000000000000000000000000000000000600052603260045260246000fd5b906000526020600020906007020160020154836132c590919063ffffffff16565b9150808061297790615317565b91505061287f565b50919050565b600080600080601560008673ffffffffffffffffffffffffffffffffffffffff1673ffffffffffffffffffffffffffffffffffffffff1681526020019081526020016000206040518061014001604052908160008201805480602002602001604051908101604052809291908181526020016000905b82821015612a8657838290600052602060002090600702016040518060e00160405290816000820160009054906101000a900460ff1660ff1660ff1681526020016001820154815260200160028201548152602001600382015481526020016004820154815260200160058201548152602001600682015481525050815260200190600101906129fb565b505050508152602001600182015481526020016002820160009054906101000a900473ffffffffffffffffffffffffffffffffffffffff1673ffffffffffffffffffffffffffffffffffffffff1673ffffffffffffffffffffffffffffffffffffffff16815260200160038201548152602001600482015481526020016005820154815260200160068201548152602001600782015481526020016008820154815260200160098201548152505090508060e00151816101000151826101200151935093509350509193909250565b60025481565b600080612b6733611677565b9050601754421115612c2b57612c2381612c15612bb862015180612baa612b996017544261326690919063ffffffff16565b6103e861318d90919063ffffffff16565b61320890919063ffffffff16565b60148760ff1681548110612bf5577f4e487b7100000000000000000000000000000000000000000000000000000000600052603260045260246000fd5b9060005260206000209060030201600101546132c590919063ffffffff16565b6132c590919063ffffffff16565b915050612c7e565b60148360ff1681548110612c68577f4e487b7100000000000000000000000000000000000000000000000000000000600052603260045260246000fd5b9060005260206000209060030201600101549150505b919050565b6000601560008373ffffffffffffffffffffffffffffffffffffffff1673ffffffffffffffffffffffffffffffffffffffff168152602001908152602001600020600001805490509050919050565b600080600060148460ff1681548110612d14577f4e487b7100000000000000000000000000000000000000000000000000000000600052603260045260246000fd5b906000526020600020906003020160000154925060148460ff1681548110612d65577f4e487b7100000000000000000000000000000000000000000000000000000000600052603260045260246000fd5b906000526020600020906003020160010154915060148460ff1681548110612db6577f4e487b7100000000000000000000000000000000000000000000000000000000600052603260045260246000fd5b90600052602060002090600302016002015490509193909250565b61138881565b600080600080600080600080601560008b73ffffffffffffffffffffffffffffffffffffffff1673ffffffffffffffffffffffffffffffffffffffff1681526020019081526020016000209050806000018981548110612e60577f4e487b7100000000000000000000000000000000000000000000000000000000600052603260045260246000fd5b906000526020600020906007020160000160009054906101000a900460ff169750806000018981548110612ebd577f4e487b7100000000000000000000000000000000000000000000000000000000600052603260045260246000fd5b9060005260206000209060070201600101549650806000018981548110612f0d577f4e487b7100000000000000000000000000000000000000000000000000000000600052603260045260246000fd5b9060005260206000209060070201600201549550806000018981548110612f5d577f4e487b7100000000000000000000000000000000000000000000000000000000600052603260045260246000fd5b9060005260206000209060070201600301549450806000018981548110612fad577f4e487b7100000000000000000000000000000000000000000000000000000000600052603260045260246000fd5b9060005260206000209060070201600401549350806000018981548110612ffd577f4e487b7100000000000000000000000000000000000000000000000000000000600052603260045260246000fd5b906000526020600020906007020160050154925080600001898154811061304d577f4e487b7100000000000000000000000000000000000000000000000000000000600052603260045260246000fd5b90600052602060002090600702016006015491505092959891949750929550565b60175481565b6000601560008373ffffffffffffffffffffffffffffffffffffffff1673ffffffffffffffffffffffffffffffffffffffff168152602001908152602001600020600101549050919050565b6000601560008373ffffffffffffffffffffffffffffffffffffffff1673ffffffffffffffffffffffffffffffffffffffff168152602001908152602001600020600601549050919050565b681b1ae4d6e2ef50000081565b6000601560008373ffffffffffffffffffffffffffffffffffffffff1673ffffffffffffffffffffffffffffffffffffffff168152602001908152602001600020600401549050919050565b6000806000806000600f54601054601154601254601354945094509450945094509091929394565b6000808314156131a05760009050613202565b600082846131ae9190615240565b90508284826131bd919061520f565b146131fd576040517f08c379a00000000000000000000000000000000000000000000000000000000081526004016131f490614f25565b60405180910390fd5b809150505b92915050565b600080821161324c576040517f08c379a000000000000000000000000000000000000000000000000000000000815260040161324390614ec5565b60405180910390fd5b6000828461325a919061520f565b90508091505092915050565b6000828211156132ab576040517f08c379a00000000000000000000000000000000000000000000000000000000081526004016132a290614ea5565b60405180910390fd5b600082846132b9919061529a565b90508091505092915050565b60008082846132d491906151b9565b905083811015613319576040517f08c379a000000000000000000000000000000000000000000000000000000000815260040161331090614e85565b60405180910390fd5b8091505092915050565b600061334f620186a06133416113888561318d90919063ffffffff16565b61320890919063ffffffff16565b9050601960009054906101000a900473ffffffffffffffffffffffffffffffffffffffff1673ffffffffffffffffffffffffffffffffffffffff166108fc829081150290604051600060405180830381858888f193505050501580156133b9573d6000803e3d6000fd5b5060006133e6620186a06133d86113888661318d90919063ffffffff16565b61320890919063ffffffff16565b9050601860009054906101000a900473ffffffffffffffffffffffffffffffffffffffff1673ffffffffffffffffffffffffffffffffffffffff166108fc829081150290604051600060405180830381858888f19350505050158015613450573d6000803e3d6000fd5b50505050565b600080823b905060008111915050919050565b600060166000600654815260200190815260200160002090506000613492600160326001614947565b905060006134a4600160326002614947565b905060006134b6600160326003614947565b905060006134c8600160326004614947565b905060006134da600160326005614947565b9050600080600554905060006004541115613541576000613507601460045461320890919063ffffffff16565b905061351e816005546132c590919063ffffffff16565b6005819055506135398160045461326690919063ffffffff16565b600481905550505b61357c61356b606461355d600c8561318d90919063ffffffff16565b61320890919063ffffffff16565b6004546132c590919063ffffffff16565b60048190555060005b603281101561493c576000601560008b60000184815481106135d0577f4e487b7100000000000000000000000000000000000000000000000000000000600052603260045260246000fd5b906000526020600020906002020160000160009054906101000a900473ffffffffffffffffffffffffffffffffffffffff1673ffffffffffffffffffffffffffffffffffffffff1673ffffffffffffffffffffffffffffffffffffffff16815260200190815260200160002060090154146136fb576000601560008b6000018481548110613687577f4e487b7100000000000000000000000000000000000000000000000000000000600052603260045260246000fd5b906000526020600020906002020160000160009054906101000a900473ffffffffffffffffffffffffffffffffffffffff1673ffffffffffffffffffffffffffffffffffffffff1673ffffffffffffffffffffffffffffffffffffffff168152602001908152602001600020600901819055505b87896000018281548110613738577f4e487b7100000000000000000000000000000000000000000000000000000000600052603260045260246000fd5b9060005260206000209060020201600101541415613a9e576137bd60646137af6001600081548110613793577f4e487b7100000000000000000000000000000000000000000000000000000000600052603260045260246000fd5b906000526020600020015460055461318d90919063ffffffff16565b61320890919063ffffffff16565b92508860000181815481106137fb577f4e487b7100000000000000000000000000000000000000000000000000000000600052603260045260246000fd5b906000526020600020906002020160000160009054906101000a900473ffffffffffffffffffffffffffffffffffffffff1673ffffffffffffffffffffffffffffffffffffffff166108fc849081150290604051600060405180830381858888f19350505050158015613872573d6000803e3d6000fd5b5061393583601560008c60000185815481106138b7577f4e487b7100000000000000000000000000000000000000000000000000000000600052603260045260246000fd5b906000526020600020906002020160000160009054906101000a900473ffffffffffffffffffffffffffffffffffffffff1673ffffffffffffffffffffffffffffffffffffffff1673ffffffffffffffffffffffffffffffffffffffff168152602001908152602001600020600701546132c590919063ffffffff16565b601560008b6000018481548110613975577f4e487b7100000000000000000000000000000000000000000000000000000000600052603260045260246000fd5b906000526020600020906002020160000160009054906101000a900473ffffffffffffffffffffffffffffffffffffffff1673ffffffffffffffffffffffffffffffffffffffff1673ffffffffffffffffffffffffffffffffffffffff16815260200190815260200160002060070181905550886000018181548110613a24577f4e487b7100000000000000000000000000000000000000000000000000000000600052603260045260246000fd5b906000526020600020906002020160000160009054906101000a900473ffffffffffffffffffffffffffffffffffffffff16600a60006101000a81548173ffffffffffffffffffffffffffffffffffffffff021916908373ffffffffffffffffffffffffffffffffffffffff16021790555082600f819055505b86896000018281548110613adb577f4e487b7100000000000000000000000000000000000000000000000000000000600052603260045260246000fd5b9060005260206000209060020201600101541415613e4057613b5f6064613b5160018081548110613b35577f4e487b7100000000000000000000000000000000000000000000000000000000600052603260045260246000fd5b906000526020600020015460055461318d90919063ffffffff16565b61320890919063ffffffff16565b9250886000018181548110613b9d577f4e487b7100000000000000000000000000000000000000000000000000000000600052603260045260246000fd5b906000526020600020906002020160000160009054906101000a900473ffffffffffffffffffffffffffffffffffffffff1673ffffffffffffffffffffffffffffffffffffffff166108fc849081150290604051600060405180830381858888f19350505050158015613c14573d6000803e3d6000fd5b50613cd783601560008c6000018581548110613c59577f4e487b7100000000000000000000000000000000000000000000000000000000600052603260045260246000fd5b906000526020600020906002020160000160009054906101000a900473ffffffffffffffffffffffffffffffffffffffff1673ffffffffffffffffffffffffffffffffffffffff1673ffffffffffffffffffffffffffffffffffffffff168152602001908152602001600020600701546132c590919063ffffffff16565b601560008b6000018481548110613d17577f4e487b7100000000000000000000000000000000000000000000000000000000600052603260045260246000fd5b906000526020600020906002020160000160009054906101000a900473ffffffffffffffffffffffffffffffffffffffff1673ffffffffffffffffffffffffffffffffffffffff1673ffffffffffffffffffffffffffffffffffffffff16815260200190815260200160002060070181905550886000018181548110613dc6577f4e487b7100000000000000000000000000000000000000000000000000000000600052603260045260246000fd5b906000526020600020906002020160000160009054906101000a900473ffffffffffffffffffffffffffffffffffffffff16600b60006101000a81548173ffffffffffffffffffffffffffffffffffffffff021916908373ffffffffffffffffffffffffffffffffffffffff160217905550826010819055505b85896000018281548110613e7d577f4e487b7100000000000000000000000000000000000000000000000000000000600052603260045260246000fd5b90600052602060002090600202016001015414156141e357613f026064613ef46001600281548110613ed8577f4e487b7100000000000000000000000000000000000000000000000000000000600052603260045260246000fd5b906000526020600020015460055461318d90919063ffffffff16565b61320890919063ffffffff16565b9250886000018181548110613f40577f4e487b7100000000000000000000000000000000000000000000000000000000600052603260045260246000fd5b906000526020600020906002020160000160009054906101000a900473ffffffffffffffffffffffffffffffffffffffff1673ffffffffffffffffffffffffffffffffffffffff166108fc849081150290604051600060405180830381858888f19350505050158015613fb7573d6000803e3d6000fd5b5061407a83601560008c6000018581548110613ffc577f4e487b7100000000000000000000000000000000000000000000000000000000600052603260045260246000fd5b906000526020600020906002020160000160009054906101000a900473ffffffffffffffffffffffffffffffffffffffff1673ffffffffffffffffffffffffffffffffffffffff1673ffffffffffffffffffffffffffffffffffffffff168152602001908152602001600020600701546132c590919063ffffffff16565b601560008b60000184815481106140ba577f4e487b7100000000000000000000000000000000000000000000000000000000600052603260045260246000fd5b906000526020600020906002020160000160009054906101000a900473ffffffffffffffffffffffffffffffffffffffff1673ffffffffffffffffffffffffffffffffffffffff1673ffffffffffffffffffffffffffffffffffffffff16815260200190815260200160002060070181905550886000018181548110614169577f4e487b7100000000000000000000000000000000000000000000000000000000600052603260045260246000fd5b906000526020600020906002020160000160009054906101000a900473ffffffffffffffffffffffffffffffffffffffff16600c60006101000a81548173ffffffffffffffffffffffffffffffffffffffff021916908373ffffffffffffffffffffffffffffffffffffffff160217905550826011819055505b84896000018281548110614220577f4e487b7100000000000000000000000000000000000000000000000000000000600052603260045260246000fd5b9060005260206000209060020201600101541415614586576142a56064614297600160038154811061427b577f4e487b7100000000000000000000000000000000000000000000000000000000600052603260045260246000fd5b906000526020600020015460055461318d90919063ffffffff16565b61320890919063ffffffff16565b92508860000181815481106142e3577f4e487b7100000000000000000000000000000000000000000000000000000000600052603260045260246000fd5b906000526020600020906002020160000160009054906101000a900473ffffffffffffffffffffffffffffffffffffffff1673ffffffffffffffffffffffffffffffffffffffff166108fc849081150290604051600060405180830381858888f1935050505015801561435a573d6000803e3d6000fd5b5061441d83601560008c600001858154811061439f577f4e487b7100000000000000000000000000000000000000000000000000000000600052603260045260246000fd5b906000526020600020906002020160000160009054906101000a900473ffffffffffffffffffffffffffffffffffffffff1673ffffffffffffffffffffffffffffffffffffffff1673ffffffffffffffffffffffffffffffffffffffff168152602001908152602001600020600701546132c590919063ffffffff16565b601560008b600001848154811061445d577f4e487b7100000000000000000000000000000000000000000000000000000000600052603260045260246000fd5b906000526020600020906002020160000160009054906101000a900473ffffffffffffffffffffffffffffffffffffffff1673ffffffffffffffffffffffffffffffffffffffff1673ffffffffffffffffffffffffffffffffffffffff1681526020019081526020016000206007018190555088600001818154811061450c577f4e487b7100000000000000000000000000000000000000000000000000000000600052603260045260246000fd5b906000526020600020906002020160000160009054906101000a900473ffffffffffffffffffffffffffffffffffffffff16600d60006101000a81548173ffffffffffffffffffffffffffffffffffffffff021916908373ffffffffffffffffffffffffffffffffffffffff160217905550826012819055505b838960000182815481106145c3577f4e487b7100000000000000000000000000000000000000000000000000000000600052603260045260246000fd5b906000526020600020906002020160010154141561492957614648606461463a600160048154811061461e577f4e487b7100000000000000000000000000000000000000000000000000000000600052603260045260246000fd5b906000526020600020015460055461318d90919063ffffffff16565b61320890919063ffffffff16565b9250886000018181548110614686577f4e487b7100000000000000000000000000000000000000000000000000000000600052603260045260246000fd5b906000526020600020906002020160000160009054906101000a900473ffffffffffffffffffffffffffffffffffffffff1673ffffffffffffffffffffffffffffffffffffffff166108fc849081150290604051600060405180830381858888f193505050501580156146fd573d6000803e3d6000fd5b506147c083601560008c6000018581548110614742577f4e487b7100000000000000000000000000000000000000000000000000000000600052603260045260246000fd5b906000526020600020906002020160000160009054906101000a900473ffffffffffffffffffffffffffffffffffffffff1673ffffffffffffffffffffffffffffffffffffffff1673ffffffffffffffffffffffffffffffffffffffff168152602001908152602001600020600701546132c590919063ffffffff16565b601560008b6000018481548110614800577f4e487b7100000000000000000000000000000000000000000000000000000000600052603260045260246000fd5b906000526020600020906002020160000160009054906101000a900473ffffffffffffffffffffffffffffffffffffffff1673ffffffffffffffffffffffffffffffffffffffff1673ffffffffffffffffffffffffffffffffffffffff168152602001908152602001600020600701819055508860000181815481106148af577f4e487b7100000000000000000000000000000000000000000000000000000000600052603260045260246000fd5b906000526020600020906002020160000160009054906101000a900473ffffffffffffffffffffffffffffffffffffffff16600e60006101000a81548173ffffffffffffffffffffffffffffffffffffffff021916908373ffffffffffffffffffffffffffffffffffffffff160217905550826013819055505b808061493490615317565b915050613585565b505050505050505050565b600080614967600161495986886149f3565b6132c590919063ffffffff16565b9050600085905060006149e4826149d68561498b894261318d90919063ffffffff16565b61499e8a4461318d90919063ffffffff16565b6040516020016149af929190614fe0565b6040516020818303038152906040528051906020012060001c614a1b90919063ffffffff16565b6132c590919063ffffffff16565b90508093505050509392505050565b600081831115614a10578183614a09919061529a565b9050614a15565b600090505b92915050565b60008183614a299190615360565b905092915050565b600081359050614a4081615601565b92915050565b600081359050614a5581615618565b92915050565b600081359050614a6a8161562f565b92915050565b600060208284031215614a8257600080fd5b6000614a9084828501614a31565b91505092915050565b60008060408385031215614aac57600080fd5b6000614aba85828601614a31565b9250506020614acb85828601614a46565b9150509250929050565b60008060408385031215614ae857600080fd5b6000614af685828601614a31565b9250506020614b0785828601614a5b565b9150509250929050565b600060208284031215614b2357600080fd5b6000614b3184828501614a46565b91505092915050565b600060208284031215614b4c57600080fd5b6000614b5a84828501614a5b565b91505092915050565b60008060408385031215614b7657600080fd5b6000614b8485828601614a5b565b9250506020614b9585828601614a46565b9150509250929050565b614ba8816152ce565b82525050565b6000614bbb6015836151a8565b9150614bc6826153ef565b602082019050919050565b6000614bde6020836151a8565b9150614be982615418565b602082019050919050565b6000614c01601b836151a8565b9150614c0c82615441565b602082019050919050565b6000614c24601e836151a8565b9150614c2f8261546a565b602082019050919050565b6000614c47601a836151a8565b9150614c5282615493565b602082019050919050565b6000614c6a601e836151a8565b9150614c75826154bc565b602082019050919050565b6000614c8d600c836151a8565b9150614c98826154e5565b602082019050919050565b6000614cb06021836151a8565b9150614cbb8261550e565b604082019050919050565b6000614cd36018836151a8565b9150614cde8261555d565b602082019050919050565b6000614cf66020836151a8565b9150614d0182615586565b602082019050919050565b6000614d19600c836151a8565b9150614d24826155af565b602082019050919050565b6000614d3c600a836151a8565b9150614d47826155d8565b602082019050919050565b614d5b81615300565b82525050565b614d6a8161530a565b82525050565b6000602082019050614d856000830184614b9f565b92915050565b600061018082019050614da1600083018f614b9f565b614dae602083018e614b9f565b614dbb604083018d614b9f565b614dc8606083018c614b9f565b614dd5608083018b614b9f565b614de260a083018a614d52565b614def60c0830189614d52565b614dfc60e0830188614d52565b614e0a610100830187614d52565b614e18610120830186614d52565b614e26610140830185614d52565b614e34610160830184614d52565b9d9c50505050505050505050505050565b60006020820190508181036000830152614e5e81614bae565b9050919050565b60006020820190508181036000830152614e7e81614bd1565b9050919050565b60006020820190508181036000830152614e9e81614bf4565b9050919050565b60006020820190508181036000830152614ebe81614c17565b9050919050565b60006020820190508181036000830152614ede81614c3a565b9050919050565b60006020820190508181036000830152614efe81614c5d565b9050919050565b60006020820190508181036000830152614f1e81614c80565b9050919050565b60006020820190508181036000830152614f3e81614ca3565b9050919050565b60006020820190508181036000830152614f5e81614cc6565b9050919050565b60006020820190508181036000830152614f7e81614ce9565b9050919050565b60006020820190508181036000830152614f9e81614d0c565b9050919050565b60006020820190508181036000830152614fbe81614d2f565b9050919050565b6000602082019050614fda6000830184614d52565b92915050565b6000604082019050614ff56000830185614d52565b6150026020830184614d52565b9392505050565b600060608201905061501e6000830186614d52565b61502b6020830185614d52565b6150386040830184614d52565b949350505050565b60006080820190506150556000830187614d52565b6150626020830186614d52565b61506f6040830185614d52565b61507c6060830184614d52565b95945050505050565b600060a08201905061509a6000830188614d52565b6150a76020830187614d52565b6150b46040830186614d52565b6150c16060830185614d52565b6150ce6080830184614d52565b9695505050505050565b600060c0820190506150ed6000830189614d61565b6150fa6020830188614d52565b6151076040830187614d52565b6151146060830186614d52565b6151216080830185614d52565b61512e60a0830184614d52565b979650505050505050565b600060e08201905061514e600083018a614d61565b61515b6020830189614d52565b6151686040830188614d52565b6151756060830187614d52565b6151826080830186614d52565b61518f60a0830185614d52565b61519c60c0830184614d52565b98975050505050505050565b600082825260208201905092915050565b60006151c482615300565b91506151cf83615300565b9250827fffffffffffffffffffffffffffffffffffffffffffffffffffffffffffffffff0382111561520457615203615391565b5b828201905092915050565b600061521a82615300565b915061522583615300565b925082615235576152346153c0565b5b828204905092915050565b600061524b82615300565b915061525683615300565b9250817fffffffffffffffffffffffffffffffffffffffffffffffffffffffffffffffff048311821515161561528f5761528e615391565b5b828202905092915050565b60006152a582615300565b91506152b083615300565b9250828210156152c3576152c2615391565b5b828203905092915050565b60006152d9826152e0565b9050919050565b600073ffffffffffffffffffffffffffffffffffffffff82169050919050565b6000819050919050565b600060ff82169050919050565b600061532282615300565b91507fffffffffffffffffffffffffffffffffffffffffffffffffffffffffffffffff82141561535557615354615391565b5b600182019050919050565b600061536b82615300565b915061537683615300565b925082615386576153856153c0565b5b828206905092915050565b7f4e487b7100000000000000000000000000000000000000000000000000000000600052601160045260246000fd5b7f4e487b7100000000000000000000000000000000000000000000000000000000600052601260045260246000fd5b7f5573657220686173206e6f206469766964656e64730000000000000000000000600082015250565b7f7769746864726177616c7320617661696c61626c65206f6e6365206120646179600082015250565b7f536166654d6174683a206164646974696f6e206f766572666c6f770000000000600082015250565b7f536166654d6174683a207375627472616374696f6e206f766572666c6f770000600082015250565b7f536166654d6174683a206469766973696f6e206279207a65726f000000000000600082015250565b7f4d696e696d756d206e756d626572206f66207469636b65747320697320310000600082015250565b7f57726f6e6720416d6f756e740000000000000000000000000000000000000000600082015250565b7f536166654d6174683a206d756c7469706c69636174696f6e206f766572666c6f60008201527f7700000000000000000000000000000000000000000000000000000000000000602082015250565b7f4465706f73697420697320726571756972652066697273740000000000000000600082015250565b7f4d6178696d756d206e756d626572206f66207469636b65747320657863656564600082015250565b7f496e76616c696420706c616e0000000000000000000000000000000000000000600082015250565b7f4e6f74204c61756e636800000000000000000000000000000000000000000000600082015250565b61560a816152ce565b811461561557600080fd5b50565b61562181615300565b811461562c57600080fd5b50565b6156388161530a565b811461564357600080fd5b5056fea26469706673582212200ca64426fe477180223748522786d552ca615b758d316930dc70af88189c493d64736f6c63430008040033",
  "immutableReferences": {},
  "source": "// SPDX-License-Identifier: MIT\n/* \nCosas que tiene que tener:\n- Reinversion tradicional fija (30%).\n- Retirar cuando uno quiera, si retira pierde el hold bonus.\n- Maximo de inversion \n- 1 plan\n\nIdeas:\n- Hold bonus combinado con el porcentaje de reinversion (cada dia que pasa dejando la plata sumo interes a mi inversion, si retiro tengo que reinvertir mas)\n- Porcentaje de reinversion como tickets de loteria.\n\nPremisas:\n- Que sea duradero (minimo de 2 meses)\n*/\n\npragma solidity >=0.8.4;\n\ncontract ThunderHold {\n\tusing SafeMath for uint256;\n\n    uint256 constant public INVEST_MAX_AMOUNT = 100000 ether; // 100.000 TT\n\tuint256 constant public INVEST_MIN_AMOUNT = 500 ether; //500 TT\n\tuint256[] public REFERRAL_PERCENTS = [40e2, 20e2, 10e2, 5e2, 5e2]; //4%,2%,1%,0.5%,0.5%\n\tuint256 constant public PROJECT_FEE = 50e2;\n\tuint256 constant public MARKETING_FEE = 50e2;\n\tuint256 constant public PERCENT_STEP = 10e2;\n\tuint256 constant public PERCENTS_DIVIDER = 1000e2;\n\tuint256 constant public TIME_STEP = 1 days; // 1 days\n\tuint256 internal constant LOTTOBONUS = 5; // Bonus for pay a one ticket, acumulative.\n    uint256 internal constant LOTTOTICKET = 100 ether; // 100 TT, value ticket\n    uint256[] internal LOTTO_WIN_PERCENT = [25, 15, 10, 5, 2]; // Awards Lotto\n    uint256 constant internal LOTTO_TICKET_LIMIT = 50; // 50 Entrys Lotto\n    uint256 constant internal LOTTO_USER_LIMIT = 10; // 10 Entrys Lotto per user\n\n\tuint256 public totalStaked;\n\tuint256 public totalRefBonus;\n\t\n\tuint256 lottoBag;\n    uint256 lottoCurrentPot;\n    uint256 lottoCycles;\n    uint256 lottoCurrentTicketsCount;\n    uint256 lottoLastTicket;\n    uint256 lottoTotalTicketsCount;\n    address lottoLastWin1a;\n    address lottoLastWin2a;\n    address lottoLastWin3a;\n    address lottoLastWin4a;\n    address lottoLastWin5a;\n    uint256 PLastWin1;\n    uint256 PLastWin2;\n    uint256 PLastWin3;\n    uint256 PLastWin4;\n    uint256 PLastWin5;\n\n\n    struct cLotto {\n      address lottoId;\n      uint256 ticketNumber;\n    }\n    \n    struct nLotto {\n      cLotto[] currentLotto;\n    }\n\n    struct Plan {\n        uint256 time;\n        uint256 percent;\n        uint256 reinvest;\n    }\n\n    Plan[] internal plans;\n\n\tstruct Deposit {\n        uint8 plan;\n\t\tuint256 percent;\n\t\tuint256 amount;\n\t\tuint256 profit;\n\t\tuint256 start;\n\t\tuint256 finish;\n\t\tuint256 reinvest;\n\t}\n\n\tstruct User {\n\t\tDeposit[] deposits;\n\t\tuint256 checkpoint;\n\t\taddress referrer;\n\t\tuint256 referrals;\n\t\tuint256 bonus;\n\t\tuint256 totalBonus;\n\t\tuint256 totalReinvested;\n\t\tuint256 lottobonus;\n        uint256 lottoparticipations;\n        uint256 lottolimit;\n\t}\n\n\tmapping (address => User) internal users;\n\tmapping (uint256 => nLotto) internal nlottos;\n\n\tuint256 public startUNIX;\n\taddress payable private marketingWallet;\n\taddress payable private developerWallet;\n    \n\n\tevent Newbie(address user);\n\tevent NewDeposit(address indexed user, uint8 plan, uint256 percent, uint256 amount, uint256 profit, uint256 start, uint256 finish);\n\tevent Withdrawn(address indexed user, uint256 amount);\n\tevent RefBonus(address indexed referrer, address indexed referral, uint256 indexed level, uint256 amount);\n\tevent NewParticipantLotto(address indexed user, uint256 amount, uint256 pt);\n\n\tconstructor(address payable wallet, uint256 start){\n\t\trequire(!isContract(wallet) && start > 0);\n\t\tmarketingWallet = wallet;\n\t\tdeveloperWallet = payable(msg.sender);\n\t\tstartUNIX = start;\n\n        // Agregamos solo 1 plan los demas los comentamos \n        plans.push(Plan(7, 200e2, 300e2)); // 20% per day for 7 days, 30% reinvest\n        //plans.push(Plan(15, 180e2, 300e2)); // 18% per day for 15 days, 30% reinvest\n        //plans.push(Plan(20, 170e2, 200e2)); // 17% per day for 20 days, 20% reinvest\n\t}\n\t\n\tfunction Feepayout(uint256 amt)internal{\n\t    uint256 developerfee = amt.mul(PROJECT_FEE).div(PERCENTS_DIVIDER);\n\t\tdeveloperWallet.transfer(developerfee);\n\t\tuint256 marketingFee = amt.mul(MARKETING_FEE).div(PERCENTS_DIVIDER);\n\t\tmarketingWallet.transfer(marketingFee);\n\t}\n\n\tfunction invest(address referrer, uint8 plan) public payable {\n\t    require(block.timestamp >= startUNIX ,\"Not Launch\");\n\t\trequire(msg.value >= INVEST_MIN_AMOUNT);\n        require(msg.value <= INVEST_MAX_AMOUNT);\n        require(plan < 3, \"Invalid plan\");\n\n\t\tFeepayout(msg.value); // Cobran devs\n\t\t\n\t\tUser storage user = users[msg.sender];\n\t\tif (user.referrer == address(0)) {\n\t\t\tif (users[referrer].deposits.length > 0 && referrer != msg.sender) {\n\t\t\t\tuser.referrer = referrer;\n\t\t\t}else{\n\t\t\t    user.referrer = developerWallet;\n\t\t\t}\n\t\t\taddress upline = user.referrer;\n\t\t\tfor (uint256 i = 0; i < 5; i++) {\n\t\t\t\tif (upline != address(0)) {\n\t\t\t\t\tusers[upline].referrals = users[upline].referrals.add(1);\n\t\t\t\t\tif (users[upline].referrer == address(0)){\n\t\t\t        users[upline].referrer = developerWallet;\n\t\t\t        }\n\t\t\t\t\tupline = users[upline].referrer;\n\t\t\t\t} else break;\n\t\t\t}\n\t\t}\n\t\tif (user.referrer != address(0)) {\n\t\t\taddress upline = user.referrer;\n\t\t\tfor (uint256 i = 0; i < 5; i++) {\n\t\t\t\tif (upline != address(0)) {\n\t\t\t\t\tuint256 amount = msg.value.mul(REFERRAL_PERCENTS[i]).div(PERCENTS_DIVIDER);\n\t\t\t\t\tusers[upline].bonus = users[upline].bonus.add(amount);\n\t\t\t\t\tusers[upline].totalBonus = users[upline].totalBonus.add(amount);\n\t\t\t\t\temit RefBonus(upline, msg.sender, i, amount);\n\t\t\t\t\tupline = users[upline].referrer;\n\t\t\t\t} else break;\n\t\t\t}\n\n\t\t}\n\n\t\tif (user.deposits.length == 0) {\n\t\t\tuser.checkpoint = block.timestamp;\n\t\t\temit Newbie(msg.sender);\n\t\t}\n\n\t\t(uint256 percent, uint256 profit, uint256 finish,uint256 reinvest) = getResult(plan, msg.value);\n\t\tuser.deposits.push(Deposit(plan, percent, msg.value, profit, block.timestamp, finish,reinvest));\n\n\t\ttotalStaked = totalStaked.add(msg.value);\n\t\temit NewDeposit(msg.sender, plan, percent, msg.value, profit, block.timestamp, finish);\n\t}\n\n\tfunction withdraw() public {\n\t\tUser storage user = users[msg.sender];\n\t\trequire(getTimer(msg.sender) < block.timestamp, \"withdrawals available once a day\");\n\t\tuint256 totalAmount;\n\t\tuint256 totalReinvestAmount;\n\n\t\tfor (uint256 i = 0; i < user.deposits.length; i++) {\n\t\t\tif (user.checkpoint < user.deposits[i].finish) {\n\t\t\t\t\tuint256 share = user.deposits[i].amount.mul(user.deposits[i].percent).div(PERCENTS_DIVIDER);\n\t\t\t\t\tuint256 from = user.deposits[i].start > user.checkpoint ? user.deposits[i].start : user.checkpoint;\n\t\t\t\t\tuint256 to = user.deposits[i].finish < block.timestamp ? user.deposits[i].finish : block.timestamp;\n\t\t\t\t\tif (from < to) {\n\t\t\t\t\t    uint256 payout = share.mul(to.sub(from)).div(TIME_STEP);\n\t\t\t\t\t    uint256 reinvest = payout.mul(user.deposits[i].reinvest).div(PERCENTS_DIVIDER);\n\t\t\t\t\t    user.deposits[i].amount = user.deposits[i].amount.add(reinvest);\n\t\t\t\t\t    payout = payout.sub(reinvest);\n\t\t\t\t\t\ttotalAmount = totalAmount.add(payout);\n\t\t\t\t\t\ttotalReinvestAmount = totalReinvestAmount.add(reinvest);\n\t\t\t\t\t}\n\t\t\t}\n\t\t}\n\n\t\tuint256 referralBonus = getUserReferralBonus(msg.sender);\n\t\tif (referralBonus > 0) {\n\t\t\tuser.bonus = 0;\n\t\t\ttotalAmount = totalAmount.add(referralBonus);\n\t\t}\n\t\t\n\t    user.totalReinvested = user.totalReinvested.add(totalReinvestAmount);\n\t\trequire(totalAmount > 0, \"User has no dividends\");\n\t\tuint256 contractBalance = address(this).balance;\n\t\tif (contractBalance < totalAmount) {\n\t\t\ttotalAmount = contractBalance;\n\t\t}\n\n\t\tuser.checkpoint = block.timestamp;\n\t    // uint256 developerfee = totalReinvestAmount.mul(PROJECT_FEE).div(PERCENTS_DIVIDER);\n\t\t// developerWallet.transfer(developerfee.div(2));\n\t\t// uint256 marketingFee = totalReinvestAmount.mul(MARKETING_FEE).div(PERCENTS_DIVIDER);\n\t\t// marketingWallet.transfer(marketingFee.div(2));\n        // No sacar comision de las reinversiones para que el contrato no se vaya debilitando\n\t\t\n\t\t\n\t\tpayable(msg.sender).transfer(totalAmount);\n\n\t\temit Withdrawn(msg.sender, totalAmount);\n\n\t}\n\t\n\tfunction lottoDeposit(uint256 ticketsQuantity) external payable {\n        require(!isContract(msg.sender) && msg.sender == tx.origin);\n        User storage user = users[msg.sender];\n        require(user.deposits.length > 0 ,\"Deposit is require first\");\n        require(ticketsQuantity >= 1, \"Minimum number of tickets is 1\");\n        require(LOTTO_TICKET_LIMIT >= ticketsQuantity.add(lottoCurrentTicketsCount) && LOTTO_USER_LIMIT >= ticketsQuantity.add(user.lottolimit), \"Maximum number of tickets exceed\"); \n        require(msg.value >= ticketsQuantity.mul(LOTTOTICKET), \"Wrong Amount\");\n        nLotto storage nlotto = nlottos[lottoCycles];\n        \n        lottoTotalTicketsCount = lottoTotalTicketsCount.add(ticketsQuantity);\n        lottoCurrentTicketsCount = lottoCurrentTicketsCount.add(ticketsQuantity);\n        user.lottoparticipations = user.lottoparticipations.add(ticketsQuantity);\n        user.lottolimit = user.lottolimit.add(ticketsQuantity);\n        \n        lottoCurrentPot = lottoCurrentPot.add(msg.value); \n        \n        \n        for(uint256 i = 1; i <= ticketsQuantity; i++) {\n            nlotto.currentLotto.push(cLotto(msg.sender, lottoLastTicket.add(1)));\n            lottoLastTicket++;\n        } \n            emit NewParticipantLotto(msg.sender, msg.value, lottoLastTicket);\n            \n        if (lottoCurrentTicketsCount == LOTTO_TICKET_LIMIT) {\n            payLottoWin();\n            \n            lottoCurrentPot = 0;\n            lottoCurrentTicketsCount = 0;\n            lottoLastTicket = 0;\n            lottoCycles++;\n        }\n    }\n    \n    function getRaceWin(uint256 fr, uint256 to, uint256 mud) view internal returns (uint256) { \n        uint256 A = (minZero(to, fr)).add(1); // 50 siempre\n        uint256 B = fr; // 1 siempre\n        uint256 value = uint256(uint256(keccak256(abi.encode(block.timestamp.mul(mud), block.difficulty.mul(mud)))).mod(A)).add(B); // Se resuelve con el resto y agregandole uno, el hash es aleatorio gracias al abi.encoded del timestamp\n        return value; // Retorna un numero del 1 al 50\n    }\n    \n    function payLottoWin() internal {\n        nLotto storage nlotto = nlottos[lottoCycles];   \n            \n        uint256 win1 = getRaceWin(1, LOTTO_TICKET_LIMIT, 1);\n        uint256 win2 = getRaceWin(1, LOTTO_TICKET_LIMIT, 2);\n        uint256 win3 = getRaceWin(1, LOTTO_TICKET_LIMIT, 3);\n        uint256 win4 = getRaceWin(1, LOTTO_TICKET_LIMIT, 4);\n        uint256 win5 = getRaceWin(1, LOTTO_TICKET_LIMIT, 5);\n        uint256 profit;\n       \n        //Feepayout(lottoCurrentPot); // Cobran los devs\n        \n        uint256 da = lottoCurrentPot; \n        if (lottoBag > 0){\n            uint256 LBM = lottoBag.div(20);    \n            lottoCurrentPot = lottoCurrentPot.add(LBM);\n            lottoBag = lottoBag.sub(LBM);\n            }\n        \n        lottoBag = lottoBag.add(da.mul(12).div(100));\n        \n        for(uint256 i = 0; i < LOTTO_TICKET_LIMIT; i++) {\n            \n            if (users[nlotto.currentLotto[i].lottoId].lottolimit != 0) {\n                users[nlotto.currentLotto[i].lottoId].lottolimit = 0;\n           }\n            \n           if (nlotto.currentLotto[i].ticketNumber == win1) {\n               profit = (lottoCurrentPot.mul(LOTTO_WIN_PERCENT[0])).div(100);\n               payable(address(uint160(nlotto.currentLotto[i].lottoId))).transfer(profit);\n               users[nlotto.currentLotto[i].lottoId].lottobonus = (users[nlotto.currentLotto[i].lottoId].lottobonus).add(profit);\n               lottoLastWin1a = nlotto.currentLotto[i].lottoId;\n               PLastWin1 = profit;\n           }\n           if (nlotto.currentLotto[i].ticketNumber == win2) {\n               profit = (lottoCurrentPot.mul(LOTTO_WIN_PERCENT[1])).div(100);\n               payable(address(uint160(nlotto.currentLotto[i].lottoId))).transfer(profit);\n               users[nlotto.currentLotto[i].lottoId].lottobonus = (users[nlotto.currentLotto[i].lottoId].lottobonus).add(profit);\n               lottoLastWin2a = nlotto.currentLotto[i].lottoId;\n               PLastWin2 = profit;\n           }\n           if (nlotto.currentLotto[i].ticketNumber == win3) {\n              profit = (lottoCurrentPot.mul(LOTTO_WIN_PERCENT[2])).div(100);\n              payable(address(uint160(nlotto.currentLotto[i].lottoId))).transfer(profit);\n              users[nlotto.currentLotto[i].lottoId].lottobonus = (users[nlotto.currentLotto[i].lottoId].lottobonus).add(profit);\n              lottoLastWin3a = nlotto.currentLotto[i].lottoId;\n              PLastWin3 = profit;\n           }\n           if (nlotto.currentLotto[i].ticketNumber == win4) {\n              profit = (lottoCurrentPot.mul(LOTTO_WIN_PERCENT[3])).div(100);\n              payable(address(uint160(nlotto.currentLotto[i].lottoId))).transfer(profit);\n              users[nlotto.currentLotto[i].lottoId].lottobonus = (users[nlotto.currentLotto[i].lottoId].lottobonus).add(profit);\n              lottoLastWin4a = nlotto.currentLotto[i].lottoId;\n              PLastWin4 = profit;\n           }\n           if (nlotto.currentLotto[i].ticketNumber == win5) {\n              profit = (lottoCurrentPot.mul(LOTTO_WIN_PERCENT[4])).div(100);\n              payable(address(uint160(nlotto.currentLotto[i].lottoId))).transfer(profit);\n              users[nlotto.currentLotto[i].lottoId].lottobonus = (users[nlotto.currentLotto[i].lottoId].lottobonus).add(profit);\n              lottoLastWin5a = nlotto.currentLotto[i].lottoId;\n              PLastWin5 = profit;\n           }\n        }\n    } \n\n\tfunction getContractBalance() public view returns (uint256) {\n\t\treturn address(this).balance;\n\t}\n\n\tfunction getPlanInfo(uint8 plan) public view returns(uint256 time, uint256 percent,uint256 reinvest) {\n\t\ttime = plans[plan].time;\n\t\tpercent = plans[plan].percent;\n\t\treinvest = plans[plan].reinvest;\n\t}\n\n   function getUserLottoRate(address userAddress) public view returns (uint256) {\n        User storage user = users[userAddress];\n        uint256 lottoparticipations = user.lottoparticipations;\n        uint256 LMultiplier = LOTTOBONUS.mul(lottoparticipations);\n            return LMultiplier;\n    }\n    \n\tfunction getPercent(uint8 plan) public view returns (uint256) {\n\t    uint256 userLottoRate = getUserLottoRate(msg.sender);\n\t\tif (block.timestamp > startUNIX) {\n\t\t\treturn plans[plan].percent.add(PERCENT_STEP.mul(block.timestamp.sub(startUNIX)).div(TIME_STEP)).add(userLottoRate);\n\t\t} else {\n\t\t\treturn plans[plan].percent;\n\t\t}\n    }\n    \n    function getReinvest(uint8 plan) public view returns (uint256 reinvest){\n        uint256 time = block.timestamp.sub(startUNIX).div(TIME_STEP);\n        if(plan == 0){\n            if (time > 25){\n                return 0;\n            }\n            else{\n                return plans[plan].reinvest.sub(time.mul(20e2)); //reinvest decreases every day by 2%\n            }\n        }\n        if(plan == 1){\n            if (time > 30){\n                return 0;\n            }\n            else{\n                return plans[plan].reinvest.sub(time.mul(10e2)); //reinvest decreases every day by 1%\n            }\n        }\n        \n        if(plan == 2){\n            if (time > 40){\n                return 0;\n            }\n            else{\n                return plans[plan].reinvest.sub(time.mul(5e2)); //reinvest decreases every day by 0.5%\n            }\n        }\n    }\n    \n    function getTimer(address userAddress) public view returns(uint256){\n        return getUserCheckpoint(userAddress).add(TIME_STEP);\n    }\n    \n\n\tfunction getResult(uint8 plan, uint256 deposit) public view returns (uint256 percent, uint256 profit, uint256 finish, uint256 reinvest) {\n\t\tpercent = getPercent(plan);\n\t\treinvest = getReinvest(plan);\n\t\t\n\t\tprofit = deposit.mul(percent).div(PERCENTS_DIVIDER).mul(plans[plan].time);\n\n\t\tfinish = block.timestamp.add(plans[plan].time.mul(TIME_STEP));\n\t}\n\n\tfunction getUserDividends(address userAddress) public view returns (uint256) {\n\t\tUser storage user = users[userAddress];\n\n\t\tuint256 totalAmount;\n\n\t\tfor (uint256 i = 0; i < user.deposits.length; i++) {\n\t\t\tif (user.checkpoint < user.deposits[i].finish) {\n\t\t\t    \n\t\t\t\t\tuint256 share = user.deposits[i].amount.mul(user.deposits[i].percent).div(PERCENTS_DIVIDER);\n\t\t\t\t\tuint256 from = user.deposits[i].start > user.checkpoint ? user.deposits[i].start : user.checkpoint;\n\t\t\t\t\tuint256 to = user.deposits[i].finish < block.timestamp ? user.deposits[i].finish : block.timestamp;\n\t\t\t\t\tif (from < to) {\n\t\t\t\t\t\ttotalAmount = totalAmount.add(share.mul(to.sub(from)).div(TIME_STEP));\n\t\t\t\t\t}\n\t\t\t\t\n\t\t\t}\n\t\t}\n\n\t\treturn totalAmount;\n\t}\n\n\tfunction getUserCheckpoint(address userAddress) public view returns(uint256) {\n\t\treturn users[userAddress].checkpoint;\n\t}\n\t\n\tfunction getUserReinvestedAmount(address userAddress) public view returns(uint256){\n\t    return users[userAddress].totalReinvested;\n\t}\n\n\tfunction getUserReferrer(address userAddress) public view returns(address) {\n\t\treturn users[userAddress].referrer;\n\t}\n\n\tfunction getUserDownlineCount(address userAddress) public view returns(uint256) {\n\t\treturn users[userAddress].referrals;\n\t}\n\n\tfunction getUserReferralBonus(address userAddress) public view returns(uint256) {\n\t\treturn users[userAddress].bonus;\n\t}\n\n\tfunction getUserReferralTotalBonus(address userAddress) public view returns(uint256) {\n\t\treturn users[userAddress].totalBonus;\n\t}\n\n\tfunction getUserReferralWithdrawn(address userAddress) public view returns(uint256) {\n\t\treturn users[userAddress].totalBonus.sub(users[userAddress].bonus);\n\t}\n\n\tfunction getUserAvailable(address userAddress) public view returns(uint256) {\n\t\treturn getUserReferralBonus(userAddress).add(getUserDividends(userAddress));\n\t}\n\n\tfunction getUserAmountOfDeposits(address userAddress) public view returns(uint256) {\n\t\treturn users[userAddress].deposits.length;\n\t}\n\n\tfunction getUserTotalDeposits(address userAddress) public view returns(uint256 amount) {\n\t\tfor (uint256 i = 0; i < users[userAddress].deposits.length; i++) {\n\t\t\tamount = amount.add(users[userAddress].deposits[i].amount);\n\t\t}\n\t}\n\n\tfunction getUserDepositInfo(address userAddress, uint256 index) public view returns(uint8 plan, uint256 percent, uint256 amount, uint256 profit, uint256 start, uint256 finish, uint256 reinvest) {\n\t    User storage user = users[userAddress];\n\n\t\tplan = user.deposits[index].plan;\n\t\tpercent = user.deposits[index].percent;\n\t\tamount = user.deposits[index].amount;\n\t\tprofit = user.deposits[index].profit;\n\t\tstart = user.deposits[index].start;\n\t\tfinish = user.deposits[index].finish;\n\t\treinvest = user.deposits[index].reinvest;\n\t}\n\t\n\tfunction getlottoStats() public view returns (address, address, address, address, address,uint256, uint256, uint256, uint256, uint256, uint256, uint256) {\n        return (lottoLastWin1a, lottoLastWin2a, lottoLastWin3a, lottoLastWin4a, lottoLastWin5a ,lottoCycles, lottoCurrentTicketsCount, lottoTotalTicketsCount, \n        LOTTO_TICKET_LIMIT, LOTTOTICKET, lottoCurrentPot, lottoBag);\n    }\n    \n    function getlottoLastPrizes() public view returns (uint256, uint256, uint256, uint256, uint256) {\n        return (PLastWin1, PLastWin2, PLastWin3, PLastWin4, PLastWin5);\n    }\n\n    function getUserlottoStats(address userAddress) public view returns (uint256, uint256, uint256) {\n    User memory user = users[userAddress];\n        return (user.lottobonus,user.lottoparticipations,user.lottolimit);\n    }\n\n\tfunction isContract(address addr) internal view returns (bool) {\n        uint size;\n        assembly { size := extcodesize(addr) }\n        return size > 0;\n    }\n    function minZero(uint256 a, uint256 b) internal pure returns(uint256) {\n        if (a > b) {\n           return a - b; \n        } else {\n           return 0;    \n        }    \n    }   \n    function maxVal(uint256 a, uint256 b) internal pure returns(uint256) {\n        if (a > b) {\n           return a; \n        } else {\n           return b;    \n        }    \n    }\n    function minVal(uint256 a, uint256 b) internal pure returns(uint256) {\n        if (a > b) {\n           return b; \n        } else {\n           return a;    \n        }    \n    }\n}\n\nlibrary SafeMath {\n    function add(uint256 a, uint256 b) internal pure returns (uint256) {\n        uint256 c = a + b;\n        require(c >= a, \"SafeMath: addition overflow\");\n        return c;\n    }\n    function sub(uint256 a, uint256 b) internal pure returns (uint256) {\n        require(b <= a, \"SafeMath: subtraction overflow\");\n        uint256 c = a - b;\n        return c;\n    }\n    function mul(uint256 a, uint256 b) internal pure returns (uint256) {\n        if (a == 0) {\n            return 0;\n        }\n        uint256 c = a * b;\n        require(c / a == b, \"SafeMath: multiplication overflow\");\n        return c;\n    }\n    function div(uint256 a, uint256 b) internal pure returns (uint256) {\n        require(b > 0, \"SafeMath: division by zero\");\n        uint256 c = a / b;\n        return c;\n    }\n    function mod(uint256 a, uint256 b) internal pure returns (uint256) {\n        return a % b;\n    }\n}",
  "sourcePath": "/home/mnunez/BNBHold/contracts/ThunderHold.sol",
  "compiler": {
    "name": "solc",
    "version": "0.8.4+commit.c7e474f2.Emscripten.clang"
  },
  "schemaVersion": "3.3.4",
  "updatedAt": "2021-04-27T01:22:30.854Z",
  "devdoc": {
    "kind": "dev",
    "methods": {},
    "version": 1
  },
  "userdoc": {
    "kind": "user",
    "methods": {},
    "version": 1
  }
}